:020000040800F2
:1000000020CF0220C5010008CD010008CB02000866
:10001000D1010008D3010008D5010008000000004C
:10002000000000000000000000000000D7010008F0
:10003000D90100080000000017020008A7670008A7
:10004000DF010008DF010008DF010008C14F0008E0
:10005000DF010008DF010008FD180008DF010008CB
:10006000DF010008DF010008DF010008DF010008F0
:10007000DF010008DF010008DF010008DF010008E0
:10008000DF010008DF010008DF010008DF010008D0
:10009000DF010008DF010008DF010008DF010008C0
:1000A000DF010008DF010008DF010008DF010008B0
:1000B0008D680008DF010008DF010008DF0100088B
:1000C000DF010008DF010008DF010008DF01000890
:1000D000DF010008B56C0008DF010008F96C0008BA
:1000E000DF010008DF010008DF010008DF01000870
:1000F000DF010008DF010008DF010008DF01000860
:10010000DF010008DF010008DF010008DF0100084F
:10011000DF010008DF010008DF010008DF0100083F
:10012000DF010008DF010008DF0100083D170008BB
:10013000DF010008DF010008DF010008DF0100081F
:10014000DF010008DF010008DF0100085D4D000845
:10015000DF010008DF010008DF010008DF010008FF
:10016000DF010008DF010008DF010008DF010008EF
:10017000DF010008DF010008DF01000800000000C7
:10018000DF010008DF010008DF010008DF010008CF
:10019000DF010008DF010008DF010008DF010008BF
:1001A000DF010008DF010008DF010008DFF810D0E0
:1001B00000F03CFB0048004785090008AFF30080D1
:1001C00020CF02200648804706480047FEE7FEE7AA
:1001D000FEE7FEE7FEE7FEE7FEE7FEE7FEE7FEE7F7
:1001E00039680008AD010008EFF3108072B670475F
:1001F00080F310887047434A1368012B04D04FF0F6
:1002000001031360404A1060404A116040484FF0BB
:10021000805101607047EFF3108272B6394801686F
:1002200051B34FF0000101603748016891B1EFF31D
:1002300009811EF0100F08BF21ED108B21E9F00F8E
:100240004FF000041EF0100F08BF012441F8044DC8
:10025000006801602D490968096808C9B1E8F00F14
:10026000002B18BFB1EC108B81F309884EF0100EF3
:10027000002B18BF2EF0100E82F310884EF0040EE3
:10028000704722490860EFF3148222F0040282F3DF
:1002900014881D494FF0000008601A494FF0010012
:1002A00008601C484FF47F01D0F8002041EA0201A9
:1002B000016017484FF080510160174800680068DE
:1002C00080F3088861B662B670471EF0040F0CBF59
:1002D000EFF30880EFF3098020E9F00F40F804ED18
:1002E00040F804ED1EF0040F0CBF80F3088880F383
:1002F000098800B511F0C0F95DF804EB4EF0040E6A
:1003000070470000FC030020F4030020F8030020E5
:1003100004ED00E020ED00E008ED00E02DE9F05FE5
:100320000546002092469B46884606468146402464
:100330001BE0284641464746224600F02FF8534628
:100340005A46C01A914110D311461846224600F071
:1003500016F82D1A67EB01084F46224601200021AE
:1003600000F00DF817EB00094E41201EA4F1010426
:10037000DFDC484631462A464346BDE8F09F202A46
:1003800004DB203A00FA02F1002070479140C2F1EC
:10039000200320FA03F3194390407047202A04DB1E
:1003A000203A21FA02F00021704721FA02F3D040EE
:1003B000C2F12002914008431946704710B5431A14
:1003C000934209D28318881803E010F8011D03F83E
:1003D000011D521EF9D210BD40EA01039B0703D054
:1003E00009E008C9121F08C0042AFAD203E011F874
:1003F000013B00F8013B521EF9D210BDD2B201E020
:1004000000F8012B491EFBD270470022F6E710B519
:1004100013460A4604461946FFF7F0FF204610BD72
:10042000421E12F8013F002BFBD111F8013B02F8EC
:10043000013B002BF9D17047421C10F8011B002929
:10044000FBD1801A704710B5002200E0521C835C7B
:100450008C5CA34201D1002BF8D1D8B2E1B2401A92
:1004600010BD30B504460020034600E05B1C9342FB
:1004700003D2E05CCD5C401BF8D030BD034611F8E0
:10048000012B00F8012B002AF9D11846704730B52E
:100490000B46014600202022012409E021FA02F542
:1004A0009D4205D303FA02F5491B04FA02F52844DC
:1004B000151EA2F10102F1DC30BD2DE9FE4F804690
:1004C00081EA0300C00F0C46009021F0004123F0A8
:1004D0000045B8EB0200A94105D2404621469046AE
:1004E0001C460B46024623F00040104347D0270D20
:1004F000C7F30A00C3F30A510290401A0190402842
:100500006BDAC3F3130040F4801B0098924620B1CD
:100510000023D2EB030A63EB0B0B01985946C0F1A1
:1005200040025046FFF72BFF06460D4650465946FF
:10053000019A00F08DF910EB08006141002487EA70
:10054000115284EAE7731A4340D0009A62B3019AC9
:10055000012A4FEA075215DC001B61EB02014FF044
:10056000004202EA0752CDE90042001C41F5801129
:1005700032462B4600F08DF903B0BDE8F08F4046BF
:100580002146F9E7001B61EB0201001C41F58013D5
:1005900000185B412018A2F5001747EB030140EA61
:1005A000D570B6196D4111E06D084FEA360645EA7F
:1005B000C0754FEA0752001B61EB0201001C41F5B8
:1005C000801149084FEA30000019514132462B464C
:1005D00003B0BDE8F04F00F04DB900980122400093
:1005E0000023D0EB020263EBE073009821464FEA50
:1005F000E074B8EB000061EB0401E9E783F000432D
:100600005BE781F0004158E72DE9FE4F81EA0304E2
:1006100004F0004421F0004100944FF0000B23F05F
:10062000004350EA01045ED052EA03045BD0C3F3F6
:100630000A54C1F30A552C44A4F2F3340194A0FBEC
:100640000254C1F3130141F48011C3F3130343F4C3
:10065000801301FB024400FB034E840A970A44EA1C
:10066000815447EA8357A4FB076802958D0A05FB6E
:1006700007854FEA932C04FB0C542705029D4FEA93
:10068000065847EA1637B5EB08056EEB070C870EE0
:10069000920E47EA811742EA8312A7FB0201B6EBEA
:1006A0000B0164EB00042B0D43EA0C335E1844EBA2
:1006B0001C50DA465146E7FB0201C5F313044FEA2A
:1006C0000B3343EA14534FEA0432019C43EA060316
:1006D000A4F10C040294009CCDE900B400F0D9F818
:1006E00003B0BDE8F08F00200146F9E72DE9F04D99
:1006F00081EA030404F0004B21F0004514464FF05A
:10070000000A23F0004150EA050220D054EA010219
:100710001DD0C5F30A570246C5F31303C1F31300F6
:10072000C1F30A5640F4801543F48013A7EB060882
:10073000101BD64608F2FD3873EB050002D308F112
:10074000010801E092185B41B8F1000F03DA0020C4
:100750000146BDE8F08D00204FF480110646844626
:100760000EE0171B73EB050705D3121B63EB0503A4
:1007700006434CEA010C49084FEA300092185B41ED
:1007800050EA0107EDD152EA030012D082EA0400D8
:1007900083EA0501084305D0101BAB4106D20122B4
:1007A000002306E000224FF0004302E06FF0010258
:1007B00053101AEB06004CEB085110EB0A0041EB0A
:1007C0000B01BDE8F04D00F055B8C1F30A52C1F37A
:1007D000130140F2FF3341F480119A4202DA002003
:1007E0000146704740F233439A42A2F2334202DCA0
:1007F0005242FFF7D3BDFFF7C2BD000030B5041E63
:1008000071F1000404DB4FF00044404264EB01014D
:10081000141E73F1000405DB1C464FF000435242E6
:1008200063EB0403994208BF904230BD064C074D6C
:1008300006E0E06840F0010394E8070098471034B0
:10084000AC42F6D3FFF7B6FCEC6001080C6101087E
:10085000202A06DBCB17203A41FA02F043EAE07384
:1008600006E041FA02F3D040C2F120029140084371
:100870001946704710B5141E73F1000408DA401CC5
:1008800041F1000192185B411A4301D120F00100AF
:1008900010BD2DE9F04D92469B4611B1B1FA81F29F
:1008A00002E0B0FA80F220329046FFF768FD04467D
:1008B0000F4640EA0A0041EA0B0153465A460843F4
:1008C00013D0114653EA010019D0C8F14002504636
:1008D000FFF764FD05460E46504659464246FFF76F
:1008E0004EFD084305D0012004E020463946BDE80E
:1008F000F08D0020054346EAE0762C4337430A9802
:100900006305E40AA0EB08000022FD0A44EA47540C
:100910000A3002D500200146E9E7010510196941B6
:10092000DDE9084500196941BDE8F04DA2E770B561
:100930008C1810F8015B15F0070301D110F8013B8A
:100940002A1106D110F8012B03E010F8016B01F811
:10095000016B5B1EF9D12B0705D40023521E0DD469
:1009600001F8013BFAE710F8013BCB1A921C03E0B7
:1009700013F8015B01F8015B521EF9D5A142D8D3EF
:10098000002070BD10B512F04DF9002010BD000020
:100990002DE9F04F754887B00025016841F004014A
:1009A0000160016801F004010591016841F0010155
:1009B0000160016801F001010591016841F0020147
:1009C0000160016801F002010591016841F0100128
:1009D0000160016801F010010591016841F0080112
:1009E00001600068802600F0080000960590012450
:1009F000CDE9015469465E4801F0D6F82003009025
:100A000069465C4801F0D0F84FF480780227CDE9C0
:100A10000084CDE902476946574801F0C5F8102027
:100A200000906946524801F0BFF8402000906946A6
:100A3000504801F0B9F84FF0200969464F48CDF809
:100A4000009001F0B1F869464A48009601F0ACF810
:100A50004FF4007A69464A48CDF800A001F0A4F8A6
:100A60004FF4806B69464648CDF800B0029701F01C
:100A70009BF8012210213E4801F089F90122C02192
:100A80003C4801F084F9012241463B4801F07FF9DE
:100A9000012251463A4801F07AF900225946384875
:100AA00001F075F901222021344801F070F94FF46A
:100AB000C050CDE9000569460294314801F074F850
:100AC00060038DE8B10069462D4801F06DF84FF4E0
:100AD0006040CDE9000569460294264801F064F8BB
:100AE00069462648CDF8008001F05EF80096CDE911
:100AF000014569462148039501F056F80097CDE974
:100B0000014569461E48039501F04EF80094CDE971
:100B1000014569461A48039501F046F8CDF8009062
:100B2000CDE901546946134801F03EF8CDE900646F
:100B300069461048CDE9024501F036F8012202214C
:100B40000F4801F024F9002201210D4801F01FF99E
:100B500001228021094801F01AF90022802105486C
:100B600001F015F907B0BDE8F08F00003038024001
:100B7000000802400004024000000240000C024055
:100B80000010024010B503F02BFF642008F03EFF78
:100B900007F0D2FB05F0CAFB07F08BFD28210846C1
:100BA00007F06AFD00221146202003F09FFE0AF0A4
:100BB0006BF80F4801220FA100680AF001FA0AF051
:100BC00075FF48B103F00CFF24210BA2084605F085
:100BD00009FD08A012F066FF4FF4FA6008F016FF56
:100BE00003F0B6FBBDE8104006A007F0FBBE000016
:100BF000B8250020303A00005570646174696E6752
:100C00002E2E2E00646F6E650A000000002213462F
:100C100001E08354521C8A42FBDB70472DE9FE4FF2
:100C20006A2002900220C1010190474801F0AAF811
:100C30007A26782707244FF076094FF0740A4FF090
:100C4000720B4FF001080025C8B16E226C202346BC
:100C50000095019903F066FF5A46702023460095DF
:100C6000019903F05FFF324638462346009501990B
:100C700003F058FF4A465046234600954CE04FF497
:100C80000041324801F07EF890B15A467020234668
:100C90000095019903F046FF3246384623460095F9
:100CA000019903F03FFF4A465046234600952BE04A
:100CB0004FF48041254801F065F858B14A46504646
:100CC00023460095019903F02DFF3246384623460E
:100CD000009511E04FF400511C4801F053F880B327
:100CE0000095234632463846019903F01BFF234600
:100CF0004A465046CDF80080019903F013FF234681
:100D00005A467020CDF80080019903F00BFF6E2247
:100D100023466C20CDF80080019903F003FF7C246A
:100D200006237E2203212046CDF8008003F0FAFE40
:100D3000029803B029462246BDE8F04F092303F08C
:100D4000CFBECDF80080CCE7000C0240000402408A
:100D50002DE9F84F04465F264FF009094FF0650B67
:100D60004FF0030A009000254B465A465146304644
:100D700003F04CFE53465A4649463046009403F071
:100D800045FE4FF062080C2742463B462946104676
:100D9000009403F03BFE53465A46294640460094D1
:100DA00003F034FE4B465A4639464046009403F061
:100DB0002DFE0623632202213046009403F026FE16
:100DC000BDE8F84F03F07EBF2DE9FC5F02204FF035
:100DD0000109CDE900906A2406237E2203217C20AC
:100DE00003F0A0FE09237C220021204603F078FEB8
:100DF00001200726009033466E226C20019903F0F3
:100E000091FE01204FF0720B4FF0700A0090504697
:100E100007235A46019903F085FE01207A2478259C
:100E20000090224628460723019903F07BFE01200B
:100E300076274FF0740800903A4640460723019900
:100E400003F070FE4FF480717F4800F09BFFE8B321
:100E5000002000906E226C203346019903F062FE60
:100E6000002000905A4650463346019903F05AFE3E
:100E700000200090224628463346019903F052FE96
:100E8000002000903A4640463346019903F04AFE5E
:100E90006E226C203346CDF80090019903F042FE9B
:100EA0005A4650463346CDF80090019903F03AFE79
:100EB000224628463346CDF80090019903F032FED1
:100EC0003A4640463346CDF8009000E004E00199F0
:100ED00003F028FEBDE8FC9F4FF400415B4800F0A2
:100EE00051FFE8B3002000905A465046334601991E
:100EF00003F018FE00200090224628463346019950
:100F000003F010FE002000903A4640463346019917
:100F100003F008FE6E226C203346CDF80090019954
:100F200003F000FE4FF4967011F0AFFA5A465046A7
:100F30003346CDF80090019903F0F4FD4FF496701C
:100F400011F0A3FA3A4640463346CDF80090019995
:100F500003F0E8FD4FF4967011F097FA224600E096
:100F60000BE028463346CDF80090019903F0DAFDF6
:100F70004FF4967011F089FA8AE74FF480413348B4
:100F800000F000FFA0B3002000903A4640463346F0
:100F9000019903F0C7FD0020009022462846334601
:100FA000019903F0BFFD5A4650463346CDF80090F4
:100FB000019903F0B7FD4FF4967011F066FA3A46C6
:100FC00040463346CDF80090019903F0ABFD4FF455
:100FD000967011F05AFA224628463346CDF8009012
:100FE000019903F09FFD4FF4967011F04EFA91E7CE
:100FF000FFE74FF40051154800F0C4FE00B3002095
:101000000090334622462846019903F08BFD3A466C
:1010100040463346CDF80090019903F083FD4FF42C
:10102000967011F032FA224628463346CDF80090E9
:10103000019903F077FD4FF4967011F026FAB2E7AC
:10104000CDF80090DDE70000000C024000040240F3
:1010500070B50D460646FFF7EFF904463046FFF738
:10106000EBF9844205D1002406E0305D295D884219
:1010700001D0002070BD641C3046FFF7DDF9A042AE
:10108000F3D8012070BD000008B509F0CBFC09F0D1
:10109000D5FC00F013F807A00549006800906846E9
:1010A00009F096FD02480449407B087008BD000025
:1010B0008035002001000000CD030020F8B51DA000
:1010C00000240068009009F05FFD09F0A5FC0128EC
:1010D00001D109F0F1FC184D4FF4407616496846ED
:1010E00009F076FD2878552821D009F095FC0128D3
:1010F00003D009F091FC68B101E009F0DDFC28782B
:10110000552804D02046641CA4B20528E6D36FF00D
:101110000D00F8BD0849684609F05AFD28785528A1
:1011200005D02046641CA4B2B042F3D3EAE7002005
:10113000F8BD0000550000008035002010B503F018
:101140001FFE03F003F803F01FF802F0EFFE03F0B8
:101150007DFBBDE8104003F013BE0069416841F01B
:1011600002014160032006F033BC10B50B460C06AB
:1011700001F07F0202EB820100EBC10102D501F513
:101180008E7101E001F55D710A70DA094A7006F0AE
:10119000F5FD002010BD0A4610B5090602F07F03D8
:1011A00006D503EB830100EBC10101F58E7105E06B
:1011B00002EB820100EBC10101F55D7100248C702E
:1011C0000B70D2094A7006F0C0FD002010BD10B5AA
:1011D0000A0604D501F07F0106F0E6FE01E006F004
:1011E000C5FE002010BD70B50D460E0601F07F044F
:1011F00004EB840100EBC10102D501F58E7101E021
:1012000001F55D71ED090C704D708A60CB7000D0F6
:10121000CC80022B01D100220A7106F06DFD002066
:1012200070BD10B501F07F0404EB840100EBC10137
:10123000C1F88833C1F880230023C1F88C3381F8CA
:10124000753381F87443C37801F55D71012B00D1CA
:101250000A6114F0FF0F03D006F0C2FD002010BD9C
:1012600006F0DFFCFAE70069002261F30A12016868
:101270001143016070470A4610B5090602F07F036A
:1012800006D503EB830100EBC10101F58E7105E08A
:1012900002EB820100EBC10101F55D7101248C704C
:1012A0000B70D2094A7006F083FD002010BD70B5A6
:1012B00011F07F0404EB840100EBC1014FF0010544
:1012C00081F81D5181F81C41C1F82821C1F82C2159
:1012D00001F58E714FF00002C1E9053203D006F02E
:1012E0007FFD002070BD06F09CFCFAE770B5044657
:1012F00006F07CFCE068C16821F47055C5602046AA
:1013000006F074FE0146002003290FD00120A070D2
:101310004020A08025F4705000F5A050E168C8601E
:10132000E1684FF400504861012070BDA0704FF497
:101330000070A08025F4705000F51050EEE700001A
:101340002DE9F0410646002406F073FE074650E002
:10135000F8074CD03069E1B20369426BCA4006EB32
:10136000810102F00102896943EAC2128D681540C9
:10137000E9071AD00125426B05FA04F18A4342635A
:1013800006EB8400806985601C48E1B20068426811
:1013900030469047F078012807D134B996F811010A
:1013A000042802D1304606F095FC280704D506EB48
:1013B0008400082580698560E80604D506EB840072
:1013C000102580698560680604D506EB84004025F9
:1013D00080698560A80704D506EB84000225806932
:1013E0008560280603D52146304600F060F97F0865
:1013F000641C002FACD10120BDE8F0817C010020ED
:101400002DE9F0410546002406F019FE0746DFF8F5
:10141000988043E0F8073FD0E1B2284606F015FE79
:101420000646C00725D005EB84000126416D8E607D
:10143000E97801290CD1406D016904EB840005EBCA
:10144000C000C1F31201D0F87C23511AC0F88C13EC
:10145000D8F80000E1B2026828469047E8780128F1
:1014600007D134B995F81101052802D1284606F0B4
:1014700031FCB00704D505EB84000226406D866080
:10148000300709D5D8F8000081682846884705EB61
:1014900084010820496D88607F08641C002FB9D141
:1014A0000120BDE8F08100007C01002070B50546F8
:1014B000C068816921F010018161E868066A06F060
:1014C0000F0000EB800005EBC004C6F3434004F5B9
:1014D0005D74072821D2DFE800F0202004202020BE
:1014E000150047F6F070064217D0C6F30A163246CA
:1014F0002846E16806F0B1FDE0683044E060A0698C
:10150000304409E0082205F2CC51284606F0A5FD3A
:10151000A069C6F30A110844A061E868816941F036
:1015200010018161012070BD38B5044600208DF89E
:10153000000094F812018DF8000015480068416918
:101540002046884720698068E2684FF40061516155
:10155000A17AD1B1C00718D094F81501012814D18F
:101560009DF80000032810D1D4F80C01016841F067
:1015700001010160D4F80C01016841F00301016030
:101580000448016841F006010160012038BD0000F7
:101590007C01002010ED00E070B5044600690025D4
:1015A0000126416821F0010141602946204606F0EC
:1015B000FBFC0020FF2206E004EB80018B699A60AF
:1015C000496D8A60401C61788142F5D821694FF0ED
:1015D000FF3088612846216966F30F0066F31F40DB
:1015E000C861216945F00B004861216945F00B0095
:1015F00008612069016821F4FE610160204606F05F
:1016000069FBE1684FF48050486103480068016954
:1016100020468847012070BD7C01002070B504463B
:1016200006F02CFD0120002384F8120184F8143107
:101630001A46402510E002EB820104EBC10181F85B
:101640001D0181F81C21A1F8222181F81F31C1E977
:101650004953521CC1F8303161789142EBD80020D7
:1016600010E000EB800104EBC10181F8753381F8D3
:101670007403A1F87A0381F87733C1E9DF53401C82
:10168000C1F8883361788142EBD8204606F0A6FA8B
:10169000204606F09FF90021204606F04FFD204627
:1016A00006F0D8F92046BDE8704006F057BC2DE999
:1016B000F0470E4601EB860100EBC1048046D4E9F9
:1016C0004C01401AD4F8241104F58E74814200D2E2
:1016D0000846C01C08EB86098708D9F818008169FC
:1016E00020E0451AA068A84200D20546E81C8708F9
:1016F000ABB2F2B24046E16806F035FDE06828443E
:10170000E060A0692844A061D9F81810896962696D
:10171000824207D1207801228240D8F81000436B22
:101720009343436388B2B84205D9D4E905018142A5
:1017300001D20028D5D10120BDE8F08730B4194886
:101740001A4D1A4A0068184B184C603DB83A984236
:1017500002D91549543903E0A04203D91249583936
:10176000096804E0A84201D9516800E0116811F04D
:10177000006F15D04FF00061984202D90A484C38EA
:1017800003E0A04203D908485038016004E0A842B1
:1017900001D9D16000E091600548006830BC004785
:1017A00030BC7047941C002058640240B86002406E
:1017B0001C01002001681823CAB2103AB2FBF3F2F0
:1017C000054B6FF30901032A9B5C436500D9091D92
:1017D0000165084670470000625E010810B50468A4
:1017E00063608368402B036803D099600068C2601F
:1017F00010BD9A600068C16010BD0000354D002723
:10180000344900220C31E86A10F0A6F900284CD1C6
:1018100031A0E96810F0B8F8EA6811784D290BD0CA
:101820005078612808D0532917D06F2815D0422945
:1018300028D0542826D02FE000242C4E04E0E8685D
:101840002044007A3055641CE868083010F019FD17
:10185000A042F4D82549286B11E0244E00243236EA
:1018600004E0E8682044807A3055641CE8680A3057
:1018700010F007FDA042F4D81C49686B323110F01B
:10188000E3F909E09078432802D0442803D003E02C
:101890000120287000E02F7015480780E86803F0E9
:1018A0006CFB50211348FFF7B1F9287800B10120F3
:1018B000FFF74EFA8021104800F064FA012803D1A6
:1018C000FFF7ACF903F0FEF94FF47A7010F0DDFD8C
:1018D00096E70000140000205265765F46726F6D37
:1018E0005F4254203D25730A00000000D20400200E
:1018F00022010020A81F002000080240012000F063
:1019000045B9000010B500210AA00FF01AFD0E4CD9
:10191000002160640DA00FF014FDA064002110A050
:101920000FF00FFDE064002115A00FF00AFD206507
:1019300010BD000041626F7274576176706C6179FE
:101940005F4576656E74000014000020506C61796C
:1019500074576176706C61795F4576656E740000CE
:1019600050726576656E745F4163636964656E7419
:10197000616C5F506C61795F4576656E7400000044
:101980004F4C45445F446973706C61795F4576657F
:101990006E74000030B40C4601461546500700D066
:1019A000012000EBD50010FB05F0C2B208784B789F
:1019B000812809D3402B07D3FF2B05D0FF2803D064
:1019C0007F2B0CD2403B0BE00023184603E05B1C4E
:1019D00004F8010BDBB29342F9D330BC7047413BB2
:1019E0008138D9B2C0B2C0EB401303EB801001EBD9
:1019F000400050430C490C2D0CD0102D0DD0182D4B
:101A00000ED0202DE9D1D1F821100144204630BC60
:101A100006F0D0BCD1F80910F7E7D1F81110F4E7BF
:101A2000D1F81910F1E700008C25002070B50446AC
:101A300090F83400049D012808D0012084F8340077
:101A400020680668360303D4122605E0022070BD24
:101A50000668360302D5222684F83560066826F02B
:101A6000010606602068066846F480260660206845
:101A700003612B462046FFF7B1FE2068016841F064
:101A800001010160002070BD70B5040025D094F8FC
:101A90003500022821D02068016821F00101016091
:101AA0002068002505602068456020688560206802
:101AB000C560206805612168212048612046FFF744
:101AC00079FE94F854203F2191408160E56484F8C8
:101AD000355084F83450002070BD012070BD0000E6
:101AE00070B504001AD00220636A84F835002168BA
:101AF0000A6818480240D4E901052843D4E903568E
:101B00003543284365692843A5692843E569284387
:101B1000256A28431043042B02D005E0012070BD44
:101B2000D4E90B231A431043086022685069616AA4
:101B300020F007000843042901D1A16A084350613D
:101B40002046FFF737FE0020E064012084F83500CE
:101B5000002070BD3F8010F031B500F01DF9044643
:101B600000F01AF90099001B8842F9D338BD000033
:101B7000012802D101A006F035BF7047B4A5B7A275
:101B8000B0B4BCFCD6D0B6CF0A00000070B5054D8D
:101B900004462868204203D02046FFF7E9FF2C6066
:101BA00070BD0000143C01402DE9F84FDFF8A09112
:101BB000002209F1040A0AF1040B4FF00F080BF19F
:101BC000040E01260B6896403340B34271D14C6835
:101BD000022C01D0122C11D1D40800EB84073D6AED
:101BE0005407E40E08FA04FC25EA0C05D1F810C0ED
:101BF0000CFA04FC4CEA050CC7F820C00768540036
:101C0000032591F804C0A5400CF0030CAF430CFA77
:101C100004FC4CEA070CC0F800C04F68012F05D047
:101C2000022F03D0112F01D0122F11D18768D1F8C4
:101C30000CC0AF430CFA04FC4CEA070CC0F808C017
:101C40004768B7430E79C6F3001696403E43466098
:101C5000C668AE438D68A5403543C5604C68E40056
:101C60006FD53C4C256845F480452560246822F0FA
:101C7000030504F480440094374C2E19D6F80878F4
:101C80009407250F08FA05F4A743344CA04201D16C
:101C900000242EE0324CA04201D1012429E0314C35
:101CA000A04201D1022424E02F4CA04202D10324FF
:101CB0001FE046E02D4CA04201D1042419E02C4C39
:101CC000A04201D1052414E02A4CA04201D10624EF
:101CD0000FE0294CA04201D107240AE0274CA04282
:101CE00001D1082405E0264CA04201D1092400E0DE
:101CF0000A24AC403C43C6F80848D9F800404D4699
:101D00004E689C43F60300D51C432C60DAF8004073
:101D100055464E689C43B60300D51C432C60DBF847
:101D200000405D464E689C43F60200D51C432C6083
:101D3000DEF8004075464E689C43B60200D51C4351
:101D40002C60521C102AFFF43CAFBDE8F88F000055
:101D5000003C014044380240003001400000024095
:101D60000004024000080240000C02400010024043
:101D70000014024000180240001C024000200240F3
:101D8000002402400069084000D0012070470AB1D9
:101D9000816170470904FBE710B510F0F5FC4FF4C2
:101DA0007A714843B0FBF1F010BD000002480168B1
:101DB000491C0160704700004C0100200B4810B521
:101DC000016841F400710160016841F480610160C3
:101DD000016841F480710160032000F05DF80F207C
:101DE00000F006F800F015F8002010BD003C02409D
:101DF00010B5044600F026FB4FF47A71B0FBF1F009
:101E000001F01DFC00222146501E00F025F80020A4
:101E100010BD704700F01F02012191404009800071
:101E200000F1E020C0F88012704700F01F0201218D
:101E300091404009800000F1E020C0F88011704717
:101E400000F01F02012191404009800000F1E020D4
:101E5000C0F8001170470000F0B40E4B1B68C3F3CC
:101E60000223C3F10704042C00D904241D1D072DEF
:101E700001D2002300E0DB1E012606FA04F56D1EE8
:101E80000D409D409E40761E164045EA0601F0BC7E
:101E900002F096BD0CED00E0064A00F00701106864
:101EA0004FF6FF03184040EA012003490843106041
:101EB000704700000CED00E00000FA05012041022F
:101EC00091FAA1F1024AB1FA81F142F8210070477A
:101ED00000000E422DE9F8431D48016841F0805191
:101EE00001600068012700F080500090380490FAEB
:101EF000A0F0DFF86080B0FA80F048F82070FFF7BB
:101F00004BFF04464FF47A75134E04E0FFF744FF8D
:101F1000001BA84213D87068C003F7D54FF40030F7
:101F200090FAA0F0B0FA80F048F82070FFF734FF84
:101F3000044607E0FFF730FF001BA84202D9032048
:101F4000BDE8F88370688003F4D50020F8E700004E
:101F50004038024000000E42007000400B4A1368F7
:101F600023F00303034313600948026842F00402AC
:101F70000260012907D040BF20BF20BF016821F0C7
:101F800004010160704730BFF8E7000000700040B6
:101F900010ED00E02DE9F84F04460068DFF8788284
:101FA0009E4DC10747F6C07A4FF0E0464FF0010B57
:101FB0004FF0000901D180074BD59949C1F86890CD
:101FC000FFF7EAFE074604E0FFF7E6FEC01B6428C1
:101FD0007ED828680001F7D420789249C0070DD038
:101FE0009AFAAAF26068B2FA82F2904096FAA6F3E0
:101FF000A268B3FA83F39A40104308602078800700
:1020000018D5086896FAA6F200F0E040B2FA82F21B
:10201000D0406268237B920142EA036242EA007088
:102020000860D8F80010E26921F01F01521E114328
:10203000C8F800107A49C1F868B0FFF7ADFE07464E
:1020400004E0FFF7A9FEC01B642841D828680001FE
:10205000F7D52068410701D4000776D57049C1F84B
:102060007090FFF799FE074604E0FFF795FEC01B4E
:1020700064282DD82868C0438000F6D520786A4FA0
:1020800040074FF0706C29D5386896FAA6F100F039
:10209000E040B1FA81F1C8409AFAAAF22169B2FA95
:1020A00082F291409CFAACF36269B3FA83F39A40EE
:1020B000114396FAA6F2B2FA82F2904001433960D7
:1020C000D8F800106FF0FF0321F4F851226A00E005
:1020D00079E003EB02221143C8F8001020780007D2
:1020E00023D538689CFAACF100F07060B1FA81F148
:1020F000C8409AFAAAF22169B2FA82F291409CFA97
:10210000ACF2B2FA82F29040014396FAA6F2A069CC
:10211000B2FA82F2904001433960D8F80010626A46
:1021200021F440311143C8F800103D49C1F870B0A6
:10213000FFF732FE064604E0FFF72EFE801B642800
:1021400041D82868C0438000F6D42078800651D555
:1021500032484F464030016841F0805101600068CC
:10216000324E00F080500090306840F48070306053
:10217000FFF712FE054604E0FFF70EFE401B642841
:1021800021D83068C005F7D5264E143E3068218D21
:1021900000F4407001F4407188422BD0306824492B
:1021A00020F44070C1F800B00F603060800710D597
:1021B000FFF7F2FD054641F2883707E0FFF7ECFD37
:1021C000401BB84202D90320BDE8F88F3068800771
:1021D000F4D5A06A1149C0F301220831032A13D0B3
:1021E000086820F4F81008603068218DC1F30B01F5
:1021F000084330602078C00604D50E4994F82C00BE
:10220000C1F8E0010020DFE70A680B4B22F4F81266
:10221000184002430A60E7E78C3802400038024069
:102220000000474284380240883802400070004075
:10223000400E474200104742FFFCFF0F2DE9F05FC0
:10224000DFF8F8A104460F46DAF80000DFF8F08165
:1022500000F00F02C8B27A49814641F2883608F18F
:102260000808BA4261D202468AF80020DAF8000073
:1022700000F00F00B8427DD12078800707D5D8F84C
:102280000020A36822F0F0021A43C8F8002020784A
:10229000C0072DD0606801281AD002281BD003285F
:1022A00019D009688907002964DAD8F80010474670
:1022B00021F003010143C8F80010FFF76DFD05464A
:1022C000606801280FD0022818D003281CD027E00E
:1022D00009688903E7E709688901E4E7FFF75CFD1E
:1022E000401BB04258D83868C0F381000128F5D1AE
:1022F00088E0FFF751FD401BB0424DD83868C0F36D
:1023000081000228F5D17DE03868FFF745FD401BCC
:10231000B042F9D940E0FFF73FFD401BB0423BD847
:10232000386810F00C0FF6D16CE02078800707D5E4
:10233000D8F80020A36822F0F0021A43C8F8002061
:102340002078C0074CD06068012828D0022829D006
:10235000032827D009688907002949DAD8F800201E
:1023600022F003020243C8F80020FFF715FD0546DE
:10237000606800E03CE001281DD0022829D0032835
:1023800038D0B3464646306810F00C0F28D0FFF71F
:1023900003FD411B5945F6D90320BDE8F09F0968AC
:1023A0008903D9E709688901D6E7FFF7F5FC411BE6
:1023B000594502D9F0E7B34646463068C0F381007C
:1023C0000128F2D10CE0FFF7E7FC411B594502D987
:1023D000E2E7B34646463068C0F381000228F2D1F6
:1023E0008AF80090DAF8000000F00F00B84209D037
:1023F0000120D2E744462068FFF7CEFC401BB042E4
:10240000F9D9C9E72078400707D5D8F80010E26865
:1024100021F4E0511143C8F800102078000708D5D6
:10242000D8F80010226921F4604141EAC201C8F8DD
:1024300000100F20FFF7DCFC0020AEE7003C02405C
:102440000038024010B500F043F808490968F0224E
:1024500092FAA2F201F0F001B2FA82F2D140044AFB
:10246000515CC8400349086010BD000008380240B4
:102470006A5E01080000002010B5FFF7E3FF07497E
:1024800009684FF4E05292FAA2F201F4E051B2FA74
:1024900082F2D140024A515CC84010BD0838024067
:1024A0006A5E010810B5FFF7CDFF074909684FF4D0
:1024B000604292FAA2F201F46041B2FA82F2D14093
:1024C000024A515CC84010BD083802406A5E0108EB
:1024D00030B51948006810F00C01184812D0184C9B
:1024E00004290ED008290DD1134A121F1168136850
:1024F00001F03F015D0247F6C07304D5B4FBF1F073
:1025000003E0204630BDB0FBF1F01168194093FAAA
:10251000A3F3B3FA83F3D940484311684FF4403230
:1025200092FAA2F201F44031B2FA82F2D140491C8F
:102530004900B0FBF1F030BD083802400024F4003F
:1025400040787D012DE9F84F04460078DFF8FCA2C1
:10255000BF4DC0074FF0000648D0DAF800105046D3
:10256000C1F38101012908D00068C0F3810002286D
:102570000AD1281D0068400206D52868800335D599
:102580006068002873D031E0DFF8C49209F10209D5
:1025900089F80060FFF700FC074641F2883804E044
:1025A000FFF7FAFBC11B41457AD828688003F7D4AE
:1025B000207989F80000606860B1FFF7EDFB0746FD
:1025C00004E0FFF7E9FBC11B4145EDD82868800313
:1025D000F7D50BE0FFF7E0FB074604E0FFF7DCFB75
:1025E000C11B4145E0D828688003F7D42078DFF884
:1025F0006492800744D5DAF80010504611F00C0FB1
:102600004FF0F80809D00068C0F3810002280BD110
:102610008E48001F0068400206D42868800714D541
:10262000E068012823D110E0E068D0B10120C9F8AA
:102630000000FFF7B1FB074604E0FFF7ADFBC01B4E
:102640006428B1D828688007F7D5286898FAA8F2D6
:102650002169B2FA82F220F0F80091400843286024
:102660000EE0C9F80060FFF797FB074605E0EAE0D7
:10267000FFF792FBC01B642812D828688007F7D4A4
:102680002078000725D5DFF8C4817348616908F117
:102690006C0881B101210160FFF77EFB074605E070
:1026A0007EE0FFF779FBC01B642879D8D8F80000DA
:1026B0008007F6D50DE00660FFF76EFB074604E0E5
:1026C000FFF76AFBC01B64286AD8D8F800008007AF
:1026D000F6D42078400753D55C483830016841F083
:1026E000805101600068DFF8748100F08050009034
:1026F000D8F8001041F48071C8F80010FFF74CFBC7
:10270000074604E0FFF748FBC01B642848D8D8F808
:102710000000C005F6D5DFF834B10BF1680B8BF87B
:102720000060FFF739FB074641F2883804E0FFF705
:1027300033FBC11B41457ED8DBF800008007F6D48F
:10274000207A8BF80000A06868B1FFF725FB0746E8
:1027500004E0FFF721FBC11B41456CD8DBF800000A
:102760008007F6D50CE0FFF717FB074604E0FFF7FC
:1027700013FBC11B41455ED8DBF800008007F6D48F
:10278000A069E8B3DAF80010C1F3810102295AD038
:10279000022806D0C9F86060FFF7FEFA04464DE053
:1027A00049E04F46C9F86060FFF7F6FA064604E0D4
:1027B000FFF7F2FA801B64283DD828688001F7D41F
:1027C000D4E90701084347F6C07191FAA1F1626AA2
:1027D000B1FA81F18A40A16A4FF0FF3303EB510156
:1027E0004FF4403393FAA3F3B3FA83F399400A43C7
:1027F00010434FF0706292FAA2F2B2FA82F200E055
:102800001FE0E16A914008431049091F0860012058
:102810003866FFF7C1FA044604E0FFF7BDFA001B73
:10282000642808D828688001F7D50AE0FFF7B4FAD1
:10283000001B642802D90320BDE8F88F28688001B6
:10284000F4D40020F8E70120F6E700000838024041
:102850000038024000004742800E474200700040AE
:1028600001A00FF091B80000525443D6D0B6CF0A61
:102870000000000010B504460068C16849050CD589
:102880008068400409D52046FFF7EAFF2068C16848
:1028900001F0800161F49061C16003494FF4800050
:1028A00008600120607710BD143C014070B5040041
:1028B0001BD0022084F88100206800250561216872
:1028C000681E8861204602F095FC2068416841F04E
:1028D00008014160204600F0A1F8C4F8845084F853
:1028E000815084F88050002070BD012070BD000030
:1028F00070B5040004D094F88100002510B106E002
:10290000012070BD84F88050204600F089F8022034
:1029100084F88100204602F06DFC204602F05AFC4B
:10292000206AA8B1204602F083FC216A00EB8000F7
:1029300040004902B0FBF1F00A21B0FBF1F2B0FB1C
:10294000F1F301FB13006262082801D9521C626294
:10295000206801682F4A11400160616B606808437C
:10296000D4E90E1211430843216C0843A1680843BF
:10297000A16A08432169084361690843A18C40EAC0
:102980000151E06A01432068026811430160206838
:1029900041684CF20F029143416020684168A2698E
:1029A0001143D4E90B231A43114341602068816825
:1029B000194A11408160616DE06C626C0143206DC9
:1029C000521E10430143A06C6FF0FF0202EB002087
:1029D000014320688368194381602068C1684FF211
:1029E00020031940C160D4E916100143D4E918301E
:1029F00002EB0322104301432068C2681143C16007
:102A0000C4F88450012084F8810084F880500020AC
:102A100070BD000010C005FF0080F8FF7047000087
:102A2000124800B5016887B041F480010160006878
:102A300000F4800005900D481438016841F0100141
:102A400001600068694600F0100005907C2000904D
:102A500002200190012002900320039006200490A0
:102A60000348FFF7A1F807B000BD0000443802405A
:102A7000001002402DE9F04790F8202081F8562000
:102A8000828CA1F85420826A0023120E94090C70E3
:102A9000C2F383044C7002F003028A70826A120C43
:102AA000CA70028D120A0A7190F828204A71C26A0F
:102AB0004FF6FF7A120E0AEA0212CA80C26ACC8866
:102AC000C2F3074244EA1214CC8002F00F020A72E9
:102AD000828DC2F30722D4094C72C2F380148C7227
:102AE000C2F34014CC72C2F300140C7300264E7370
:102AF000046A4FF00109002C7DD0012CFCD0022C7F
:102B00007AD02923C2F380144C769206520E01F833
:102B10001A2F10F8302F0C7844EAD21401F8014B28
:102B200002F07F0201F8012B50F8042F120ED40995
:102B30000C70C2F341144C70C2F382048C70920783
:102B4000120FCA7004C8CC78C2F3074244EA921448
:102B5000CC70C2F340140C714E7102F001028A7104
:102B600030F8042CC2F30722D409CC71C2F38014CC
:102B70000C72C2F340144C72C2F300148C72C2F394
:102B80008104CC7202F003020A7310F8042C52087C
:102B90004A734C4681F80E9050F8082B120E0A74B6
:102BA00050F8082C120C0AEA02224A8230F8082C4B
:102BB0004D8AC2F3072215434D8210F8082C1206E5
:102BC00041F8142F50F8042C0D68120E45EA024209
:102BD0000A6050F8042C0D68C2F3074245EA02224D
:102BE0000A6030F8042C0D68C2F30722154320C197
:102BF00010F8042C01E034E076E001F8012B0268C3
:102C0000120E01F8032B0268120C12060A600288E9
:102C10000D68C2F3072245EA02420A6002780D6895
:102C200045EA02220A6042680D6845EA126520C141
:102C300042680D78C2F3074245EA121501F8025BBB
:102C40001207120D0A8082880D88C2F307221543ED
:102C500021F8025B0079400808704C701846BDE806
:102C6000F0879207120D0A6190F82C200C6944EA53
:102C700082020A61026B0C69120E44EA92140C6122
:102C8000C2F3C2040C7502F007024A75026BC2F36C
:102C9000074254098C75C2F38204CC759207520F17
:102CA0000A76028E0C7EC2F3072244EAD2140C7616
:102CB0000C690F7EBF1C09FA07F5641CA4FB05789C
:102CC0004FEAE57C06FB058504FB0C5591F808C02E
:102CD00009FA0CF4A7FB04C80C6505FB048407FB88
:102CE0000644C1E912C40DE790F82C209206920A1E
:102CF0000A61026B0C69120E44EA02220A61026B3D
:102D00000C69C2F3074214430C61028E0C69C2F3D2
:102D10000722641C46F10005ED0445EA5435E4043D
:102D2000C1E912454FF400740C65EBE670B586B04E
:102D300000250E4604468DF80C50057700F046F845
:102D400076200095CDE901502B462A462946206879
:102D500002F020FE204603F0E5F88DF80C009DF807
:102D60000C0038B9204602F0D1FF8DF80C009DF818
:102D70000C0018B19DF80C0006B070BD314620461D
:102D8000FFF778FE8DF80C009DF80C00A0B9B6F89E
:102D90005400694600040090072001904020CDE9CE
:102DA000020500010490206802F00DFE0721204674
:102DB00002F01EFE8DF80C0004F1100007C88DE82B
:102DC000070094E80F0002F0E5FDD3E71D4800B5C9
:102DD000016887B041F400610160006800F40060A0
:102DE000059018481438016841F4800101600168B9
:102DF00001F480010591016841F00401016001685E
:102E000001F004010591016841F0080101600068CA
:102E1000694600F0080005904FF4F8500090022039
:102E2000019001200290032003900C20049006489A
:102E3000FEF7BAFE0420009069460448FEF7B4FE8F
:102E400007B000BD4438024000080240000C0240B8
:102E50002DE9F04F8BB004460D46DDE9147821686A
:102E600000201646C862216A022903D10F02560AC1
:102E700046EAC3561021CDE900714021834608017E
:102E80000291CDE903B06946206802F09CFD102153
:102E9000204602F0ADFD00286DD14FF0FF3A08FB4F
:102EA00007F0CDE905A007A990204FF0020981E8BD
:102EB000010A01200A9005A9206802F049FDB8F135
:102EC000010F01D9122000E01120CDE90060694610
:102ED000206802F078FDB8F1010F1AD912212046BE
:102EE00002F086FD070046D140F22A3B2068416B84
:102EF00011EA0B0F28D1406B0004F7D5002620689B
:102F000002F05EFD45F82600761C082EF7D320352A
:102F1000ECE71121204602F06BFD07002BD140F2B7
:102F20002A6B2068416B11EA0B0F0DD1406B000436
:102F3000F7D50026206802F043FD45F82600761CF0
:102F4000082EF7D32035ECE7406BC0050CD5B8F15F
:102F5000010F09D9206A18B1012801D0022803D134
:102F6000204600F033F807462168486B000705D576
:102F70000820886304200BB0BDE8F08F486B800701
:102F800003D54846C1F83890F5E7486B800603D56D
:102F9000202088630620EEE7486B800504D54FF4B7
:102FA000007088630720E6E7564603E002F008FD5C
:102FB00001C5761E2068416B890201D5002EF5D12E
:102FC000216840F2FF5088633846D4E710B586B0D8
:102FD000044600200C21CDE900014021CDE902107A
:102FE000080104906946206802F0EDFC0C2120469F
:102FF00002F0FEFC06B010BDFEB50446006A0025D6
:103000000E46032805D030B1012804D0022802D092
:103010001FE02720FEBDB6F5805F05D0B6F5006F36
:1030200004D03EB1262514E0272512E0204603F007
:10303000B2F802E0204603F075F8050009D1211D21
:10304000D4E905070EC9CDE900600297206802F0B7
:10305000A1FC2846FEBD2DE9F04F8DB006460025A7
:103060000C468DF82C50DDE9169831681746284635
:10307000CD62316A4FF4007B022903D1570AD94649
:1030800047EAC3571021CDE900914021824608014B
:103090000291CDE903A06946306802F094FC10214A
:1030A000304602F0A5FC00286ED1B8F1010F01D91D
:1030B000192000E01820CDE900706946306802F060
:1030C00082FCB8F1010F01D9192100E01821304626
:1030D00002F08EFC00287FD1411E09FB08F99020E8
:1030E000CDE906900591CDF820A00120CDE909A0F9
:1030F00005A9306802F02CFCB8F1010F24D84FE08C
:10310000406B400420D5A9EB0500202811D281078F
:103110004FEA900000D0401C8246002706E021467E
:10312000306802F060FC241D2D1D7F1C57450BD21A
:10313000F5E7002704EB8701306802F054FC7F1CA0
:10314000082FF7D3203420353068416B40F21A3213
:103150001142D5D02AE0406B400421D5A9EB0500EF
:10316000202812D281074FEA900000D0401C8246EE
:10317000002706E02146306802F035FC241D2D1D95
:103180007F1C57450CD2F5E726E0002704EB8701AA
:10319000306802F028FC7F1C082FF7D3203420353C
:1031A0003068416B40F21A621142D4D0406BC005C6
:1031B0000BD5B8F1010F08D9306A18B1012801D038
:1031C000022802D13046FFF701FF3168486B000743
:1031D00005D50820886304200DB0BDE8F08F486B4A
:1031E000800702D502208863F6E7486BC00603D546
:1031F000102088630520EFE7486B800503D5C1F8F0
:1032000038B00720E8E740F2FF5088630BA930464A
:1032100002F0EAFD0028DFD19DF82C100729F5D037
:103220000629F3D0D8E770B5040004D094F8510013
:10323000002510B106E0012070BD84F850502046F2
:1032400000F034F8022084F851002068016821F071
:1032500040010160D4E901010843D4E9031211439C
:10326000084361690843218B01F400710843E16957
:103270000843216A0843A16A084321680860A069DD
:10328000042101EA1040616A08432168486021680E
:10329000E06A08612068C16921F40061C161656567
:1032A000012084F85100002070BD00002DE9F0419C
:1032B000064600682B492C4C0225012786B04FF0AA
:1032C000050888421AD1206840F00100206020687B
:1032D00000F00100059024481430016841F4805149
:1032E00001600068694600F480500590E0208DE898
:1032F000A100CDE903581D48FEF756FC1C49306873
:1033000088422CD1206840F008002060206800F03E
:1033100008000590206840F002002060206800F05E
:103320000200059010481030016841F4004101602E
:103330000068694600F40040059018208DE8A1005F
:103340000620CDE903500B48FEF72EFC40208DE807
:10335000A100CDE9035869460748FEF725FC06B0F1
:10336000BDE8F081003001403038024000000240EA
:10337000003C004000040240000C02402DE9F843EC
:10338000044690F85100DDF82080012801D0222861
:103390007ED169B162B15BB194F85000012877D059
:1033A000012784F8507094F85100012803D005E0FB
:1033B0000120BDE8F883322084F8510000266665BC
:1033C000A263A387E3872163A386E386A664E664FA
:1033D000A06A4FF40055A84209D12068016821F481
:1033E000005101602068016841F4005101602068CB
:1033F0000168490603D4016841F040010160E068BA
:103400004FF48271B0F5006F606807D0002867D074
:1034100088426ED1E08E012862D06AE020B18842F5
:103420000CD1E08E012809D1206B21680088C8608A
:10343000206B801C2063E08E401EE086E08E80B909
:10344000A06AA84244D12068016841F4805101601B
:103450003EE02068C068A16B0880A06B801CA06360
:103460009EE0434600220221204602F0A5FF0028EC
:1034700074D1206B21680088C860206B801C206399
:10348000E08E401E0004000CE08609D1A06A00E036
:10349000C7E0A84204D12068016841F4805101606E
:1034A000434600220121204602F086FF00286FD10A
:1034B0002068C068A16B0880A06B801CA063E08FAF
:1034C000401EE087E08E0028CBD1606800286AD1DA
:1034D000434600220121204602F06EFFF0BBB8E710
:1034E000206B411C216321680078C860E08E401E7B
:1034F000E086E08E98B9A06AA84204D120680168ED
:1035000041F480510160434600220121204602F02F
:1035100053FF18BB2068C068A16B087040E04346A9
:1035200000220221204602F047FFB8B9206B411C5F
:10353000216321680078C860E08E401E0004000C02
:10354000E08607D1A06AA84204D12068016841F44E
:103550008051016000224346012100E018E020462E
:1035600002F02AFFA0B92068C168A06B421CA263C8
:103570000170E08F401EE087E08E0028CFD16068A8
:1035800088B9434600220121204602F015FF08B108
:1035900003200EE72068C168A06B421CA263017083
:1035A000E08F401EE087A06AA84210D14346002267
:1035B0000121204602F000FF18B1606D40F00200CA
:1035C0000FE02068C068ADF80000BDF80000434679
:1035D00001228021204602F0EFFE20B1606D40F014
:1035E00020006065D4E784F8517020688168A26A81
:1035F000C1F30011AA4210D179B1616D41F002010D
:103600006165016821F4005101602068016841F49E
:103610000051016084F85060CAE684F850600020D0
:10362000C7E60220C5E64FF0E0210428086903D070
:1036300020F004000861704740F00400FAE710B57C
:10364000401EB0F1807F01D3012010BD4FF0E02477
:1036500060610F21601701F0B3F90020A06107201D
:103660002061002010BD704790F83900704738B5D0
:10367000016804460868CA68C0F3000002F480725A
:1036800038B132B1086848680090E06B40F0010042
:10369000E06308684A69C0F3400002F0010238B1F3
:1036A00032B1086848680090E06B40F00400E063C5
:1036B00008684A69C0F3800002F0010238B132B1F3
:1036C000086848680090E06B40F00200E06308681A
:1036D0004A69C0F3C00002F0010238B132B1086893
:1036E00048680090E06B40F00800E0630868C96833
:1036F000C0F3401001F0200118B111B1204603F0D1
:103700004FF920680168C068C1F3C01100F0800063
:1037100019B110B1204603F051FA21680868CA684F
:10372000C0F3801002F04002012568B162B1CA689E
:10373000204622F04002CA6094F8391032290CD099
:1037400080F8395000F082F9E06B002804D084F84A
:1037500039502046FFF787FF38BD222180F8391005
:10376000F0E770B5040004D094F83900002510B1DA
:1037700006E0012070BD84F83850204600F020F8A3
:10378000022084F839002068C16821F40051C1602A
:10379000204603F059F92068016921F49041016144
:1037A0002068416921F02A0141612068C16841F423
:1037B0000051C160E563012084F83900002070BD2C
:1037C0002DE9F047054635490068354C02260F15AE
:1037D00086B04FF0000A4FF0070888422BD12068CE
:1037E00040F001002060206800F0010005902C48A6
:1037F0001430016841F010010160006802AA00F075
:10380000100005906015CDE90006012082E8410115
:10381000DFF8909069464846FEF7C6F96946484683
:103820000097FEF7C1F9002201212520FEF714FBC5
:103830002520FEF705FB1C49286888422BD1184833
:103840001030026842F480220260006800F4802098
:103850000590206840F0020020602068CDF808A0A4
:1038600000F0020005900320CDE903080F4CCDE9DC
:10387000007669462046FEF797F9E1140091694603
:103880002046FEF791F92720FEF7DAFA00221146CA
:103890002720FEF7E1FA06B0BDE8F08700100140EE
:1038A000303802400000024000480040000402405E
:1038B00090F83930012B01D0122B2BD131B32AB320
:1038C00090F83830012B25D0012380F83830816200
:1038D0008285C2850022C26390F83910122917D060
:1038E000222180F839100168CB6843F48073CB60E3
:1038F00001684B6943F001034B6180F83820006890
:10390000C16841F02001C16000207047012070476C
:103910003221E6E70220704730B40068154988423A
:103920000CD1154A5088010408D411464404097882
:103930004FF000030DD50A2902D0538030BC7047E8
:1039400040F4004050800E480C49006830BC0EF036
:103950007BB90D2909D0C0F30D04084D401C80B27D
:1039600029555080FE28E8D8E8E740F48040508090
:10397000E4E700000048004020010020A81F0020CC
:10398000400000202DE9F047044690F839009946A0
:103990000D46012801D0222856D125B31AB394F838
:1039A0003800012850D0012684F838600027E763EA
:1039B00094F83900222819D0122084F83900A28402
:1039C000E2844FF48058E08C4B46401EE084A068AF
:1039D0004FF0000240454FF08001204613D103F024
:1039E00020F908BB04E00120BDE8F0873220E4E7BD
:1039F00028882168C0F308004860206908B16D1C60
:103A000008E0AD1C06E003F00CF968B9216815F870
:103A1000010B4860E08C0028D5D14B4600224021A4
:103A2000204603F0FEF808B10320DDE794F83900E2
:103A3000322805D084F8396084F838700020D3E744
:103A4000222084F83900F7E70220CDE77047000014
:103A50000E4810B5016886B041F0100101600068A1
:103A6000012400F0100005904FF44040CDE900041F
:103A70000220CDE9024069460548FEF795F8054861
:103A8000C0F8BC42C0F8B84206B010BD30380240A1
:103A900000100240000042422DE9F0410546144862
:103AA000016821F040410160016841F080410160FE
:103AB000104E0027C6F8B8723C464FF00108E809DE
:103AC000C6F8BC026806050E022005F0ADFFC6F878
:103AD000B882022005F0A8FFC6F8B872022005F0EF
:103AE000A3FF641CE4B2082CE9D3BDE8F081000018
:103AF000001002400000424270B50D48016821F0FC
:103B000040410160016841F080410160094C0120A1
:103B1000C4F8BC02C4F8B802042004F52E7405F001
:103B200083FF00256560042005F07EFF256070BDE1
:103B3000001002400000424270B50D48016821F0BB
:103B400040410160016841F080410160094C002062
:103B5000C4F8B802C4F8BC02042004F52E7405F0C1
:103B600063FF01252560042005F05EFF656070BDE0
:103B700000100240000042420F4910B50A680020C0
:103B800022F040420A600A680A600C490122C1F82A
:103B9000BC22C1F8B82207E0401CC0B2FA2803D901
:103BA000FFF7CAFF012010BDD1F83C22002AF3D153
:103BB0000020C1F8B80210BD0010024000004242CF
:103BC0002DE9FE4F044681A04FF00009D0E9002006
:103BD000CDE900208DF80010CB464E4622466946BE
:103BE000032001F08DF900281DD160780290211882
:103BF000255C11F8012C4F7802F08002082F12D0BA
:103C0000802A02D00020BDE8FE8F4FF0FF0A07EBAC
:103C1000051021308DF8010035B1012D12D0022D93
:103C200023D0032D3AD07BE0781CA1780AFA00F269
:103C300091438DF8021040F040008DF8030061F3CD
:103C4000070649E0A278781C8DF802200AFA00F3F2
:103C5000E17840F04000994362F307068DF80310C5
:103C60008DF8040061F30F2636E0A2788DF802206B
:103C7000E3788DF80330781C21790AFA00FC21EAF8
:103C80000C0162F307068DF8041040F0400063F366
:103C90000F268DF8050061F317461DE0A3788DF817
:103CA0000230E2788DF8032021798DF80410781C19
:103CB00094F805C00AFA00F82CEA080C63F307062A
:103CC00062F30F268DF805C040F0400061F31746FF
:103CD0008DF806006CF31F66281DC0B222466946A7
:103CE00001F00EF9207880281AD16078221812F895
:103CF000013C03F08001802903D114F8009092F870
:103D000001B003F00F00C0F10800C2B2781C82427B
:103D100006D13DB1012D16D0022D22D0032D2DD07C
:103D2000612070E79DF802200AFA00F3A0789A4318
:103D30000243E07862F3070660F30F26207960F310
:103D40001746607917E09DF803200AFA00F3A0787F
:103D50009A430243E07862F30F2660F31746207916
:103D600009E09DF804200AFA00F3A0789A43024380
:103D7000E07862F3174660F31F6608E09DF80520BF
:103D80000AFA00F3A0789A43024362F31F66802088
:103D9000207002986070A670330AE370300C2071B6
:103DA000320E7340504043406271A37180297FF40A
:103DB00029AF4D4505EB0900C5B201D05F4626E7A6
:103DC00007EB0B00401CC7B221E7000000200800F1
:103DD0000000000070B505461A4C9321FFF7F0FE75
:103DE00010BB194EA6F10800F17804291ED0B5F8D1
:103DF0000310818169798173A979932222707022DD
:103E00006270F278042A15D08822A2708289A4F800
:103E10000320807B6071A1712820E07108202A4670
:103E2000214601F06DF848B1612070BDD5F802104F
:103E3000C160E1E7C068C4F80200ECE7A878B0739D
:103E4000002070BD823500208A37002070B50546FD
:103E50001C4C9521FFF7B4FE20BB1B4EA6F10800B9
:103E6000F178072920D0B5F80310A0F80F10697970
:103E70004174A9799522227070226270F278072A23
:103E800017D08822A270B0F80F20A4F80320407C3D
:103E90006071A1712820E07108202A46214601F0B6
:103EA0002FF858B1612070BDD5F80210C0F80F107E
:103EB000DFE7D0F80F00C4F80200EAE7A878B07393
:103EC000002070BD823500208A37002070B505467D
:103ED000144C9721FFF774FEF0B9134AD5F802008D
:103EE00002F10806C2F80F00A9799720207070200F
:103EF0006070F37802200A2B04D1D2F80F00C4F8C6
:103F0000020006202A462154401C28212154214623
:103F1000401C00F0F5FF08B1612070BDA878B073B7
:103F2000002070BD823500208237002070B51A4D08
:103F30002846FFF74FFFC8B9184CA07B40070AD5A9
:103F40002846FFF783FF88B9A07B400703D52846A2
:103F5000FFF7BCFF50B9A07B800609D500F0B0F890
:103F60000120E073284600F025F908B1612070BDFA
:103F7000012000F019F80A4802210A4A0170A07BCA
:103F800010F0600F05D0800601D5042010700020CD
:103F900070BD1170FBE70000803500208A370020DB
:103FA000CB030020CC03002030B51FA185B0D1E9A0
:103FB0000021CDE901211EA11F4D096803911DA11A
:103FC000096804911D490978342901D3062400E0C9
:103FD00004241B498A88042A01D204228A80097990
:103FE0008DF805108DF8060000208DF80700601C84
:103FF0002B4601AA022100F055FF88B903AB00222D
:104000003A210420009500F0A0FF48B90A4800902A
:1040100004AB01226821042000F097FF002800D0A3
:10402000612005B030BD0000000000000303000067
:104030005A04000001DF000080350020CD0300207D
:10404000D603002010B518A086B0D0E90010CDE945
:10405000011017A0184C0068039016A00068049087
:1040600016480078342801D3062000E004202346B7
:1040700001AA0221401C00F015FF88B903AB002201
:104080003A210420009400F060FF48B90A480090EB
:1040900004AB01226821042000F057FF002800D063
:1040A000612006B010BD0000000000000202000008
:1040B0005A04000001DF000080350020CD030020FD
:1040C00010B51CA086B0D0E90010CDE901101BA0EE
:1040D0001C4C006803901AA0006804901A480078ED
:1040E000342801D3062000E0042004218DF80510B7
:1040F00000218DF806100C218DF80710234601AA27
:104100000221401C00F0CEFE88B903AB00223A2108
:104110000420009400F019FF48B90A48009004AB4D
:1041200001226821042000F010FF002800D0612047
:1041300006B010BD00000000030300005A04000098
:1041400001DF000080350020CD03002010B500F015
:104150000DF8FFF777FF08B1612010BD024901207B
:104160000870002010BD0000DC030020054800217D
:104170000181C1600161818208308170C170C173A9
:10418000017470478237002010B5084C204600F0BB
:104190005DF820B92146042000F016FE08B1612028
:1041A00010BD034901200874002010BD8035002097
:1041B0008A37002038B5044622A0224600680090C5
:1041C0006946032000F09CFE48B92146042000F017
:1041D000FBFD20B92146022000F0DDFD08B1612081
:1041E00038BDE07810F00F0317D0012B17D0022B49
:1041F00017D0032B17D0042B17D0052B17D0062B65
:1042000017D0072B17D04FF480730F4982064B80CD
:1042100016D5C00611D5607910E01023F5E71823F4
:10422000F3E72023F1E72823EFE73023EDE74023EE
:10423000EBE76023E9E78023E7E72079000988803E
:10424000002038BDE0802800D603002038B50446A1
:1042500012A02246006800906946022000F050FE3D
:1042600008B1612038BD0E486188018100F1080164
:104270000878800904D0012806D002280CD107E074
:104280000420C870012006E00720C870022002E068
:104290000A20C87003208870002038BD260700005F
:1042A00082370020F0B500230A24302537261F4628
:1042B00010E0B4EB107F02D905EB107C01E006EBB7
:1042C000107C01F813C001EB430C00015B1C8CF85F
:1042D0000170DBB29342ECD3F0BD00001A4800B588
:1042E000026887B0002142F004020260026802F016
:1042F00004020592026842F001020260026802F0C4
:1043000001020592026842F002020260026802F0B5
:1043100002020592026842F010020260026802F096
:1043200010020592026842F00802026000680291E1
:1043300000F0080005902020CDE9000169460348FF
:10434000FDF732FC07B000BD3038024000080240E3
:10435000164800B5016887B041F0805101600068DF
:1043600000F08050059011481038016841F00201BA
:1043700001600068694600F002000590012000908D
:104380000B4801900220029003900A48FDF70CFCB4
:104390000620FDF73FFD002211460620FDF75CFDDB
:1043A0000620FDF74DFD07B000BD0000403802407B
:1043B000000011100004024070B52448002211468C
:1043C00000680DF0C9FB0024214D00283BD028785F
:1043D000401CC0B228703C2836D100F001FB1DA063
:1043E0000DF0D2FA1EA20C21202002F0FBF81FA231
:1043F0002421102002F0F6F800F064FC4FF0E020D9
:1044000004618461FDF75AFD01210846FDF7A6FD10
:104410000823022219214FF4C07002F081F900F044
:10442000DFFA002115A2084602F0DCF8202116A2CE
:10443000084602F0D7F800F045FC2C70BDE870404B
:1044400014A00DF0A1BA2C7070BD00005400002023
:104450009C000020BDF8C8EBB5CDB9A6BAC40A00CF
:10446000CBAFC3DFC4A3CABD00000000B0B4B7B572
:10447000BBD8BCFCCDCBB3F600000000B2A5B7C5DD
:10448000D7B4CCACA3BA0000CDA3D6B9B2A5B7C5FA
:1044900000000000CDCBB3F6B5CDB9A6BAC40A0072
:1044A00070B50E4905460E4C087B38B9886828B1AE
:1044B000607818B901212846FCF7DDFE81212846E5
:1044C000FCF7D9FE6078022807D12846BDE8704085
:1044D0001F23024A0121FCF7A4BE70BDD025002095
:1044E000940100202DE9F041294E074606F12005F0
:1044F00070686860B068A8600121384602F094FDD9
:10450000244C1F280CD124493068884208D1234804
:10451000717B0078814203D8B07B08B1102807D99D
:10452000707B2022052101F061F90220607006E015
:10453000174A38460F3200F0FDFE002804DA3846EC
:10454000BDE8F041FFF7ACBF207802281ED001285B
:104550001CD003281AD0618891B1B36862683846CC
:104560008B4200D219468BB2A968C91AA9600021F2
:10457000297304212170BDE8F0418121FCF797BE29
:104580003846BDE8F041002100F096B8BDE8F08162
:10459000D02500209401002055534243C80100203B
:1045A00010B5094C6278022A08D009060BD5012AF9
:1045B00009D0BDE81040012100F07EB88121FCF750
:1045C0005AFE0020607010BD9401002010B5044612
:1045D0000C480178022905D0032901D0042910D103
:1045E000002109E0084800F10F02417B204600F05D
:1045F000A1FE002805DA01212046BDE8104000F0A8
:104600005BB810BD94010020D025002010B50446F1
:104610000C48017881B1012913D10B4800F10F0238
:10462000417B204600F086FE00280ADA2046BDE8DD
:104630001040012100F040B82046BDE81040FFF7CF
:1046400051BF10BD94010020D02500200149002059
:10465000087070479401002010B504460C480021F2
:10466000017041700B4800680168002088470121F3
:104670002046FCF7ACFD81212046FCF7A8FD204632
:104680001F23BDE81040044A0121FCF7CABD000009
:104690009401002078020020D02500200449002247
:1046A0001F230A7001224A70024A0121FCF7B9BD9A
:1046B00094010020D025002010B50C4A04460A4879
:1046C000106011730A4900200D23087081212046D3
:1046D000FCF7EDFD054A20461F23203ABDE81040B7
:1046E0000121FCF79EBD000055534253F0250020E8
:1046F0009401002010B50022012115A00DF008FA48
:10470000184C00220121A06317A00DF001FAA0624D
:104710000022012118A00DF0FBF9E0620022012126
:104720001BA00DF0F5F92063002201211CA00DF063
:10473000EFF96063002201211EA00DF0E9F9E063AA
:104740000022012120A00DF0E3F9206410BD00003B
:104750004E46435461675F437573746F6D49445FA0
:104760006D620000140000204E46435F54616749AB
:10477000445F6D620000000042756C65546F6F7499
:10478000685F5472616E736665725F6D62000000EF
:104790004E46435F53656E644D41435F6D6200005A
:1047A0005468655F417569646F5F4E616D655F6DEB
:1047B000620000004C6F6F705F506C617942616302
:1047C0006B5F6D62000000004C4F575F5057525FA7
:1047D0006D62000038B50C4C1546628882B90B4AF0
:1047E0006028D37808D100912946121D07F0F8FD02
:1047F0000004000C608005D1054807F07DFE608054
:104800000020608038BD0000E00300208A370020CF
:10481000443322117FB530238DF80C308DF80D0014
:10482000152309482380002605258DE861000A46E6
:10483000022103A808F05EF90349091F488088880F
:104840002080488804B070BDE403002030B51FA06C
:10485000C3B0006842901EA00625D0E90010CDE943
:10486000401008F005F82A4640A96020FFF7B2FF83
:10487000040004D169462846FFF7CCFF04461649D8
:1048800000206A46135C0B54401C0428FADB0878AD
:10489000242807D14878272804D110480E490068F9
:1048A0000DF0D2F90E480068017F806907F022FA06
:1048B00001460C4800680DF0C7F90B48012100685B
:1048C0000DF0C2F943B0204630BD0000242700019E
:1048D000FFFFFFFFFFFF00001A3900204C000020FF
:1048E000B00200203C000020500000202DE9F05FC5
:1048F0008146C2EB82100C4688464FEAC00B002767
:104900004FF6FF7A14480BEB07010025465C300692
:1049100001D5012200E000222146484600F0C2F8FD
:10492000641CE4B2A4EB08000AEA46063F280CD057
:104930006D1CADB2082DEAD37F1CBFB2B7F5FC7F6A
:10494000E0D3BDE8F05F00F0BDB909F101004446D5
:1049500000F0FF09F0E700004A5801080BA004F03E
:1049600041F805F015FB10B90DA007F0CCFC0022B2
:104970004FF400711148FDF70AFAFCF785FB05F0CA
:10498000F1F805200DF081FDF9E700004E46435F88
:104990005472616E736665725F5461736B0A0000D6
:1049A000496E697469616C697A6174696F6E2066B9
:1049B00061696C65642E2E0D0A0000000010024033
:1049C0000907090E002806DA00F00F0000F1E020C8
:1049D00080F8141D704700F1E02080F80014704743
:1049E00030B40021084B0A46002003EBC004401CF1
:1049F000C0B262548028F8D3491CC9B20829F3D345
:104A000030BC00F05FB90000592100202DE9FE4FB5
:104A10000026A2EB000882465F1A701E35468946C2
:104A2000B8F1000F02DD4FF0010102E003D14FF0B9
:104A30000001019102E0C8F100080190002F02DDA1
:104A40004FF0010002E003D14FF00000009002E0BF
:104A5000C7F1000700904046B84501DD044600E07C
:104A60003C46601C4FF0000B029016E009F0FF017D
:104A70000AF0FF000C9A00F015F846443D44A642A7
:104A800002DD0199361B8A44A54202DD00992D1BE7
:104A900089440BF101001FFA80FB02998B45E5DD8B
:104AA000BDE8FE8F10B57F2816D83F2914D80723FC
:104AB000A3EBD10301F00701C1F107040121A140DB
:104AC000064CDBB204EBC000002AC25CC9B201D0C4
:104AD0000A4300E08A43C25410BD0000592100205F
:104AE0002DE9F8411D4601241646884607460B4627
:104AF0000094FFF78BFF3A462B4641461046009440
:104B0000FFF784FF2B463246194638460094FFF7DC
:104B10007DFF32462B46414610460094FFF776FF54
:104B2000BDE8F8812DE9F0471E4690460F46054640
:104B3000DDF820900CE03C4606E04A462146284637
:104B4000FFF7B0FF641CE4B2B442F6D96D1CEDB2BD
:104B50004545F0D9BDE8F04700F0B4B870B5544809
:104B600086B00026016841F001010160016801F092
:104B700001010591016841F008010160006801240C
:104B800000F0080005904FF40040CDE90004022039
:104B9000CDE9024069464748FDF706F81120464D29
:104BA000009069462846FCF7FFFF2A2100916946DC
:104BB0002846FCF7F9FF002220212846FDF7E7F8F8
:104BC0003E48C0F8BC423E4DC5F88042C5F8904210
:104BD000C5F88442C5F88C62642005F5207504F0A0
:104BE00015FFEC600021AE2000F094F80021D520E4
:104BF00000F090F80021502000F08CF80021A8204F
:104C000000F088F800213F2000F084F80021D32034
:104C100000F080F80021084600F07CF800214020D8
:104C200000F078F800218D2000F074F800211420A5
:104C300000F070F80021202000F06CF80021022024
:104C400000F068F80021A12000F064F80021C020E5
:104C500000F060F80021DA2000F05CF8002112205A
:104C600000F058F80021812000F054F80021EF20D6
:104C700000F050F80021D92000F04CF80021F1207C
:104C800000F048F80021DB2000F044F8002130203B
:104C900000F040F80021A42000F03CF80021A620FC
:104CA00000F038F80021AF2000F034F806B070BDF5
:104CB0003038024000000240000C02400000404238
:104CC0000080414270B50CF017FB114E002505F134
:104CD000B000C0B2002100F01DF80021084600F02D
:104CE00019F80021102000F015F8002406EBC4008C
:104CF0000121405D00F00EF8641CE4B2802CF5D375
:104D00006D1CEDB2082DE2D3BDE870400CF0CEBBB7
:104D10005921002070B50F4CC4F884120023C4F848
:104D200090320D4D19460122C4F88032060602D594
:104D3000C5F8BC2201E0C5F8BC32C4F880224006A8
:104D4000491C000EC9B20829EED3C4F89022C4F859
:104D5000842270BD0080414200004042014802F0C0
:104D600049BA00006805002008B504A2014612688F
:104D70006846009205F02CFF002008BD5500000099
:104D80001FB500208DF80000014601AB6A460220E5
:104D900000F088F81FBD4A7801280FD0022805D0FE
:104DA00003280BD0042809D001207047881810F878
:104DB000010C8006002805DA212070478818407809
:104DC0008007F7E7002070470A78212A0BD00828CF
:104DD0002BD00ADC012813D0022813D0042813D0CA
:104DE000072808D121E02320704709281FD00A286E
:104DF0001ED0552801D001207047552A1AD017E03F
:104E0000C2B115E0A2B915E0803A112A10D2DFE84C
:104E100002F0090F0F0F0F0F0F0F0F0F0F0F0F0FD4
:104E20000F0F1100487828B902E00AB902E00AB170
:104E300021207047002070472DE9F041174F0024D2
:104E40003878012801D105F037FE154D4FF4407632
:104E50001348FFF789FF287855281DD03878012896
:104E600001D030B110E005F027FE287855280BD18D
:104E70000FE00B48FFF778FF287855280CD0204624
:104E8000641CA4B2B042F4D32046641CA4B205282A
:104E9000DED32620BDE8F0810020FBE7D003002010
:104EA00080350020FEB506461C4617460D461348C1
:104EB000FFF75AFF11480078552801D0FFF7BCFFD3
:104EC0002120207000206070042D00D800E02220F6
:104ED00008B12220FEBD02208DF800008DF801608F
:104EE0008DF80250721E39460DF10300FBF766FA89
:104EF0002146684605F06CFE0020FEBD803500208E
:104F000010B50B46C2B0212111700021517004214F
:104F10008DF8001014468DF80100024619460DF177
:104F20000200FBF74BFA2146684605F051FE214688
:104F30000420FFF749FF002803D02078872802D0FB
:104F4000212042B010BD2820FBE730B5C1B00925B3
:104F50008DF800508DF801008DF802108DF80320B7
:104F6000821E449C194601A8FBF728FA2146684690
:104F700005F02EFE41B0002030BD00210A4642540B
:104F8000491C5029FBDB704770B50B4D0B4E4FF49D
:104F9000006421462846FCF7F5FE30B180213046FA
:104FA000FCF7F0FE0028F4D170BD2846BDE8704043
:104FB00001225103FCF7EBBE001002400008024042
:104FC0000148FDF757BC00006C2500200249086825
:104FD00040F4003008607047045801402DE9F0416A
:104FE000074615460E461848FDF760FC164C174854
:104FF0004FF40051C4E900070020A060C4E9041088
:105000000121A1610905E161A062C4E90D0540210A
:10501000E063C4E910612021A164C902C4E913104E
:105020008900C4E915108020E065022020664FF455
:10503000403060662046FDF75BFC2068016841F463
:1050400080310160BDE8F0810C1C00200458014053
:1050500030B5044600211F4A8DB00A20B4FBF0F39E
:1050600001EB810532F81550AB4203D0491CC9B29F
:105070000B29F3D30B292AD00220009001EB8100E9
:1050800002EB40004188019181880391C088401C57
:1050900007906846FCF77EFF0F48016821F4401135
:1050A00041F4801101600D4D2868016821F48031C0
:1050B000016028462C62FDF71BFCFFF787FF28687C
:1050C000016841F48031016000200DB030BD012045
:1050D000FBE700001C4001088C3802400C1C00203B
:1050E0002DE9F8430F4680460021164608465BB17D
:1050F000012B02D0022B07D103E04FF4005188109E
:1051000002E04FF4804188102D4B00221C6844F4CB
:1051100080041C601B682B4C03F480030093A4F1F3
:105120008803294D1C672560A3634023C4E901233C
:105130001B01C4E905019810E0614002C4E90323A2
:10514000C4E90802E26220462263FCF79DFC204687
:10515000FCF7C6FC3B461D4A414620460096FCF73C
:1051600065FC2068016821F0010101600A2004F05B
:105170005BFC2068016841F01001016020684FF07D
:105180000061A84202D910484C3804E0104A90420D
:1051900003D90D485038016008E00D4B0C4A603BC4
:1051A000B83A984201D9D16000E0916000221146DE
:1051B0003B20FCF751FEBDE8F8433B20FCF740BE26
:1051C00030380240941C00205864024020580140AE
:1051D000B8600240C068002138B1022802D004281B
:1051E00003D101E0102100E0202101480160704757
:1051F0000058014070B50446FCF7CEFD0546206816
:105200000026016821F4803101600BE0FCF7C4FD49
:10521000401B0A2806D954F8840F40F04000206053
:10522000032603E020680068C003EFD4304670BD59
:1052300010B5274C274A0368C169A342136804D1FB
:1052400023F440130B43136004E023F4400343EAC8
:10525000810111601F4988390B6809685B0205D418
:1052600001F03F031C49B1FBF3F104E01B4B01F0DB
:105270003F01B3FBF1F1C06940B1B0F5801F14D01C
:1052800017490120C1F85C01164810BD114B1B1FC6
:1052900018681B68C0F30360C3F388134B43B3FB68
:1052A000F0F11068C0F304200DE00A4B083B1868C9
:1052B0001B68C0F30360C3F388134B43B3FBF0F1E7
:1052C000106800F01F00401CB1FBF0F010BD0000A2
:1052D000045801408C3802400024F40040787D01DD
:1052E000000047420080BB0003480068016841F0AD
:1052F0000101016070470000941C00200348006811
:10530000016821F00101016070470000941C002039
:105310001144074A00B552F82020914206D92122B3
:10532000052100F063FA4FF0FF3000BD002000BD02
:10533000202600202DE9F0410B464E490024661E30
:10534000C8604E4910784C4D0968232873D010DC92
:105350001A285AD008DC4A4FD7F800C0C8B1032831
:105360002FD0122811D132E01B284BD01E280CD18F
:1053700048E02A2871D004DC252862D0282804D1EE
:1053800065E02F286FD05A2849D0202205211846E1
:105390000FE03C481F46816819B12022407B05215F
:1053A00007E0DCF808101846884738B13A22022195
:1053B000384600F01BFA3046BDE8F0812C80002012
:1053C000FAE7BDE8F0411146184600F0DBB9507825
:1053D000C00702D02C4B07200BE0DCF81C0003EBCD
:1053E000C30300EB830312791879401D824200D871
:1053F0001046288003E0401E80B21A5C0A54002840
:10540000F9D115E020462C80D6E708201F4A2880D5
:10541000401E0004000C135C0B54F9D108E0082076
:105420001B4A2880401E0004000C135C0B54F9D169
:105430002046C1E7FFE7BDE8F0411146184600F0FD
:1054400067B9BDE8F0411146184600F01FB9BDE844
:10545000F0411146184600F0BBB8BDE8F0411146D6
:10546000184600F007BABDE8F0411146184600F0B2
:10547000D3B90000F001002096010020980100201F
:1054800078020020D02500207A5E0108815E0108A4
:10549000895E01082DE9F0411F4E80464FF400401F
:1054A000B468844200D3044672680027B4FBF2F06B
:1054B00085B2D6E904013B46FAF730FF02461748A9
:1054C0002B46174D00682968D0F810C04046E047C9
:1054D000002807DA11220421404600F087F9781EDF
:1054E000BDE8F081234681212A68F068FBF7DFFEE2
:1054F000D6E9041009197841C6E90410B0680949D1
:10550000001BB0608A68A2EB04028A6002D10649DF
:10551000032008700020E3E7F0010020780200205B
:1055200098010020F0250020940100202DE9F0478B
:10553000234F4FF400458146BC68AC4200D32C4653
:105540007A684FF00008B4FBF2F086B2D7E90401A4
:105550004346FAF7E3FE02461A4833461A4E0068FD
:105560003168D0F814C04846E047002808DA032222
:105570000421484600F03AF94FF0FF30BDE8F087CB
:10558000D7E90420121940EB0800C7E90420B868E5
:105590000E49001BB8608A68A2EB04028A600AD038
:1055A000A84200D3284683B201213268F868FBF78D
:1055B00038FE0020E2E70021F868FFF77DF8F8E701
:1055C000F00100207802002098010020F025002042
:1055D0002DE9F047284F81460C463878F0BB274D1F
:1055E0004FF0FF38287B000637D5254800688168D2
:1055F0004846884728B13A220221484600F0F6F88A
:1056000014E06088217940BA000440EA0121607901
:105610001C4E0143C817C6E90410B4F8070042BA8B
:105620004846B260FFF774FE002802DA4046BDE843
:10563000F08702203870D6E9041270680023A1FBBD
:10564000004702FB007201FB0321C6E90441B16877
:105650004143B160A868884205D000E003E0202201
:10566000687B0521CAE708494FF400400880484696
:10567000BDE8F047FFF70EBF94010020D0250020C1
:1056800078020020F00100209601002070B5044649
:105690001B481A4D1B4A006805EB840143682046ED
:1056A000984738B13A220221204600F09FF84FF087
:1056B000FF3070BD55F82400401E020E12480168EC
:1056C0000A7055F82400401E000C487035F824007C
:1056D000401E000A887015F82400401EC870094852
:1056E000001F4068020E0A71020C4A71020A8A7198
:1056F000C871064908200880002070BD20260020BF
:1057000078020020F401002098010020960100207A
:105710007CB5194C05460021226808465054491CA6
:1057200089B20C29FAD315486A4601A90068436872
:105730002846984738B13A220221284600F056F808
:105740004FF0FF307CBD20680821C1700199491ECF
:105750000A0E02710A0C42710A0A8271C171022199
:10576000017200990A0C42720A0A8272C1720449DB
:105770000C20088000207CBD9801002078020020C9
:105780009601002070B5154A002003461268135494
:10579000401CC0B21228FAD370201070104D0C209B
:1057A000D07128786C78A0420FD00E4C14F830607D
:1057B00004EBC004967066791673401C2479C0B25D
:1057C00054732870042800D12B70074A12201080CF
:1057D0000879122800D81080002070BD98010020A0
:1057E000F0010020002600209601002010B5094C91
:1057F000074B607803F83010110203EBC002401C25
:10580000C0B251606070042801D10020607010BDEA
:1058100000260020F001002070B5034648780A46B3
:1058200080074FF0FF3405D5242205211846FFF7E5
:10583000DDFF14E05088117940BA000440EA0121EC
:10584000507901430948CD17C0E90415B2F8072083
:1058500052BA82601846FFF75BFD002801DA204645
:1058600070BD03490020088070BD0000F0010020D9
:10587000960100202DE9F047304F81460C463878DC
:1058800020B14846BDE8F047FFF750BE2C4D4FF021
:10589000FF38287B00063DD42A4E30688168484690
:1058A000884720B13A2208E0FFF7A0FF1DE03068EA
:1058B000C1684846884718B1272202214846F3E7C5
:1058C0006088217940BA000440EA012160791E4EC7
:1058D0000143C817C6E90410B4F8070042BA4846A5
:1058E000B260FFF715FD002802DA4046BDE8F087F8
:1058F000D6E9041270680023A1FB004C02FB00C231
:1059000001FB0321C6E90441B1684143B160A868C5
:10591000884203D02022687B0521C5E7012038702A
:10592000C003814200D3014608488BB201210268BE
:10593000F068FBF776FC0020D8E700009401002017
:10594000D025002078020020F001002098010020DE
:105950000A6842624A688262D1E902231A43D1E9A5
:1059600004310B43C16A1A4321F0F7011143C162AC
:10597000002070470069C0B27047006800F0030063
:105980007047000008B5024908440090006808BD4F
:10599000142C014070B50DF1100C11439CE87000FF
:1059A0002343194329434268314347F6FF639A432F
:1059B0000A434260002070BD03210160002070474F
:1059C000D0F8800070470A688260D1E901231A4349
:1059D000D1E903310B43C1681A436FF30B01114343
:1059E000C160002070470968C0F88010002070472F
:1059F00070B5044600680E460025416B11F0450F56
:105A0000FBD0416B490703D503210422826304E0E4
:105A1000416BC90703D001218163084670BDFFF7C0
:105A2000A9FFB0422BD1216840F2FF5088630020CB
:105A3000FFF7A8FF284908424BD0002801DA1C20B4
:105A400070BD410001D5092070BD810001D50A203B
:105A500070BDC10001D50B2070BD010101D50C2026
:105A600070BD410101D50D2070BDC10101D50E20D1
:105A700070BD010201D50F2070BD410201D510207B
:105A800070BD810201D5112070BDC10201D5122067
:105A900070BD010301D5132070BD410301D5142051
:105AA00070BD810301D5152070BDC10301D516203D
:105AB00070BD010401D5172070BD410401D5182027
:105AC00070BD810401D5192070BD000701D51A20D1
:105AD00070BD284670BD000008E0FFFD01460020B3
