:020000040800F2
:1000000050D50220C5010008CD010008CB02000830
:10001000D1010008D3010008D5010008000000004C
:10002000000000000000000000000000D7010008F0
:10003000D901000800000000170200087F860008B0
:10004000DF010008DF010008DF010008DF01000810
:10005000DF010008DF01000831220008DF0100088D
:10006000DF010008DF010008DF010008DF010008F0
:10007000DF010008DF010008DF010008DF010008E0
:10008000DF010008DF010008DF010008DF010008D0
:10009000DF010008DF010008DF010008DF010008C0
:1000A000DF010008DF010008DF010008DF010008B0
:1000B000B9870008DF010008DF010008DF01000840
:1000C000DF010008DF010008DF010008DF01000890
:1000D000DF010008DF010008DF010008418D000892
:1000E000DF010008DF010008DF010008DF01000870
:1000F000DF010008DF010008DF010008DF01000860
:10010000DF010008DF010008DF010008DF0100084F
:10011000DF010008DF010008DF010008DF0100083F
:10012000DF010008DF010008DF010008DD1F000813
:10013000DF010008DF010008DF010008DF0100081F
:10014000DF010008DF010008DF010008CD620008C0
:10015000DF010008DF010008DF010008DF010008FF
:10016000DF010008DF010008DF010008DF010008EF
:10017000DF010008DF010008DF01000800000000C7
:10018000DF010008DF010008DF010008DF010008CF
:10019000DF010008DF010008DF010008DF010008BF
:1001A000DF010008DF010008DF010008DFF810D0E0
:1001B00000F056FB00480047B9090008AFF3008083
:1001C00050D502200648804706480047FEE7FEE774
:1001D000FEE7FEE7FEE7FEE7FEE7FEE7FEE7FEE7F7
:1001E00055870008AD010008EFF3108072B6704724
:1001F00080F310887047434A1368012B04D04FF0F6
:1002000001031360404A1060404A116040484FF0BB
:10021000805101607047EFF3108272B6394801686F
:1002200051B34FF0000101603748016891B1EFF31D
:1002300009811EF0100F08BF21ED108B21E9F00F8E
:100240004FF000041EF0100F08BF012441F8044DC8
:10025000006801602D490968096808C9B1E8F00F14
:10026000002B18BFB1EC108B81F309884EF0100EF3
:10027000002B18BF2EF0100E82F310884EF0040EE3
:10028000704722490860EFF3148222F0040282F3DF
:1002900014881D494FF0000008601A494FF0010012
:1002A00008601C484FF47F01D0F8002041EA0201A9
:1002B000016017484FF080510160174800680068DE
:1002C00080F3088861B662B670471EF0040F0CBF59
:1002D000EFF30880EFF3098020E9F00F40F804ED18
:1002E00040F804ED1EF0040F0CBF80F3088880F383
:1002F000098800B517F0F2FF5DF804EB4EF0040E2C
:10030000704700001C040020140400201804002082
:1003100004ED00E020ED00E008ED00E02DE9F05FE5
:100320000546002092469B46884606468146402464
:100330001BE0284641464746224600F02FF8534628
:100340005A46C01A914110D311461846224600F071
:1003500016F82D1A67EB01084F46224601200021AE
:1003600000F00DF817EB00094E41201EA4F1010426
:10037000DFDC484631462A464346BDE8F09F202A46
:1003800004DB203A00FA02F1002070479140C2F1EC
:10039000200320FA03F3194390407047202A04DB1E
:1003A000203A21FA02F00021704721FA02F3D040EE
:1003B000C2F12002914008431946704710B5431A14
:1003C000934209D28318881803E010F8011D03F83E
:1003D000011D521EF9D210BD40EA01039B0703D054
:1003E00009E008C9121F08C0042AFAD203E011F874
:1003F000013B00F8013B521EF9D210BDD2B201E020
:1004000000F8012B491EFBD270470022F6E710B519
:1004100013460A4604461946FFF7F0FF204610BD72
:10042000421E12F8013F002BFBD111F8013B02F8EC
:10043000013B002BF9D1704710B5044604E00B785E
:1004400000F8013B03B1491C521EF8D2204610BDF2
:10045000421C10F8011B0029FBD1801A704710B50F
:10046000002200E0521C835C8C5CA34201D1002B73
:10047000F8D1D8B2E1B2401A10BD30B50446002020
:10048000034600E05B1C934203D2E05CCD5C401B62
:10049000F8D030BD034611F8012B00F8012B002ADB
:1004A000F9D11846704730B505460020034600E0F4
:1004B0005B1C934205D2EC5CC85C201A01D1002C75
:1004C000F6D130BD30B50B46014600202022012474
:1004D00009E021FA02F59D4205D303FA02F5491B12
:1004E00004FA02F52844151EA2F10102F1DC30BD28
:1004F0002DE9FE4F804681EA0300C00F0C460090B4
:1005000021F0004123F00045B8EB0200A94105D2DB
:100510004046214690461C460B46024623F00040CA
:10052000104347D0270DC7F30A00C3F30A510290C6
:10053000401A019040286BDAC3F3130040F4801B8B
:100540000098924620B10023D2EB030A63EB0B0B19
:1005500001985946C0F140025046FFF710FF064689
:100560000D4650465946019A00F08CF910EB0800F0
:100570006141002487EA115284EAE7731A4340D0AC
:10058000009A62B3019A012A4FEA075215DC001B58
:1005900061EB02014FF0004202EA0752CDE900424E
:1005A000001C41F5801132462B4600F08CF903B057
:1005B000BDE8F08F40462146F9E7001B61EB0201E0
:1005C000001C41F5801300185B412018A2F50017AC
:1005D00047EB030140EAD570B6196D4111E06D0893
:1005E0004FEA360645EAC0754FEA0752001B61EB39
:1005F0000201001C41F5801149084FEA3000001942
:10060000514132462B4603B0BDE8F04F00F04CB9E3
:100610000098012240000023D0EB020263EBE0735C
:10062000009821464FEAE074B8EB000061EB04014A
:10063000E9E783F000435BE781F0004158E72DE9EB
:10064000FE4F81EA030404F0004421F000410094CD
:100650004FF0000B23F0004350EA01045ED052EA51
:1006600003045BD0C3F30A54C1F30A552C44A4F22B
:10067000F3340194A0FB0254C1F3130141F480113F
:10068000C3F3130343F4801301FB024400FB034E46
:10069000840A970A44EA815447EA8357A4FB07680F
:1006A00002958D0A05FB07854FEA932C04FB0C5439
:1006B0002705029D4FEA065847EA1637B5EB0805AD
:1006C0006EEB070C870E920E47EA811742EA8312FF
:1006D000A7FB0201B6EB0B0164EB00042B0D43EA10
:1006E0000C335E1844EB1C50DA465146E7FB02011E
:1006F000C5F313044FEA0B3343EA14534FEA0432B1
:10070000019C43EA0603A4F10C040294009CCDE989
:1007100000B400F0D8F803B0BDE8F08F0020014627
:10072000F9E72DE9F04D81EA030404F0004B21F0D4
:10073000004514464FF0000A23F0004150EA05023C
:1007400020D054EA01021DD0C5F30A570246C5F372
:100750001303C1F31300C1F30A5640F4801543F4A8
:100760008013A7EB0608101BD64608F2FD3873EB82
:10077000050002D308F1010801E092185B41B8F1CD
:10078000000F03DA00200146BDE8F08D00204FF491
:100790008011064684460EE0171B73EB050705D350
:1007A000121B63EB050306434CEA010C49084FEAB0
:1007B000300092185B4150EA0107EDD152EA030084
:1007C00012D082EA040083EA0501084305D0101B19
:1007D000AB4106D20122002306E000224FF0004385
:1007E00002E06FF0010253101AEB06004CEB0851C7
:1007F00010EB0A0041EB0B01BDE8F04D00F054B8DE
:10080000C1F30A52C1F3130140F2FF3341F48011E6
:100810009A4202DA00200146704740F233439A427E
:10082000A2F2334202DC5242FFF7B8BDFFF7A7BD88
:1008300030B5041E71F1000404DB4FF00044404267
:1008400064EB0101141E73F1000405DB1C464FF03C
:100850000043524263EB0403994208BF904230BD0B
:10086000064C074D06E0E06840F0010394E80700FD
:1008700098471034AC42F6D3FFF79CFC18DA010815
:1008800038DA0108202A06DBCB17203A41FA02F0B9
:1008900043EAE07306E041FA02F3D040C2F12002DD
:1008A000914008431946704710B5141E73F10004B7
:1008B00008DA401C41F1000192185B411A4301D152
:1008C00020F0010010BD2DE9F04D92469B4611B17C
:1008D000B1FA81F202E0B0FA80F220329046FFF7DE
:1008E0004EFD04460F4640EA0A0041EA0B0153461A
:1008F0005A46084313D0114653EA010019D0C8F1F3
:1009000040025046FFF74AFD05460E4650465946FE
:100910004246FFF734FD084305D0012004E020469D
:100920003946BDE8F08D0020054346EAE0762C43C9
:1009300037430A986305E40AA0EB08000022FD0A89
:1009400044EA47540A3002D500200146E9E7010590
:1009500010196941DDE9084500196941BDE8F04D0C
:10096000A2E770B58C1810F8015B15F0070301D1F0
:1009700010F8013B2A1106D110F8012B03E010F802
:10098000016B01F8016B5B1EF9D12B0705D4002325
:10099000521E0DD401F8013BFAE710F8013BCB1AC7
:1009A000921C03E013F8015B01F8015B521EF9D5BC
:1009B000A142D8D3002070BD10B519F088F90020ED
:1009C00010BD000000B587B000BF00200190904826
:1009D000006840F004008E4908600846006800F096
:1009E0000400019000BF00BF00BF00200190084636
:1009F000006840F0010008600846006800F001004F
:100A0000019000BF00BF00BF0020019008460068B1
:100A100040F0020008600846006800F00200019003
:100A200000BF00BF00BF002001900846006840F0F2
:100A3000100008600846006800F01000019000BF38
:100A400000BF00BF002001900846006840F0080089
:100A500008600846006800F00800019000BF00BF71
:100A600080200290002003900120049002A9694890
:100A700001F0C2FD4FF48050029002A9664801F0D7
:100A8000BBFD4FF48070029001200390049002207F
:100A9000059002A9614801F0AFFD1020029002A963
:100AA0005C4801F0A9FD4020029002A95A4801F0DB
:100AB000A3FD2020029002A9594801F09DFD80204D
:100AC000029002A9544801F097FD4FF40070029083
:100AD00002A9544801F090FD4FF48060029002207A
:100AE000049002A94F4801F087FD012210214948D6
:100AF00001F098FE0122C021474801F093FE012237
:100B00001102464801F08EFE01225102454801F0D3
:100B100089FE00224FF48061424801F083FE0122E9
:100B200020213F4801F07EFE4FF4C050029000208B
:100B300003900120049002A93A4801F05DFD4FF4B2
:100B400000500290012003900020049002200590A4
:100B500002A9344801F050FD4FF46040029000209B
:100B600003900120049002A92B4801F045FD4FF4A9
:100B70008070029002A92A4801F03EFD8020029078
:100B80000120039000200490059002A9244801F060
:100B900033FD022002900120039000200490059074
:100BA00002A9204801F028FD0120029003900020B6
:100BB0000490059002A91B4801F01EFD2020029020
:100BC00000200390049002A9134801F015FD802035
:100BD00002900120039004900020059002A90E4885
:100BE00001F00AFD012202210E4801F01BFE002245
:100BF00001210C4801F016FE01228021084801F075
:100C000011FE00228021044801F00CFE07B000BD57
:100C10003038024000080240000402400000024058
:100C2000000C02400010024010B505F04DF96420A0
:100C30000BF056FE0AF084F807F016FA0AF07AFA7A
:100C4000142108460AF051FA00221146202005F02E
:100C50009FF80DF031F90E49012208680DA10DF041
:100C600089FB0EF0F7FC48B105F02EF90AA2242109
:100C7000084607F0E2FB07A01AF064F94FF4FA60A7
:100C80000BF02EFE04F046FD06A00AF02FFC10BD6E
:100C900070290020303A00005570646174696E67F5
:100CA0002E2E2E00646F6E650A00000002460020A2
:100CB00002E000231354401C8842FADB7047000016
:100CC000F8B56A240225E9016D4801F0A3FD00286A
:100CD0007ED1A9036B4801F09DFD002855D1690321
:100CE000684801F097FD58BB2903664801F092FD62
:100CF00068B90120691DCBB204F11001CAB204F138
:100D00000E010090C8B2294605F0A6F90BE00020BC
:100D1000691DCBB204F11001CAB2891E0090C8B29D
:100D2000294605F099F90120691DCBB204F10C01A7
:100D3000CAB2891E0090C8B2294605F08DF917E0A5
:100D40000020691DCBB204F10C01CAB2891E0090CB
:100D5000C8B2294605F080F90020691DCBB204F124
:100D60001001CAB2891E0090C8B2294605F074F974
:100D70000120691DCBB204F10801CAB2A11D009087
:100D8000C8B2294605F068F925E00020691DCBB2FC
:100D900004F10801CAB2A11D0090C8B2294605F0AD
:100DA0005BF90020691DCBB204F11001CAB2891EA3
:100DB0000090C8B2294605F04FF90020691DCBB25A
:100DC00004F10C01CAB2891E0090C8B2294600E0A5
:100DD0000DE005F041F90120691DCBB2211DCAB219
:100DE000A11C0090C8B2294605F036F92EE000207B
:100DF000691DCBB2211DCAB2A11C0090C8B2294600
:100E000005F02AF90020691DCBB204F10801CAB22D
:100E1000A11D0090C8B2294605F01EF90020691DE9
:100E2000CBB204F11001CAB2891E0090C8B22946A3
:100E300005F012F90020691DCBB204F10C01CAB211
:100E4000891E0090C8B2294605F006F901202E1D22
:100E5000F3B204F11406F2B26E1CF1B204F1120600
:100E60000090F0B205F0F8F8E81DC3B23046C2B207
:100E7000A81EC1B2204605F0C9F805F0D1F9F8BDA9
:100E8000000C024000040240F8B506465F2500242D
:100E900004F10903AA1DE11C2846009605F02CF870
:100EA000E31CAA1D04F109012846009605F024F868
:100EB00004F10C03EA1CE81C2146009605F01CF81E
:100EC000E31CAA1DE81C2146009605F015F804F164
:100ED0000903AA1D04F10C01E81C009605F00CF8AA
:100EE000A31D2A1DA11C2846009605F005F805F053
:100EF00097F9F8BD00B587B06A20069002200590EA
:100F0000012000900598001D04900698143003906D
:100F10000598401C029006981230019002A90EC953
:100F200005F09AF80598C01D0490069812300390B9
:100F30000598801EC0B202900146DDE903230698A1
:100F400005F064F8012000900598401D0490069873
:100F5000001D03900698801C0290DDE9032305998B
:100F600005F07AF8012000900598401D049006983D
:100F7000083003900698801D0290DDE9032305994F
:100F800005F06AF8012000900598401D049006982D
:100F90001030039006980E300290DDE90323059986
:100FA00005F05AF8012000900598401D049006981D
:100FB0000C30039006980A300290DDE9032305996E
:100FC00005F04AF805F02CF94FF48071FE4801F065
:100FD00021FC00287ED14FF40041FC4801F01AFCAE
:100FE000002878D14FF48041F84801F013FC002824
:100FF0005BD14FF40051F54801F00CFC98B9012089
:1010000000900598401DC0B2049006981030C0B200
:10101000039006980E30C0B20290DDE903230599D3
:1010200005F01AF812E0002000900598401DC0B2AB
:10103000049006981030C0B2039006980E30C0B2EB
:101040000290DDE90323059905F006F801200090E0
:101050000598401DC0B2049006980C30C0B20390B1
:1010600006980A30C0B20290DDE90323059904F026
:10107000F3FF4FF4967018F093F901200090059853
:10108000401DC0B2049006981030C0B2039006987C
:101090000E30C0B20290DDE90323059904F0DCFFB5
:1010A0004FF4967018F07CF928E000200090059825
:1010B000401DC0B2049006980C30C0B20390069850
:1010C0000A30C0B20290DDE90323059904F0C4FFA1
:1010D000002001E0EEE057E000900598401DC0B20E
:1010E000049006981030C0B2039006980E30C0B23B
:1010F0000290DDE90323059904F0AEFF0120009082
:101100000598401DC0B2049006980830C0B2039004
:101110000698801DC0B20290DDE90323059904F012
:101120009BFF4FF4967018F03BF901200090059852
:10113000401DC0B2049006980C30C0B203900698CF
:101140000A30C0B20290DDE90323059904F084FF60
:101150004FF4967018F024F9012000900598401D76
:10116000C0B2049006981030C0B2039006980E30BA
:10117000C0B20290DDE90323059904F06DFF4FF43E
:10118000967018F00DF938E0002000900598401D89
:10119000C0B2049006980830C0B203900698801D33
:1011A000C0B20290DDE90323059904F055FF002049
:1011B00000900598401DC0B2049006981030C0B24F
:1011C000039006980E30C0B20290DDE90323059922
:1011D00004F042FF002000900598401DC0B204902A
:1011E00006980C30C0B2039006980A30C0B2029044
:1011F000DDE90323059904F02FFF012000900598F5
:10120000401DC0B204900698001DC0B2039006981D
:10121000801CC0B20290DDE90323059904F01CFF95
:101220004FF4967018F0BCF8012000900598401D0E
:10123000C0B2049006980830C0B203900698801D92
:10124000C0B20290DDE90323059904F005FF4FF4D5
:10125000967018F0A5F8012000900598401DC0B2C6
:10126000049006980C30C0B2039006980A30C0B2C1
:101270000290DDE90323059904F0EEFE4FF4967029
:1012800018F08EF8012000900598401DC0B204901F
:1012900006981030C0B2039006980E30C0B202908B
:1012A000DDE90323059904F0D7FE4FF4967018F09A
:1012B00077F84BE0002000900598401DC0B20490E4
:1012C0000698001DC0B203900698801CC0B2029020
:1012D000DDE90323059904F0BFFE00200090059886
:1012E000401DC0B2049006980830C0B20390069822
:1012F000801DC0B20290DDE90323059904F0ACFE25
:10130000002000900598401DC0B20490069810304F
:10131000C0B2039006980E30C0B20290DDE90323FC
:10132000059904F099FE002000900598401DC0B278
:10133000049006980C30C0B2039006980A30C0B2F0
:101340000290DDE90323059904F086FE0120009058
:101350000598401DC0B204900698001DC0B20390CD
:101360000698801CC0B20290DDE90323059904F0C1
:1013700073FE012000900598401DC0B204900698AD
:101380000830C0B203900698801DC0B20290DDE91B
:101390000323059904F060FE012000900598401D8C
:1013A000C0B2049006981030C0B2039006980E3078
:1013B000C0B20290DDE90323059904F04DFE01203F
:1013C00000900598401D03E0000C0240000402401C
:1013D000C0B2049006980C30C0B2039006980A3050
:1013E000C0B20290DDE90323059904F035FE04F054
:1013F00017FF07B000BD70B505460E462846FFF73B
:1014000027F804462846FFF723F8844201D000203D
:1014100070BD002406E0285D315D884201D00020C7
:10142000F6E7641C2846FFF713F8A042F3D8012022
:10143000EEE7000010B500F01DF800F021F80448B8
:1014400000F00AF80248407B0249087010BD000015
:10145000A43A0020CD03002038B5044604A000685B
:101460000090214668460CF0B7FC002038BD000013
:101470000100000010B50CF0BBFB0CF0C9FB10BD67
:1014800038B500241EA0006800900CF081FC0CF020
:10149000A9FB012801D10CF00BFC00BF19496846DB
:1014A0000CF09AFC17480078552801D1002038BD6F
:1014B0000CF098FB012802D10CF0FAFB13E00CF0C1
:1014C00091FB80B900BF0F4968460CF085FC0D48C0
:1014D0000078552801D10020E9E72046611C8CB234
:1014E000B0F5407FEFDB07480078552804D0204650
:1014F000611C8CB20528D1DB6FF00D00D7E700002E
:1015000055000000A43A002010B5044604F0F4FE93
:1015100004F01AF804F03EF803F084FE04F0E6FB51
:1015200004F0EAFE10BD38B504462069406800901A
:10153000009820F00200801C009000992069416012
:10154000032008F063FC38BD70B506460C4604F075
:101550008000802808D104F07F0000EB800106F5B0
:101560008E7000EBC10507E004F07F0000EB800106
:1015700006F55D7000EBC10504F07F00287004F0F3
:101580008000C00968702946304608F0ACFF002092
:1015900070BD70B506460C4604F08000802808D166
:1015A00004F07F0000EB800106F58E7000EBC105B2
:1015B00005E004EB840106F55D7000EBC105002039
:1015C000A87004F07F002870C4F3C010687029462A
:1015D000304608F060FF002070BD70B505460C462F
:1015E00004F08000802805D104F07F01284609F02E
:1015F00079F902E0284609F04FF9002070BD2DE985
:10160000F04106460D4690461F4605F080008028B2
:1016100008D105F07F0000EB800106F58E7000EB2D
:10162000C10407E005F07F0000EB800106F55D7066
:1016300000EBC10405F07F00207005F08000C009B8
:101640006070C4F80880E770607808B12078E080A6
:10165000022F01D1002020712146304608F0CFFE34
:101660000020BDE8F0812DE9F04105460E46174601
:10167000984606F07F0000EB800105F55D7000EBF9
:10168000C104E760C4F814800020A061607006F017
:101690007F002070E878012800D12761207820B9E8
:1016A0002146284608F0CFFD03E02146284608F0F1
:1016B0007BFF0020BDE8F08108B500220092009A6F
:1016C00061F30A12009202691268009B1A430369CF
:1016D0001A6008BD70B506460C4604F080008028EC
:1016E00008D104F07F0000EB800106F58E7000EB5E
:1016F000C10505E004EB840106F55D7000EBC10552
:101700000120A87004F07F002870C4F3C010687036
:101710002946304608F016FF002070BD2DE9F04143
:1017200007460D461646984605F07F0000EB8001FF
:1017300007F58E7000EBC1040120607005F07F009A
:101740002070E66026610020A061C4F81480207833
:1017500020B92146384608F076FD03E02146384698
:1017600008F022FF0020BDE8F08100007CB50546AE
:10177000564C284608F02DFDE868C0680090009897
:1017800020F4705000900098E968C860284609F07D
:10179000D3F803280BD10020A8704FF40070A88064
:1017A000009820F4705000F5105000907EE0012069
:1017B000A8704020A8804648844209D34548844206
:1017C00006D2009820F4705000F5605000906DE053
:1017D0004048844209D34048844206D2009820F40D
:1017E000705000F55050009060E03B48844209D3AF
:1017F0003A48844206D2009820F4705000F54050D8
:10180000009053E03548844209D33548844206D2DB
:10181000009820F4705000F53050009046E03048B9
:10182000844209D32F48844206D2009820F4705095
:1018300000F52050009039E02A48844209D32A4814
:10184000844206D2009820F4705000F510500090A9
:101850002CE02548844209D32448844206D20098CB
:1018600020F4705000F5005000901FE01F488442A3
:1018700009D31F48844206D2009820F4705000F526
:10188000E050009012E01A48844209D3194884427B
:1018900006D2009820F4705000F5C050009005E08A
:1018A000009820F4705000F5A05000900098E9686E
:1018B000C86000200190019820F4005000F500500D
:1018C00001900198E968486101207CBD00B0710B6E
:1018D000C0E1E4000024F400E0EC040100C31801BE
:1018E000002D310140A44C0100366E0140E295010B
:1018F00080C3C90160600B02F8B5054600240020D2
:101900000090284609F059F8064681E006F00100EB
:1019100000287BD0E1B2284600F0F6FA009000984B
:1019200000F0010030B3012000FA04F72869406B91
:10193000B8432969486300200090009820F0010016
:10194000401C009005F1180050F8240000998160B7
:10195000E1B232480068426828469047E87801289A
:1019600008D13CB940F21110405D042802D128464C
:1019700008F014FD0098C0F3C00060B10020009092
:10198000009820F008000830009005F1180050F889
:101990002400009981600098C0F3001060B100201D
:1019A0000090009820F010001030009005F1180011
:1019B00050F82400009981600098C0F3801060B155
:1019C00000200090009820F040004030009005F189
:1019D000180050F82400009981600098C0F340007E
:1019E00060B100200090009820F00200801C009060
:1019F00005F1180050F82400009981600098C0F3A8
:101A0000C01018B12146284600F092FA641C7608EE
:101A1000002E7FF47BAF0120F8BD00006C01002098
:101A20007CB50446002500200190204608F0CDFF3B
:101A300006466FE006F00100002869D0E9B22046B2
:101A400008F0CBFF0190019800F00100C8B300201E
:101A50000190019820F00100401C019004F1540015
:101A600050F8250001998160E078012817D104F130
:101A7000540050F825000069009005EB850104F53D
:101A80005D7000EBC10080680099C1F31201411A3A
:101A900005EB850204F55D7000EBC2008161E9B2DF
:101AA0001E480068026820469047E078012808D167
:101AB0003DB940F21110005D052802D1204608F022
:101AC0006DFC0198C0F3400060B1002001900198C6
:101AD00020F00200801C019004F1540050F8250011
:101AE000019981600198C0F3C00088B10B4800687B
:101AF00081682046884700200190019820F0080066
:101B00000830019004F1540050F8250001998160DB
:101B10006D1C7608002E8DD101207CBD6C0100204B
:101B20003EB50446A07A78B1D4F80C010068009064
:101B3000009820F002000090009820F00100009032
:101B40000099D4F80C01016000200190019820F068
:101B50000100401C01902069406801998843216977
:101B60004860094800688169204688470020029043
:101B7000029820F0004000F1004002900298E168D5
:101B8000486101203EBD00006C0100207CB5044688
:101B900000200190019820F0100010300190E068C2
:101BA000806901998843E1688861E068006A009073
:101BB000009800F00F0000EB800104F55D7000EB71
:101BC000C1050098C0F3434007282DD2DFE800F09C
:101BD0002C04051D1E2C1F0027E00098C0F30A10DE
:101BE00090B10098C0F30A122046E96808F0FFFEA1
:101BF000E8680099C1F30A110844E860A8690099EF
:101C0000C1F30A110844A8610FE00EE00DE00822BC
:101C100004F2CC51204608F0EAFEA8690099C1F30D
:101C20000A110844A86100E000BF00BFE0688069B5
:101C300001990843E168886101207CBD38B50446FC
:101C400008480068C1682046884700200090009836
:101C500020F00800083000900098E16848610120F9
:101C600038BD00006C0100201FB504460020009024
:101C70004FF48970005D0090234800684169204658
:101C8000884720698068019000200390039820F421
:101C9000006000F5006003900398E1684861A07A55
:101CA00070B3019800F0010050B340F21510005DD0
:101CB000012825D19DF80000032821D100200290A1
:101CC000029820F00100401C0290D4F80C0100683A
:101CD00002990843D4F80C110860029820F0020021
:101CE000801C0290D4F80C01006802990843D4F8D3
:101CF0000C1108600548006840F0060003490860C0
:101D0000012004B010BD00006C01002010ED00E0C7
:101D100030B587B0044600200290069005900490EC
:101D200003900190029820F00100401C029020696D
:101D3000406802998843216948600021204608F0E4
:101D4000D1FD00250BE0FF2104F1180050F825001B
:101D5000816004F1540050F8250081606D1C6078AA
:101D6000A842F0D84FF0FF312069816106986FF3E7
:101D70000F00401C0690069880B200F58030069057
:101D800006992069C161059820F008000830059087
:101D9000059820F00100401C0590059820F00200F5
:101DA000801C0590059920694161049820F001008C
:101DB000401C0490049820F0080008300490049817
:101DC00020F00200801C04900499206901612069C0
:101DD00000680390039820F4FE6003900399206943
:101DE0000160204608F0DAFA00200190019820F402
:101DF000805000F5805001900198E16848610448E6
:101E00000068016920468847012007B030BD000006
:101E10006C0100202DE9F04106460F463946304658
:101E200008F0FAFD01214FF4897081550021801CD2
:101E30008155002511E005EB850106F58E7000EB5C
:101E4000C104012060702570E5800020E070402012
:101E5000A0600020E06060616D1C7078A842EAD844
:101E6000002510E005EB850106F55D7000EBC1046F
:101E7000002060702570E580E0704020A0600020A8
:101E8000E06060616D1C7078A842EBD8304608F0C5
:101E90008FF9304607F0BCFF0021304608F024FEE1
:101EA000304608F048F8304608F0E4FCBDE8F08120
:101EB00038B504460020009007480068C1692046F4
:101EC0008847009820F4801000F58010009000985A
:101ED000E1684861012038BD6C01002038B5044636
:101EE0000020009007480068016A20468847009853
:101EF00020F4001000F5001000900098E16848619F
:101F0000012038BD6C01002030B5024615692B69EF
:101F100015696C6B24FA01F505F0010543EAC51358
:101F200002F1180555F82150AD6805EA030030BDEF
:101F30002DE9F84306460F4600250020009007EBE8
:101F4000870106F58E7000EBC104D4E90501451A3E
:101F5000A068A84200D2A568E81C4FEA900806F1E4
:101F6000180050F827008069009029E0D4E90501A5
:101F7000451AA068A84200D2A568E81C4FEA90085C
:101F8000ABB2FAB23046E16808F0D5FDE06828440B
:101F9000E060A0692844A06106F1180050F827000D
:101FA00080690090D4E90501884209D12178012097
:101FB00000FA01F93069406B20EA09003169486391
:101FC000009880B2404506D9D4E90510884202D273
:101FD00060690028CAD10120BDE8F88310B52948FE
:101FE00000682949884205D927485438006800F01C
:101FF00000601BE0234800682449884205D9224834
:102000005838006800F0006010E01E4800681F4962
:102010006039884205D91D48B838406800F0006032
:1020200004E01A48B838006800F0006048B315486A
:1020300000681549884205D94FF0006012494C39B3
:1020400008601BE00F4800681049884205D94FF02E
:1020500000600D495039086010E00A4800680B49DB
:102060006039884205D94FF000600849B839C86026
:1020700004E04FF000600549B83988600448006802
:10208000804710BD2823002058640240B8600240F9
:102090000C0100200146087810381823B0FBF3F239
:1020A0000848805C4865032A05D908686FF3090071
:1020B000001D086503E008686FF309000865086DF6
:1020C000704700004ED5010810B50468636084684D
:1020D000402C04D10468A2600468E16003E0046855
:1020E000A1600468E26010BD85E0002042490880DC
:1020F000002242494248006816F001FC002865D1E0
:102100003E4801683FA016F0A9FA3C4800680078F4
:102110004D2804D0394800684078612816D1002441
:1021200007E004F1080035490968085C3A49085598
:10213000641C32480068083016F0E3FFA042F0D873
:1021400035493648006816F054FC3BE02B480068DF
:102150000078532804D02948006840786F2816D1A9
:10216000002407E004F10A0024490968085C2C49AE
:102170000855641C214800680A3016F0C2FFA042CE
:10218000F0D827492748006816F033FC1AE01B48AE
:1021900000680078422804D0184800684078542825
:1021A00010D1164800688078432803D101201E49C9
:1021B000087007E0114800688078442802D10020A8
:1021C000194908700D48006804F00EFA16480078A6
:1021D00018B10120FEF758FE02E00020FEF754FE81
:1021E0008021124800F016FB012801D1FEF768FD9E
:1021F000642017F0D5F878E7140100201C000020B7
:10220000700000205265765F46726F6D5F42542009
:102210003D25730A00000000EE0D00207400002030
:10222000200E0020780000209400002000080240CA
:1022300010B5012000F0D2F910BD000010B500214A
:1022400008A015F058FE0C49086000210BA015F0FD
:1022500052FE0F49086000210EA015F04CFE1549F2
:10226000086010BD41626F7274576176706C61795D
:102270005F4576656E74000088000020506C6179BF
:1022800074576176706C61795F4576656E74000095
:102290008C00002050726576656E745F41636369DF
:1022A00064656E74616C5F506C61795F4576656ED4
:1022B0007400000090000020014609B9102070470A
:1022C000012901D11820FAE7022901D12020F6E7DF
:1022D000032901D12820F2E7042901D13020EEE7BB
:1022E000052901D14020EAE7062901D16020E6E76F
:1022F000072901D18020E2E74FF48070DFE700007A
:102300002DE9F05F8246884614462046E21704EB2A
:102310005272D2102146E31704EB5373DB10A4EB87
:10232000C3030BB1012300E000231A44624302F00F
:10233000FF099AF800600AF1010082460578812EB3
:1023400005DB402D03DBFF2D01D0FF2E0DD14FF01B
:10235000000B06E0002008F8010B0BF1010000F073
:10236000FF0BCB45F6DBBDE8F09F7F2D03DAA5F12F
:102370004000C5B202E0A5F14100C5B2A6F181005E
:10238000C6B2BE2010FB065000FB09F70C2C06D08D
:10239000102C0DD0182C14D0202C24D11AE0134866
:1023A000D0F80900C1194A46404608F015FD1AE068
:1023B0000E48D0F81100C1194A46404608F00CFDFD
:1023C00011E00A48D0F81900C1194A46404608F001
:1023D00003FD08E00548D0F82100C1194A464046EF
:1023E00008F0FAFC00BF00BF00BFBCE74129002095
:1023F00070B50A480468001D0568001D066834446D
:1024000054B108220649204603F050F90422044939
:102410001031284603F04AF970BD0000107AFF1F02
:102420003A0200202DE9F04104460E4617461D46AB
:10243000DDF8188000BF94F83400012802D1022092
:10244000BDE8F081012084F8340000BF20680068F6
:1024500000F4002018B9122084F8350007E0206845
:10246000006800F4002010B1222084F835002068B4
:10247000006820F00100216808602068006840F4CE
:102480008020216808602068056143463A4631464D
:102490002046FFF719FE2068006840F0010021681F
:1024A00008600020CCE770B504460CB9012070BD6F
:1024B00094F83500022801D10120F8E7206800686F
:1024C00020F0010021680860002021680860216870
:1024D0004860216888602168C860216808612120FF
:1024E000216848612046FFF7D5FD054694F8541051
:1024F0003F208840A8600020E06484F8350000BFD9
:1025000084F8340000BF00BFD1E7000070B5044676
:1025100000250CB9012070BD606A00B100BF022027
:1025200084F835002068056818480540D4E90101A1
:102530000843E16808432169084361690843A169C8
:102540000843E1690843216A08430543606A042897
:1025500003D1D4E90B0108430543206805602068D6
:10256000456925F00705606A0543606A042801D1C2
:10257000A06A0543206845612046FFF78BFD0020D7
:10258000E064012084F835000020C4E73F8010F0AB
:1025900031B5002400F04CF9044600BF00F048F9C2
:1025A000001B00998842F9D338BD000010B50446DD
:1025B000012C02D103A008F099FF05A008F096FFB6
:1025C00010BD0000B4A5B7A2D6D0B6CF0A00000057
:1025D000B4A5B7A2D6D0B6CF310A000010B50446D4
:1025E00004480068204020B12046FFF7DFFF014883
:1025F000046010BD143C0140F8B502460B460025AE
:10260000002400200021E6E0012606FA01F51E68FC
:1026100006EA0504AC4273D15E68022E02D05E6801
:10262000122E13D1CF0802F1200656F827004E07CC
:10263000F70E0F26BE40B0434F07FF0E1E69BE4087
:102640003043CF0802F1200646F8270010684F00FB
:102650000326BE40B0431E7906F003064F00BE407D
:10266000304310605E68012E08D05E68022E05D0EF
:102670005E68112E02D05E68122E13D190684F0052
:102680000326BE40B0434F00DE68BE40304390603A
:10269000506801268E40B0431E79C6F300168E4066
:1026A00030435060D0684F000326BE40B0434F0017
:1026B0009E68BE403043D0605E6806F08056B6F13A
:1026C000805FA8D100BF00260096454E366846F4CC
:1026D0008046434F3E603E46366806F4804600968C
:1026E00000BF00BF3F4E8F0856F827008E07370FF8
:1026F0000F26BE40B0433C4EB24202D100262EE02F
:1027000068E03A4EB24201D1012628E0384EB2428A
:1027100001D1022623E0374EB24201D103261EE04A
:10272000354EB24201D1042619E0344EB24201D1F5
:10273000052614E0324EB24201D106260FE0314E9A
:10274000B24201D107260AE02F4EB24201D108263B
:1027500005E02E4EB24201D1092600E00A268F077D
:102760003F0FBE4030431F4E8F0846F82700284ECB
:102770003068A0435E6806F48036B6F5803F00D12D
:102780002043234E3060361D3068A0435E6806F457
:102790000036B6F5003F00D120431D4E361D306097
:1027A000361D3068A0435E6806F48016B6F5801FBB
:1027B00000D12043164E08363060361D3068A043E5
:1027C0005E6806F40016B6F5001F00D12043104ED7
:1027D0000C363060491C1029FFF416AFF8BD00001C
:1027E0004438024008380140000002400004024022
:1027F00000080240000C0240001002400014024099
:1028000000180240001C0240002002400024024048
:10281000003C0140024613690B400BB1012000E06F
:10282000002070470AB1816101E00B0483617047A9
:1028300010B516F06DFF4FF47A714843B0FBF1F01C
:1028400010BD000002480068401C01490860704744
:102850003801002010B50D48006840F400700B49A5
:1028600008600846006840F4806008600846006818
:1028700040F480700860032000F086F80F2000F01C
:1028800007F800F017F8002010BD0000003C0240DF
:1028900070B5044600F0EAFB4FF47A71B0FBF1F535
:1028A000284601F0DEFE00222146501E00F02DF8E1
:1028B000002070BD7047000000BF00F01F02012122
:1028C0009140034A430942F8231000BF70470000BB
:1028D00080E200E000BF00F01F0201219140034AA6
:1028E000430942F8231000BF7047000080E100E078
:1028F00000BF00F01F02012191404209920002F145
:10290000E022C2F8001100BF70472DE9F05F804659
:102910000D461646002703F0BBFA074639462A46FD
:10292000334601F00700C0F1070ABAF1040F02D9DB
:102930004FF0040A01E0C0F1070AD14600F1040A91
:10294000BAF1070F02D24FF0000A01E0A0F1030A2A
:10295000D4464FF0010A0AFA09FAAAF1010A0AEA72
:10296000020A0AFA0CFA4FF0010B0BFA0CFBABF15E
:10297000010B0BEA030B4AEA0B042146404603F025
:102980008FFABDE8F09F000000BF00F00702064B81
:1029900019684FF6FF031940044B0B4343EA022129
:1029A000014B196000BF70470CED00E00000FA0514
:1029B00038B5002400BF002000902348006840F094
:1029C0008050214908600846006800F0805000905F
:1029D00000BF00BF0120010491FAA1F1B1FA81F119
:1029E0001A4A42F82100FFF723FF044607E0FFF7E9
:1029F0001FFF001BB0F57A7F01D9032038BD1448B2
:102A0000406800F48030B0F5803FF0D101204104EF
:102A100091FAA1F1B1FA81F10C4A42F82100FFF7D5
:102A200007FF044607E0FFF703FF001BB0F57A7FBE
:102A300001D90320E2E70648406800F40030B0F511
:102A4000003FF0D10020D9E74038024000000E429C
:102A500000700040F8B5044600250026207800F0FC
:102A6000010020B9207800F00200022866D1002081
:102A7000CC498866FFF7DCFE054606E0FFF7D8FE86
:102A8000401B642801D90320F8BDC7480068C0F383
:102A9000C0600028F2D1207800F0010098B147F61C
:102AA000C07191FAA1F1B1FA81F1606888404FF0EC
:102AB000E04292FAA2F2B2FA82F2A168914008438F
:102AC000B94984310860207800F00200022821D141
:102AD000B5488430006800F0E0404FF0E04191FAE2
:102AE000A1F1B1FA81F120FA01F660688101207B41
:102AF00041EA006040EA0670AB4984310860AA48A8
:102B00008C30006820F01F00E169491E0843A64987
:102B10008C3108600120A3498866FFF789FE0546CD
:102B200006E0FFF785FE401B642801D90320ABE7D0
:102B30009D480068C0F3C0600028F2D0207800F003
:102B40000400042804D0207800F0080008287DD173
:102B5000002094490867FFF76BFE054606E0FFF783
:102B600067FE401B642801D903208DE78E4800686A
:102B7000C0F340700028F2D1207800F0040004284F
:102B800034D189488830006800F0E0404FF0E041DF
:102B900091FAA1F1B1FA81F120FA01F647F6C0717C
:102BA00091FAA1F1B1FA81F1206988404FF0706289
:102BB00092FAA2F2B2FA82F26169914008434FF0B0
:102BC000E04191FAA1F1B1FA81F106FA01F108436D
:102BD000754988310860081D006820F4F851206AA2
:102BE000401E41EA002070498C310860207800F0D6
:102BF0000800082834D16C488830006800F0706004
:102C00004FF0706191FAA1F1B1FA81F120FA01F669
:102C100047F6C07191FAA1F1B1FA81F120698840BB
:102C20004FF0706191FAA1F1B1FA81F106FA01F168
:102C300008434FF0E04292FAA2F2B2FA82F2A1699E
:102C40009140084358498831086000E01CE0081DA5
:102C5000006820F44030616A084353498C310860B1
:102C6000012050490867FFF7E3FD054606E0FFF73E
:102C7000DFFD401B642801D9032005E74A480068AE
:102C8000C0F340700028F2D0207800F02000202807
:102C90007DD100BF0020009043484030006840F0E4
:102CA00080504149403108600846006800F080507B
:102CB000009000BF00BF3D48006840F480703B4971
:102CC0000860FFF7B5FD054606E0FFF7B1FD401BC4
:102CD000642801D90320D7E63448006800F48070E6
:102CE0000028F2D030487030006800F44070218D28
:102CF00001F4407188424AD02B487030006820F4BB
:102D0000407601202A49086000200860264870307B
:102D1000066006F0020098B1FFF78AFD054608E05C
:102D2000FFF786FD401B41F28831884201D903201C
:102D3000AAE61D4870300068C0F340000028EFD0BC
:102D400000BF208D00F44070B0F5407F0CD11648D4
:102D50000830006820F4F810164AA16A11400843B0
:102D600011490831086007E00F480830006820F476
:102D7000F8100D49083108600B4870300068218D4B
:102D8000C1F30B01084308497031086000BF207887
:102D900000F01000102803D194F82C0006490860B8
:102DA000002071E6000047420038024000700040F9
:102DB000400E4742FFFCFF0FE011474270B504464A
:102DC0000E460025A748006800F00F00B0426FD201
:102DD000A4490E700846006800F00F00B04201D010
:102DE000012070BD207800F00200022807D19E4823
:102DF000006820F0F000A16808439B490860207833
:102E000000F0010000283ED06068012807D19648F4
:102E100008380068C0F34040B8B90120E1E76068B5
:102E2000022802D06068032807D18F48083800685C
:102E3000C0F3406048B90120D3E78B4808380068E8
:102E4000C0F3400008B90120CBE78748006820F0B4
:102E500003006168084384490860FFF7E9FC054600
:102E60006068012810D108E0FFF7E2FC401B41F246
:102E70008831884201D90320B3E77B48006800F01D
:102E80000C000428F0D1CDE06068022811D108E0E0
:102E9000FFF7CEFC401B41F28831884201D9032064
:102EA0009FE77148006800F00C000828F0D1B9E0F5
:102EB00024E06068032810D108E0FFF7B9FC401B4C
:102EC00041F28831884201D903208AE766480068C8
:102ED00000F00C000328F0D1A4E008E0FFF7A8FC04
:102EE000401B41F28831884201D9032079E75E48CE
:102EF000006800F00C000028F0D193E0207800F08A
:102F00000200022807D15848006820F0F000A168AC
:102F1000084355490860207800F00100002877D068
:102F20006068012807D1504808380068C0F3404065
:102F3000B8B9012055E76068022802D0606803280C
:102F400007D1494808380068C0F3406048B90120FB
:102F500047E7454808380068C0F3400008B9012039
:102F60003FE74148006820F00300616808433E499C
:102F70000860FFF75DFC05466068012810D108E095
:102F8000FFF756FC401B41F28831884201D90320EB
:102F900027E73548006800F00C000428F0D137E03E
:102FA0006068022810D108E0FFF742FC401B41F2A4
:102FB0008831884201D9032013E72B48006800F0CC
:102FC0000C000828F0D123E06068032810D108E045
:102FD000FFF72EFC401B41F28831884201D90320C3
:102FE000FFE62148006800F00C000328F0D10FE054
:102FF00008E0FFF71DFC401B41F28831884201D9EF
:103000000320EEE61848006800F00C000028F0D11C
:1030100014490E700846006800F00F00B04201D05D
:103020000120DEE6207800F00400042807D10E48D5
:10303000006820F4E050E16808430B4908602078FC
:1030400000F00800082808D10748006820F4604014
:10305000216940EAC100044908600F20FFF718FC0D
:103060000020BEE6003C02400838024010B500F0E7
:1030700045F80949096801F0F001F02292FAA2F23C
:10308000B2FA82F2D140054A515CC8400449086056
:103090000846006810BD00000838024056D50108F7
:1030A0000000002010B5FFF7E1FF0749096801F4AF
:1030B000E0514FF4E05292FAA2F2B2FA82F2D14019
:1030C000024A515CC84010BD0838024056D501087C
:1030D00010B5FFF7CBFF0749096801F460414FF4D1
:1030E000604292FAA2F2B2FA82F2D140024A515CF4
:1030F000C84010BD0838024056D5010870B50021FF
:10310000002200230020274C246804F00C0424B182
:10311000042C04D0082C41D103E0234840E023488C
:103120003EE0204C241F246804F03F011D4C241F66
:10313000246804F4800484B11C4CB4FBF1F5194CF0
:10314000241F246847F6C076344096FAA6F6B6FAED
:1031500086F6F44005FB04F20FE0134CB4FBF1F5E6
:10316000104C241F246847F6C076344096FAA6F621
:10317000B6FA86F6F44005FB04F20A4C241F2468D4
:1031800004F440344FF4403595FAA5F5B5FA85F5C9
:10319000EC40641C6300B2FBF3F001E0024800BFA6
:1031A00000BF70BD083802400024F40040787D0163
:1031B00038B504460025207800F00100002866D0CC
:1031C000F748006800F00C0004280DD0F4480068AF
:1031D00000F00C00082813D1F148001F006800F42B
:1031E0008000B0F5800F0BD1ED4808380068C0F3BF
:1031F000404000284BD06068002848D1012038BDED
:103200000020E749891F0870FFF712FB054608E018
:10321000FFF70EFB401B41F28831884201D90320A1
:10322000EDE7DF4808380068C0F340400028EFD1E0
:103230002079DB49891F08706068A0B1FFF7F8FAB0
:10324000054608E0FFF7F4FA401B41F28831884256
:1032500001D90320D3E7D24808380068C0F34040C2
:103260000028EFD013E0FFF7E3FA054608E0FFF788
:10327000DFFA401B41F28831884201D90320BEE7C2
:10328000C74808380068C0F340400028EFD12078D4
:1032900000F00200022869D1C148006800F00C006B
:1032A00058B1BF48006800F00C00082821D1BC4884
:1032B000001F006800F48000D8B9B94808380068D9
:1032C000C0F3400020B1E068012801D0012096E75A
:1032D000B3480838006820F0F800F82292FAA2F209
:1032E000B2FA82F2216991400843AD490839086079
:1032F0003CE0E06828B30120AA490860FFF798FA8B
:10330000054606E0FFF794FA401B642801D9032024
:1033100075E7A34808380068C0F340000028F1D0E2
:103320009F480838006820F0F800F82292FAA2F2CC
:10333000B2FA82F22169914008439949083908603C
:1033400014E0002097490860FFF772FA054606E08E
:10335000FFF76EFA401B642801D903204FE790481D
:1033600008380068C0F340000028F1D1207800F050
:10337000080008282CD16069A8B101208A4908609A
:10338000FFF756FA054606E0FFF752FA401B64289D
:1033900001D9032033E782486C300068C0F3400055
:1033A0000028F1D014E000207F490860FFF740FAC0
:1033B000054606E0FFF73CFA401B642801D90320CC
:1033C0001DE777486C300068C0F340000028F1D159
:1033D000207800F0040004286FD100BF0020009086
:1033E0006F483830006840F080506D4938310860CF
:1033F0000846006800F08050009000BF00BF6B4896
:10340000006840F4807069490860FFF711FA0546CA
:1034100006E0FFF70DFA401B642801D90320EEE611
:103420006248006800F480700028F2D000205C49F7
:1034300068310870FFF7FCF9054608E0FFF7F8F976
:10344000401B41F28831884201D90320D7E6544815
:1034500068300068C0F340000028EFD1207A50495E
:1034600068310870A068A0B1FFF7E2F9054608E0EE
:10347000FFF7DEF9401B41F28831884201D9032071
:10348000BDE6474868300068C0F340000028EFD030
:1034900013E0FFF7CDF9054608E0FFF7C9F9401B37
:1034A00041F28831884201D90320A8E63C486830BF
:1034B0000068C0F340000028EFD1A069F0B338489D
:1034C000006800F00C00082872D0A069022850D1D2
:1034D000002034490866FFF7ABF9054606E0FFF720
:1034E000A7F9401B642801D9032088E62C48083836
:1034F0000068C0F340600028F1D1D4E90701084317
:1035000047F6C07292FAA2F2B2FA82F2616A914070
:1035100008430122A16AC2EB51014FF4403292FAF2
:10352000A2F2B2FA82F2914008434FF0706292FA2E
:10353000A2F2B2FA82F2E16A914000E03AE0084376
:103540001749091F0860012016490866FFF770F93E
:10355000054606E0FFF76CF9401B642801D90320FB
:103560004DE60F4808380068C0F340600028F1D0ED
:1035700020E000200B490866FFF75AF9054606E0EF
:10358000FFF756F9401B642801D9032037E60448A9
:1035900008380068C0F340600028F1D10AE007E075
:1035A0000838024000004742800E47420070004049
:1035B000012024E6002022E610B504460CB90120C3
:1035C00010BD022084F88100002021680861401E9F
:1035D00021688861204603F08FF92068406840F038
:1035E000080021684860204600F0AEF80020C4F8CA
:1035F000840084F8810000BF84F8800000BF00BF11
:10360000DEE7704770B50446002500260CB901209E
:1036100070BD94F8810028B9002084F8800020460D
:1036200000F094F8022084F88100204603F064F949
:10363000204603F04DF9206AB8B1204603F080F926
:10364000064606EB86004100206A4002B1FBF0F519
:103650000A20B5FBF0F16162B5FBF0F100FB1150FF
:10366000082802D9606A401C6062206800683449FA
:10367000084021680860616B60680843A16B0843DB
:10368000E16B0843216C0843A1680843A16A084321
:103690002169084361690843A18C40EA0150E16A4D
:1036A0000843216809680843216808602068406869
:1036B0004CF20F01884321684860E16AA069084321
:1036C000216B0843216849680843216848602068E5
:1036D00080681C49084021688860606C401E616DEC
:1036E0000843E16C0843216D0843A16C491E40EA80
:1036F0000120216889680843216888602068C068C3
:103700004FF2200108402168C860D4E9160108433F
:10371000616E0843216E491E40EA01202168C96894
:1037200008432168C8600020C4F88400012084F8A0
:10373000810000BF002084F8800000BF00BF67E761
:1037400010C005FF0080F8FF7047000010B586B07C
:10375000044600BF002000901748006840F4800035
:10376000154908600846006800F48000009000BF1A
:1037700000BF00BF002000900F481438006840F0E0
:1037800010000D49143908600846006800F0100068
:10379000009000BF00BF7C20019002200290012019
:1037A0000390032004900620059001A90348FEF72A
:1037B00023FF06B010BD0000443802400010024054
:1037C0002DE9F04103460020002293F8204081F8C3
:1037D00056409C8CA1F854409C6A220E94090C70AF
:1037E000C2F383044C7002F003048C709C6AC4F32F
:1037F0000742CA701C8DC4F307220A7193F828206F
:103800004A71DC6A220E4FF6FF7404EA0214CC807F
:10381000DC6AC4F30742CC8844EA1214CC8002F07C
:103820000F040C729C8DC4F30722D4094C72C2F3AE
:1038300080148C72C2F34014CC72C2F300140C7367
:1038400000244C731C6A14B11C6A012C4DD19407DE
:10385000240D0C612C24E25C0C6944EA82040C61A6
:103860001C6B220E0C6944EA92140C61C2F3C20470
:103870000C7502F007044C751C6BC4F30742540925
:103880008C75C2F38204CC759407640F0C761C8E81
:10389000C4F307220C7E44EAD2140C760C69641C33
:1038A0000025C1E912450C7ED1E91275A41C012640
:1038B00006FA04F4E617A7FB04C805FB048407FB1B
:1038C0000644C1E912C40D7A0124AC400C654FF0E6
:1038D000000CD1E912760C6DA7FB045806FB04849A
:1038E00007FB0C44C1E9125431E01C6A022C2DD1B3
:1038F0002C24E25C9406A40A0C611C6B220E0C6959
:1039000044EA02240C611C6BC4F307420C691443A3
:103910000C611C8EC4F307220C690025661C6D41E6
:103920004FF400774FF0000CA6FB074805FB078516
:1039300006FB0C557E00A4FB067805FB068504FB00
:103940000C54C1E9127474100C6500E02920C2F314
:10395000801401F8194F9406640E4C703024E25C18
:103960004C7844EAD2144C7002F07F048C705C6B8B
:10397000220ED409CC70C2F341140C71C2F382043C
:103980004C719407240F8C715C6BC4F307428C79E3
:1039900044EA92148C71C2F34014CC7100240C726E
:1039A00002F001044C729C8EC4F30722D4098C727D
:1039B000C2F38014CC72C2F340140C73C2F300142F
:1039C0004C73C2F381048C7302F00304CC7334246F
:1039D000E25C54080C7401244C749C6B220ECA7473
:1039E00019399C6BC4F307424FF6FF7404EA0225B1
:1039F000CD851C8FC4F30722CC8D1443CC8593F85E
:103A0000382015060D63DC6B220E0C6B44EA024570
:103A10000D63DC6BC4F307420C6B44EA02250D63B3
:103A20009C8FC4F307220C6B14430C633C24E25CB0
:103A3000342462541C6C220E352462541C6CC4F372
:103A4000074215068D634024E45AC4F307228C6BA9
:103A500044EA02458D634024E25C8C6B44EA022513
:103A60008D635C6C220E8C6B14438C635C6CC4F3B2
:103A700007423C24645C44EA12143C256C5414074D
:103A8000250DCD874424E45AC4F30722CC8F144378
:103A9000CC874424E25C5508402465540125412428
:103AA0006554BDE8F08130B58BB004460D4600206A
:103AB0000A902077204600F045F8002004900590F9
:103AC0000690079008907620099007A807C88DE80F
:103AD0000700206804A90EC903F050FC204604F03A
:103AE00071F80A909DF8280018B19DF828000BB0D5
:103AF00030BD204603F0FEFE0A909DF8280010B16C
:103B00009DF82800F3E729462046FFF759FE0A9062
:103B10009DF8280040B9B5F8540001040A46002376
:103B2000204604F047F90A90D4E90412A069CDE9CF
:103B30000012029094E80F0003F020FC9DF828008A
:103B4000D5E7000010B586B0044600BF0020009005
:103B50002948006840F4006027490860084600686A
:103B600000F40060009000BF00BF00BF0020009084
:103B700021481438006840F480001F491439086057
:103B80000846006800F48000009000BF00BF00BF3E
:103B9000002000900846006840F0040008600846D5
:103BA000006800F00400009000BF00BF00BF0020CC
:103BB00000900846006840F0080008600846006869
:103BC00000F00800009000BF00BF4FF4F8500190D3
:103BD0000220029001200390032004900C20059005
:103BE00001A90648FEF708FD0420019001A9044838
:103BF000FEF702FD06B010BD443802400008024046
:103C0000000C02402DE9FF5F8CB004461746984631
:103C1000DDE91AB94FF0000A00250D9E0020216849
:103C2000C862206A022809D14FF4007B02020023F7
:103C300038464146FCF772FB07468846CDF81CB073
:103C4000102008904020099000200A904FF48060D6
:103C50000B9007A9206803F0B4FB1021204603F065
:103C6000E5FB8246BAF1000F03D0504610B0BDE824
:103C7000F09F4FF0FF30019009FB0BF00290902075
:103C8000039002200490002005900120069001A9D5
:103C9000206803F047FBB9F1010F02D91220089008
:103CA00001E011200890079707A9206803F089FB1D
:103CB000B9F1010F22D91221204603F0B7FB824649
:103CC000BAF1000F01D05046D0E70FE02068406BFA
:103CD00000F4004050B1002505E0206803F06DFBC2
:103CE00046F825006D1C082DF7D320362068406B60
:103CF00040F22A3108400028E8D021E01121204676
:103D000003F094FB8246BAF1000F01D05046ADE7B4
:103D10000FE02068406B00F4004050B1002505E042
:103D2000206803F04AFB46F825006D1C082DF7D3E8
:103D300020362068406B40F22A6108400028E8D015
:103D40002068406B00F4807070B1B9F1010F0BD99D
:103D5000206A28B1206A012802D0206A022803D1F3
:103D6000204600F047F882462068406B00F00800CB
:103D700030B10820216888634FF0040A504675E787
:103D80002068406B00F0020028B10220216888639F
:103D9000824650466AE72068406B00F0200030B150
:103DA0002020216888634FF0060A50465EE72068AD
:103DB000406B00F4007038B14FF4007021688863E4
:103DC0004FF0070A504651E74FF0FF3505E02068F5
:103DD00003F0F3FA3060361D6D1E2068406B00F46E
:103DE000001008B1002DF2D140F2FF502168886325
:103DF00050463BE730B585B00446002500200090D2
:103E00000C20019040200290002003904FF480602D
:103E100004906946206803F0D4FA0C21204603F090
:103E200005FB0546284605B030BD70B58AB004468E
:103E30000D460026206A032803D1272630460AB003
:103E400070BD206A28B1206A012802D0206A0228A9
:103E500028D1B5F5805F01D127260EE0B5F5006FBA
:103E600004D1204604F00DF8064606E025B92046A8
:103E700003F0BCFF064600E026269EB96068049069
:103E8000A0680590E0680690079560690890A069B1
:103E9000099007A807C88DE80700206804A90EC983
:103EA00003F06CFA3046CAE72DE9FF5F8EB0044696
:103EB00017469846DDF874B0002002908146002530
:103EC00000260190DDF83CA000902168C862206ABD
:103ED000022809D100021C900246002338464146C0
:103EE000FCF71CFA074688461C98099010200A9097
:103EF00040200B9000200C904FF480600D9009A999
:103F0000206803F05EFA1021204603F08FFA029039
:103F1000029818B1029812B0BDE8F09FBBF1010FF2
:103F200002D919200A9001E018200A90099709A9DE
:103F3000206803F046FABBF1010F05D9192120468C
:103F400003F074FA029004E01821204603F06EFAA0
:103F50000290029808B10298DDE71C980BFB00F96B
:103F60004FF0FF3003901C980BFB00F00490902062
:103F700005900020069007900120089003A9206872
:103F800003F0D0F9BBF1010F3AD931E02068406B62
:103F900000F4804060B3A9EB050020281BD2A9EBF8
:103FA000050000F0030018B9A9EB0500800803E044
:103FB000A9EB05008008401C0190002607E051464F
:103FC000206803F012FA0AF1040A2D1D761C0198EC
:103FD00086420DD2F3E7002605E00AEB8601206851
:103FE00003F003FA761C082EF7D30AF1200A2035D5
:103FF0002068406B40F21A3108400028C6D039E0F2
:1040000031E02068406B00F4804060B3A9EB05000C
:1040100020281BD2A9EB050000F0030018B9A9EB7A
:104020000500800803E0A9EB05008008401C019012
:10403000002607E05146206803F0D7F90AF1040A88
:104040002D1D761C019886420DD2F3E7002605E06F
:104050000AEB8601206803F0C8F9761C082EF7D316
:104060000AF1200A20352068406B40F21A610840AE
:104070000028C6D02068406B00F4807070B1BBF19E
:10408000010F0BD9206A28B1206A012802D0206ACA
:10409000022803D12046FFF7ADFE02902068406B56
:1040A00000F0080030B108202168886304200290E5
:1040B000029830E72068406B00F0020028B102202F
:1040C000216888630290029825E72068406B00F021
:1040D000100030B1102021688863052002900298FA
:1040E00019E72068406B00F4007038B14FF400709D
:1040F000216888630720029002980CE740F2FF5085
:10410000216888636946204603F072FC029004E04F
:104110006946204603F06CFC0290029838B99DF87D
:1041200000000728F4D09DF800000628F0D002987F
:10413000F1E610B504460CB9012010BD94F8510009
:1041400028B9002084F85000204600F037F80220FB
:1041500084F851002068006820F040002168086061
:10416000D4E901010843E168084321690843616912
:104170000843218B01F400710843E1690843216A77
:104180000843A16A0843216808600421A06901EA84
:104190001040616A0843216848602168E06A08614C
:1041A0002068C06920F400602168C8610020606553
:1041B000012084F851000020BFE7000010B586B050
:1041C00004464349206888422FD100BF0020009058
:1041D0004048006840F001003E4908600846006819
:1041E00000F00100009000BF00BF00BF0020009061
:1041F00038481430006840F4805036491431086063
:104200000846006800F48050009000BF00BFE02026
:1042100001900220029001200390022004900520CA
:10422000059001A92C48FEF7E7F92C49206888423F
:104230004CD100BF002000902648006840F00800E4
:10424000244908600846006800F00800009000BF9C
:1042500000BF00BF002000900846006840F0020048
:1042600008600846006800F00200009000BF00BF30
:1042700000BF0020009017481030006840F4004054
:104280001449103108600846006800F400400090AE
:1042900000BF00BF1820019002200290012003906F
:1042A000022004900620059001A90D48FEF7A4F90C
:1042B00040200190022002900120039002200490EF
:1042C0000520059001A90748FEF796F906B010BD34
:1042D000003001403038024000000240003C004005
:1042E00000040240000C02402DE9F84F04460E463F
:1042F00017461D46DDF828904FF00008C24694F896
:104300005180B8F1010F02D0B8F1220F76D10EB171
:1043100007B115B90120BDE8F88F00BF94F850002F
:10432000012801D10220F6E7012084F8500000BFE7
:1043300094F85100012802D1322084F85100002065
:104340006065A763A587E5872663A586E586A064E3
:10435000E064A06AB0F5005F0DD100BF206800687E
:1043600020F40050216808602068006840F4005084
:104370002168086000BF2068006800F04000402805
:1043800005D02068006840F0400021680860E068BF
:10439000B0F5006F75D1606830B16068B0F5827FAC
:1043A0000CD1E08E012809D1206B00882168C860FB
:1043B000206B801C2063E08E401EE086E08EF0B90A
:1043C000A06AB0F5005F05D12068006840F4805015
:1043D000216808604B4600220121204603F08EFE32
:1043E00008B1032097E72068C068A16B0880A06B24
:1043F000801CA063E08F401EE087C7E01BE131E036
:104400004B4600220221204603F078FE08B103202B
:1044100081E7206B00882168C860206B801C2063C6
:10442000E08E401EE086E08E48B9A06AB0F5005FDD
:1044300005D12068006840F48050216808604B4630
:1044400000220121204603F059FE08B1032062E753
:104450002068C068A16B0880A06B801CA063E08FFF
:10446000401EE087E08E0028CADC60680028C4D1C6
:104470004B4600220121204603F040FE10B10320EC
:1044800049E70AE02068C068A16B0880A06B801C27
:10449000A063E08F401EE08778E0606830B160681C
:1044A000B0F5827F0BD1E08E012808D1216B481C2A
:1044B000206308782168C860E08E401EE086E08EA8
:1044C000D0B9A06AB0F5005F05D12068006840F45B
:1044D0008050216808604B4600220121204603F0ED
:1044E0000DFE08B1032016E72068C068A16B0870B4
:1044F000E08F401EE08749E030E04B460022022179
:10450000204603F0FBFD08B1032004E7216B481CA3
:10451000206308782168C860E08E401EE086E08E47
:1045200048B9A06AB0F5005F05D12068006840F482
:104530008050216808604B4600220121204603F08C
:10454000DDFD08B10320E6E62068C068C1B2A26BB9
:10455000501CA0631170E08F401EE087E08E0028A1
:10456000CBDC606890B94B4600220121204603F065
:10457000C5FD08B10320CEE62068C068C1B2A26BB9
:10458000501CA0631170E08F401EE087A06AB0F558
:10459000005F12D14B4600220121204603F0AEFD00
:1045A00028B1606D40F0020060650320B3E620682A
:1045B000C06880B20090BDF800004B460122802107
:1045C000204603F09BFD28B1606D40F0200060653F
:1045D0000320A0E6012084F8510020688068C0F321
:1045E000001AA06AB0F5005F1FD1BAF1000F1CD00D
:1045F000606D40F002006065A06AB0F5005F0DD10B
:1046000000BF2068006820F400502168086020681E
:10461000006840F400502168086000BF00BF00201F
:1046200084F8500000BF012075E600BF002084F828
:10463000500000BF6FE602206DE6042808D14FF05D
:10464000E021096941F004014FF0E022116107E027
:104650004FF0E021096921F004014FF0E0221161DF
:10466000704770B504462546681EB0F1807F01D3BF
:1046700001200FE0681E4FF0E02148610F214FF04C
:10468000FF3001F00DFC00204FF0E0218861072091
:104690000861002070BD7047014691F839007047ED
:1046A000F8B50446002500262068006800F00105E2
:1046B0002068C06800F480767DB176B100BF00202C
:1046C000009020680068009020684068009000BF5B
:1046D00000BFE06B40F00100E06320680068C0F3B9
:1046E00040052068406900F001067DB176B100BF49
:1046F00000200090206800680090206840680090CA
:1047000000BF00BFE06B40F00400E0632068006879
:10471000C0F380052068406900F001067DB176B1E4
:1047200000BF00200090206800680090206840686A
:10473000009000BF00BFE06B40F00200E063206823
:104740000068C0F3C0052068406900F001067DB133
:1047500076B100BF002000902068006800902068BB
:104760004068009000BF00BFE06B40F00800E063CD
:1047700020680068C0F340152068C06800F020067B
:104780001DB116B1204604F0B4F820680068C0F3EB
:10479000C0152068C06800F080061DB116B1204623
:1047A00004F018FA20680068C0F380152068C0681B
:1047B00000F040061DB116B1204604F082F8E06B0F
:1047C00028B1012084F839002046FFF764FFF8BDC6
:1047D00010B504460CB9012010BDA06900B100E07D
:1047E00000BF94F8390028B9002084F8380020462A
:1047F00000F026F8022084F839002068C06820F410
:1048000000502168C860204604F0D2F82068006992
:1048100020F49040216808612068406920F02A0057
:10482000216848612068C06840F400502168C86071
:104830000020E063012084F839000020CCE700006C
:1048400010B586B0044640492068884236D100BF82
:10485000002000903D48006840F001003B4908609E
:104860000846006800F00100009000BF00BF00BFD4
:104870000020009035481430006840F010003349A3
:10488000143108600846006800F01000009000BF76
:1048900000BF4815019002200290012003900220E1
:1048A00004900720059001A92948FDF7A5FE4FF4C3
:1048B0008060019001A92648FDF79EFE25492068E9
:1048C00088423ED100BF0020009020481030006890
:1048D00040F480201D49103108600846006800F44B
:1048E0008020009000BF00BF00BF0020009017484C
:1048F000006840F00200154908600846006800F0B2
:104900000200009000BF00BF081501900220029035
:1049100000200390032004900720059001A90E4871
:10492000FDF76AFE4FF40060019001A90A48FDF707
:1049300063FE2720FDF7DCFF032211462720FDF749
:10494000E4FF06B010BD0000001001403038024006
:1049500000000240004800400004024030B5034619
:10496000002493F83940012C01D0122C37D101B129
:104970000AB9012030BD00BF93F83800012801D1E9
:104980000220F7E7012083F8380000BF99629A857A
:10499000DA850020D86393F83900122803D1322039
:1049A00083F8390002E0222083F839001868C068D3
:1049B00040F480701D68E8601868406940F00100AC
:1049C0001D68686100BF002083F8380000BF1868C8
:1049D000C06840F020001D68E8600020CAE702209F
:1049E000C8E7000010B504462049206888423BD142
:1049F0001F48008800F4004010BB1D48008800F4E8
:104A0000804098B11B4800780A2803D0002018493C
:104A1000088029E01648008840F4004014490880C6
:104A200015491648006813F0E4FF1DE011480078AE
:104A30000D2806D10E48008840F480400C490880BB
:104A400012E00C4800780A490988C1F30D010A4AAE
:104A5000505407480088401C0549088008460088D3
:104A6000FE2801DD0020088010BD00000048004045
:104A70001401002016010020802300207000002077
:104A80002DE9F04704460D46164699464FF00008BA
:104A900094F83980B8F1010F02D0B8F1220F65D136
:104AA00005B116B90120BDE8F08700BF94F83800C1
:104AB000012801D10220F6E7012084F8380000BF68
:104AC0000020E06394F83900222803D1322084F8D2
:104AD000390002E0122084F83900A684E68428E038
:104AE000E08C401EE084A068B0F5805F14D14B4696
:104AF00000228021204604F0A5F808B10320D2E767
:104B00002F463888C0F3080021684860206908B93A
:104B1000AD1C0EE06D1C0CE04B46002280212046AF
:104B200004F090F808B10320BDE715F8010B2168E7
:104B30004860E08C0028D3DC4B4600224021204610
:104B400004F080F808B10320ADE794F8390032286A
:104B500003D1222084F8390002E0012084F83900D2
:104B600000BF002084F8380000BF9CE702209AE7CD
:104B70007047000000B587B000BF002001901048CA
:104B8000006840F010000E4908600846006800F018
:104B90001000019000BF00BF4FF440400290012080
:104BA000039004900220059002A90648FDF724FD19
:104BB0000120054908600549C1F8B80207B000BDE9
:104BC0003038024000100240BC0242420000424223
:104BD00070B504461548006820F04040134908604D
:104BE0000846006840F080400860002010490860D6
:104BF000002517E0E0090E49091D08606006040E53
:104C0000022007F079FE01200A49C1F8B80202200B
:104C100007F072FE002006490860022007F06CFED3
:104C2000681CC5B2082DE5DB70BD00000010024015
:104C3000B80242420000424210B50F48006820F01E
:104C400040400D4908600846006840F08040086018
:104C500001200A4908600A49C1F8B802042007F097
:104C60004BFE002005490860042007F045FE0020A7
:104C70000349C1F8B80210BD00100240BC02424214
:104C80000000424210B50F48006820F040400D4936
:104C900008600846006840F08040086000200A492B
:104CA00008600A49C1F8BC02042007F025FE012073
:104CB00005490860042007F01FFE01200349C1F8E0
:104CC000BC0210BD00100240B80242420000424245
:104CD00010B500241048006820F040400E490860DC
:104CE00008460068086001200C4908600C49C1F8BA
:104CF000B80207E0601CC4B2FA2C03DDFFF7C2FF64
:104D0000012010BD0548803800680028F2D1034911
:104D1000091F086000BFF4E700100240BC024242D5
:104D2000000042422DE9F04F87B004468B46A9A10E
:104D300003C9CDE905010027B846B946002600257C
:104D4000002004908246039002908DF814B0224611
:104D500005A9032001F002FC0190019808B101208F
:104D600000E0002000B133E16778B846781E205C8F
:104D700000F08009E65D781C255C082D03D16120D8
:104D800007B0BDE8F08F1DE14FF00009202000EBD7
:104D90000611681C0844C0B28DF815008EB9A078C1
:104DA000691CFF228A4090438DF81600681CC0B22F
:104DB00040F040008DF817009DF816008DF80800AF
:104DC00067E0012E18D1A0788DF81600E078691CF4
:104DD000FF228A4090438DF81700681CC0B240F053
:104DE00040008DF818009DF816008DF808009DF819
:104DF00017008DF809004CE0022E1FD1A0788DF825
:104E00001600E0788DF817002079691CFF228A408F
:104E100090438DF81800681CC0B240F040008DF837
:104E200019009DF816008DF808009DF817008DF800
:104E300009009DF818008DF80A002AE0032E26D1FB
:104E4000A0788DF81600E0788DF8170020798DF89D
:104E500018006079691CFF228A4090438DF8190080
:104E6000681CC0B240F040008DF81A009DF8160092
:104E70008DF808009DF817008DF809009DF81800BE
:104E80008DF80A009DF819008DF80B0001E06120F3
:104E900076E7311DC8B2224605A901F05FFB2078F4
:104EA000802801D061206BE76778781E205C00F0D5
:104EB0008009B9F1800F04D114F807A0781C205C98
:104EC0000390781E205C00F00F00C0F10800C0B213
:104ED0000490691C0498884245D196B99DF8160043
:104EE000FF228A409043A17808438DF80800E078BB
:104EF0008DF8090020798DF80A0060798DF80B0093
:104F000033E0012E10D19DF81700691CFF228A4062
:104F10009043A17808438DF80900E0788DF80A00E5
:104F200020798DF80B0020E0022E0DD19DF818009D
:104F3000691CFF228A409043A17808438DF80A003B
:104F4000E0788DF80B0010E0032E0AD19DF81900CF
:104F5000691CFF228A409043A17808438DF80B001A
:104F600003E061200CE761200AE78020207084F8CC
:104F700001809DF80800A0709DF80900E0709DF880
:104F80000A0020719DF80B0060719DF808009DF8E3
:104F9000091048409DF80A1048409DF80B10484001
:104FA000A071B9F1800F0DD1564504D006EB0A006F
:104FB000C6B2039D06E006EB0A00C6B20398401C89
:104FC0002844C5B2B9F1800F3FF4DEAE0020D7E629
:104FD0006120D5E600200800000000002DE9F04126
:104FE0000646304D002493213046FFF79BFE804655
:104FF000B8F1000F01D0012000E0002000B14EE028
:105000002948C078042804D12748D6F80210416006
:1050100005E02548B6F80310818071798171B77970
:1050200093222046611CCCB22A5470222046611C77
:10503000CCB22A541C48C078042806D128191A4931
:1050400049680160201DC4B20CE088222046611C22
:10505000CCB22A54281914498A880280897981702F
:10506000E01CC4B22046611CCCB22F54282220463A
:10507000611CCCB22A5432462946204601F06EFA11
:105080008046B8F1000F01D0012000E0002000B1FF
:1050900005E0B078044988730020BDE8F081612004
:1050A000FBE70000A63A0020AE3C00202DE9F041CD
:1050B0000646324D002495213046FFF733FE8046E8
:1050C000B8F1000F01D0012000E0002000B152E053
:1050D0002B48C078072805D12948D6F80210C0F817
:1050E000071006E02648B6F80310A0F807107179FB
:1050F0004172B77995222046611CCCB22A547022A5
:105100002046611CCCB22A541D48C078072807D11C
:1051100029191B48D0F807000860201DC4B20DE013
:1051200088222046611CCCB22A5429191448B0F8B0
:1051300007200A80407A8870E01CC4B22046611CB7
:10514000CCB22F5428222046611CCCB22A543246BD
:105150002946204601F002FA8046B8F1000F01D03E
:10516000012000E0002000B105E0B0780449887318
:105170000020BDE8F0816120FBE70000A63A002096
:10518000AE3C00202DE9F0410646244D0024972135
:105190003046FFF7C7FD8046B8F1000F01D001206F
:1051A00000E0002000B137E01D48D6F80210C0F83A
:1051B0000710B77997222046611CCCB22A5470227E
:1051C0002046611CCCB22A541548C0780A2806D162
:1051D00029191348D0F807000860201DC4B22046E2
:1051E000611CCCB22F5428222046611CCCB22A5418
:1051F00032462946204601F0B1F98046B8F1000F49
:1052000001D0012000E0002000B105E0B0780449A1
:1052100088730020BDE8F0816120FBE7A63A0020FA
:10522000AE3C002070B52C4D2846FFF7D7FE044653
:105230000CB1012000E0002000B14BE02748807B4A
:1052400000F0040048B12846FFF730FF04460CB1D7
:10525000012000E0002000B13CE02048807B00F00D
:10526000040048B12846FFF78DFF04460CB1012029
:1052700000E0002000B12DE01848807B00F0200005
:1052800070B100F007F901201449C873284600F0F6
:10529000A3F904460CB1012000E0002000B119E0A0
:1052A000012000F041F802200D4908700B48807B76
:1052B00000F0600018B902200A49087008E00748A9
:1052C000807B00F02000202802D1042005490870CE
:1052D000002070BD6120FCE7A43A0020AE3C002015
:1052E000CB030020CC0300200E490978890921B1A5
:1052F000012908D0022912D10BE00421094AD170FA
:10530000012191700BE00721064AD17002219170B2
:1053100005E00A21034AD1700321917000BF00BF4C
:1053200070470000AE3C0020F0B585B0054629A1CD
:1053300003C9CDE9030129A00068029028A00068F4
:1053400001900027274E28480078342801DB0627E3
:1053500000E0042725480088042802DA04202349B5
:105360000880224800788DF80D008DF80E5000203E
:105370008DF80F00791CC8B2334603AA022101F050
:10538000B5F804460CB1012000E0002000B11FE098
:1053900002AB00223A210420009601F006F90446EF
:1053A0000CB1012000E0002000B111E00D4801AB7C
:1053B000012268210090042001F0F7F804460CB1A6
:1053C000012000E0002000B102E0002005B0F0BDA7
:1053D0006120FBE700000000030300005A04000006
:1053E00001DF0000A43A0020CD030020DA030020F2
:1053F00070B586B021A103C9CDE9040121A00068E0
:10540000039021A0006802900026204D20480078DB
:10541000342801DB062600E00426711CC8B22B46A6
:1054200004AA022101F062F804460CB1012000E058
:10543000002000B11FE003AB00223A2104200095B8
:1054400001F0B3F804460CB1012000E0002000B1E7
:1054500011E00E4802AB012268210090042001F007
:10546000A4F804460CB1012000E0002000B102E0E5
:10547000002006B070BD6120FBE7000000000000C6
:10548000020200005A04000001DF0000A43A0020DC
:10549000CD03002070B586B025A103C9CDE9040174
:1054A00025A00068039025A0006802900026244DE6
:1054B00024480078342801DB062600E00426042076
:1054C0008DF8110000208DF812000C208DF81300CB
:1054D000711CC8B22B4604AA022101F007F8044649
:1054E0000CB1012000E0002000B11FE003AB00225E
:1054F0003A210420009501F058F804460CB101202F
:1055000000E0002000B111E00D4802AB012268214B
:105510000090042001F049F804460CB1012000E09D
:10552000002000B102E0002006B070BD6120FBE762
:1055300000000000030300005A04000001DF000027
:10554000A43A0020CD03002010B500F013F8FFF7B7
:105550004FFF04460CB1012000E0002000B104E040
:10556000012003490870002010BD6120FCE7000005
:10557000DC030020064800210180416081608181B8
:10558000002003498870C870C87308747047000011
:10559000AE3C002070B50E4C204600F069F8054680
:1055A0000DB1012000E0002000B10FE021460420F1
:1055B00000F0E1FE05460DB1012000E0002000B141
:1055C00004E0012003490874002070BD6120FCE75D
:1055D000A43A0020AE3C0020F8B5044621A00068A3
:1055E000009022466946032000F0B8FF05460DB141
:1055F000012000E0002000B132E02146042000F04C
:10560000BAFE05460DB1012000E0002000B127E000
:105610002146022000F07AFE05460DB1012000E08F
:10562000002000B11CE0E07800F00F063046FCF7E7
:1056300043FE0D490880E07800F0200020280DD1BD
:10564000E07800F01000102804D1607900090749C3
:10565000088003E020790009044908800020F8BD93
:105660006120FCE7E0802800D8030020DA03002056
:1056700038B504460BA00068009022466946022017
:1056800000F06CFF05460DB1012000E0002000B1E4
:1056900006E0054861880180FFF726FE002038BD3E
:1056A0006120FCE726070000AE3C002030B50B4629
:1056B000002100BF16E00A24B4EB107F05D9302486
:1056C00004EB107403F8114005E0412404EB10745E
:1056D0000A3C03F81140000100254C00641C1D55D4
:1056E0004C1CE1B29142E6DB30BD014605290ED2E9
:1056F000DFE801F0030507090B00002070470020D8
:10570000FCE70020FAE70020F8E70020F6E7222077
:10571000F4E7000000B587B000BF002001901B48EF
:10572000006840F08050194908600846006800F0A1
:105730008050019000BF00BF00BF002001901348BF
:105740001038006840F0020010491039086008461F
:10575000006800F00200019000BF00BF012002902D
:105760000B48039002200490059002A90948FCF719
:1057700043FF0620FDF7A0F8002211460620FDF7A2
:10578000C4F80620FDF7B4F807B000BD4038024069
:10579000000011100004024000B587B000BF0020D7
:1057A00001902A48006840F0040028490860084633
:1057B000006800F00400019000BF00BF00BF00209F
:1057C00001900846006840F0010008600846006843
:1057D00000F00100019000BF00BF00BF0020019059
:1057E0000846006840F0020008600846006800F0C3
:1057F0000200019000BF00BF00BF002001900846DA
:10580000006840F0100008600846006800F01000D2
:10581000019000BF00BF00BF002001900846006853
:1058200040F0080008600846006800F00800019099
:1058300000BF00BF2020029000200390049002A926
:105840000348FCF7D9FE07B000BD00003038024025
:105850000008024010B504460D48007B48B90C48CA
:10586000806830B10B48007818B901212046FBF759
:1058700031FF81212046FBF72DFF064800780228E2
:1058800005D11F23024A01212046FBF7ECFE10BD83
:10589000F42A00208301002010B504462C484068FB
:1058A0002C4948602A48806888600121204603F01E
:1058B00086FC1F2812D126480068274988420DD14E
:1058C0002348407B25490978884207DC2048807BB3
:1058D000012803DB1E48807B10280CDD1C49487B17
:1058E0002022052101F0F0FB02201D49087020460E
:1058F000FFF7B0FF2BE01648417B00F10F02204676
:1059000001F01CF9002803DA2046FFF7A3FF1EE090
:105910001448007802281AD012480078012816D0BE
:1059200010480078032812D00F480088002807DDAF
:105930000D4802880D480168204600F0E1F806E0B5
:105940000948008818B90021204600F0B9F810BDB8
:10595000F42A0020142B002055534243D401002088
:1059600083010020820100208001002084010020AA
:1059700070B505460C460C480078022807D18121F5
:105980002846FBF7A7FE0020074908700BE004F04B
:105990008000802807D104480078012803D0012125
:1059A000284600F08DF870BD8301002070B50446D4
:1059B0000D4610480078022804D0032811D004288E
:1059C00014D10DE00C48417B00F10F02204601F09C
:1059D000B5F8002803DA0121204600F071F806E04E
:1059E00000BF0021204600F06BF800E000BF00BFC0
:1059F00070BD000082010020F42A002070B504462A
:105A00000D460D48007810B1012812D103E0204660
:105A1000FFF742FF0EE00948417B00F10F022046EC
:105A200001F08CF8002803DA0121204600F048F844
:105A300000E000BF00BF70BD82010020F42A0020FA
:105A40000021014A117070478201002010B5044600
:105A500000200C4908700C4908700C480068016867
:105A60000020884701212046FBF7B7FD8121204611
:105A7000FBF7B3FD1F23064A01212046FBF7F3FD88
:105A800010BD000082010020830100207802002068
:105A9000F42A002010B504460020064908700120B1
:105AA000054908701F23054A01212046FBF7DBFD4D
:105AB00010BD00008201002083010020F42A002094
:105AC00070B505460C460A480A4908600846047342
:105AD0000020094908700D23064A81212846FBF75A
