:020000040801F1
:1000000048CF0220C5010108CD010108CB0201083B
:10001000D1010108D3010108D50101080000000049
:10002000000000000000000000000000D7010108EF
:10003000D90101080000000017020108A772010899
:10004000DF010108DF010108DF010108855801080F
:10005000DF010108DF010108211D0108DF0101089E
:10006000DF010108DF010108DF010108DF010108EC
:10007000DF010108DF010108DF010108DF010108DC
:10008000DF010108DF010108DF010108DF010108CC
:10009000DF010108DF010108DF010108DF010108BC
:1000A000DF010108DF010108DF010108DF010108AC
:1000B00099730108DF010108DF010108DF01010870
:1000C000DF010108DF010108DF010108DF0101088C
:1000D000DF010108DD780108DF010108217901084D
:1000E000DF010108DF010108DF010108DF0101086C
:1000F000DF010108DF010108DF010108DF0101085C
:10010000DF010108DF010108DF010108DF0101084B
:10011000DF010108DF010108DF010108DF0101083B
:10012000DF010108DF010108DF010108F119010801
:10013000DF010108DF010108DF010108DF0101081B
:10014000DF010108DF010108DF010108A5550108F1
:10015000DF010108DF010108DF010108DF010108FB
:10016000DF010108DF010108DF010108DF010108EB
:10017000DF010108DF010108DF01010800000000C4
:10018000DF010108DF010108DF010108DF010108CB
:10019000DF010108DF010108DF010108DF010108BB
:1001A000DF010108DF010108DF010108DFF810D0DD
:1001B00000F03CFB0048004785090108AFF30080D0
:1001C00048CF02200648804706480047FEE7FEE782
:1001D000FEE7FEE7FEE7FEE7FEE7FEE7FEE7FEE7F7
:1001E00045730108AD010108EFF3108072B6704746
:1001F00080F310887047434A1368012B04D04FF0F6
:1002000001031360404A1060404A116040484FF0BB
:10021000805101607047EFF3108272B6394801686F
:1002200051B34FF0000101603748016891B1EFF31D
:1002300009811EF0100F08BF21ED108B21E9F00F8E
:100240004FF000041EF0100F08BF012441F8044DC8
:10025000006801602D490968096808C9B1E8F00F14
:10026000002B18BFB1EC108B81F309884EF0100EF3
:10027000002B18BF2EF0100E82F310884EF0040EE3
:10028000704722490860EFF3148222F0040282F3DF
:1002900014881D494FF0000008601A494FF0010012
:1002A00008601C484FF47F01D0F8002041EA0201A9
:1002B000016017484FF080510160174800680068DE
:1002C00080F3088861B662B670471EF0040F0CBF59
:1002D000EFF30880EFF3098020E9F00F40F804ED18
:1002E00040F804ED1EF0040F0CBF80F3088880F383
:1002F000098800B512F000FE5DF804EB4EF0040E24
:1003000070470000140400200C040020100400209A
:1003100004ED00E020ED00E008ED00E02DE9F05FE5
:100320000546002092469B46884606468146402464
:100330001BE0284641464746224600F02FF8534628
:100340005A46C01A914110D311461846224600F071
:1003500016F82D1A67EB01084F46224601200021AE
:1003600000F00DF817EB00094E41201EA4F1010426
:10037000DFDC484631462A464346BDE8F09F202A46
:1003800004DB203A00FA02F1002070479140C2F1EC
:10039000200320FA03F3194390407047202A04DB1E
:1003A000203A21FA02F00021704721FA02F3D040EE
:1003B000C2F12002914008431946704710B5431A14
:1003C000934209D28318881803E010F8011D03F83E
:1003D000011D521EF9D210BD40EA01039B0703D054
:1003E00009E008C9121F08C0042AFAD203E011F874
:1003F000013B00F8013B521EF9D210BDD2B201E020
:1004000000F8012B491EFBD270470022F6E710B519
:1004100013460A4604461946FFF7F0FF204610BD72
:10042000421E12F8013F002BFBD111F8013B02F8EC
:10043000013B002BF9D17047421C10F8011B002929
:10044000FBD1801A704710B5002200E0521C835C7B
:100450008C5CA34201D1002BF8D1D8B2E1B2401A92
:1004600010BD30B504460020034600E05B1C9342FB
:1004700003D2E05CCD5C401BF8D030BD034611F8E0
:10048000012B00F8012B002AF9D11846704730B52E
:100490000B46014600202022012409E021FA02F542
:1004A0009D4205D303FA02F5491B04FA02F52844DC
:1004B000151EA2F10102F1DC30BD2DE9FE4F804690
:1004C00081EA0300C00F0C46009021F0004123F0A8
:1004D0000045B8EB0200A94105D2404621469046AE
:1004E0001C460B46024623F00040104347D0270D20
:1004F000C7F30A00C3F30A510290401A0190402842
:100500006BDAC3F3130040F4801B0098924620B1CD
:100510000023D2EB030A63EB0B0B01985946C0F1A1
:1005200040025046FFF72BFF06460D4650465946FF
:10053000019A00F08DF910EB08006141002487EA70
:10054000115284EAE7731A4340D0009A62B3019AC9
:10055000012A4FEA075215DC001B61EB02014FF044
:10056000004202EA0752CDE90042001C41F5801129
:1005700032462B4600F08DF903B0BDE8F08F4046BF
:100580002146F9E7001B61EB0201001C41F58013D5
:1005900000185B412018A2F5001747EB030140EA61
:1005A000D570B6196D4111E06D084FEA360645EA7F
:1005B000C0754FEA0752001B61EB0201001C41F5B8
:1005C000801149084FEA30000019514132462B464C
:1005D00003B0BDE8F04F00F04DB900980122400093
:1005E0000023D0EB020263EBE073009821464FEA50
:1005F000E074B8EB000061EB0401E9E783F000432D
:100600005BE781F0004158E72DE9FE4F81EA0304E2
:1006100004F0004421F0004100944FF0000B23F05F
:10062000004350EA01045ED052EA03045BD0C3F3F6
:100630000A54C1F30A552C44A4F2F3340194A0FBEC
:100640000254C1F3130141F48011C3F3130343F4C3
:10065000801301FB024400FB034E840A970A44EA1C
:10066000815447EA8357A4FB076802958D0A05FB6E
:1006700007854FEA932C04FB0C542705029D4FEA93
:10068000065847EA1637B5EB08056EEB070C870EE0
:10069000920E47EA811742EA8312A7FB0201B6EBEA
:1006A0000B0164EB00042B0D43EA0C335E1844EBA2
:1006B0001C50DA465146E7FB0201C5F313044FEA2A
:1006C0000B3343EA14534FEA0432019C43EA060316
:1006D000A4F10C040294009CCDE900B400F0D9F818
:1006E00003B0BDE8F08F00200146F9E72DE9F04D99
:1006F00081EA030404F0004B21F0004514464FF05A
:10070000000A23F0004150EA050220D054EA010219
:100710001DD0C5F30A570246C5F31303C1F31300F6
:10072000C1F30A5640F4801543F48013A7EB060882
:10073000101BD64608F2FD3873EB050002D308F112
:10074000010801E092185B41B8F1000F03DA0020C4
:100750000146BDE8F08D00204FF480110646844626
:100760000EE0171B73EB050705D3121B63EB0503A4
:1007700006434CEA010C49084FEA300092185B41ED
:1007800050EA0107EDD152EA030012D082EA0400D8
:1007900083EA0501084305D0101BAB4106D20122B4
:1007A000002306E000224FF0004302E06FF0010258
:1007B00053101AEB06004CEB085110EB0A0041EB0A
:1007C0000B01BDE8F04D00F055B8C1F30A52C1F37A
:1007D000130140F2FF3341F480119A4202DA002003
:1007E0000146704740F233439A42A2F2334202DCA0
:1007F0005242FFF7D3BDFFF7C2BD000030B5041E63
:1008000071F1000404DB4FF00044404264EB01014D
:10081000141E73F1000405DB1C464FF000435242E6
:1008200063EB0403994208BF904230BD064C074D6C
:1008300006E0E06840F0010394E8070098471034B0
:10084000AC42F6D3FFF7B6FC087F0208287F020807
:10085000202A06DBCB17203A41FA02F043EAE07384
:1008600006E041FA02F3D040C2F120029140084371
:100870001946704710B5141E73F1000408DA401CC5
:1008800041F1000192185B411A4301D120F00100AF
:1008900010BD2DE9F04D92469B4611B1B1FA81F29F
:1008A00002E0B0FA80F220329046FFF768FD04467D
:1008B0000F4640EA0A0041EA0B0153465A460843F4
:1008C00013D0114653EA010019D0C8F14002504636
:1008D000FFF764FD05460E46504659464246FFF76F
:1008E0004EFD084305D0012004E020463946BDE80E
:1008F000F08D0020054346EAE0762C4337430A9802
:100900006305E40AA0EB08000022FD0A44EA47540C
:100910000A3002D500200146E9E7010510196941B6
:10092000DDE9084500196941BDE8F04DA2E770B561
:100930008C1810F8015B15F0070301D110F8013B8A
:100940002A1106D110F8012B03E010F8016B01F811
:10095000016B5B1EF9D12B0705D40023521E0DD469
:1009600001F8013BFAE710F8013BCB1A921C03E0B7
:1009700013F8015B01F8015B521EF9D5A142D8D3EF
:10098000002070BD10B513F04AFE002010BD00001D
:100990002DE9F04F87B000257548016841F004014A
:1009A0000160016801F004010191016841F0010159
:1009B0000160016801F001010191016841F002014B
:1009C0000160016801F002010191016841F010012C
:1009D0000160016801F010010191016841F0080116
:1009E0000160006800F008000190802602960395DF
:1009F0000124049402A95F4801F014FB2003029033
:100A000002A95D4801F00EFB4FF48079CDF8089003
:100A1000039404940227059702A9584801F002FBA9
:100A20001020029002A9534801F0FCFA40200290E5
:100A300002A9514801F0F6FA4FF0200ACDF808A0BB
:100A400002A94F4801F0EEFA029602A94A4801F0C5
:100A5000E9FA4FF4007BCDF808B002A9494801F04B
:100A6000E1FA4FF48068CDF80880049702A9454860
:100A700001F0D8FA012210213E4801F0CAFB012200
:100A8000C0213D4801F0C5FB012249463B4801F029
:100A9000C0FB012259463B4801F0BBFB0022414606
:100AA000384801F0B6FB01222021354801F0B1FBA6
:100AB0004FF4C05002900395049402A9314801F00C
:100AC000B1FA6003029003940495059702A92D489A
:100AD00001F0A8FA4FF4604002900395049402A933
:100AE000254801F09FFACDF8089002A9244801F0AA
:100AF00099FA029603940495059502A9204801F0FD
:100B000091FA029703940495059502A91D4801F0F6
:100B100089FA029403940495059502A9194801F0F5
:100B200081FACDF808A00395049402A9124801F0B7
:100B300079FA029603940494059502A90E4801F0EF
:100B400071FA012202210F4801F063FB002201210A
:100B50000C4801F05EFB01228021094801F059FB9D
:100B600000228021044801F054FB07B0BDE8F08F5B
:100B700030380240000802400004024000000240F9
:100B8000000C02400010024010B504F0ABFA6420E3
:100B900009F09EFF08F064FB06F0E8F808F01BFD82
:100BA0000021322008F0F8FC00221146202004F039
:100BB00021FA0BF013F90E4801220EA100680BF088
:100BC000D9FA0CF09DF858B104F08CFA20210AA251
:100BD000084606F083FA04F0F7FB06A014F0E2FCE6
:100BE0004FF4FA6009F074FFBDE8104003F06EBFE7
:100BF000E4250020303A00005570646174696E6726
:100C0000000000002DE9FC4103F03AFE0546634C6C
:100C1000012D12D0022D10D0032D05D001216048E6
:100C200001F0F0FA01287DD1207801287BD05D48C1
:100C30000068BDE8FC4112F021BF04F053FA3226EF
:100C40000027012D02D0022D08D00CE0E0780A30F8
:100C5000C0B2E070322806D9E67004E0E0780028DF
:100C60007ED00A38E0704FF001081020CDE900086E
:100C7000E078002142000323084604F031FC1023F1
:100C8000252200211E20CDF8008004F0C5FB464837
:100C90003023CDE900701A460021282008F076FAAA
:100CA000E0780A27B0FBF7F000903E2316223221AD
:100CB000102004F0BEFAE0783E23B0FBF7F000907D
:100CC000202232211A2004F0B4FAE0781427B0FB75
:100CD000F7F000903E232A223221242004F0A9FAC2
:100CE000E0783E23B0FBF7F00090342232212E2032
:100CF00004F09FFAE0781E27B0FBF7F03E23009047
:100D00001A463221382004F094FAE0783E23B0FBF2
:100D1000F7F0009048223221422004F08AFAE0786D
:100D2000282701E038E031E0B0FBF7F000903E23E7
:100D3000522232214C2004F07CFAE0783E23B0FBB2
:100D4000F7F000905C223221562004F072FAE0782D
:100D50003E23B0FBF6F0662232210090602000E0D6
:100D600012E004F066FAE0783E23B0FBF6F0009063
:100D7000702232216A2004F05CFA0021E07808F049
:100D80000BFC04F021FB47E7E7706CE707480068BD
:100D9000BDE8FC4112F072BEBDE8FC8138010020C4
:100DA0000004024044000020445D0208400000208E
:100DB0000022002301E08354521C8A42FBDB70476F
:100DC0002DE9FE4F6A20029002200190C1014F4898
:100DD00001F018FA7A26782707244FF076094FF0A9
:100DE000740A4FF0720B4FF00108002568B36E22B1
:100DF0006C2023460095019904F01BFA5A46702096
:100E000023460095019904F014FA324638462346E9
:100E10000095019904F00DFA4A4650462346009584
:100E2000019904F006FA7C2406237E220321204641
:100E3000CDF8008004F0FDF9029803B0294622465F
:100E4000BDE8F04F092304F0CFB94FF4004130481A
:100E500001F0D8F9E8B15A4670202346009501996F
:100E600004F0E7F94A46504623460095019904F0FC
:100E7000E0F93246384623460095019904F0D9F945
:100E800023466E226C20CDF80080019904F0D1F940
:100E9000C9E74FF480411E4801F0B4F9B0B14A46A9
:100EA000504623460095019904F0C3F9324638466E
:100EB00023460095019904F0BCF923465A46702058
:100EC000CDF80080019904F0B4F9D9E74FF400514E
:100ED0000F4801F097F978B123463246384600951D
:100EE000019904F0A6F923464A465046CDF8008001
:100EF000019904F09EF9E0E7234632463846CDF8E2
:100F00000080019904F095F9EDE70000000C024023
:100F10000004024070B500241D4D4FF400512846D6
:100F200001F070F988B14FF48041284601F06AF968
:100F300068B14FF40041284601F064F948B1A915A1
:100F4000144801F05FF930B106E0642404E04B245A
:100F500002E0322400E0192422460FA1134812F0C7
:100F60003DFE11F0DBFD1148FFF766FA82B24FF447
:100F70007A730E490E4802F0D5FF0D4800680168EB
:100F8000C9434906FBD4BDE8704011F0ADBE000076
:100F900000040240000C0240426174746572794C96
:100FA0006576656C3A25640D0A0000007121002009
:100FB000002100202DE9F84F04465F25002609276F
:100FC0004FF0650B4FF003083B465A464146284612
:100FD000009404F09DF843465A463946284600944A
:100FE00004F096F84FF0620A4FF00C094B46524657
:100FF00031465046009404F08BF843465A46314639
:101000005046009404F084F83B465A464946504600
:10101000009404F07DF80623632202212846009400
:1010200004F076F8BDE8F84F04F0CEB92DE9FC5F86
:101030006A250220019001247C277E2203210623B9
:101040003846009404F0F5F80026092331463A4664
:10105000284604F0C9F82102644801F0D3F86E2252
:101060007A274FF06C0C4FF0720B4FF076094FF06F
:10107000740A4FF078080725D8B160462B460094D3
:10108000019904F0D6F85A4670202B460096019933
:1010900004F0CFF84A4650462B460096019904F0DA
:1010A000C8F83A4640462B460096019904F0C1F82C
:1010B00005E02B4660460094019904F0BAF804F06C
:1010C00083F94FF4FA7009F003FD4FF400414848EA
:1010D00001F098F8A8B15A4670202B460094019967
:1010E00004F0A7F84A4650462B460096019904F0B2
:1010F000A0F83A4640462B460096019904F099F82C
:1011000006E02B465A4670200094019904F091F8AD
:1011100004F05AF94FF4FA7B584609F0D9FC4FF421
:101120008041334801F06EF870B14A4650462B4674
:101130000094019904F07DF83A4640462B4600960B
:10114000019904F076F806E02B464A465046009492
:10115000019904F06EF804F037F9D946484609F0D1
:10116000B7FCDFF88CA04FF48041504601F04AF8FC
:101170004FF4005BF0B95946504601F043F8C8B14E
:101180002B463A4600944046019904F052F804F088
:101190001BF9484609F09CFC2B463A46009640460F
:1011A000019904F046F804F00FF94846BDE8FC5FE9
:1011B00009F08EBC5946504601F024F828B959462A
:1011C000504601F01FF800280DD12B463A46404604
:1011D0000094019904F02DF804F0F6F84846BDE8B3
:1011E000FC5F09F075BCBDE8FC9F0000000C0240EC
:1011F0000004024070B505460E462846FFF71CF96C
:1012000004463046FFF718F9844201D0002070BD33
:10121000002406E0285D315D884201D0002070BDC9
:10122000641C2846FFF708F9A042F3D8012070BDDE
:1012300010B500F01BF800F021F8044800F00AF89F
:1012400002480349407B087010BD0000AC35002007
:10125000E503002008B504A2126800920146684622
:101260000AF054FD002008BD0100000010B50AF08E
:1012700067FCBDE810400AF071BC0000F8B500241E
:101280001DA0006800900AF01DFD0AF053FC012823
:1012900001D10AF0AFFC194D4FF44076174968466A
:1012A0000AF034FD2878552807D00AF043FC0128BD
:1012B00005D00AF03FFC28B110E00020F8BD0AF08C
:1012C00099FC0BE00D4968460AF020FD2878552866
:1012D0000FD02046641CA4B2B042F3D3287855281E
:1012E00004D02046641CA4B20528D7D36FF00D00AB
:1012F000F8BD0020F8BD000055000000AC3500200E
:1013000010B504F061F903F00DFA03F029FA03F0C7
:10131000DDF803F027FEBDE8104004F055B9006980
:10132000416841F002014160032007F02FBA10B577
:101330000B4603F07F0202EB82011C0600EBC101A9
:1013400002D501F58E7101E001F55D710A70DA09CF
:101350004A7007F04BFC002010BD10B50A4611067C
:1013600002F07F0306D503EB830100EBC10101F519
:101370008E7105E002EB820100EBC10101F55D71A8
:1013800000248C700B70D2094A7007F011FC002009
:1013900010BD10B50A0604D501F07F0107F076FDF7
:1013A00001E007F055FD002010BD70B50D4605F0B9
:1013B0007F0404EB84012E0600EBC10102D501F588
:1013C0008E7101E001F55D710C70ED094D708A6060
:1013D000CB7005B1CC80022B01D100220A7107F03D
:1013E000B9FB002070BD10B501F07F0404EB84014F
:1013F00000EBC10101F55D71CA604B6100238B6197
:101400004B700C70C378012B00D10A610A781AB1B5
:1014100007F027FC002010BD07F013FBFAE70022BD
:1014200061F30A120069016811430160704710B549
:101430000A46110602F07F0306D503EB830100EB99
:10144000C10101F58E7105E002EB820100EBC101E3
:1014500001F55D7101248C700B70D2094A7007F0A0
:10146000E0FB002010BD70B501F07F0404EB8401A7
:1014700000EBC10101F58E7101254D700C70CA6041
:101480000A6100228A614B61002C03D007F0E9FB5E
:10149000002070BD07F0D5FAFAE738B504462046BB
:1014A00007F0A6FAE068C16821F470550095C560A0
:1014B000204607F00DFD01460020032911D0012030
:1014C000A0704020A08025F4705000F5A05000903E
:1014D000E1680098C8604FF40050E168486101205D
:1014E00038BDA0704FF40070A08025F4705000F556
:1014F00010500090ECE70000F8B5054600240020ED
:101500000090284607F013FD064652E0F0074ED043
:10151000E1B2284600F012FA0090C0071CD0012169
:1015200001FA04F22869436B93434363009105EB8E
:101530008400806981602148E1B2006842682846E1
:101540009047E878012807D134B995F811010428AB
:1015500002D1284607F0E8FA0098000705D50820D0
:10156000009005EB8401896988600098C00605D564
:101570001020009005EB840189698860009840067E
:1015800005D54020009005EB8401896988600098AA
:10159000800705D50220009005EB840189698860E9
:1015A0000098000603D52146284600F0D5F9641CB2
:1015B0007608002EAAD10120F8BD00009401002079
:1015C0002DE9FC410546002400200190284607F043
:1015D000B4FC0646274F47E0F00743D0E1B2284667
:1015E00007F0B1FC0190C00726D00121019105EB65
:1015F0008400426D9160E97801290DD1406D006948
:10160000009004EB840105EBC101C0F31200D1F896
:101610007C23101AC1F88C033868E1B202682846AE
:101620009047E878012807D134B995F811010528C9
:1016300002D1284607F078FA0198800705D50220E4
:10164000019005EB8401496D88600198000709D578
:1016500038688168284688470820019005EB840196
:10166000496D8860641C7608002EB5D10120BDE864
:10167000FC8100009401002038B50446A07A0028BF
:1016800008D0D4F80C01016821F0020121F0010119
:10169000009101602069416821F001014160054825
:1016A00000688169204688474FF00040E168486142
:1016B000012038BD940100207CB505461020019022
:1016C000E868816921F010018161E868006A009092
:1016D00000F00F0101EB810105EBC10404F55D741D
:1016E0000099C1F34341072923D2DFE801F0222208
:1016F00004222222160047F6F071084219D0C0F3E6
:101700000A1632462846E16807F025FCE0683044B6
:10171000E060A0693044A0610BE0082205F2CC51E2
:10172000284607F018FC0099A069C1F30A11084483
:10173000A061E868816941F01001816101207CBDF0
:1017400010B50446044920460968C968884708213D
:10175000E0684161012010BD940100201FB50446DE
:101760000020009094F81201009017480068416929
:10177000204688472069806801904FF400610391FA
:10178000E2685161A17AE1B1C0071AD094F815015D
:10179000012816D19DF80000032812D1D4F80C01BD
:1017A000016841F00101016003200290D4F80C01AE
:1017B000016841F0030101600448016841F006013D
:1017C000016004B0012010BD9401002010ED00E084
:1017D00070B586B0044600250595049503950295DD
:1017E0000095012601962069416821F001014160C0
:1017F0000021204607F04AFB0020FF2206E004EB10
:1018000080018B699A60496D8A60401C61788142D1
:10181000F5D821694FF0FF308861ADF81460ADF85C
:10182000166021690598C86145F0080040F0010084
:1018300040F002002169486145F0010040F00800D5
:1018400040F00200216908612069016821F4FE610D
:101850000160204607F068F94FF48050E168486164
:101860000348006801692046884706B0012070BD22
:101870009401002070B50446204607F07DFB012549
:1018800084F81251002084F81401002240230DE056
:1018900002EB820104EBC10101F58E714D700A70FB
:1018A000CA80C8708B60C8604861521C61789142E0
:1018B000EED800220DE002EB820104EBC10101F53C
:1018C0005D7148700A70CA80C8708B60C8604861DA
:1018D000521C61789142EED8204607F081F82046EC
:1018E00006F056FF0021204607F0A6FB204606F032
:1018F000A1FF2046BDE8704007F0A2BA10B504462B
:10190000054920460968C96988474FF48011E06895
:101910004161012010BD00009401002010B5044673
:10192000054920460968096A88474FF40011E068B4
:101930004161012010BD000094010020026913697B
:10194000526BCA4002F0010243EAC21200EB81006E
:1019500080698068104070472DE9F84306460F46BD
:101960000020009007EB870006EBC00404F58E749E
:10197000D4E90501401AA168814200D20846C01C82
:101980004FEA900906EB8708D8F8180080690090A4
:1019900021E0D51AA268AA4200D21546E81C4FEAF7
:1019A0009009ABB2FAB23046E16807F060FBE0683C
:1019B0002844E060A0692844A061D8F8181089691B
:1019C00000916169814206D120780121814030690E
:1019D000426B8A434263009880B2484505D9D4E9F6
:1019E0000523934201D2002AD3D10120BDE8F88318
:1019F00030B41E481F4D1F4A00681D4C1D4B603DF2
:101A0000B83AA04205D91A495439096801F0006171
:101A100010E0984205D916495839096801F000616B
:101A200008E0A84203D9516801F0006102E01168A2
:101A300001F00061002916D04FF00061A04203D9E7
:101A40000B484C3801600AE0984203D908485038E6
:101A5000016004E0A84201D9D16000E0916006482D
:101A6000006830BC004730BC70470000AC1C002050
:101A700058640240B8600240280100200168CAB2E0
:101A8000103A1823B2FBF3F2064B9B5C43656FF3ED
:101A90000901032A02D9091D016500E00165006DF5
:101AA00070470000C67C020810B504686360836854
:101AB000402B04D0036899600068C26010BD0368C1
:101AC0009A600068C16010BD30A007F06DFF354D11
:101AD000354C207818B10120FFF76CFA02E00020A5
:101AE000FFF768FA8021284600F08CFB012803D11B
:101AF000FFF766F903F068FC0021E06A11F0DEFFF1
:101B000090B903F0EFFA002128A2084605F0E6FAA2
:101B1000202129A2084605F0E1FA03F055FC002235
:101B20000121E06A11F070FF0021206B11F0C6FF67
:101B300090B903F0D7FA00211CA2084605F0CEFAAE
:101B4000202120A2084605F0C9FA03F03DFC00223E
:101B50000121206B11F058FF0021606B11F0AEFFE6
:101B600068B903F0BFFA002110A2084605F0B6FAE2
:101B7000202117A2084605F0B1FA03F025FCFFF773
:101B8000C9F9322012F03CF9A3E7000044697370F0
:101B90006F73655F4F74686572735F5461736B0A2E
:101BA000000000000008024014000020B2A5B7C5E4
:101BB000D7B4CCACA3BA0000D5FDD4DAB2A5B7C572
:101BC00000000000CDA3D6B9B2A5B7C50000000043
:101BD000555342C4A3CABD00002600224FF4007131
:101BE000414800F016FBDFF80481414D4FF0FF390A
:101BF0000027A8F800703E494A460C31E86B11F006
:101C000020FC0028F5D13BA0E96811F007FBE8684B
:101C100001784D290FD04278612A0CD053291FD06A
:101C20006F2A1DD0422933D0542A31D050293AD0BE
:101C30006C2A38D04BE00024DFF8CCA005E0E8683F
:101C40002044007A0AF80400641CE868083011F0A7
:101C5000CEFFA042F3D82C49286C11F06CFC36E082
:101C60000024DFF8A4A00AF1320A05E0E868204465
:101C7000807A0AF80400641CE8680A3011F0B7FFA3
:101C8000A042F3D82049686C323111F054FC1EE0B8
:101C90008078432802D0442803D018E0012028701F
:101CA00015E02F7013E0007B502802D0532805D098
:101CB00008E00121286D11F03EFC03E00121686D70
:101CC00011F039FC761C314610A011F0A7FAE86833
:101CD00003F0C8FD50211148FFF76AF800220121E6
:101CE000E86B11F06BFB84E7001002402E0100202E
:101CF000140000205265765F46726F6D5F4254207B
:101D00003D25730A00000000EA040020B7A2CBCDF5
:101D1000B4CECAFD3D25640A00000000C01F0020AB
:101D2000012000F071B9000010B5002105A010F0ED
:101D30001AFF094CA065002108A010F014FFE0650F
:101D400010BD000041626F7274576176706C6179EA
:101D50005F4576656E74000014000020506C617958
:101D600074576176706C61795F4576656E740000BA
:101D7000002810D0012810D0022810D0032810D03D
:101D8000042810D0052810D0062810D0072810D01D
:101D90004FF4807070471020704718207047202043
:101DA00070472820704730207047402070476020DF
:101DB000704780207047000030B40546084613463F
:101DC000590701D0012100E0002101EBD301594363
:101DD000CAB22C786978812C0AD3402908D3FF290C
:101DE00006D0FF2C04D07F290DD24039CDB20CE0B3
:101DF0000021002303E000F8013B491CC9B29142D5
:101E0000F9D330BC70474139CDB2813CE1B2C1EB6E
:101E1000411404EB811105EB41015143104C0C2B93
:101E20000BD0102B0FD0182B13D0202BE9D1D4F8C6
:101E3000213030BC194407F051BAD4F8093030BC15
:101E4000194407F04BBAD4F8113030BC194407F0EC
:101E500045BAD4F8193030BC194407F03FBA000035
:101E6000B825002010B50B480168001D0468001D4E
:101E70000068084400280BD00822074902F0D0FC73
:101E8000054920460422BDE81040103102F0C8BCCC
:101E900010BD0000107AFF1F5402002070B50446E8
:101EA000049D94F8340001280AD0012084F83400FD
:101EB00020680668360305D4122684F8356007E0EA
:101EC000022070BD0668360302D5222684F83560EC
:101ED000066826F0010606602068066846F480263B
:101EE0000660206803612B462046FFF7DDFD206871
:101EF000016841F001010160002070BD70B5044629
:101F0000002C24D094F83500022822D020680168E3
:101F100021F001010160206800250560206845600E
:101F2000206885602068C5602068056121682120DF
:101F300048612046FFF7A2FD34343F2194F8202069
:101F400091408160A56165702570002070BD012001
:101F500070BD012070BD000070B50446002C1AD081
:101F6000616A022084F8350022681368184803402B
:101F7000D4E901052843D4E903563543284365696C
:101F80002843A5692843E5692843256A284318435F
:101F9000042902D005E0012070BDD4E90B131943D8
:101FA000084310602268506920F00700616A084306
:101FB000042901D1A16A084350612046FFF75EFD64
:101FC0000020E064012084F83500002070BD00008E
:101FD0003F8010F031B500F023F9044600F020F9FD
:101FE0000099001B8842F9D338BD0000012802D1B6
:101FF00001A007F0D9BC7047B4A5B7A2B0B4BCFC2F
:10200000D6D0B6CF0A00000070B50446044D28684B
:10201000204203D02046FFF7E9FF2C6070BD00008E
:10202000143C01402DE9F84F0022DFF8A491DFF8BD
:10203000A08109F108094FF0010E4FF00F0C09F1D2
:10204000040A0EFA02F60B683340B34271D14C68B1
:10205000022C01D0122C11D1D40800EB84073D6A68
:102060005407E40E0CFA04FB25EA0B05D1F810B076
:102070000BFA04FB4BEA050BC7F820B007685400C5
:102080000325A540AF4391F804B00BF0030B0BFA06
:1020900004FB4BEA070BC0F800B04F68012F05D0D6
:1020A000022F03D0112F01D0122F11D18768AF4317
:1020B000D1F80CB00BFA04FB4BEA070BC0F808B0E0
:1020C0004768B7430E79C6F3001696403E43466014
:1020D000C668AE438D68A5403543C5604C68E400D2
:1020E0006FD53C4C256845F480452560246804F490
:1020F00080440094384C22F003052544D5F8087834
:102100009407260F0CFA06F4A743344CA04201D1E1
:1021100000242EE0324CA04201D1012429E0314CB0
:10212000A04201D1022424E02F4CA04202D103247A
:102130001FE046E02D4CA04201D1042419E02C4CB4
:10214000A04201D1052414E02A4CA04201D106246A
:102150000FE0294CA04201D107240AE0274CA042FD
:1021600001D1082405E0264CA04201D1092400E059
:102170000A24B4403C43C5F80848D8F800409C43C2
:102180004D68ED0300D51C43C8F80040104D2D1DCF
:102190002C689C434E68B60300D51C432C60D9F8CC
:1021A00000409C434D68ED0200D51C43C9F8004037
:1021B000DAF800409C434D68AD0200D51C43CAF8D4
:1021C0000040521C102AFFF43CAFBDE8F88F00001D
:1021D000003C014044380240003001400000024011
:1021E0000004024000080240000C024000100240BF
:1021F0000014024000180240001C0240002002406F
:10220000002402400069084201D0012070470020EC
:102210007047002A01D081617047090481617047CD
:1022200010B511F073FF4FF47A714843B0FBF1F031
:1022300010BD000002480168491C016070470000A1
:102240006401002010B50B48016841F40071016081
:10225000016841F480610160016841F480710160AE
:10226000032000F05DF80F2000F006F800F015F8EC
:10227000002010BD003C024010B5044600F048FBB1
:102280004FF47A72B0FBF2F001F0ABFC0022214671
:10229000501E00F025F8002010BD704700F01F020E
:1022A000012191404009800000F1E020C0F8801237
:1022B000704700F01F02012191404009800000F1A9
:1022C000E020C0F88011704700F01F02012191400A
:1022D0004009800000F1E020C0F8001170470000C4
:1022E000F0B40D460D4B1B68C3F30223C3F1070482
:1022F000042C00D90424191D072901D2002300E071
:10230000DB1E012606FA04F1491E294099409E4031
:10231000761E16403143F0BC02F0D4BE0CED00E056
:1023200000F00701054A10684FF6FF03184040EA25
:102330000120034908431060704700000CED00E0E5
:102340000000FA050120410291FAA1F1024AB1FA16
:1023500081F142F82100704700000E422DE9F84358
:102360001E48016841F080510160006800F0805013
:1023700000900127380490FAA0F0DFF86480B0FAEA
:1023800080F048F82070FFF74BFF05464FF47A764F
:10239000144C07E0FFF744FF401BB04202D9032072
:1023A000BDE8F8836068C003F4D54FF4003090FABC
:1023B000A0F0B0FA80F048F82070FFF731FF054632
:1023C00006E0FFF72DFF401BB04201D90320E7E7ED
:1023D00060688003F5D50020E2E700004038024045
:1023E00000000E42007000400B4A136823F0030304
:1023F000034313600948026842F0040202600129A5
:1024000007D040BF20BF20BF016821F00401016058
:10241000704730BFF8E700000070004010ED00E0AA
:102420002DE9F84F0446A34F2068A34DC10747F696
:10243000C0794FF0E0464FF0010A4FF0000801D19B
:10244000800750D59D48C0F86880FFF7E9FE8346B5
:1024500008E0FFF7E5FEA0EB0B00642802D903209B
:10246000BDE8F88F28680001F3D42078944AC007AB
:102470000DD099FAA9F16068B1FA81F1884096FA15
:10248000A6F3A168B3FA83F399400843106020785B
:10249000800716D5106896FAA6F100F0E040B1FA70
:1024A00081F1C8406168237B890141EA036141EA07
:1024B000007010603868E16920F01F00491E084371
:1024C00038607E48C0F868A0FFF7AAFE834607E0A0
:1024D000FFF7A6FEA0EB0B00642801D90320BFE79D
:1024E00028680001F4D52068410701D4000779D598
:1024F0007248C0F87080FFF793FE834607E0FFF74D
:102500008FFEA0EB0B00642801D90320A8E7286800
:10251000C0438000F3D52078DFF8A8C140074FF012
:10252000706B25D5DCF8000096FAA6F100F0E040CB
:10253000B1FA81F1C84099FAA9F22169B2FA82F29E
:1025400091409BFAABF36269B3FA83F39A4011436B
:1025500096FAA6F2B2FA82F290400143CCF800104B
:10256000386820F4F851206A401E41EA00203860A3
:102570002078000723D5DCF800009BFAABF100F0CF
:102580007060B1FA81F1C84099FAA9F22169B2FAF2
:1025900082F291409BFAABF2B2FA82F29040014390
:1025A00096FAA6F2A069B2FA82F290400143CCF802
:1025B00000103868616A20F44030084338603F48B2
:1025C000C0F870A0FFF72CFE064607E0FFF728FED4
:1025D000801B642802D9032042E703E02868C04337
:1025E0008000F3D42078800652D53348403001680B
:1025F00041F080510160006800F080500090324D41
:10260000286840F480702860FFF70AFE064606E05E
:10261000FFF706FE801B642801D9032020E7286805
:10262000C005F5D5264D143D2868218D00F4407075
:1026300001F4407188422BD0286820F4407023496F
:10264000C1F800A0C1F80080286080070FD5FFF70F
:10265000E7FD064641F2883706E0FFF7E1FD801B03
:10266000B84201D90320FBE628688007F5D5A06AA7
:102670001149C0F301220831032A12D0086820F45E
:10268000F81008602868218DC1F30B010843286009
:102690002078C00603D50E4994F82C00086000206D
:1026A000DEE60A680B4B22F4F812184002430A6077
:1026B000E8E700008C380240003802400000474242
:1026C000843802408838024000700040400E474283
:1026D000E0114742FFFCFF0F2DE9F04704460F468B
:1026E000DFF824A2DAF80000DFF8208200F00F0003
:1026F000864907F0FF0941F2883608F10808B84218
:1027000074D28AF80090DAF8000000F00F00B842A6
:1027100002D00120BDE8F0872078800707D5D8F8DF
:102720000000A26820F0F0001043C8F800002078F4
:10273000C00734D06068012808D002280BD00328D5
:1027400009D0096889070BD40120E3E709688903E8
:1027500006D40120DEE70968890101D40120D9E708
:10276000D8F8001021F003010143C8F80010FFF76A
:1027700057FD0546606801280BD0022817D00328B2
:102780001ED02CE0FFF74CFD401BB04201D90320C6
:10279000C0E7D8F80000C0F381000128F2D197E02B
:1027A000FFF73EFD401BB04201D90320B2E7D8F845
:1027B0000000C0F381000228F2D189E00320A9E7DC
:1027C000D8F80000FFF72CFD401BB042F8D9F5E720
:1027D000FFF726FD401BB04201D903209AE7D8F845
:1027E000000010F00C0FF3D172E0FFE720788007B3
:1027F00007D5D8F80000A26820F0F0001043C8F810
:1028000000002078C00759D06068012808D002284D
:102810000BD0032809D0096889070BD4012079E778
:102820000968890306D4012074E70968890101D485
:1028300001206FE7D8F8001021F003010143C8F828
:102840000010FFF7EDFC0546606801280BD0022858
:1028500017D003281ED02CE0FFF7E2FC401BB0424B
:1028600001D9032056E7D8F80000C0F38100012801
:10287000F2D123E0FFF7D4FC401BB04201D9032082
:1028800048E7D8F80000C0F381000228F2D115E033
:1028900003203FE7D8F80000FFF7C2FC401BB0421E
:1028A000F8D9F5E7FFF7BCFC401BB04201D9032083
:1028B00030E7D8F8000010F00C0FF3D18AF8009040
:1028C000DAF8000000F00F00B84201D0012021E743
:1028D0002078400707D5D8F80000E16820F4E050E0
:1028E0000843C8F800002078000708D5D8F8000091
:1028F000216920F4604040EAC100C8F800000F20C0
:10290000FFF7BAFC002005E7003C02400038024017
:1029100010B500F043F808490968F02292FAA2F2D3
:1029200001F0F001B2FA82F2D140044A515CC84091
:102930000349086010BD000008380240CE7C020840
:102940000000002010B5FFF7E3FF074909684FF4C6
:10295000E05292FAA2F201F4E051B2FA82F2D140CE
:10296000024A515CC84010BD08380240CE7C0208C3
:1029700010B5FFF7CDFF074909684FF4604292FA9E
:10298000A2F201F46041B2FA82F2D140024A515CF3
:10299000C84010BD08380240CE7C020830B51D4842
:1029A000006810F00C011C481AD01C4C042916D0E9
:1029B000082915D1174A121F116801F03F01136849
:1029C0005D0247F6C0730CD5B4FBF1F011681940F5
:1029D00093FAA3F3B3FA83F3D94048430BE02046BC
:1029E00030BDB0FBF1F01168194093FAA3F3B3FACC
:1029F00083F3D940484311684FF4403292FAA2F26F
:102A000001F44031B2FA82F2D140491C4900B0FBD6
:102A1000F1F030BD083802400024F40040787D0118
:102A20002DE9F84F0446DFF83C932078CE4DC007DF
:102A30004FF0000641F2883A4DD0D9F80000C0F3BB
:102A40008100012809D0D9F80000C0F381000228D4
:102A50000BD1281D0068400207D5286880033AD5AD
:102A6000606848BB0120BDE8F88FDFF8FC8208F100
:102A7000020888F80060FFF7D3FB074606E0FFF77F
:102A8000CFFBC01B504501D90320ECE72868800329
:102A9000F5D4207988F80000606870B1FFF7C0FBBA
:102AA000074606E0FFF7BCFBC01B504501D90320D9
:102AB000D9E728688003F5D50DE0FFF7B1FB07469D
:102AC00006E0FFF7ADFBC01B504501D90320CAE764
:102AD00028688003F5D42078DFF89082800754D5E9
:102AE000D9F800004FF0F80B10F00C0F0AD0D9F80D
:102AF0000000C0F38100022818D19A48001F006826
:102B0000400213D42868800704D5E068012801D06A
:102B10000120A8E728689BFAABF220F0F8012069B1
:102B2000B2FA82F29040014329602EE0E068E0B101
:102B30000120C8F80000FFF773FB074606E0FFF727
:102B40006FFBC01B642801D903208CE7286880072D
:102B5000F5D528689BFAABF220F0F8012069B2FAAB
:102B600082F29040014329600FE0C8F80060FFF74F
:102B700057FB074606E0FFF753FBC01B642801D94B
:102B8000032070E728688007F5D42078000728D54F
:102B9000DFF8D0B1764861690BF16C0B89B1012186
:102BA0000160FFF73DFB074606E0FFF739FBC01B5E
:102BB000642801D9032056E7DBF800008007F4D52C
:102BC0000FE00660FFF72CFB074606E0FFF728FB47
:102BD000C01B642801D9032045E7DBF8000080070B
:102BE000F4D42078400755D55E483830016841F06C
:102BF00080510160006800F080500090DFF874B1EF
:102C0000DBF8000040F48070CBF80000FFF708FB11
:102C1000074606E0FFF704FBC01B642801D9032028
:102C200021E7DBF80000C005F4D54E4F68373E7051
:102C3000FFF7F6FA834607E0FFF7F2FAA0EB0B0086
:102C4000504501D903200EE738688007F4D4207A74
:102C50003870A06878B1FFF7E3FA834607E0FFF722
:102C6000DFFAA0EB0B00504501D90320FBE63868E2
:102C70008007F4D50EE0FFF7D3FA834607E0FFF7AD
:102C8000CFFAA0EB0B00504501D90320EBE63868E2
:102C90008007F4D4A069E8B3D9F80010C1F381012A
:102CA00002295CD0022805D0C8F86060FFF7B8FAA6
:102CB00004464FE0C8F86060FFF7B2FA064606E047
:102CC000FFF7AEFA801B642801D90320CBE6286801
:102CD0008001F5D4D4E90701084347F6C07292FA9F
:102CE000A2F2616AB2FA82F29140A26A4FF0FF3317
:102CF00003EB52024FF4403393FAA3F3B3FA83F396
:102D00009A4011434FF0706292FAA2F20843B2FA6D
:102D100082F200E021E0E16A914008431149091F75
:102D200008600120C8F86000FFF77AFA044606E060
:102D3000FFF776FA001B642801D9032093E6286880
:102D40008001F5D509E0FFF76BFA001B642801D973
:102D5000032088E628688001F5D4002083E601205E
:102D600081E6000008380240003802400000474277
:102D7000800E47420070004001A010F04FBA0000E2
:102D8000525443D6D0B6CF0A0000000010B5044616
:102D90002068C16849050CD58068400409D52046E3
:102DA000FFF7EAFF2068C16801F0800161F49061DB
:102DB000C16003494FF4800008600120607710BDB6
:102DC000143C014070B50446002C19D0022084F850
:102DD00081002068002505612168681E8861204601
:102DE00002F070FE2068416841F008014160204611
:102DF00000F09CF88034656065702570002070BD1F
:102E0000012070BD70B50446002C04D094F88100F8
:102E1000002510B106E0012070BD84F880502046E6
:102E200000F086F8022084F88100204602F04AFE75
:102E3000204602F035FE206AA8B1204602F060FE6E
:102E400000EB8000216A40004902B0FBF1F00A214A
:102E5000B0FBF1F26262B0FBF1F301FB1300082852
:102E600001D9521C6262206801682E4A114001603B
:102E7000616B60680843D4E90E1211430843216C6A
:102E80000843A1680843A16A0843216908436169AE
:102E90000843A18C40EA0151E06A014320680268BE
:102EA00011430160206841684CF20F029143416078
:102EB00020684168A2691143D4E90B231A431143E6
:102EC000416020688168184A11408160E16C606D42
:102ED000626C0843216D521E11430843A16C491EC8
:102EE00040EA012120688268114381602068C1683E
:102EF0004FF220021140C160D4E916100143D4E919
:102F00001802401E42EA002001432068C2681143B3
:102F1000C160C4F88450012084F8810084F8805096
:102F2000002070BD10C005FF0080F8FF7047000052
:102F300000B587B01148016841F480010160006864
:102F400000F4800001900D481438016841F0100130
:102F50000160006800F0100001907C2002900220C7
:102F6000039001200490032005900620069002A9FA
:102F70000348FFF757F807B000BD0000443802408F
:102F8000001002402DE9F047002790F8202081F83A
:102F90005620828CA1F85420826A120E93090B707D
:102FA000C2F383034B7002F003028A70826A120C30
:102FB000CA70028D120A0A7190F828204A71C26AFA
:102FC000120E4FF6FF7909EA0212CA80C26AC2F3F2
:102FD0000742CB8843EA1213CB8002F00F020A7239
:102FE000828DC2F30722D3094B72C2F380138B7216
:102FF000C2F34013CB72C2F300130B7300244C7363
:10300000036A4FF00108002B7ED0012BFCD0022B6D
:103010007BD02927C2F380134B769206520E8A7614
:103020001C3110F8302F11F8023D43EAD2130B7017
:1030300002F07F024A704268120ED3098B70C2F30D
:103040004113CB70C2F382030B719207120F4A71C6
:103050004268C2F307424B7943EA92134B71C2F3C1
:10306000401301F8063F4C7002F001028A7082881A
:10307000C2F30722D309CB70C2F380130B71C2F3E2
:1030800040134B71C2F300138B71C2F38103CB71F8
:1030900002F003020A72027952084A7281F80A8029
:1030A0008268120E0A738268120C09EA0222CA812F
:1030B0000289C2F30722CB891343CB81027A12061D
:1030C0000A61C268120E0B6943EA02420A61C268D1
:1030D000C2F307420B6943EA02220A618289C2F302
:1030E00007220B6913430B61027B0A750269120EFA
:1030F0004A750269120C12068A61028AC2F307221B
:103100008B6943EA024201E024E066E08A61027CC6
:103110008B6943EA02228A614269120E8B6913436A
:103120008B614269C2F307420B7F43EA12130B77AC
:103130001207120DCA83828AC2F30722CB8B134374
:10314000CB83007D400881F8200081F8218038463B
:10315000BDE8F0879207120D0A6190F82C200B69E8
:1031600043EA82020A61026B120E0B6943EA921370
:103170000B61C2F3C2030B7502F007024A75026BC2
:10318000C2F3074253098B75C2F38203CB759207D2
:10319000520F0A76028EC2F307220B7E43EAD21345
:1031A0000B760B695B1C0D7EAD1C08FA05FCA3FBBE
:1031B0000C5A4FEAEC7604FB0CAC03FB06C691F804
:1031C00008C008FA0CF30B65A5FB03CA06FB03A3B2
:1031D00005FB0433C1E912C31CE790F82C209206CA
:1031E000920A0A61026B120E0B6943EA02220A611B
:1031F000026BC2F307420B6913430B61028EC2F3E9
:1032000007220B695B1C44F10005ED0445EA5335C8
:10321000DB04C1E912354FF400730B65FAE670B5B3
:103220008AB005460E46002409942C77284600F003
:1032300041F803940494059406940794762008902A
:103240000094CDE90140234622462146286803F038
:1032500061F8284603F08AFB09909DF8240018B114
:103260009DF824000AB070BD284603F063FA099067
:103270009DF8240010B19DF82400F3E7314628465C
:10328000FFF780FE09909DF8240038B9B6F8540085
:1032900000230204284603F051FC0990D5E90512E9
:1032A00028698DE807000FCD03F034F89DF824005D
:1032B000D8E7000000B587B01C48016841F4006100
:1032C0000160006800F4006001901848143801683B
:1032D00041F480010160016801F4800101910168FD
:1032E00041F004010160016801F0040101910168ED
:1032F00041F008010160006800F0080001904FF4FF
:10330000F8500290022003900120049003200590C1
:103310000C20069002A90648FEF784FE04200290C5
:1033200002A90448FEF77EFE07B000BD4438024003
:1033300000080240000C02402DE9F04F8BB004461B
:10334000DDE914980D4616461F4621680020C86224
:10335000216A4FF4007A022903D1D146760A46EA5F
:10336000C756CDF8189010210791402108910746C3
:10337000099008010A9006A9206802F0E7FF1021D1
:10338000204603F00FF800282AD14FF0FF3BCDF87C
:1033900000B008FB09F00190902002904FF0020964
:1033A000CDF80C900497012005906946206802F042
:1033B0008DFFB8F1010F02D91220079001E0112012
:1033C0000790069606A9206802F0C0FFB8F1010F29
:1033D0001DD91221204602F0E5FF074687B1384685
:1033E0000BB0BDE8F08F406B000409D500262068C3
:1033F00002F0A9FF45F82600761C082EF7D32035E9
:103400002068416B40F22A321142ECD01AE01121BF
:10341000204602F0C7FF074638000DD0E0E7406BBA
:10342000000409D50026206802F08DFF45F826002B
:10343000761C082EF7D320352068416B40F22A62B3
:103440001142ECD02068406BC0050CD5B8F1010FDB
:1034500009D9206A18B1012801D0022803D12046D9
:1034600000F030F807462168486B000703D50820B4
:1034700088630420B4E7486B800703D54846C1F849
:103480003890ADE7486B800603D52020886306207E
:10349000A6E7486B800508D5C1F838A007209FE74C
:1034A00002F051FF01C5ABF1010B2068416B8902AD
:1034B00002D5BBF1000FF3D1216840F2FF508863C1
:1034C00038468DE710B586B00446002001900C21E7
:1034D00002914021039104900801059001A9206800
:1034E00002F034FF0C21204602F05CFF06B010BD54
:1034F00070B58AB004460E460025206A032805D020
:1035000038B1012805D0022803D02CE027200AB0CA
:1035100070BDB6F5805F06D0B6F5006F05D04EB130
:10352000262565B11FE02725FBE7204603F056FB63
:103530000546F6E7204603F018FB0546F1E760680C
:103540000490A0680590E06806900796606908906E
:10355000A069099007A807C88DE8070004A920689A
:103560000EC902F0D7FE2846D1E72DE9F04F8DB005
:103570000646DDE916A90C461746984600250020A8
:1035800001903168C862316A4FF4007B022903D18F
:10359000DA467F0A47EAC857CDF820A010210991E2
:1035A00040210A9180460B9008010C9008A93068D0
:1035B00002F0CCFE1021304602F0F4FE002870D15B
:1035C000B9F1010F02D91920099001E018200990E2
:1035D000089708A9306802F0B9FEB9F1010F04D9C3
:1035E0001921304602F0DEFE03E01821304602F0D9
:1035F000D9FE002855D109FB0AF7401E0290039717
:1036000090200490CDF81480CDF818800120079008
:1036100002A9306802F05AFEB9F1010F2BD85DE023
:10362000406B400427D5781B202816D2810706D08E
:103630004FEA900A0AF1010A4FF000080AE04FEA47
:10364000900AF9E72146306802F090FE241D2D1DF6
:1036500008F10108D0450ED2F4E74FF0000804EB62
:103660008801306802F082FE08F10108B8F1080F05
:10367000F5D3203420353068416B40F21A321142C4
:10368000CED031E0406B400428D5781B202817D2DB
:10369000810707D04FEA900A0AF1010A4FF00008AB
:1036A0000BE038E04FEA900AF8E72146306802F074
:1036B0005DFE241D2D1D08F10108D0450ED2F4E752
:1036C0004FF0000804EB8801306802F04FFE08F16B
:1036D0000108B8F1080FF5D3203420353068416B6C
:1036E00040F21A621142CDD03068406BC0050BD554
:1036F000B9F1010F08D9306A18B1012801D00228A8
:1037000002D13046FFF7DEFE3168486B000705D571
:103710000820886304200DB0BDE8F08F486B800757
:1037200002D502208863F6E7486BC00603D5102057
:1037300088630520EFE7486B800503D5C1F838B0F2
:103740000720E8E740F2FF50886301A9304603F004
:1037500067F803E001A9304603F062F80028DAD1E7
:103760009DF804100729F5D00629F3D0D3E770B5EA
:103770000446002C04D094F85100002510B106E056
:10378000012070BD84F85050204600F033F802202C
:1037900084F851002068016821F040010160D4E9FB
:1037A00001010843D4E90312114308436169084346
:1037B000218B01F400710843E1690843216A084341
:1037C000A16A084321680860A069042101EA104049
:1037D000616A0843216848602168E06A08612068DE
:1037E000C16921F40061C1616565012084F851005F
:1037F000002070BD2DE9F04186B006462E493068A4
:103800002E4C022501274FF0050888421CD1206864
:1038100040F001002060206800F00100009027497E
:103820001431086840F480500860086800F4805043
:103830000090E0200190029503970495CDF8148044
:1038400001A91F48FEF7EEFB1E49306888422FD1C0
:10385000206840F008002060206800F00800009018
:10386000206840F002002060206800F00200009014
:1038700012481030016841F400410160006800F412
:1038800000400090182001900295039704950620AF
:10389000059001A90C48FEF7C5FB40200190029558
:1038A00003970495CDF8148001A90848FEF7BAFBE8
:1038B00006B0BDE8F0810000003001403038024021
:1038C00000000240003C004000040240000C0240A6
:1038D0002DE9F8430446DDF8208094F851000128D2
:1038E00004D0222802D00220BDE8F88369B162B179
:1038F0005BB194F85000012809D0012784F850707A
:1039000094F85100012804D006E00120ECE70220E1
:10391000EAE7322084F8510000266665A263A38797
:10392000E3872163A386E386A664E664A06A4FF476
:103930000055A84209D12068016821F400510160B6
:103940002068016841F4005101602068016849065F
:1039500003D4016841F040010160E0684FF48271D6
:10396000B0F5006F08D06068002875D0884202D199
:10397000E08E01287CD084E0606820B188420CD1C0
:10398000E08E012809D1206B21680088C860206B77
:10399000801C2063E08E401EE086E08EE8BBA06ABB
:1039A000A84204D12068016841F480510160434677
:1039B00000220121204603F01FFA08B1032093E7FB
:1039C0002068C068A16B0880A06B801CA063E08F9A
:1039D000401EE087B6E0434600220221204603F065
:1039E0000BFA08B103207FE7206B21680088C860CC
:1039F000206B801C2063E08E401E80B2E08638B9C8
:103A0000A06AA84204D12068016841F48051016095
:103A1000002243460121204600E00EE003F0ECF9CD
:103A200008B1032060E72068C068A16B0880A06B24
:103A3000801CA063E08F401EE087E08E0028CAD182
:103A4000606800287ED1434600220121204603F011
:103A5000D3F910B1032047E70AE02068C068A16BE2
:103A60000880A06B801CA063E08F401EE08769E0A7
:103A7000206B411C216321680078C860E08E401EE5
:103A8000E086E08EE8BBA06AA84204D12068016805
:103A900041F480510160434600220121204603F099
:103AA000ABF908B103201FE72068C068A16B08705C
:103AB000E08F401EE08745E0434600220221204679
:103AC00003F09AF908B103200EE7206B411C216333
:103AD00021680078C860E08E401E80B2E08638B968
:103AE000A06AA84204D12068016841F480510160B5
:103AF000434600220121204603F07EF910B1032045
:103B0000F2E608E02068C168A06B421CA263017065
:103B1000E08F401EE087E08E0028CDD1606888B934
:103B2000434600220121204603F066F908B1032034
:103B3000DAE62068C168A06B421CA2630170E08FC6
:103B4000401EE087A06AA84211D14346002201210D
:103B5000204603F051F928B1606D40F00200606525
:103B60000320C1E62068C0680090BDF8000043460D
:103B700001228021204603F03FF928B1606D40F01A
:103B8000200060650320AFE684F8517020688168EA
:103B9000C1F30011A26AAA4211D181B1616D41F055
:103BA00002016165016821F400510160206801682B
:103BB00041F40051016084F85060012094E684F8DB
:103BC0005060002090E64FF0E021042804D00869FE
:103BD00020F0040008617047086940F004000861A3
:103BE000704710B5401EB0F1807F01D3012010BD99
:103BF0004FF0E02460610F21601701F063FA0020AC
:103C0000A06107202061002010BD704790F83900A6
:103C1000704738B5044621680868C0F30000CA68D8
:103C200002F48072002807D032B10868486800901A
:103C3000E06B40F00100E0630868C0F340004A69AF
:103C400002F0010238B132B1086848680090E06BB8
:103C500040F00400E0630868C0F38002486900F0A7
:103C600001003AB130B1086848680090E06B40F05C
:103C70000200E0630868C0F3C0004A6902F0010274
:103C800038B132B1086848680090E06B40F0080035
:103C9000E0630868C0F34010C96801F0200118B162
:103CA00011B1204603F031FC20680168C1F3C01156
:103CB000C06800F0800019B110B1204603F076FD15
:103CC00020680168C1F38011C06800F0400019B19C
:103CD00010B1204603F004FCE06B002805D0012061
:103CE00084F839002046FFF790FF38BD70B50446D0
:103CF000002C04D094F83900002510B106E0012012
:103D000070BD84F83850204600F020F8022084F876
:103D100039002068C16821F40051C160204603F0D9
:103D20004DFC2068016921F49041016120684169DE
:103D300021F02A0141612068C16841F40051C1604D
:103D4000E563012084F83900002070BD2DE9F047BB
:103D500086B0044637492068374D022607274FF0C2
:103D600000094FF4806888422CD1286840F0010097
:103D70002860286800F0010000902F481430016886
:103D800041F010010160006800F01000009068151B
:103D9000019002960120039004960597DFF89CA0FD
:103DA00001A95046FEF73EF9CDF8048001A950461E
:103DB000FEF738F9002201212520FEF791FA25208F
:103DC000FEF782FA1E492068884230D11A48103026
:103DD000016841F480210160006800F480200090B7
:103DE000286840F002002860286800F00200009077
:103DF000CDF804800296CDF80C9004960597114DED
:103E000001A92846FEF70EF9E814019001A92846F9
:103E1000FEF708F92068C16841F02001C160272041
:103E2000FEF752FA002211462720FEF759FA06B093
:103E3000BDE8F08700100140303802400000024029
:103E4000004800400004024090F83930012B03D0B4
:103E5000122B01D00220704731B32AB390F83830CA
:103E6000012B23D0012380F8383081628285C285FE
:103E70000022C26390F83910122919D0222180F84B
:103E800039100168CB6843F48073CB6001684B69DB
:103E900043F001034B6180F838200068C16841F0AD
:103EA0002001C16000207047012070470220704748
:103EB000322180F83910E4E730B4006815498842AF
:103EC0000CD1154A5088010408D4114644040978DD
:103ED0004FF000030DD50A2902D0538030BC704743
:103EE00040F4004050800E480C49006830BC0FF090
:103EF00022BB0D290AD0094DC0F30D042955401CE1
:103F000080B25080FE28E9D95380E7E740F4804032
:103F10005080E3E7004800402C010020C01F002033
:103F2000500000202DE9F04104460D46984694F8D3
:103F30003900012804D0222802D00220BDE8F081F7
:103F40009DB192B194F83800012810D0012684F870
:103F500038600027E76394F83900222809D012203E
:103F600084F83900A284E2842EE00120E6E70220F2
:103F7000E4E7322084F83900F4E7401EE084A068CA
:103F8000B0F5805F08D0434600228021204603F030
:103F900042FCA8B10320D1E74346002280212046FD
:103FA00003F039FC08B10320C8E728882168C0F372
:103FB00008004860206908B16D1C05E0AD1C03E0F5
:103FC000216815F8010B4860E08C0028D5D14346E4
:103FD00000224021204603F01EFC08B10320ADE77B
:103FE00094F83900322805D084F8396084F83870A4
:103FF0000020A3E7222084F83900F7E7704700008B
:1040000010B586B00C48016841F0100101600068ED
:1040100000F0100000904FF4404001900124029401
:1040200003940220049001A90448FDF7FBFF044813
:104030004460046006B010BD3038024000100240F9
:10404000B802424230B50E490A6822F040420A6086
:104050000A6842F080420A600A4A0023C2F8B83275
:1040600000210124C509C2F8BC524006000EC2F866
:10407000B842C2F8B832491CC9B20829F2D330BDDF
:1040800000100240000042420848016821F040410F
:104090000160016841F080410160054801214160F3
:1040A0000160002141600160704700000010024083
:1040B000B80242420848016821F0404101600168AD
:1040C00041F080410160054800210160416001210B
:1040D000016041607047000000100240B802424297
:1040E00000B500200E490A6822F040420A600A68C2
:1040F0000A600C490122C1F8BC22C1F8B82207E0CD
:10410000401CC0B2FA2803D9FFF7D4FF012000BD3C
:10411000D1F83C22002AF3D10020C1F8B80200BD3A
:1041200000100240000042422DE9FE4F04468BA0E1
:1041300005C8CDE901020027B946002000908DF89E
:104140000410224601A9032001F04EFB10B16120AA
:10415000BDE8FE8F94F801A004EB0A0010F8011CE2
:1041600001F0800114F80A504678082E02D04FF072
:10417000FF08EEE06120EBE706EB051021308DF83B
:1041800005003DB1012D13D0022D24D0032D3BD0CD
:104190006120DDE7A178701C08FA00F291438DF8E8
:1041A000061040F040008DF807008DF8001049E03F
:1041B000A2788DF80620E178701C08FA00F3994384
:1041C0008DF8071040F040008DF808008DF80020B1
:1041D0008DF8011036E0A3788DF80630E2788DF87E
:1041E00007202179701C08FA00FC21EA0C018DF8E7
:1041F000081040F040008DF809008DF800308DF86F
:1042000001208DF802101DE0A2788DF8062094F8A8
:1042100003C08DF807C023798DF808306179701CD0
:1042200008FA00FB21EA0B018DF8091040F040006C
:104230008DF80A008DF800208DF801C08DF802304D
:104240008DF80310281DC0B2224601A901F0CCFA56
:104250002078802801D061207AE76078221812F84F
:10426000013C03F08001802902D1275C92F8019083
:1042700003F00F00C0F10800C2B2701C82425AD194
:104280003DB1012D18D0022D26D0032D31D0612053
:104290005EE79DF8062008FA00F08243A07802430A
:1042A0008DF80020E0788DF8010020798DF802006B
:1042B00060798DF8030025E09DF8072008FA00F0EA
:1042C0008243A07802438DF80120E0788DF8020047
:1042D00020798DF8030015E09DF8082008FA00F019
:1042E0008243A07802438DF80220E0788DF8030025
:1042F00008E09DF8092008FA00F08243A078024304
:104300008DF803208020207084F801A09DF80030F3
:10431000A3709DF801C084F803C09DF802002071CD
:104320009DF80320627183EA0C0350404340A3715F
:1043300080290ED101E061200AE7BD4203D0E819CF
:10434000C5B24E4605E0E819C5B206EB0900401CAF
:10435000C6B280293FF410AF0020F9E60020080023
:104360000000000070B505461B4C93212846FFF75E
:10437000DBFE18BB194EA6F10800F17804291FD006
:10438000B5F80310818169798173A979932222702C
:1043900070226270F278042A16D08822A270828974
:1043A000A4F80320807B6071A17128200823E071AC
:1043B0002A462146184601F017FA48B1612070BD1F
:1043C000D5F80210C160E0E7C068C4F80200EBE76E
:1043D000A878B073002070BDAE350020B63700203D
:1043E00070B505461D4C95212846FFF79DFE28BB5C
:1043F0001B4EA6F10800F178072921D0B5F803106B
:10440000A0F80F1069794174A97995222270702261
:104410006270F278072A18D08822A270B0F80F20B4
:10442000A4F80320407C6071A17128200823E0716A
:104430002A462146184601F0D7F958B1612070BDCF
:10444000D5F80210C0F80F10DEE7D0F80F00C4F85E
:104450000200E9E7A878B073002070BDAE350020F7
:10446000B637002070B50546164C97212846FFF751
:104470005BFE08BB1448D5F80210C0F80F10AA79EB
:104480009721217070230221637000F10806F378F0
:104490000A2B04D1D0F80F00C4F802000621481CF2
:1044A000C0B262542822411CCBB222542A46214673
:1044B000184601F099F908B1612070BDA878B07371
:1044C000002070BDAE350020AE37002070B51A4D0B
:1044D0002846FFF747FFC8B9184CA07B400703D513
:1044E0002846FFF77DFF88B9A07B400703D5284603
:1044F000FFF7B8FF50B9A07B800609D500F0CAF8D5
:104500000120E073284600F041F908B1612070BD38
:10451000012000F033F80A4802210170A07B094A0B
:1045200010F0600F05D0800601D504201070002027
:1045300070BD1170FBE70000AC350020B6370020DD
:10454000E3030020E40300200B490878800908D029
:1045500001280BD0022803D10A20C87003208870DC
:1045600070470420C8700120887070470720C87009
:104570000220887070470000B637002010B586B062
:104580001EA106C9CDE904121EA1096803911EA14E
:10459000096802911D4C1E490978342901D306216E
:1045A00000E004211B4A9388042B01D2042393804A
:1045B00012798DF811208DF8120000208DF813006B
:1045C000491CC8B2234604AA022101F0DFF880B9D1
:1045D00003AB00223A210420009401F02BF940B9EA
:1045E0000A48009002AB01226821042001F022F960
:1045F00010B1612006B010BD0020FBE700000000F4
:10460000030300005A04000001DF0000AC35002065
:10461000E5030020EE03002010B586B017A003C804
:10462000CDE9040117A00068039017A0006802906C
:10463000164C17480078342801D3062000E00420E7
:10464000401CC0B2234604AA022101F09FF880B9A1
:1046500003AB00223A210420009401F0EBF840B9AA
:104660000A48009002AB01226821042001F0E2F820
:1046700010B1612006B010BD0020FBE70000000073
:10468000020200005A04000001DF0000AC350020E7
:10469000E503002010B586B01CA003C8CDE90401D5
:1046A0001CA0006803901CA0006802901B4C1C48D2
:1046B0000078342801D3062000E0042004218DF87E
:1046C000111000218DF812100C218DF81310401CD0
:1046D000C0B2234604AA022101F058F880B903AB06
:1046E00000223A210420009401F0A4F840B90B48BC
:1046F000009002AB01226821042001F09BF810B168
:10470000612006B010BD0020FBE7000000000000A3
:10471000030300005A04000001DF0000AC35002054
:10472000E503002010B500F00DF8FFF775FF08B1A4
:10473000612010BD024901200870002010BD00005A
:10474000F4030020054800210181C16001618182DC
:1047500008308170C170C17301747047AE3700209A
:1047600010B5084C204600F041F820B9214604203D
:1047700000F060FF08B1612010BD034901200874FA
:10478000002010BDAC350020B637002038B50446F7
:1047900014A00068009022466946032001F024F826
:1047A00048B92146042000F045FF20B921460220E7
:1047B00000F014FF08B1612038BDE07800F00F0070
:1047C000FDF7D6FA08494880E078820608D5C00689
:1047D00003D560790009888002E02079000988808B
:1047E000002038BDE0802800EE03002038B50446E4
:1047F00009A00068009022466946022000F0F4FFFC
:1048000008B1612038BD0548618801810830FFF793
:104810009BFE002038BD000026070000AE370020B8
:10482000F0B500230A2530263727002412E0B5EB27
:10483000107F04D906EB107C01F813C003E007EBEE
:10484000107C01F813C0000101EB430C8CF801400F
:104850005B1CDBB29342EAD3F0BD05280ED2DFE841
:1048600000F0030507090B00002070470020704787
:1048700000207047002070470020704722207047BA
:1048800070B52D4C2D4D2E4E2078002817D00221CA
:104890003046FDF7B7FC012817D004213046FDF75C
:1048A000B1FC012811D080212846FDF7ABFC01287E
:1048B0000BD001213046FDF7A5FC012805D00221CF
:1048C0003046FDF79FFC18B333E000202070022132
:1048D0003046FDF797FC012812D004213046FDF741
:1048E00091FC01280ED080212846FDF78BFC012881
:1048F0000AD001213046FDF785FC012806D018E0DA
:10490000012070BD022070BD032070BD042070BD69
:1049100004213046FDF776FC58B980212846FDF782
:1049200071FC30B901213046FDF76CFC08B901205B
:104930002070002070BD00004401002000100240E3
:104940000004024010B586B000212448026842F0FD
:1049500004020260026802F004020092026842F05F
:1049600001020260026802F001020092026842F055
:1049700002020260026802F002020092026842F043
:1049800010020260026802F010020092026842F017
:1049900008020260006800F00800009020200190EA
:1049A00002910120039001A90D48FDF73BFB022075
:1049B000019003900B4C01A92046FDF733FB042125
:1049C000019101A92046FDF72DFB8020019001A94E
:1049D0000548FDF727FB06B010BD00003038024047
:1049E00000080240000402400010024010B522A05E
:1049F0000EF014FC00F076FB22A20C21202002F025
:104A00006DFB23A22421102002F068FB00F0DCFCE7
:104A10004FF0E020002101618161FDF793FC01214D
:104A20000846FDF7E1FC0823022219214FF4C0706B
:104A300002F0FAFB00F056FB002119A2084602F032
:104A40004DFB202119A2084602F048FB00F0BCFCF7
:104A500019A00EF0E3FB1B48FBF7EEFC82B24FF40B
:104A60007A7318491848FFF75DFA1748006801681B
:104A7000C9434906FBD410BDBDF8C8EBB5CDB9A6F6
:104A8000BAC40A00CBAFC3DFC4A3CABD0000000094
:104A9000B0B4B7B5BBD8BCFCCDCBB3F600000000BA
:104AA000B2A5B7C5D7B4CCACA3BA0000CDA3D6B9D4
:104AB000B2A5B7C500000000CDCBB3F6B5CDB9A601
:104AC000BAC40A00D05C02080021002000B587B0FB
:104AD0001548016841F080510160006800F0805085
:104AE000019011481038016841F00201016000682E
:104AF00000F002000190012002900C480390022077
:104B00000490059002A90A48FDF78CFA0620FDF7EB
:104B1000C5FB002211460620FDF7E2FB0620FDF74B
:104B2000D3FB07B000BD0000403802400000111068
:104B30000004024070B50A480022114600680EF0D9
:104B400080FC084C002548B12078401CC0B2207081
:104B5000122802D1FFF74AFF257070BD257070BD85
:104B600060000020A800002070B505460E490F4CDB
:104B70000A7B002A07D1896829B1617819B9012116
:104B80002846FCF754FC81212846FCF750FC60784D
:104B9000022807D12846BDE870401F23024A0121A0
:104BA000FCF721BC70BD0000FC250020AC010020FA
:104BB00070B50646244C04F1200061684160A1688C
:104BC00081600121304603F0B6F8204D1F280CD13A
:104BD0001F492068884208D11E48617B00788142C5
:104BE00003D8A27B0AB1102A0BD9607B20220521B1
:104BF00001F07AFA022068703046BDE87040FFF795
:104C0000B3BF114A30460F3201F050F8002804DAE1
:104C10003046BDE87040FFF7A7BF2978022911D0C0
:104C200001290FD003290DD06A882AB1304669685E
:104C3000BDE8704000F0C0B83046BDE870400021CB
:104C400000F09CB870BD0000FC250020AC010020E5
:104C500055534243E001002010B5094C6278022A06
:104C600008D009060BD5012A09D0BDE81040012162
:104C700000F084B88121FCF7DAFB0020607010BDE1
:104C8000AC01002010B504460E480078022809D077
:104C9000032801D0042814D12046BDE8104000218B
:104CA00000F06CB8084800F10F02417B204600F08C
:104CB000FDFF002805DA2046BDE81040012100F084
:104CC0005DB810BDAC010020FC25002010B50446E5
:104CD0000D480078002810D0012813D10B4800F1AE
:104CE0000F02417B204600F0E1FF00280ADA20464F
:104CF000BDE81040012100F041B82046BDE8104059
:104D0000FFF756BF10BD0000AC010020FC250020BD
:104D10000149002008707047AC01002010B504461E
:104D20000C4A0021117051700B4800680168002086
:104D3000884701212046FCF72CFB81212046FCF707
:104D400028FB20461F23BDE81040044A0121FCF740
:104D50004ABB0000AC01002090020020FC2500208E
:104D6000044900220A7001224A701F23024A0121CD
:104D7000FCF739BBAC010020FC25002010B504462F
:104D80000B4A0A4B136011730A4A002111700D235C
:104D9000074A81212046FCF766FB054A20461F236F
:104DA000203ABDE810400121FCF71DBB555342538A
:104DB0001C260020AC01002030B413460A4A926839
:104DC0009A4200D31A4693B2074A20329468E41AF2
:104DD000946000241473054C042222700A4630BCEF
:104DE0008121FCF740BB0000FC250020AC01002025
:104DF00010B50022012118A00EF0FDFA1B4CA06492
:104E0000002201211AA00EF0F6FAA063002201216F
:104E10001BA00EF0F0FAE063002201211EA00EF0AC
:104E2000EAFA2064002201211FA00EF0E4FA606477
:104E30000022012121A00EF0DEFAE064002201210F
:104E400021A00EF0D8FA20650022012123A00EF047
:104E5000D2FA606510BD00004E46435461675F435F
:104E60007573746F6D49445F6D620000140000201B
:104E70004E46435F54616749445F6D620000000025
:104E800042756C65546F6F74685F5472616E7366BF
:104E900065725F6D620000004E46435F53656E644D
:104EA0004D41435F6D6200005468655F4175696400
:104EB0006F5F4E616D655F6D620000004C4F575F24
:104EC0005057525F6D62000053746172745F506C92
:104ED0006179696E675F6D620000000053746F70E6
:104EE0005F506C6179696E675F6D620038B5154619
:104EF0000B4C6288002A10D10A4AD378602808D166
:104F00000091121D294608F0F1FB80B26080002854
:104F100005D1054808F05CFC60800020608038BD49
:104F2000F8030020B6370020443322117FB5302328
:104F30008DF80C308DF80D00152323800525084EC3
:104F40000020CDE900650A460290022103A808F07E
:104F500057FF311F488088882080488804B070BD82
:104F6000FC03002030B5C3B01BA0006802901BA05A
:104F700003C8CDE90001062508F022FE2A4669464D
:104F80006020FFF7B3FF0446200004D103A92846A0
:104F9000FFF7CCFF04460020124903AA135C0B5410
:104FA000401C0428FADB0878242807D148782728F1
:104FB00004D10D480B4900680EF0BDFA0B4800689B
:104FC000017F806907F0CCFF0146094800680EF0B8
:104FD000B2FA43B0204630BD24270001FFFFFFFF97
:104FE000FFFF0000463900205C000020C8020020BE
:104FF0004C0000202DE9F05F81460C46A046C2EB34
:1050000082104FEAC00B00274FF6FF7A16480BEBD1
:105010000701465C0025300605D501222146484699
:1050200000F0C4F804E000222146484600F0BEF833
:105030000AEA4606641CE4B2A4EB08003F280CD040
:105040006D1CADB2082DE6D37F1CBFB2B7F5FC7F57
:10505000DCD3BDE8F05F00F0B7B908F0FF0409F158
:10506000010909F0FF09EFE7B076020809A004F092
:105070009BFC05F0BDFF10B90BA008F0C5FAFCF7CA
:10508000D7F805F0D5FDFBF7BDFD01200EF0B8FE09
:10509000F7E700004E46435F5472616E73666572B7
:1050A0005F5461736B0A0000496E697469616C69D1
:1050B0007A6174696F6E206661696C65642E2E0D6D
:1050C0000A0000000907090E002806DA00F00F00A8
:1050D00000F1E02080F8141D704700F1E02080F816
:1050E0000014704730B40021084B0022002003EB6D
:1050F000C0046254401CC0B28028F8D3491CC9B215
:105100000829F3D330BC00F05FB9000085210020EE
:105110002DE9FE4F00250026171AA3EB0108814652
:105120008A46681E002F03DD4FF00101019107E060
:1051300003D14FF00001019102E00190C7F1000797
:10514000B8F1000F03DD4FF00100009007E003D13C
:105150004FF00000009002E00090C8F100084745C1
:1051600001DD3C4600E044464FF0000B601C02901D
:1051700016E00AF0FF0109F0FF000C9A00F016F8A3
:105180003D444644A54202DD2D1B01988144A642C0
:1051900002DD361B009882440BF1010B1FFA8BFBDA
:1051A00002988345E5DDBDE8FE8F000010B57F283D
:1051B00013D83F2911D80723A3EBD103DBB201F0A9
:1051C0000701C1F107040121A140C9B2054C04EB5C
:1051D000C0001AB1C25C0A43C25410BDC25C8A430B
:1051E000C25410BD852100202DE9F84180460E46AD
:1051F00015461F46012433462A4631464046009450
:10520000FFF786FF3B464246314640460094FFF793
:105210007FFF3B462A46394640460094FFF778FF19
:105220003B462A46314628460094FFF771FFBDE809
:10523000F8812DE9F04305460F4690461E46DDF8FD
:105240001C900CE03C4606E04A4621462846FFF703
:10525000ADFF641CE4B2B442F6D96D1CEDB2454515
:10526000F0D9BDE8F083000070B586B00026514843
:10527000016841F001010160016801F00101009144
:10528000016841F008010160006800F0080000902A
:105290004FF40040019001240294039402200490F2
:1052A00001A94548FCF7BEFE11200190434D01A91C
:1052B0002846FCF7B7FE2A21019101A92846FCF7F0
:1052C000B1FE002220212846FCF7A3FF3C480460E1
:1052D0003C4D2C602C616C60EE60642005F0F8FBA6
:1052E000EC600021AE2000F039F90021D52000F05B
:1052F00035F90021502000F031F90021A82000F0FC
:105300002DF900213F2000F029F90021D32000F0E1
:1053100025F90021084600F021F90021402000F085
:105320001DF900218D2000F019F90021142000F052
:1053300015F90021202000F011F90021022000F0D1
:105340000DF90021A12000F009F90021C02000F092
:1053500005F90021DA2000F001F90021122000F007
:10536000FDF80021812000F0F9F80021EF2000F085
:10537000F5F80021D92000F0F1F80021F12000F02B
:10538000EDF80021DB2000F0E9F80021302000F0EA
:10539000E5F80021A42000F0E1F80021A62000F0AB
:1053A000DDF80021AF2000F0D9F8FFF79BFE06B032
:1053B00070BD00003038024000000240000C024086
:1053C000BC0240428082414270B50DF0A7FB00252F
:1053D000104E05F1B000C0B2002100F0BFF800216E
:1053E000084600F0BBF80021102000F0B7F80024B8
:1053F00006EBC4000121405D00F0B0F8641CE4B28B
:10540000802CF5D36D1CEDB2082DE2D3BDE87040C1
:105410000DF06ABC852100202DE9F84F83460E4629
:105420001F46B246780701D0012000E0002000EBC3
:10543000D70079084843C0B20090203A02F0FF0933
:10544000002541E00C2F13D0102F18D0182F3ED17B
:10545000204909EBC90001EB8000445D4FF00008D2
:10546000200611D5314658460A9AFFF79FFE12E0F2
:10547000194909EB490001EB8000445DEEE717484C
:1054800000EB0910445DE9E70A9890B1002231462B
:105490005846FFF78BFE6006040E761CF6B2A6EBAC
:1054A0000A00B84207D156460BF1010B0BF0FF0B77
:1054B00008E00122EBE708F1010808F0FF08B8F165
:1054C000080FCDD36D1CEDB200988542BAD3BDE86C
:1054D000F88F000054690208F05E02086463020855
:1054E0002DE9FF4F81B08046DDE90EB992461D4699
:1054F000002600244FEA5B071FE0281B401EC1B2B4
:105500000A2008F054FDBAFBF0F00A21B0FBF1F2DA
:1055100001FB120026B9691E8C4201DA90B1012606
:105520003030C2B207FB0480C0B25B46CDF80090B9
:105530000299FFF771FF641CE4B2AC42DDD305B001
:10554000BDE8F08F07FB0480C0B25B462022CDF897
:1055500000900299FFF760FFEDE7000070B50F4A79
:10556000C2F884120025C2F8905200210C4B01248D
:10557000C2F88052060602D5C3F8BC4201E0C3F867
:10558000BC52C2F880424006000E491CC9B208292C
:10559000EED3C2F89042C2F8844270BD008041420E
:1055A00000004042014802F0E3BC000080050020FA
:1055B00008B504A2126800920146684606F0A6FBF0
:1055C000002008BD550000001FB5002003906B4669
:1055D00003AA0021022000F0D9F81FBD4A78012853
:1055E00007D002280DD0032814D004281AD0012097
:1055F000704788184078800701D521207047002027
:105600007047881810F8010C800601D521207047DA
:105610000020704788184078800701D52120704706
:105620000020704788184078800701D521207047F6
:10563000002070470A78212A0BD008285ED00ADCA7
:10564000012816D0022819D0042824D0072808D110
:105650004BE023207047092859D00A285CD05528F0
:1056600001D001207047552A01D021207047002029
:1056700070470AB121207047002070472AB1822A62
:1056800005D0832A05D021207047002070472120B3
:10569000704721207047803A112A24D2DFE802F0B7
:1056A00009232323232311131517191B1D1F21233E
:1056B0000F00487808B10020704721207047002073
:1056C00070472120704721207047212070472120FA
:1056D00070472120704721207047212070472120EA
:1056E000704721207047212070471AB1822A03D0C9
:1056F0002120704700207047212070471AB1822A6C
:1057000003D02120704700207047212070470AB144
:105710002120704700207047212070472DE9F0417B
:105720000024184E3078012801D106F063FA164D96
:105730004FF440771448FFF73BFF2878552804D0F2
:105740003078012804D030B110E00020BDE8F081AD
:1057500006F050FA0AE00C48FFF72AFF287855288F
:105760000ED02046641CA4B2B842F4D32878552841
:1057700004D02046641CA4B20528DBD32620E5E72C
:105780000020E3E7E8030020AC350020FEB5044626
:105790000F4616461D461348FFF70AFF11480078CA
:1057A000552801D0FFF7BAFF21202870002068702B
:1057B0003846FFF752F840B208B12220FEBD022061
:1057C0008DF800008DF801408DF80270621E3146A0
:1057D0000DF10300FAF7F2FD2946684606F096FA45
:1057E0000020FEBDAC35002010B5C2B00B461446FB
:1057F000212121700021617004218DF804108DF8A1
:105800000500024619460DF10600FAF7D7FD2146BC
:1058100001A806F07BFA21460420FFF70BFF38B100
:105820002078872802D0212042B010BD2820FBE735
:105830000020F9E730B5C1B0449D09248DF800403F
:105840008DF801008DF802108DF80320821E194694
:1058500001A8FAF7B3FD2946684606F057FA41B0A9
:10586000002030BD002100224254491C5029FBDB9E
:1058700070470000012251030148FCF7CABC000038
:10588000001002400148FDF781BA00009825002071
:105890000249086840F4003008607047045801402D
:1058A0002DE9F04105460E4617461848FDF78AFADD
:1058B000164C1749216065600020A06049142161E1
:1058C00060610121A1610905E161A0626063A763D4
:1058D000E0632664402161642021A164C902E1647F
:1058E000206589006165A0658020E0650220206652
:1058F0004FF4403060662046FDF784FA2068016866
:1059000041F480310160BDE8F0810000241C0020DA
:105910000458014030B58DB0044600211E4A0A23C8
:10592000B4FBF3F001EB810532F81550A84203D027
:10593000491CC9B20B29F3D30B292AD002200190AC
:1059400001EB810002EB40004188029181880491C3
:10595000C088401C089001A8FCF762FD0F48016850
:1059600021F4401141F4801101600D4D2868016857
:1059700021F4803101602C622846FDF743FAFFF7DD
:1059800087FF2868016841F48031016000200DB074
:1059900030BD0120FBE70000D65C02088C380240D5
:1059A000241C00202DE9F8430746884616460021AE
:1059B0000025002B0BD0012B02D0022B07D103E0D6
:1059C0004FF400518D1002E04FF480418D10002300
:1059D0002E48026842F480020260006800F48000F1
:1059E00000902B4CA4F188000467A063DFF8A4901A
:1059F000C4F8009063604020A060E3600001206173
:105A00006561A1618010E061400220626362E3622F
:105A100023632046FCF772FA2046FCF79DFA4346C2
:105A20001D4A394620460096FCF738FA206801687E
:105A300021F0010101600A2005F058F82068016892
:105A400041F01001016020684FF00061484503D922
:105A500010484C3801600FE0104A904203D90D48BD
:105A60005038016008E00D4B0C4A603BB83A984250
:105A700001D9D16000E09160002211463B20FCF783
:105A80002FFCBDE8F8433B20FCF71EBC3038024039
:105A9000AC1C00205864024020580140B86002400D
:105AA0000021C068002807D0022802D0042803D1B2
:105AB00001E0102100E02021014801607047000052
:105AC0000058014070B50446FCF7AAFB05460026C5
:105AD0002068016821F4803101600BE0FCF7A0FB35
