:020000040800F2
:1000000088D50220C5010008CD010008CB020008F8
:10001000D1010008D3010008D5010008000000004C
:10002000000000000000000000000000D7010008F0
:10003000D90100080000000017020008FF8B00082B
:10004000DF010008DF010008DF010008A56B0008E0
:10005000DF010008DF01000855220008DF01000869
:10006000DF010008DF010008DF010008DF010008F0
:10007000DF010008DF010008DF010008DF010008E0
:10008000DF010008DF010008DF010008DF010008D0
:10009000DF010008DF010008DF010008DF010008C0
:1000A000DF010008DF010008DF010008DF010008B0
:1000B000398D0008DF010008DF010008DF010008BA
:1000C000DF010008DF010008DF010008DF01000890
:1000D000DF010008DF010008DF010008FD920008D1
:1000E000DF010008DF010008DF010008DF01000870
:1000F000DF010008DF010008DF010008DF01000860
:10010000DF010008DF010008DF010008DF0100084F
:10011000DF010008DF010008DF010008DF0100083F
:10012000DF010008DF010008DF010008F11F0008FF
:10013000DF010008DF010008DF010008DF0100081F
:10014000DF010008DF010008DF010008BD670008CB
:10015000DF010008DF010008DF010008DF010008FF
:10016000DF010008DF010008DF010008DF010008EF
:10017000DF010008DF010008DF01000800000000C7
:10018000DF010008DF010008DF010008DF010008CF
:10019000DF010008DF010008DF010008DF010008BF
:1001A000DF010008DF010008DF010008DFF810D0E0
:1001B00000F056FB00480047B9090008AFF3008083
:1001C00088D502200648804706480047FEE7FEE73C
:1001D000FEE7FEE7FEE7FEE7FEE7FEE7FEE7FEE7F7
:1001E000D58C0008AD010008EFF3108072B670479F
:1001F00080F310887047434A1368012B04D04FF0F6
:1002000001031360404A1060404A116040484FF0BB
:10021000805101607047EFF3108272B6394801686F
:1002200051B34FF0000101603748016891B1EFF31D
:1002300009811EF0100F08BF21ED108B21E9F00F8E
:100240004FF000041EF0100F08BF012441F8044DC8
:10025000006801602D490968096808C9B1E8F00F14
:10026000002B18BFB1EC108B81F309884EF0100EF3
:10027000002B18BF2EF0100E82F310884EF0040EE3
:10028000704722490860EFF3148222F0040282F3DF
:1002900014881D494FF0000008601A494FF0010012
:1002A00008601C484FF47F01D0F8002041EA0201A9
:1002B000016017484FF080510160174800680068DE
:1002C00080F3088861B662B670471EF0040F0CBF59
:1002D000EFF30880EFF3098020E9F00F40F804ED18
:1002E00040F804ED1EF0040F0CBF80F3088880F383
:1002F000098800B518F0F0FA5DF804EB4EF0040E32
:1003000070470000240400201C040020200400206A
:1003100004ED00E020ED00E008ED00E02DE9F05FE5
:100320000546002092469B46884606468146402464
:100330001BE0284641464746224600F02FF8534628
:100340005A46C01A914110D311461846224600F071
:1003500016F82D1A67EB01084F46224601200021AE
:1003600000F00DF817EB00094E41201EA4F1010426
:10037000DFDC484631462A464346BDE8F09F202A46
:1003800004DB203A00FA02F1002070479140C2F1EC
:10039000200320FA03F3194390407047202A04DB1E
:1003A000203A21FA02F00021704721FA02F3D040EE
:1003B000C2F12002914008431946704710B5431A14
:1003C000934209D28318881803E010F8011D03F83E
:1003D000011D521EF9D210BD40EA01039B0703D054
:1003E00009E008C9121F08C0042AFAD203E011F874
:1003F000013B00F8013B521EF9D210BDD2B201E020
:1004000000F8012B491EFBD270470022F6E710B519
:1004100013460A4604461946FFF7F0FF204610BD72
:10042000421E12F8013F002BFBD111F8013B02F8EC
:10043000013B002BF9D1704710B5044604E00B785E
:1004400000F8013B03B1491C521EF8D2204610BDF2
:10045000421C10F8011B0029FBD1801A704710B50F
:10046000002200E0521C835C8C5CA34201D1002B73
:10047000F8D1D8B2E1B2401A10BD30B50446002020
:10048000034600E05B1C934203D2E05CCD5C401B62
:10049000F8D030BD034611F8012B00F8012B002ADB
:1004A000F9D11846704730B505460020034600E0F4
:1004B0005B1C934205D2EC5CC85C201A01D1002C75
:1004C000F6D130BD30B50B46014600202022012474
:1004D00009E021FA02F59D4205D303FA02F5491B12
:1004E00004FA02F52844151EA2F10102F1DC30BD28
:1004F0002DE9FE4F804681EA0300C00F0C460090B4
:1005000021F0004123F00045B8EB0200A94105D2DB
:100510004046214690461C460B46024623F00040CA
:10052000104347D0270DC7F30A00C3F30A510290C6
:10053000401A019040286BDAC3F3130040F4801B8B
:100540000098924620B10023D2EB030A63EB0B0B19
:1005500001985946C0F140025046FFF710FF064689
:100560000D4650465946019A00F08CF910EB0800F0
:100570006141002487EA115284EAE7731A4340D0AC
:10058000009A62B3019A012A4FEA075215DC001B58
:1005900061EB02014FF0004202EA0752CDE900424E
:1005A000001C41F5801132462B4600F08CF903B057
:1005B000BDE8F08F40462146F9E7001B61EB0201E0
:1005C000001C41F5801300185B412018A2F50017AC
:1005D00047EB030140EAD570B6196D4111E06D0893
:1005E0004FEA360645EAC0754FEA0752001B61EB39
:1005F0000201001C41F5801149084FEA3000001942
:10060000514132462B4603B0BDE8F04F00F04CB9E3
:100610000098012240000023D0EB020263EBE0735C
:10062000009821464FEAE074B8EB000061EB04014A
:10063000E9E783F000435BE781F0004158E72DE9EB
:10064000FE4F81EA030404F0004421F000410094CD
:100650004FF0000B23F0004350EA01045ED052EA51
:1006600003045BD0C3F30A54C1F30A552C44A4F22B
:10067000F3340194A0FB0254C1F3130141F480113F
:10068000C3F3130343F4801301FB024400FB034E46
:10069000840A970A44EA815447EA8357A4FB07680F
:1006A00002958D0A05FB07854FEA932C04FB0C5439
:1006B0002705029D4FEA065847EA1637B5EB0805AD
:1006C0006EEB070C870E920E47EA811742EA8312FF
:1006D000A7FB0201B6EB0B0164EB00042B0D43EA10
:1006E0000C335E1844EB1C50DA465146E7FB02011E
:1006F000C5F313044FEA0B3343EA14534FEA0432B1
:10070000019C43EA0603A4F10C040294009CCDE989
:1007100000B400F0D8F803B0BDE8F08F0020014627
:10072000F9E72DE9F04D81EA030404F0004B21F0D4
:10073000004514464FF0000A23F0004150EA05023C
:1007400020D054EA01021DD0C5F30A570246C5F372
:100750001303C1F31300C1F30A5640F4801543F4A8
:100760008013A7EB0608101BD64608F2FD3873EB82
:10077000050002D308F1010801E092185B41B8F1CD
:10078000000F03DA00200146BDE8F08D00204FF491
:100790008011064684460EE0171B73EB050705D350
:1007A000121B63EB050306434CEA010C49084FEAB0
:1007B000300092185B4150EA0107EDD152EA030084
:1007C00012D082EA040083EA0501084305D0101B19
:1007D000AB4106D20122002306E000224FF0004385
:1007E00002E06FF0010253101AEB06004CEB0851C7
:1007F00010EB0A0041EB0B01BDE8F04D00F054B8DE
:10080000C1F30A52C1F3130140F2FF3341F48011E6
:100810009A4202DA00200146704740F233439A427E
:10082000A2F2334202DC5242FFF7B8BDFFF7A7BD88
:1008300030B5041E71F1000404DB4FF00044404267
:1008400064EB0101141E73F1000405DB1C464FF03C
:100850000043524263EB0403994208BF904230BD0B
:10086000064C074D06E0E06840F0010394E80700FD
:1008700098471034AC42F6D3FFF79CFC48E00108DF
:1008800068E00108202A06DBCB17203A41FA02F083
:1008900043EAE07306E041FA02F3D040C2F12002DD
:1008A000914008431946704710B5141E73F10004B7
:1008B00008DA401C41F1000192185B411A4301D152
:1008C00020F0010010BD2DE9F04D92469B4611B17C
:1008D000B1FA81F202E0B0FA80F220329046FFF7DE
:1008E0004EFD04460F4640EA0A0041EA0B0153461A
:1008F0005A46084313D0114653EA010019D0C8F1F3
:1009000040025046FFF74AFD05460E4650465946FE
:100910004246FFF734FD084305D0012004E020469D
:100920003946BDE8F08D0020054346EAE0762C43C9
:1009300037430A986305E40AA0EB08000022FD0A89
:1009400044EA47540A3002D500200146E9E7010590
:1009500010196941DDE9084500196941BDE8F04D0C
:10096000A2E770B58C1810F8015B15F0070301D1F0
:1009700010F8013B2A1106D110F8012B03E010F802
:10098000016B01F8016B5B1EF9D12B0705D4002325
:10099000521E0DD401F8013BFAE710F8013BCB1AC7
:1009A000921C03E013F8015B01F8015B521EF9D5BC
:1009B000A142D8D3002070BD10B519F0A0FC0020D2
:1009C00010BD000000B587B000BF00200190914825
:1009D000006840F004008F4908600846006800F095
:1009E0000400019000BF00BF00BF00200190084636
:1009F000006840F0010008600846006800F001004F
:100A0000019000BF00BF00BF0020019008460068B1
:100A100040F0020008600846006800F00200019003
:100A200000BF00BF00BF002001900846006840F0F2
:100A3000100008600846006800F01000019000BF38
:100A400000BF00BF002001900846006840F0080089
:100A500008600846006800F00800019000BF00BF71
:100A600080200290002003900120049002A96A488F
:100A700001F0CCFD4FF48050029002A9674801F0CC
:100A8000C5FD4FF480700290012003900490022075
:100A9000059002A9624801F0B9FD1020029002A958
:100AA0005D4801F0B3FD4020029002A95B4801F0CF
:100AB000ADFD2020029002A95A4801F0A7FD802038
:100AC000029002A9554801F0A1FD4FF40070029078
:100AD00002A9554801F09AFD4FF48060029002206F
:100AE000049002A9504801F091FD012210214A48CA
:100AF00001F0A2FE0122C021484801F09DFE012222
:100B00001102474801F098FE01225102464801F0C7
:100B100093FE00224FF48061434801F08DFE0122D4
:100B20002021404801F088FE4FF4C0500290002080
:100B300003900120049002A93B4801F067FD4FF4A7
:100B400000500290012003900020049002200590A4
:100B500002A9354801F05AFD4FF460400290002090
:100B600003900120049002A92C4801F04FFD4FF49E
:100B70008070029002A92B4801F048FD802002906D
:100B80000120039000200490059002A9254801F05F
:100B90003DFD02200290012003900020049005906A
:100BA00002A9214801F032FD0120029003900020AB
:100BB0000490059002A91C4801F028FD2020029015
:100BC000002003900120049002A9144801F01EFDAA
:100BD000802002900120039004900020059002A93B
:100BE0000E4801F013FD012202210F4801F024FEFE
:100BF000002201210C4801F01FFE0122802109483A
:100C000001F01AFE00228021044801F015FE07B011
:100C100000BD0000303802400008024000040240DD
:100C200000000240000C02400010024010B505F028
:100C3000C3FB64200CF052F90AF086FB07F0DAFCE3
:100C40000AF07CFD282108460AF053FD00221146D7
:100C5000202005F015FB0DF02DFC1249012208683B
:100C600011A10DF085FE0EF0F3FF48B105F0A4FBD5
:100C70000EA22421084607F0A6FE0BA01AF07AFC6B
:100C80004FF4FA600CF02AF904F0C8FF05F064FF95
:100C900040F6AC51042004F01BFF07A00AF024FF2B
:100CA00010BD0000A8290020303A00005570646192
:100CB00074696E672E2E2E00646F6E650A00000048
:100CC0000246002002E000231354401C8842FADB55
:100CD00070470000F8B56A240225E9016D4801F06B
:100CE000A3FD00287ED1A9036B4801F09DFD0028DB
:100CF00055D16903684801F097FD58BB2903664840
:100D000001F092FD68B90120691DCBB204F1100118
:100D1000CAB204F10E010090C8B2294605F014FCD5
:100D20000BE00020691DCBB204F11001CAB2891E8C
:100D30000090C8B2294605F007FC0120691DCBB21E
:100D400004F10C01CAB2891E0090C8B2294605F010
:100D5000FBFB17E00020691DCBB204F10C01CAB205
:100D6000891E0090C8B2294605F0EEFB0020691DDF
:100D7000CBB204F11001CAB2891E0090C8B2294654
:100D800005F0E2FB0120691DCBB204F10801CAB2F3
:100D9000A11D0090C8B2294605F0D6FB25E0002031
:100DA000691DCBB204F10801CAB2A11D0090C8B2FE
:100DB000294605F0C9FB0020691DCBB204F11001E2
:100DC000CAB2891E0090C8B2294605F0BDFB0020BA
:100DD000691DCBB204F10C01CAB2891E0090C8B2E1
:100DE000294600E00DE005F0AFFB0120691DCBB204
:100DF000211DCAB2A11C0090C8B2294605F0A4FB6F
:100E00002EE00020691DCBB2211DCAB2A11C0090AA
:100E1000C8B2294605F098FB0020691DCBB204F149
:100E20000801CAB2A11D0090C8B2294605F08CFB8A
:100E30000020691DCBB204F11001CAB2891E0090D6
:100E4000C8B2294605F080FB0020691DCBB204F131
:100E50000C01CAB2891E0090C8B2294605F074FB85
:100E600001202E1DF3B204F11406F2B26E1CF1B291
:100E700004F112060090F0B205F066FBE81DC3B263
:100E80003046C2B2A81EC1B2204605F037FB05F0BD
:100E90003FFCF8BD000C024000040240F8B50646D5
:100EA0005F25002404F10903AA1DE11C28460096D1
:100EB00005F09AFAE31CAA1D04F1090128460096E0
:100EC00005F092FA04F10C03EA1CE81C2146009696
:100ED00005F08AFAE31CAA1DE81C2146009605F0DD
:100EE00083FA04F10903AA1D04F10C01E81C009621
:100EF00005F07AFAA31D2A1DA11C2846009605F0CC
:100F000073FA05F005FCF8BD00B587B06A200690BD
:100F100002200590012000900598001D049006987D
:100F2000143003900598401C0290069812300190EE
:100F300002A90EC905F008FB0598C01D049006988B
:100F4000123003900598801EC0B202900146DDE980
:100F50000323069805F0D2FA012000900598401D61
:100F600004900698001D03900698801C0290DDE90D
:100F70000323059905F0E8FA012000900598401D2B
:100F800004900698083003900698801D0290DDE9D1
:100F90000323059905F0D8FA012000900598401D1B
:100FA000049006981030039006980E300290DDE908
:100FB0000323059905F0C8FA012000900598401D0B
:100FC000049006980C30039006980A300290DDE9F0
:100FD0000323059905F0B8FA05F09AFB4FF48071E8
:100FE000FE4801F021FC00287ED14FF40041FC486E
:100FF00001F01AFC002878D14FF48041F84801F044
:1010000013FC00285BD14FF40051F54801F00CFCB3
:1010100098B9012000900598401DC0B20490069830
:101020001030C0B2039006980E30C0B20290DDE9D5
:101030000323059905F088FA12E000200090059836
:10104000401DC0B2049006981030C0B203900698BC
:101050000E30C0B20290DDE90323059905F074FA61
:10106000012000900598401DC0B2049006980C30F5
:10107000C0B2039006980A30C0B20290DDE90323A3
:10108000059905F061FA4FF4967018F087FC01207D
:1010900000900598401DC0B2049006981030C0B270
:1010A000039006980E30C0B20290DDE90323059943
:1010B00005F04AFA4FF4967018F070FC28E0002012
:1010C00000900598401DC0B2049006980C30C0B244
:1010D000039006980A30C0B20290DDE90323059917
:1010E00005F032FA002001E0EEE057E000900598AC
:1010F000401DC0B2049006981030C0B2039006980C
:101100000E30C0B20290DDE90323059905F01CFA08
:10111000012000900598401DC0B204900698083048
:10112000C0B203900698801DC0B20290DDE903238F
:10113000059905F009FA4FF4967018F02FFC01207C
:1011400000900598401DC0B2049006980C30C0B2C3
:10115000039006980A30C0B20290DDE90323059996
:1011600005F0F2F94FF4967018F018FC0120009089
:101170000598401DC0B2049006981030C0B203908C
:1011800006980E30C0B20290DDE90323059905F000
:10119000DBF94FF4967018F001FC38E00020009065
:1011A0000598401DC0B2049006980830C0B2039064
:1011B0000698801DC0B20290DDE90323059905F071
:1011C000C3F9002000900598401DC0B20490069815
:1011D0001030C0B2039006980E30C0B20290DDE924
:1011E0000323059905F0B0F9002000900598401DF3
:1011F000C0B2049006980C30C0B2039006980A3032
:10120000C0B20290DDE90323059905F09DF90120A4
:1012100000900598401DC0B204900698001DC0B211
:1012200003900698801CC0B20290DDE90323059963
:1012300005F08AF94FF4967018F0B0FB0120009089
:101240000598401DC0B2049006980830C0B20390C3
:101250000698801DC0B20290DDE90323059905F0D0
:1012600073F94FF4967018F099FB012000900598DF
:10127000401DC0B2049006980C30C0B2039006988E
:101280000A30C0B20290DDE90323059905F05CF94C
:101290004FF4967018F082FB012000900598401DD5
:1012A000C0B2049006981030C0B2039006980E3079
:1012B000C0B20290DDE90323059905F045F94FF42A
:1012C000967018F06BFB4BE0002000900598401DD5
:1012D000C0B204900698001DC0B203900698801C0E
:1012E000C0B20290DDE90323059905F02DF9002035
:1012F00000900598401DC0B2049006980830C0B216
:1013000003900698801DC0B20290DDE90323059981
:1013100005F01AF9002000900598401DC0B2049015
:1013200006981030C0B2039006980E30C0B20290FA
:10133000DDE90323059905F007F9002000900598E1
:10134000401DC0B2049006980C30C0B203900698BD
:101350000A30C0B20290DDE90323059905F0F4F8E4
:10136000012000900598401DC0B204900698001D11
:10137000C0B203900698801CC0B20290DDE903233E
:10138000059905F0E1F8012000900598401DC0B2D4
:10139000049006980830C0B203900698801DC0B231
:1013A0000290DDE90323059905F0CEF801200090B5
:1013B0000598401DC0B2049006981030C0B203904A
:1013C00006980E30C0B20290DDE90323059905F0BE
:1013D000BBF8012000900598401D03E0000C02407E
:1013E00000040240C0B2049006980C30C0B20390D2
:1013F00006980A30C0B20290DDE90323059905F092
:10140000A3F805F085F907B000BD70B505460E4696
:101410002846FFF71DF804462846FFF719F88442CE
:1014200001D0002070BD002406E0285D315D8842B7
:1014300001D00020F6E7641C2846FFF709F8A04217
:10144000F3D80120EEE7000010B500F01DF800F021
:1014500021F8044800F00AF80248407B024908706D
:1014600010BD0000DC3A0020D503002038B504464A
:1014700004A000680090214668460CF0ABFF0020F5
:1014800038BD00000100000010B50CF0AFFE0CF0FC
:10149000BDFE10BD38B500241EA0006800900CF001
:1014A00075FF0CF09DFE012801D10CF0FFFE00BF7E
:1014B000194968460CF08EFF17480078552801D16D
:1014C000002038BD0CF08CFE012802D10CF0EEFE9D
:1014D00013E00CF085FE80B900BF0F4968460CF0A0
:1014E00079FF0D480078552801D10020E9E7204612
:1014F000611C8CB2B0F5407FEFDB074800785528BF
:1015000004D02046611C8CB20528D1DB6FF00D00A1
:10151000D7E7000055000000DC3A002010B5044673
:1015200005F062F904F01AFA04F03EFA04F084F8C7
:1015300004F054FE05F058F910BD38B50446206992
:1015400040680090009820F00200801C00900099F4
:1015500020694160032008F045FF38BD70B506469C
:101560000C4604F08000802808D104F07F0000EBD6
:10157000800106F58E7000EBC10507E004F07F00E6
:1015800000EB800106F55D7000EBC10504F07F0003
:10159000287004F08000C00968702946304609F0C0
:1015A0008EFA002070BD70B506460C4604F080002F
:1015B000802808D104F07F0000EB800106F58E70D2
:1015C00000EBC10505E004EB840106F55D7000EB5E
:1015D000C1050020A87004F07F002870C4F3C0107B
:1015E00068702946304609F042FA002070BD70B597
:1015F00005460C4604F08000802805D104F07F01E8
:10160000284609F05BFC02E0284609F031FC002086
:1016100070BD2DE9F04106460D4690461F4605F087
:101620008000802808D105F07F0000EB800106F5DE
:101630008E7000EBC10407E005F07F0000EB800135
:1016400006F55D7000EBC10405F07F00207005F029
:101650008000C0096070C4F80880E770607808B145
:101660002078E080022F01D10020207121463046F1
:1016700009F0B1F90020BDE8F0812DE9F0410546FF
:101680000E461746984606F07F0000EB800105F5F0
:101690005D7000EBC104E760C4F814800020A06115
:1016A000607006F07F002070E878012800D1276183
:1016B000207820B92146284609F0B1F803E02146F8
:1016C000284609F05DFA0020BDE8F08108B5002247
:1016D0000092009A61F30A12009202691268009B5C
:1016E0001A4303691A6008BD70B506460C4604F03B
:1016F0008000802808D104F07F0000EB800106F50F
:101700008E7000EBC10505E004EB840106F55D7009
:1017100000EBC1050120A87004F07F002870C4F31D
:10172000C01068702946304609F0F8F9002070BDF5
:101730002DE9F04107460D461646984605F07F0014
:1017400000EB800107F58E7000EBC1040120607092
:1017500005F07F002070E66026610020A061C4F8DB
:101760001480207820B92146384609F058F803E063
:101770002146384609F004FA0020BDE8F081000057
:101780007CB50546564C284609F00FF8E868C06855
:101790000090009820F4705000900098E968C860AC
:1017A000284609F0B5FB03280BD10020A8704FF4A0
:1017B0000070A880009820F4705000F51050009040
:1017C0007EE00120A8704020A8804648844209D3CA
:1017D0004548844206D2009820F4705000F56050CD
:1017E00000906DE04048844209D34048844206D2CC
:1017F000009820F4705000F55050009060E03B4895
:10180000844209D33A48844206D2009820F47050AA
:1018100000F54050009053E03548844209D33548E4
:10182000844206D2009820F4705000F530500090A9
:1018300046E03048844209D32F48844206D20098BB
:1018400020F4705000F52050009039E02A4884427E
:1018500009D32A48844206D2009820F4705000F53B
:10186000105000902CE02548844209D3244884423B
:1018700006D2009820F4705000F5005000901FE050
:101880001F48844209D31F48844206D2009820F49E
:10189000705000F5E050009012E01A48844209D3DD
:1018A0001948844206D2009820F4705000F5C050C8
:1018B000009005E0009820F4705000F5A0500090D2
:1018C0000098E968C86000200190019820F4005059
:1018D00000F5005001900198E968486101207CBD45
:1018E00000B0710BC0E1E4000024F400E0EC04015E
:1018F00000C31801002D310140A44C0100366E01D7
:1019000040E2950180C3C90160600B02F8B505464D
:10191000002400200090284609F03BFB064681E0A9
:1019200006F0010000287BD0E1B2284600F0F6FA6C
:101930000090009800F0010030B3012000FA04F795
:101940002869406BB84329694863002000900098DB
:1019500020F00100401C009005F1180050F8240010
:1019600000998160E1B23248006842682846904799
:10197000E878012808D13CB940F21110405D0428F4
:1019800002D1284608F0F6FF0098C0F3C00060B10D
:1019900000200090009820F008000830009005F129
:1019A000180050F82400009981600098C0F30010DE
:1019B00060B100200090009820F0100010300090DE
:1019C00005F1180050F82400009981600098C0F3D8
:1019D000801060B100200090009820F0400040305E
:1019E000009005F1180050F82400009981600098DB
:1019F000C0F3400060B100200090009820F0020089
:101A0000801C009005F1180050F8240000998160B6
:101A10000098C0F3C01018B12146284600F092FA91
:101A2000641C7608002E7FF47BAF0120F8BD000017
:101A3000740100207CB5044600250020019020465A
:101A400009F0AFFA06466FE006F00100002869D001
:101A5000E9B2204609F0ADFA0190019800F00100CA
:101A6000C8B300200190019820F00100401C0190B3
:101A700004F1540050F8250001998160E0780128B4
:101A800017D104F1540050F825000069009005EBCF
:101A9000850104F55D7000EBC10080680099C1F319
:101AA0001201411A05EB850204F55D7000EBC200DE
:101AB0008161E9B21E480068026820469047E078DC
:101AC000012808D13DB940F21110005D052802D16E
:101AD000204608F04FFF0198C0F3400060B100209D
:101AE0000190019820F00200801C019004F1540044
:101AF00050F82500019981600198C0F3C00088B1B9
:101B00000B480068816820468847002001900198B2
:101B100020F008000830019004F1540050F825002E
:101B2000019981606D1C7608002E8DD101207CBD4D
:101B3000740100203EB50446A07A78B1D4F80C01B7
:101B400000680090009820F002000090009820F0BB
:101B5000010000900099D4F80C0101600020019070
:101B6000019820F00100401C019020694068019913
:101B70008843216948600948006881692046884790
:101B800000200290029820F0004000F100400290F6
:101B90000298E168486101203EBD00007401002008
:101BA0007CB5044600200190019820F01000103010
:101BB0000190E068806901998843E1688861E06884
:101BC000006A0090009800F00F0000EB800104F51F
:101BD0005D7000EBC1050098C0F3434007282DD28B
:101BE000DFE800F02C04051D1E2C1F0027E00098E4
:101BF000C0F30A1090B10098C0F30A122046E968B9
:101C000009F0E1F9E8680099C1F30A110844E860B5
:101C1000A8690099C1F30A110844A8610FE00EE019
:101C20000DE0082204F2CC51204609F0CCF9A86955
:101C30000099C1F30A110844A86100E000BF00BF89
:101C4000E068806901990843E168886101207CBDF2
:101C500038B5044608480068C16820468847002017
:101C60000090009820F00800083000900098E1688B
:101C70004861012038BD0000740100201FB50446F2
:101C8000002000904FF48970005D009023480068A8
:101C900041692046884720698068019000200390B0
:101CA000039820F4006000F5006003900398E16859
:101CB0004861A07A70B3019800F0010050B340F27F
:101CC0001510005D012825D19DF80000032821D1C1
:101CD00000200290029820F00100401C0290D4F8ED
:101CE0000C01006802990843D4F80C1108600298AE
:101CF00020F00200801C0290D4F80C0100680299C8
:101D00000843D4F80C1108600548006840F006004C
:101D100003490860012004B010BD000074010020D8
:101D200010ED00E030B587B0044600200290069028
:101D30000590049003900190029820F00100401C4F
:101D40000290206940680299884321694860002117
:101D5000204609F0B3F800250BE0FF2104F118003C
:101D600050F82500816004F1540050F8250081608E
:101D70006D1C6078A842F0D84FF0FF312069816176
:101D800006986FF30F00401C0690069880B200F58D
:101D90008030069006992069C161059820F00800FE
:101DA00008300590059820F00100401C059005982A
:101DB00020F00200801C059005992069416104987B
:101DC00020F00100401C0490049820F00800083026
:101DD0000490049820F00200801C0490049920696B
:101DE0000161206900680390039820F4FE6003906D
:101DF000039920690160204608F0BCFD0020019095
:101E0000019820F4805000F5805001900198E1681D
:101E1000486104480068016920468847012007B0EE
:101E200030BD0000740100202DE9F04106460F4648
:101E30003946304609F0DCF801214FF489708155AC
:101E40000021801C8155002511E005EB850106F578
:101E50008E7000EBC104012060702570E5800020C9
:101E6000E0704020A0600020E06060616D1C707830
:101E7000A842EAD8002510E005EB850106F55D7063
:101E800000EBC104002060702570E580E070402008
:101E9000A0600020E06060616D1C7078A842EBD803
:101EA000304608F071FC304608F09EFA00213046BA
:101EB00009F006F9304608F02AFB304608F0C6FF64
:101EC000BDE8F08138B5044600200090074800685E
:101ED000C16920468847009820F4801000F58010E2
:101EE00000900098E1684861012038BD740100202D
:101EF00038B504460020009007480068016A204673
:101F00008847009820F4001000F500100090009819
:101F1000E1684861012038BD7401002030B50246F7
:101F200015692B6915696C6B24FA01F505F001053B
:101F300043EAC51302F1180555F82150AD6805EACA
:101F4000030030BD2DE9F84306460F46002500206A
:101F5000009007EB870106F58E7000EBC104D4E911
:101F60000501451AA068A84200D2A568E81C4FEAFE
:101F7000900806F1180050F827008069009029E0C9
:101F8000D4E90501451AA068A84200D2A568E81C5A
:101F90004FEA9008ABB2FAB23046E16809F0B7F800
:101FA000E0682844E060A0692844A06106F11800B8
:101FB00050F8270080690090D4E90501884209D1D2
:101FC0002178012000FA01F93069406B20EA09000C
:101FD00031694863009880B2404506D9D4E90510BC
:101FE000884202D260690028CAD10120BDE8F88386
:101FF00010B5294800682949884205D9274854382E
:10200000006800F000601BE0234800682449884213
:1020100005D922485838006800F0006010E01E48DA
:1020200000681F496039884205D91D48B8384068A2
:1020300000F0006004E01A48B838006800F0006062
:1020400048B3154800681549884205D94FF000602B
:1020500012494C3908601BE00F480068104988425B
:1020600005D94FF000600D495039086010E00A486A
:1020700000680B496039884205D94FF00060084973
:10208000B839C86004E04FF000600549B83988608D
:1020900004480068804710BDC41F002058640240F7
:1020A000B860024014010020014608781038182357
:1020B000B0FBF3F20848805C4865032A05D908683C
:1020C0006FF30900001D086503E008686FF309005D
:1020D0000865086D704700007EDB010810B50468D4
:1020E00063608468402C04D10468A2600468E160E5
:1020F00003E00468A1600468E26010BD8BE0002288
:1021000045494648006816F0F8FE00286CD1424860
:10211000016843A016F0A0FD3F48006800784D28F4
:1021200004D03D4800684078612816D1002407E0BB
:1021300004F1080038490968085C3E490855641CE8
:1021400035480068083017F0DAFAA042F0D839496B
:102150003948006816F04BFF3BE02F4800680078D4
:10216000532804D02C48006840786F2816D10024EA
:1021700007E004F10A0028490968085C2F4908555E
:10218000641C254800680A3017F0B9FAA042F0D85C
:102190002A492B48006816F02AFF1AE01E480068FA
:1021A0000078422804D01C4800684078542810D198
:1021B000194800688078432803D10120214908701C
:1021C00007E0154800688078442802D100201D49A6
:1021D000087000201C4908800F48006804F07CFC4F
:1021E00032211A48FEF76CFD1648007818B101201C
:1021F000FEF754FE02E00020FEF750FE8021144856
:1022000000F012FB012801D1FEF764FD03F058FC39
:10221000642017F0C3FB72E71C0000207000002050
:102220005265765F46726F6D5F4254203D25730A9A
:1022300000000000F60D002074000020280E002091
:1022400078000020940000201C010020882300203A
:102250000008024010B5012000F0CAF910BD0000CE
:1022600010B5002108A016F044F90C4908600021BF
:102270000BA016F03EF90F49086000210EA016F0E1
:1022800038F91549086010BD41626F727457617664
:10229000706C61795F4576656E740000880000207F
:1022A000506C617974576176706C61795F457665C1
:1022B0006E7400008C00002050726576656E745F4D
:1022C0004163636964656E74616C5F506C61795FD2
:1022D0004576656E7400000090000020014609B943
:1022E00010207047012901D11820FAE7022901D1F5
:1022F0002020F6E7032901D12820F2E7042901D1A3
:102300003020EEE7052901D14020EAE7062901D176
:102310006020E6E7072901D18020E2E74FF48070D2
:10232000DFE700002DE9F05F82468846144620462C
:10233000E21704EB5272D2102146E31704EB5373F9
:10234000DB10A4EBC3030BB1012300E000231A440C
:10235000624302F0FF099AF800600AF10100824628
:102360000578812E05DB402D03DBFF2D01D0FF2EEC
:102370000DD14FF0000B06E0002008F8010B0BF127
:10238000010000F0FF0BCB45F6DBBDE8F09F7F2D91
:1023900003DAA5F14000C5B202E0A5F14100C5B2E3
:1023A000A6F18100C6B2BE2010FB065000FB09F763
:1023B0000C2C06D0102C0DD0182C14D0202C24D18D
:1023C0001AE01348D0F80900C1194A46404609F0FE
:1023D00007F81AE00E48D0F81100C1194A464046E5
:1023E00008F0FEFF11E00A48D0F81900C1194A466A
:1023F000404608F0F5FF08E00548D0F82100C11973
:102400004A46404608F0ECFF00BF00BF00BFBCE7F3
:102410007C29002070B50A480468001D0568001D6D
:102420000668344454B108220649204603F064FB90
:10243000042204491031284603F05EFB70BD000001
:10244000107AFF1F420200202DE9F04104460E469B
:1024500017461D46DDF8188000BF94F834000128A7
:1024600002D10220BDE8F081012084F8340000BFD1
:102470002068006800F4002018B9122084F83500A4
:1024800007E02068006800F4002010B1222084F8E2
:1024900035002068006820F001002168086020688D
:1024A000006840F480202168086020680561434688
:1024B0003A4631462046FFF711FE2068006840F09A
:1024C0000100216808600020CCE770B504460CB913
:1024D000012070BD94F83500022801D10120F8E7F1
:1024E0002068006820F00100216808600020216851
:1024F000086021684860216888602168C860216898
:1025000008612120216848612046FFF7CDFD05467E
:1025100094F854103F208840A8600020E06484F8BC
:10252000350000BF84F8340000BF00BFD1E70000D1
:1025300070B5044600250CB9012070BD606A00B179
:1025400000BF022084F8350020680568184805405F
:10255000D4E901010843E16808432169084361693E
:102560000843A1690843E1690843216A0843054318
:10257000606A042803D1D4E90B01084305432068AD
:1025800005602068456925F00705606A0543606AB3
:10259000042801D1A06A0543206845612046FFF761
:1025A00083FD0020E064012084F835000020C4E7AA
:1025B0003F8010F031B5002400F044F9044600BF1C
:1025C00000F040F9001B00998842F9D338BD0000A3
:1025D00010B50446012C02D101A009F085FA10BD06
:1025E000B4A5B7A2B0B4BCFCD6D0B6CF0A000000E8
:1025F00010B5044604480068204020B12046FFF78B
:10260000E7FF0148046010BD143C0140F8B50246E4
:102610000B460025002400200021E6E0012606FAF2
:1026200001F51E6806EA0504AC4273D15E68022E0D
:1026300002D05E68122E13D1CF0802F1200656F8A0
:1026400027004E07F70E0F26BE40B0434F07FF0E80
:102650001E69BE403043CF0802F1200646F827002D
:1026600010684F000326BE40B0431E7906F00306F3
:102670004F00BE40304310605E68012E08D05E6897
:10268000022E05D05E68112E02D05E68122E13D184
:1026900090684F000326BE40B0434F00DE68BE4046
:1026A00030439060506801268E40B0431E79C6F3D7
:1026B00000168E4030435060D0684F000326BE4065
:1026C000B0434F009E68BE403043D0605E6806F065
:1026D0008056B6F1805FA8D100BF00260096454E17
:1026E000366846F48046434F3E603E46366806F400
:1026F0008046009600BF00BF3F4E8F0856F8270067
:102700008E07370F0F26BE40B0433C4EB24202D177
:1027100000262EE068E03A4EB24201D1012628E0C0
:10272000384EB24201D1022623E0374EB24201D1E7
:1027300003261EE0354EB24201D1042619E0344E84
:10274000B24201D1052614E0324EB24201D1062632
:102750000FE0314EB24201D107260AE02F4EB242BD
:1027600001D1082605E02E4EB24201D1092600E033
:102770000A268F073F0FBE4030431F4E8F0846F892
:102780002700284E3068A0435E6806F48036B6F510
:10279000803F00D12043234E3060361D3068A04377
:1027A0005E6806F40036B6F5003F00D120431D4EAA
:1027B000361D3060361D3068A0435E6806F4801612
:1027C000B6F5801F00D12043164E08363060361D06
:1027D0003068A0435E6806F40016B6F5001F00D10D
:1027E0002043104E0C363060491C1029FFF416AF00
:1027F000F8BD0000443802400838014000000240A3
:102800000004024000080240000C02400010024098
:102810000014024000180240001C02400020024048
:1028200000240240003C0140024613690B400BB1FA
:10283000012000E0002070470AB1816101E00B0433
:102840008361704710B517F061FA4FF47A7148430D
:10285000B0FBF1F010BD10B504460CB9012010BD5D
:10286000607B20B900202073204600F01AF8022077
:10287000607345F25550216808602068406820F078
:1028800007006168084321684860206880686FF32A
:102890000B00A16808432168886001206073002054
:1028A000DDE7704770B50446002500BF207B012896
:1028B00001D1022070BD0120207300BF022060738F
:1028C000FFF7C0FF05460DE0FFF7BCFF401BB0F56A
:1028D0007A7F07D90320607300BF0020207300BFF8
:1028E0000320E7E72068C068C0F340000028EBD170
:1028F0004AF6AA20216808600120607300BF00200A
:10290000207300BF00BFD5E7014600BF087B012848
:1029100001D1022070470120087300BF02204873D4
:102920004CF6CC400A6810604AF6AA200A6810608B
:102930000120487300BF0020087300BF00BFE9E713
:1029400002480068401C01490860704740010020AF
:1029500010B50D48006840F400700B490860084647
:10296000006840F4806008600846006840F48070A9
:102970000860032000F086F80F2000F007F800F050
:1029800017F8002010BD0000003C024070B504465E
:1029900000F016FC4FF47A71B0FBF1F5284602F016
:1029A0006AF800222146501E00F02DF8002070BD6C
:1029B0007047000000BF00F01F0201219140034A50
:1029C000430942F8231000BF7047000080E200E096
:1029D00000BF00F01F0201219140034A430942F861
:1029E000231000BF7047000080E100E000BF00F04E
:1029F0001F02012191404209920002F1E022C2F837
:102A0000001100BF70472DE9F05F80460D46164665
:102A1000002703F0B5FC074639462A46334601F045
:102A20000700C0F1070ABAF1040F02D94FF0040AF7
:102A300001E0C0F1070AD14600F1040ABAF1070F1C
:102A400002D24FF0000A01E0A0F1030AD4464FF091
:102A5000010A0AFA09FAAAF1010A0AEA020A0AFABA
:102A60000CFA4FF0010B0BFA0CFBABF1010B0BEA6C
:102A7000030B4AEA0B042146404603F089FCBDE8FB
:102A8000F09F000000BF00F00702064B19684FF6E8
:102A9000FF031940044B0B4343EA0221014B196029
:102AA00000BF70470CED00E00000FA050120410274
:102AB00091FAA1F1B1FA81F1014A42F8210070477F
:102AC00000000E4238B5002400BF002000902348CB
:102AD000006840F08050214908600846006800F016
:102AE0008050009000BF00BF0120010491FAA1F1C5
:102AF000B1FA81F11A4A42F82100FFF7A3FE044619
:102B000007E0FFF79FFE001BB0F57A7F01D9032095
:102B100038BD1448406800F48030B0F5803FF0D1F3
:102B20000120410491FAA1F1B1FA81F10C4A42F875
:102B30002100FFF787FE044607E0FFF783FE001B36
:102B4000B0F57A7F01D90320E2E70648406800F437
:102B50000030B0F5003FF0D10020D9E74038024006
:102B600000000E42007000400D4A126822F003027D
:102B700002430B4B1A600B4A126842F00402094BE5
:102B80001A60012901D130BF02E040BF20BF20BF41
:102B9000044A126822F00402024B1A6070470000D7
:102BA0000070004010ED00E0F8B504460025002656
:102BB000207800F0010020B9207800F002000228FF
:102BC00066D10020CC498866FFF73CFE054606E04A
:102BD000FFF738FE401B642801D90320F8BDC74821
:102BE0000068C0F3C0600028F2D1207800F0010036
:102BF00098B147F6C07191FAA1F1B1FA81F160681C
:102C000088404FF0E04292FAA2F2B2FA82F2A16852
:102C100091400843B94984310860207800F00200EF
:102C2000022821D1B5488430006800F0E0404FF020
:102C3000E04191FAA1F1B1FA81F120FA01F6606860
:102C40008101207B41EA006040EA0670AB49843193
:102C50000860AA488C30006820F01F00E169491E16
:102C60000843A6498C3108600120A3498866FFF714
:102C7000E9FD054606E0FFF7E5FD401B642801D9A4
:102C80000320ABE79D480068C0F3C0600028F2D085
:102C9000207800F00400042804D0207800F0080018
:102CA00008287DD1002094490867FFF7CBFD054631
:102CB00006E0FFF7C7FD401B642801D903208DE71C
:102CC0008E480068C0F340700028F2D1207800F0F0
:102CD0000400042834D189488830006800F0E040BE
:102CE0004FF0E04191FAA1F1B1FA81F120FA01F639
:102CF00047F6C07191FAA1F1B1FA81F120698840DB
:102D00004FF0706292FAA2F2B2FA82F261699140D7
:102D100008434FF0E04191FAA1F1B1FA81F106FACE
:102D200001F10843754988310860081D006820F4E6
:102D3000F851206A401E41EA002070498C31086039
:102D4000207800F00800082834D16C4888300068EA
:102D500000F070604FF0706191FAA1F1B1FA81F169
:102D600020FA01F647F6C07191FAA1F1B1FA81F1AA
:102D7000206988404FF0706191FAA1F1B1FA81F1B8
:102D800006FA01F108434FF0E04292FAA2F2B2FAD9
:102D900082F2A1699140084358498831086000E0F7
:102DA0001CE0081D006820F44030616A0843534964
:102DB0008C310860012050490867FFF743FD054644
:102DC00006E0FFF73FFD401B642801D9032005E71B
:102DD0004A480068C0F340700028F2D0207800F024
:102DE000200020287DD100BF0020009043484030C3
:102DF000006840F080504149403108600846006852
:102E000000F08050009000BF00BF3D48006840F4D3
:102E100080703B490860FFF715FD054606E0FFF7A7
:102E200011FD401B642801D90320D7E6344800680F
:102E300000F480700028F2D030487030006800F450
:102E40004070218D01F4407188424AD02B48703087
:102E5000006820F4407601202A49086000200860BC
:102E600026487030066006F0020098B1FFF7EAFCD1
:102E7000054608E0FFF7E6FC401B41F28831884236
:102E800001D90320AAE61D4870300068C0F3400055
:102E90000028EFD000BF208D00F44070B0F5407FD7
:102EA0000CD116480830006820F4F810164AA16AC0
:102EB0001140084311490831086007E00F48083005
:102EC000006820F4F8100D49083108600B48703094
:102ED0000068218DC1F30B01084308497031086077
:102EE00000BF207800F01000102803D194F82C00C7
:102EF00006490860002071E60000474200380240A1
:102F000000700040400E4742FFFCFF0FE0114742B7
:102F100070B504460E460025A748006800F00F0073
:102F2000B0426FD2A4490E700846006800F00F004E
:102F3000B04201D0012070BD207800F002000228CC
:102F400007D19E48006820F0F000A16808439B4923
:102F50000860207800F0010000283ED06068012859
:102F600007D1964808380068C0F34040B8B901203E
:102F7000E1E76068022802D06068032807D18F4823
:102F800008380068C0F3406048B90120D3E78B4897
:102F900008380068C0F3400008B90120CBE7874833
:102FA000006820F003006168084384490860FFF767
:102FB00049FC05466068012810D108E0FFF742FC93
:102FC000401B41F28831884201D90320B3E77B4896
:102FD000006800F00C000428F0D1CDE06068022801
:102FE00011D108E0FFF72EFC401B41F288318842E6
:102FF00001D903209FE77148006800F00C00082801
:10300000F0D1B9E024E06068032810D108E0FFF7B0
:1030100019FC401B41F28831884201D903208AE71C
:103020006648006800F00C000328F0D1A4E008E036
:10303000FFF708FC401B41F28831884201D9032088
:1030400079E75E48006800F00C000028F0D193E0BA
:10305000207800F00200022807D15848006820F0CC
:10306000F000A168084355490860207800F001008D
:10307000002877D06068012807D1504808380068D8
:10308000C0F34040B8B9012055E76068022802D07B
:103090006068032807D1494808380068C0F34060D9
:1030A00048B9012047E7454808380068C0F34000A8
:1030B00008B901203FE74148006820F0030061683B
:1030C00008433E490860FFF7BDFB054660680128DC
:1030D00010D108E0FFF7B6FB401B41F2883188426F
:1030E00001D9032027E73548006800F00C000428C8
:1030F000F0D137E06068022810D108E0FFF7A2FBAA
:10310000401B41F28831884201D9032013E72B4844
:10311000006800F00C000828F0D123E06068032864
:1031200010D108E0FFF78EFB401B41F28831884246
:1031300001D90320FFE62148006800F00C000328B5
:10314000F0D10FE008E0FFF77DFB401B41F2883132
:10315000884201D90320EEE61848006800F00C0010
:103160000028F0D114490E700846006800F00F00E6
:10317000B04201D00120DEE6207800F004000428EF
:1031800007D10E48006820F4E050E16808430B497D
:103190000860207800F00800082808D10748006877
:1031A00020F46040216940EAC100044908600F2012
:1031B000FFF7ECFB0020BEE6003C0240083802406E
:1031C00010B500F045F80949096801F0F001F02256
:1031D00092FAA2F2B2FA82F2D140054A515CC8409A
:1031E000044908600846006810BD00000838024025
:1031F00086DB01080000002010B5FFF7E1FF07495A
:10320000096801F4E0514FF4E05292FAA2F2B2FAE6
:1032100082F2D140024A515CC84010BD08380240D9
:1032200086DB010810B5FFF7CBFF0749096801F4F9
:1032300060414FF4604292FAA2F2B2FA82F2D140B7
:10324000024A515CC84010BD0838024086DB0108C4
:1032500070B50021002200230020274C246804F0D0
:103260000C0424B1042C04D0082C41D103E02348E1
:1032700040E023483EE0204C241F246804F03F0136
:103280001D4C241F246804F4800484B11C4CB4FB3E
:10329000F1F5194C241F246847F6C076344096FA9D
:1032A000A6F6B6FA86F6F44005FB04F20FE0134CDE
:1032B000B4FBF1F5104C241F246847F6C076344067
:1032C00096FAA6F6B6FA86F6F44005FB04F20A4C26
:1032D000241F246804F440344FF4403595FAA5F5D2
:1032E000B5FA85F5EC40641C6300B2FBF3F001E035
:1032F000024800BF00BF70BD083802400024F4003F
:1033000040787D0138B504460025207800F00100A2
:10331000002866D0F748006800F00C0004280DD0A3
:10332000F448006800F00C00082813D1F148001F91
:10333000006800F48000B0F5800F0BD1ED4808382C
:103340000068C0F3404000284BD06068002848D196
:10335000012038BD0020E749891F0870FFF772FA85
:10336000054608E0FFF76EFA401B41F288318842BB
:1033700001D90320EDE7DF4808380068C0F340407A
:103380000028EFD12079DB49891F08706068A0B15F
:10339000FFF758FA054608E0FFF754FA401B41F2E0
:1033A0008831884201D90320D3E7D2480838006821
:1033B000C0F340400028EFD013E0FFF743FA054682
:1033C00008E0FFF73FFA401B41F28831884201D9FB
:1033D0000320BEE7C74808380068C0F34040002813
:1033E000EFD1207800F00200022869D1C1480068BE
:1033F00000F00C0058B1BF48006800F00C0008282D
:1034000021D1BC48001F006800F48000D8B9B94839
:1034100008380068C0F3400020B1E068012801D0FE
:10342000012096E7B3480838006820F0F800F82239
:1034300092FAA2F2B2FA82F2216991400843AD49B0
:10344000083908603CE0E06828B30120AA49086018
:10345000FFF7F8F9054606E0FFF7F4F9401B64288A
:1034600001D9032075E7A34808380068C0F340007D
:103470000028F1D09F480838006820F0F800F822B2
:1034800092FAA2F2B2FA82F2216991400843994974
:103490000839086014E0002097490860FFF7D2F966
:1034A000054606E0FFF7CEF9401B642801D903204A
:1034B0004FE7904808380068C0F340000028F1D179
:1034C000207800F0080008282CD16069A8B10120FC
:1034D0008A490860FFF7B6F9054606E0FFF7B2F93A
:1034E000401B642801D9032033E782486C30006810
:1034F000C0F340000028F1D014E000207F490860AC
:10350000FFF7A0F9054606E0FFF79CF9401B642889
:1035100001D903201DE777486C300068C0F34000F4
:103520000028F1D1207800F0040004286FD100BFFA
:10353000002000906F483830006840F080506D499E
:10354000383108600846006800F08050009000BFE5
:1035500000BF6B48006840F4807069490860FFF75D
:1035600071F9054606E0FFF76DF9401B642801D9A3
:103570000320EEE66248006800F480700028F2D074
:1035800000205C4968310870FFF75CF9054608E0E7
:10359000FFF758F9401B41F28831884201D90320D6
:1035A000D7E6544868300068C0F340000028EFD1E7
:1035B000207A504968310870A068A0B1FFF742F93D
:1035C000054608E0FFF73EF9401B41F2883188428A
:1035D00001D90320BDE6474868300068C0F34000C9
:1035E0000028EFD013E0FFF72DF9054608E0FFF7BC
:1035F00029F9401B41F28831884201D90320A8E60D
:103600003C4868300068C0F340000028EFD1A06952
:10361000F0B33848006800F00C00082872D0A069A8
:10362000022850D1002034490866FFF70BF90546FF
:1036300006E0FFF707F9401B642801D9032088E65C
:103640002C4808380068C0F340600028F1D1D4E964
:103650000701084347F6C07292FAA2F2B2FA82F268
:10366000616A914008430122A16AC2EB51014FF403
:10367000403292FAA2F2B2FA82F2914008434FF03D
:10368000706292FAA2F2B2FA82F2E16A914000E02C
:103690003AE008431749091F0860012016490866E7
:1036A000FFF7D0F8054606E0FFF7CCF8401B64288A
:1036B00001D903204DE60F4808380068C0F3406088
:1036C0000028F1D020E000200B490866FFF7BAF887
:1036D000054606E0FFF7B6F8401B642801D9032031
:1036E00037E6044808380068C0F340600028F1D18C
:1036F0000AE007E00838024000004742800E4742D7
:1037000000700040012024E6002022E62DE9F0416F
:1037100004460D461646002700BF207F012802D12F
:103720000220BDE8F0810120207700BF02206077F1
:1037300000BFCA202168486253202168486200BF48
:103740002068806800F48060E0B1FFF77BF80746EE
:1037500012E0FFF777F8C01BB0F57A7F0CD900BFF5
:10376000FF202168486200BF0320607700BF00206F
:10377000207700BF0320D4E72068C068C0F3800032
:103780000028E6D12068806820F480602168886085
:10379000FFF758F8074612E0FFF754F8C01BB0F5E2
:1037A0007A7F0CD900BFFF202168486200BF032048
:1037B000607700BF0020207700BF0320B1E72068BA
:1037C000C068C0F380000028E6D02068456120680A
:1037D000806820F007002168886020688068304396
:1037E000216888601348006840F48000114908602F
:1037F00010480830006840F480000E490831086025
:103800002068806840F48040216888602068806873
:1038100040F480602168886000BFFF202168486212
:1038200000BF0120607700BF0020207700BF00BFED
:1038300077E70000003C014010B5044601A015F0F8
:103840000BFA10BD525443D6D0B6CF0A0000000088
:1038500010B504462068C068C0F3802078B12068A5
:10386000806800F4804050B12046FFF7E5FF2068F3
:10387000C06800F0800060F490602168C8604FF478
:103880008000024908600120607710BD143C0140AF
:1038900010B504460CB9012010BD607F20B900208E
:1038A0002077204600F04EF80220607700BFCA2043
:1038B0002168486253202168486200BF204603F017
:1038C0002BF940B100BFFF202168486200BF0420EF
:1038D00060770120E0E72068806819490840216886
:1038E00088602169606808436169084321688968C4
:1038F0000843216888602168E068086120680169E0
:10390000208941EA0040216808612068C06820F0F1
:1039100080002168C8602068006C20F48020216845
:1039200008642068006CA16908432168086400BF2E
:10393000FF202168486200BF012060770020ABE7CC
:10394000BFFF8FFF10B59AB0044600BF0020019062
:103950001B48006840F0805019490860084600681C
:1039600000F08050019000BF00BF08200E900020A2
:10397000149010900EA8FFF7C5FC202002900001C3
:103980000C9002A8FFF710F901200E4908600E48BC
:103990000068C06800F0800060F490600A4909681F
:1039A000C860042200210848FFF7B0FE0022092168
:1039B0000320FFF728F80320FFF718F81AB010BD0E
:1039C000403802403C0E47425C29002010B50446B6
:1039D0000CB9012010BD022084F88100002021686C
:1039E0000861401E21688861204603F04BFA206878
:1039F000406840F0080021684860204600F0AEF8BA
:103A00000020C4F8840084F8810000BF84F880009E
:103A100000BF00BFDEE7704770B5044600250026F2
:103A20000CB9012070BD94F8810028B9002084F8F9
:103A30008000204600F094F8022084F8810020469F
:103A400003F020FA204603F009FA206AB8B12046B4
:103A500003F03CFA064606EB86004100206A40026D
:103A6000B1FBF0F50A20B5FBF0F16162B5FBF0F1B6
:103A700000FB1150082802D9606A401C606220686F
:103A800000683449084021680860616B6068084339
:103A9000A16B0843E16B0843216C0843A16808430C
:103AA000A16A08432169084361690843A18C40EA7F
:103AB0000150E16A084321680968084321680860E9
:103AC000206840684CF20F01884321684860E16A31
:103AD000A0690843216B08432168496808432168AD
:103AE0004860206880681C49084021688860606CD4
:103AF000401E616D0843E16C0843216D0843A16CD1
:103B0000491E40EA012021688968084321688860CD
:103B10002068C0684FF2200108402168C860D4E9DD
:103B200016010843616E0843216E491E40EA0120D8
:103B30002168C96808432168C8600020C4F884006F
:103B4000012084F8810000BF002084F8800000BFBD
:103B500000BF67E710C005FF0080F8FF7047000056
:103B600010B586B0044600BF0020009017480068DA
:103B700040F48000154908600846006800F48000A1
:103B8000009000BF00BF00BF002000900F48143815
:103B9000006840F010000D491439086008460068BC
:103BA00000F01000009000BF00BF7C2001900220B8
:103BB000029001200390032004900620059001A9A3
:103BC0000348FEF723FD06B010BD00004438024054
:103BD000001002402DE9F04103460020002293F836
:103BE000204081F856409C8CA1F854409C6A220EDB
:103BF00094090C70C2F383044C7002F003048C70BF
:103C00009C6AC4F30742CA701C8DC4F307220A7170
:103C100093F828204A71DC6A220E4FF6FF7404EAFA
:103C20000214CC80DC6AC4F30742CC8844EA121444
:103C3000CC8002F00F040C729C8DC4F30722D409CF
:103C40004C72C2F380148C72C2F34014CC72C2F373
:103C500000140C7300244C731C6A14B11C6A012CF0
:103C60004DD19407240D0C612C24E25C0C6944EACC
:103C700082040C611C6B220E0C6944EA92140C61E4
:103C8000C2F3C2040C7502F007044C751C6BC4F33C
:103C9000074254098C75C2F38204CC759407640FF3
:103CA0000C761C8EC4F307220C7E44EAD2140C76E8
:103CB0000C69641C0025C1E912450C7ED1E912751E
:103CC000A41C012606FA04F4E617A7FB04C805FBAA
:103CD000048407FB0644C1E912C40D7A0124AC40F8
:103CE0000C654FF0000CD1E912760C6DA7FB04585F
:103CF00006FB048407FB0C44C1E9125431E01C6A42
:103D0000022C2DD12C24E25C9406A40A0C611C6BBD
:103D1000220E0C6944EA02240C611C6BC4F30742B6
:103D20000C6914430C611C8EC4F307220C69002536
:103D3000661C6D414FF400774FF0000CA6FB07485E
:103D400005FB078506FB0C557E00A4FB067805FBEA
:103D5000068504FB0C54C1E9127474100C6500E074
:103D60002920C2F3801401F8194F9406640E4C7098
:103D70003024E25C4C7844EAD2144C7002F07F04A8
:103D80008C705C6B220ED409CC70C2F341140C71A0
:103D9000C2F382044C719407240F8C715C6BC4F3E2
:103DA00007428C7944EA92148C71C2F34014CC71AE
:103DB00000240C7202F001044C729C8EC4F30722A2
:103DC000D4098C72C2F38014CC72C2F340140C7309
:103DD000C2F300144C73C2F381048C7302F0030429
:103DE000CC733424E25C54080C7401244C749C6B36
:103DF000220ECA7419399C6BC4F307424FF6FF7444
:103E000004EA0225CD851C8FC4F30722CC8D144310
:103E1000CC8593F8382015060D63DC6B220E0C6BF5
:103E200044EA02450D63DC6BC4F307420C6B44EAC1
:103E300002250D639C8FC4F307220C6B14430C63A3
:103E40003C24E25C342462541C6C220E35246254FF
:103E50001C6CC4F3074215068D634024E45AC4F376
:103E600007228C6B44EA02458D634024E25C8C6B34
:103E700044EA02258D635C6C220E8C6B14438C63C8
:103E80005C6CC4F307423C24645C44EA12143C2595
:103E90006C541407250DCD874424E45AC4F307223B
:103EA000CC8F1443CC874424E25C550840246554ED
:103EB000012541246554BDE8F08130B58BB004463E
:103EC0000D4600200A902077204600F045F800209B
:103ED000049005900690079008907620099007A816
:103EE00007C88DE80700206804A90EC903F00CFD7F
:103EF000204604F02DF90A909DF8280018B19DF88D
:103F000028000BB030BD204603F0BAFF0A909DF8A0
:103F1000280010B19DF82800F3E729462046FFF756
:103F200059FE0A909DF8280040B9B5F854000104E4
:103F30000A460023204604F003FA0A90D4E904124A
:103F4000A069CDE90012029094E80F0003F0DCFCB8
:103F50009DF82800D5E7000010B586B0044600BFE4
:103F6000002000902948006840F40060274908605C
:103F70000846006800F40060009000BF00BF00BF6A
:103F80000020009021481438006840F480001F4948
:103F9000143908600846006800F48000009000BFF3
:103FA00000BF00BF002000900846006840F00400F9
:103FB00008600846006800F00400009000BF00BFE1
:103FC00000BF002000900846006840F0080008602C
:103FD0000846006800F00800009000BF00BF4FF4E2
:103FE000F8500190022002900120039003200490D9
:103FF0000C20059001A90648FEF708FB042001905B
:1040000001A90448FEF702FB06B010BD4438024087
:1040100000080240000C02402DE9FF5F8CB004460E
:1040200017469846DDE91AB94FF0000A00250D9EA3
:1040300000202168C862206A022809D14FF4007B61
:104040000202002338464146FCF768F907468846D5
:10405000CDF81CB0102008904020099000200A9054
:104060004FF480600B9007A9206803F070FC1021CA
:10407000204603F0A1FC8246BAF1000F03D050465F
:1040800010B0BDE8F09F4FF0FF30019009FB0BF03E
:1040900002909020039002200490002005900120BF
:1040A000069001A9206803F003FCB9F1010F02D9C1
:1040B0001220089001E011200890079707A92068B6
:1040C00003F045FCB9F1010F22D91221204603F07B
:1040D00073FC8246BAF1000F01D05046D0E70FE0E2
:1040E0002068406B00F4004050B1002505E02068D6
:1040F00003F029FC46F825006D1C082DF7D3203667
:104100002068406B40F22A3108400028E8D021E0C6
:104110001121204603F050FC8246BAF1000F01D075
:104120005046ADE70FE02068406B00F4004050B10E
:10413000002505E0206803F006FC46F825006D1C0C
:10414000082DF7D320362068406B40F22A610840E2
:104150000028E8D02068406B00F4807070B1B9F19D
:10416000010F0BD9206A28B1206A012802D0206AE9
:10417000022803D1204600F047F882462068406BB1
:1041800000F0080030B10820216888634FF0040A6D
:10419000504675E72068406B00F0020028B102200D
:1041A00021688863824650466AE72068406B00F0C9
:1041B000200030B12020216888634FF0060A504665
:1041C0005EE72068406B00F4007038B14FF4007077
:1041D000216888634FF0070A504651E74FF0FF35DA
:1041E00005E0206803F0AFFB3060361D6D1E2068CF
:1041F000406B00F4001008B1002DF2D140F2FF50E6
:104200002168886350463BE730B585B004460025F9
:10421000002000900C20019040200290002003908C
:104220004FF4806004906946206803F090FB0C21F5
:10423000204603F0C1FB0546284605B030BD70B5E9
:104240008AB004460D460026206A032803D127269B
:1042500030460AB070BD206A28B1206A012802D019
:10426000206A022828D1B5F5805F01D127260EE00B
:10427000B5F5006F04D1204604F0C9F8064606E003
:1042800025B9204604F078F8064600E026269EB9B7
:1042900060680490A0680590E068069007956069E2
:1042A0000890A069099007A807C88DE80700206852
:1042B00004A90EC903F028FB3046CAE72DE9FF5FC9
:1042C0008EB0044617469846DDF874B00020029080
:1042D0008146002500260190DDF83CA00090216871
:1042E000C862206A022809D100021C9002460023FD
:1042F00038464146FCF712F8074688461C98099054
:1043000010200A9040200B9000200C904FF4806009
:104310000D9009A9206803F01AFB1021204603F034
:104320004BFB0290029818B1029812B0BDE8F09FC2
:10433000BBF1010F02D919200A9001E018200A9060
:10434000099709A9206803F002FBBBF1010F05D909
:104350001921204603F030FB029004E0182120468A
:1043600003F02AFB0290029808B10298DDE71C983E
:104370000BFB00F94FF0FF3003901C980BFB00F093
:10438000049090200590002006900790012008904E
:1043900003A9206803F08CFABBF1010F3AD931E090
:1043A0002068406B00F4804060B3A9EB0500202832
:1043B0001BD2A9EB050000F0030018B9A9EB05001A
:1043C000800803E0A9EB05008008401C019000264E
:1043D00007E05146206803F0CEFA0AF1040A2D1DC9
:1043E000761C019886420DD2F3E7002605E00AEB21
:1043F0008601206803F0BFFA761C082EF7D30AF175
:10440000200A20352068406B40F21A31084000280D
:10441000C6D039E031E02068406B00F4804060B3E2
:10442000A9EB050020281BD2A9EB050000F0030032
:1044300018B9A9EB0500800803E0A9EB0500800886
:10444000401C0190002607E05146206803F093FAD3
:104450000AF1040A2D1D761C019886420DD2F3E75D
:10446000002605E00AEB8601206803F084FA761C3A
:10447000082EF7D30AF1200A20352068406B40F25D
:104480001A6108400028C6D02068406B00F4807094
:1044900070B1BBF1010F0BD9206A28B1206A012845
:1044A00002D0206A022803D12046FFF7ADFE029019
:1044B0002068406B00F0080030B108202168886354
:1044C00004200290029830E72068406B00F0020060
:1044D00028B10220216888630290029825E72068AD
:1044E000406B00F0100030B1102021688863052077
:1044F0000290029819E72068406B00F4007038B110
:104500004FF40070216888630720029002980CE73E
:1045100040F2FF50216888636946204603F02EFD73
:10452000029004E06946204603F028FD02900298BC
:1045300038B99DF800000728F4D09DF8000006283F
:10454000F0D00298F1E610B504460CB9012010BD78
:1045500094F8510028B9002084F85000204600F05B
:1045600037F8022084F851002068006820F04000ED
:1045700021680860D4E901010843E1680843216922
:10458000084361690843218B01F400710843E16924
:104590000843216A0843A16A08432168086004218E
:1045A000A06901EA1040616A0843216848602168F7
:1045B000E06A08612068C06920F400602168C86171
:1045C00000206065012084F851000020BFE7000052
:1045D00010B586B004464349206888422FD100BFF9
:1045E000002000904048006840F001003E4908600B
:1045F0000846006800F00100009000BF00BF00BF47
:104600000020009038481430006840F4805036494B
:10461000143108600846006800F48050009000BF24
:1046200000BFE020019002200290012003900220B0
:1046300004900520059001A92C48FDF7E7FF2C49BF
:10464000206888424CD100BF0020009026480068B6
:1046500040F00800244908600846006800F008009F
:10466000009000BF00BF00BF002000900846006817
:1046700040F0020008600846006800F00200009068
:1046800000BF00BF00BF0020009017481030006836
:1046900040F400401449103108600846006800F4F6
:1046A0000040009000BF00BF18200190022002903F
:1046B00001200390022004900620059001A90D48D6
:1046C000FDF7A4FF402001900220029001200390FA
:1046D000022004900520059001A90748FDF796FFE8
:1046E00006B010BD003001403038024000000240EA
:1046F000003C004000040240000C02402DE9F84F4D
:1047000004460E4617461D46DDF828904FF0000877
:10471000C24694F85180B8F1010F02D0B8F1220FCF
:1047200076D10EB107B115B90120BDE8F88F00BFF1
:1047300094F85000012801D10220F6E7012084F806
:10474000500000BF94F85100012802D1322084F8B3
:10475000510000206065A763A587E5872663A586CD
:10476000E586A064E064A06AB0F5005F0DD100BFEB
:104770002068006820F40050216808602068006804
:1047800040F400502168086000BF2068006800F015
:104790004000402805D02068006840F040002168B3
:1047A0000860E068B0F5006F75D1606830B160688E
:1047B000B0F5827F0CD1E08E012809D1206B0088F2
:1047C0002168C860206B801C2063E08E401EE0865C
:1047D000E08EF0B9A06AB0F5005F05D120680068EE
:1047E00040F48050216808604B4600220121204699
:1047F00003F04AFF08B1032097E72068C068A16B67
:104800000880A06B801CA063E08F401EE087C7E09B
:104810001BE131E04B4600220221204603F034FF29
:1048200008B1032081E7206B00882168C860206BF5
:10483000801C2063E08E401EE086E08E48B9A06AAE
:10484000B0F5005F05D12068006840F48050216811
:1048500008604B4600220121204603F015FF08B1F5
:10486000032062E72068C068A16B0880A06B801CF1
:10487000A063E08F401EE087E08E0028CADC6068FD
:104880000028C4D14B4600220121204603F0FCFE43
:1048900010B1032049E70AE02068C068A16B0880D6
:1048A000A06B801CA063E08F401EE08778E060680A
:1048B00030B16068B0F5827F0BD1E08E012808D15D
:1048C000216B481C206308782168C860E08E401E78
:1048D000E086E08ED0B9A06AB0F5005F05D120680F
:1048E000006840F48050216808604B460022012196
:1048F000204603F0C9FE08B1032016E72068C0680F
:10490000A16B0870E08F401EE08749E030E04B4625
:1049100000220221204603F0B7FE08B1032004E77D
:10492000216B481C206308782168C860E08E401E17
:10493000E086E08E48B9A06AB0F5005F05D1206836
:10494000006840F48050216808604B460022012135
:10495000204603F099FE08B10320E6E62068C0680F
:10496000C1B2A26B501CA0631170E08F401EE087A3
:10497000E08E0028CBDC606890B94B460022012114
:10498000204603F081FE08B10320CEE62068C0680F
:10499000C1B2A26B501CA0631170E08F401EE08773
:1049A000A06AB0F5005F12D14B46002201212046DB
:1049B00003F06AFE28B1606D40F0020060650320DC
:1049C000B3E62068C06880B20090BDF800004B4696
:1049D00001228021204603F057FE28B1606D40F08F
:1049E000200060650320A0E6012084F851002068C3
:1049F0008068C0F3001AA06AB0F5005F1FD1BAF159
:104A0000000F1CD0606D40F002006065A06AB0F538
:104A1000005F0DD100BF2068006820F400502168BD
:104A200008602068006840F400502168086000BFFA
:104A300000BF002084F8500000BF012075E600BFD1
:104A4000002084F8500000BF6FE602206DE60428C5
:104A500008D14FF0E021096941F004014FF0E02254
:104A6000116107E04FF0E021096921F004014FF0E6
:104A7000E0221161704770B504462546681EB0F10A
:104A8000807F01D301200FE0681E4FF0E0214861D4
:104A90000F214FF0FF3001F07BFC00204FF0E021B0
:104AA000886107200861002070BD7047014691F8B9
:104AB00039007047F8B504460025002620680068D4
:104AC00000F001052068C06800F480767DB176B101
:104AD00000BF0020009020680068009020684068B7
:104AE000009000BF00BFE06B40F00100E063206871
:104AF0000068C0F340052068406900F001067DB100
:104B000076B100BF00200090206800680090206807
:104B10004068009000BF00BFE06B40F00400E0631D
:104B200020680068C0F380052068406900F0010635
:104B30007DB176B100BF0020009020680068009031
:104B400020684068009000BF00BFE06B40F00200AA
:104B5000E06320680068C0F3C0052068406900F089
:104B600001067DB176B100BF00200090206800688A
:104B7000009020684068009000BF00BFE06B40F0EC
:104B80000800E06320680068C0F340152068C06832
:104B900000F020061DB116B1204604F089F9206806
:104BA0000068C0F3C0152068C06800F080061DB121
:104BB00016B1204604F0ECFA20680068C0F38015B6
:104BC0002068C06800F040061DB116B1204604F010
:104BD00057F9E06B28B1012084F839002046FFF72F
:104BE00064FFF8BD10B504460CB9012010BDA069E2
:104BF00000B100E000BF94F8390028B9002084F823
:104C00003800204600F026F8022084F83900206899
:104C1000C06820F400502168C860204604F0A6F95E
:104C20002068006920F4904021680861206840698C
:104C300020F02A00216848612068C06840F40050D4
:104C40002168C8600020E063012084F8390000205A
:104C5000CCE7000010B586B0044640492068884281
:104C600036D100BF002000903D48006840F00100B0
:104C70003B4908600846006800F00100009000BF52
:104C800000BF00BF0020009035481430006840F09D
:104C900010003349143108600846006800F0100025
:104CA000009000BF00BF4815019002200290012033
:104CB0000390022004900720059001A92948FDF7E0
:104CC000A5FC4FF48060019001A92648FDF79EFCE9
:104CD0002549206888423ED100BF0020009020482E
:104CE0001030006840F480201D49103108600846EB
:104CF000006800F48020009000BF00BF00BF0020CB
:104D000000901748006840F0020015490860084606
:104D1000006800F00200009000BF00BF081501907D
:104D200002200290002003900320049007200590A9
:104D300001A90E48FDF76AFC4FF40060019001A93B
:104D40000A48FDF763FC2720FDF750FE00221146BC
:104D50002720FDF758FE06B010BD000000100140EE
:104D60003038024000000240004800400004024089
:104D700030B50346002493F83940012C01D0122CA1
:104D800037D101B10AB9012030BD00BF93F8380016
:104D9000012801D10220F7E7012083F8380000BF85
:104DA00099629A85DA850020D86393F83900122831
:104DB00003D1322083F8390002E0222083F8390041
:104DC0001868C06840F480701D68E8601868406921
:104DD00040F001001D68686100BF002083F83800C2
:104DE00000BF1868C06840F020001D68E86000201F
:104DF000CAE70220C8E7000010B504462049206831
:104E000088423BD11F48008800F4004010BB1D4879
:104E1000008800F4804098B11B4800780A2803D02D
:104E200000201849088029E01648008840F4004016
:104E30001449088015491648006814F0D8F81DE098
:104E4000114800780D2806D10E48008840F48040B3
:104E50000C49088012E00C4800780A490988C1F31F
:104E60000D010A4A505407480088401C0549088033
:104E700008460088FE2801DD0020088010BD0000E3
:104E8000004800401C0100201E0100208823002053
:104E9000700000202DE9F04704460D46164699465D
:104EA0004FF0000894F83980B8F1010F02D0B8F142
:104EB000220F65D105B116B90120BDE8F08700BF0A
:104EC00094F83800012801D10220F6E7012084F887
:104ED000380000BF0020E06394F83900222803D195
:104EE000322084F8390002E0122084F83900A684C8
:104EF000E68428E0E08C401EE084A068B0F5805F86
:104F000014D14B4600228021204604F079F908B1E3
:104F10000320D2E72F463888C0F308002168486094
:104F2000206908B9AD1C0EE06D1C0CE04B46002258
:104F30008021204604F064F908B10320BDE715F88C
:104F4000010B21684860E08C0028D3DC4B4600222E
:104F50004021204604F054F908B10320ADE794F84D
:104F60003900322803D1222084F8390002E00120E0
:104F700084F8390000BF002084F8380000BF9CE7A7
:104F800002209AE77047000000B587B000BF0020FC
:104F900001901048006840F010000E490860084673
:104FA000006800F01000019000BF00BF4FF44040C7
:104FB00002900120039004900220059002A9064867
:104FC000FDF724FB0120054908600549C1F8B80236
:104FD00007B000BD3038024000100240BC0242421F
:104FE0000000424270B504461548006820F0404079
:104FF000134908600846006840F0804008600020BF
:1050000010490860002517E0E0090E49091D0860F5
:105010006006040E022007F06DFF01200A49C1F866
:10502000B802022007F066FF00200649086002204F
:1050300007F060FF681CC5B2082DE5DB70BD0000FD
:1050400000100240B80242420000424210B50F4830
:10505000006820F040400D4908600846006840F0B4
:105060008040086001200A4908600A49C1F8B80276
:10507000042007F03FFF002005490860042007F0E6
:1050800039FF00200349C1F8B80210BD00100240EA
:10509000BC0242420000424210B50F48006820F0B6
:1050A00040400D4908600846006840F080400860B4
:1050B00000200A4908600A49C1F8BC02042007F030
:1050C00019FF012005490860042007F013FF0120A3
:1050D0000349C1F8BC0210BD00100240B8024242B0
:1050E0000000424210B500241048006820F0404003
:1050F0000E49086008460068086001200C490860F5
:105100000C49C1F8B80207E0601CC4B2FA2C03DDF8
:10511000FFF7C2FF012010BD054880380068002855
:10512000F2D10349091F086000BFF4E700100240F4
:10513000BC024242000042422DE9F04F87B00446D3
:105140008B46A9A103C9CDE905010027B846B94698
:1051500000260025002004908246039002908DF8DE
:1051600014B0224605A9032001F070FC01900198BB
:1051700008B1012000E0002000B133E16778B846B3
:10518000781E205C00F08009E65D781C255C082D07
:1051900003D1612007B0BDE8F08F1DE14FF0000999
:1051A000202000EB0611681C0844C0B28DF81500E1
:1051B0008EB9A078691CFF228A4090438DF81600B2
:1051C000681CC0B240F040008DF817009DF8160032
:1051D0008DF8080067E0012E18D1A0788DF8160030
:1051E000E078691CFF228A4090438DF81700681C04
:1051F000C0B240F040008DF818009DF816008DF800
:1052000008009DF817008DF809004CE0022E1FD110
:10521000A0788DF81600E0788DF817002079691CC9
:10522000FF228A4090438DF81800681CC0B240F0FD
:1052300040008DF819009DF816008DF808009DF8C3
:1052400017008DF809009DF818008DF80A002AE073
:10525000032E26D1A0788DF81600E0788DF817007F
:1052600020798DF818006079691CFF228A409043EC
:105270008DF81900681CC0B240F040008DF81A008B
:105280009DF816008DF808009DF817008DF80900AC
:105290009DF818008DF80A009DF819008DF80B0094
:1052A00001E0612076E7311DC8B2224605A901F070
:1052B000CDFB2078802801D061206BE76778781ECD
:1052C000205C00F08009B9F1800F04D114F807A028
:1052D000781C205C0390781E205C00F00F00C0F169
:1052E0000800C0B20490691C0498884245D196B960
:1052F0009DF81600FF228A409043A17808438DF85C
:105300000800E0788DF8090020798DF80A006079AE
:105310008DF80B0033E0012E10D19DF81700691CA9
:10532000FF228A409043A17808438DF80900E07875
:105330008DF80A0020798DF80B0020E0022E0DD1A7
:105340009DF81800691CFF228A409043A178084309
:105350008DF80A00E0788DF80B0010E0032E0AD1DA
:105360009DF81900691CFF228A409043A1780843E8
:105370008DF80B0003E061200CE761200AE7802034
:10538000207084F801809DF80800A0709DF8090045
:10539000E0709DF80A0020719DF80B0060719DF887
:1053A00008009DF8091048409DF80A1048409DF8F3
:1053B0000B104840A071B9F1800F0DD1564504D0B3
:1053C00006EB0A00C6B2039D06E006EB0A00C6B271
:1053D0000398401C2844C5B2B9F1800F3FF4DEAEFB
:1053E0000020D7E66120D5E600200800000000007C
:1053F0002DE9F0410646304D002493213046FFF759
:105400009BFE8046B8F1000F01D0012000E0002093
:1054100000B14EE02948C078042804D12748D6F8C6
:105420000210416005E02548B6F8031081807179CB
:105430008171B77993222046611CCCB22A54702224
:105440002046611CCCB22A541C48C078042806D1DE
:1054500028191A4949680160201DC4B20CE088224D
:105460002046611CCCB22A54281914498A8802802B
:1054700089798170E01CC4B22046611CCCB22F54E3
:1054800028222046611CCCB22A54324629462046A6
:1054900001F0DCFA8046B8F1000F01D0012000E0F5
:1054A000002000B105E0B078044988730020BDE811
:1054B000F0816120FBE70000DE3A0020E63C00209E
:1054C0002DE9F0410646324D002495213046FFF784
:1054D00033FE8046B8F1000F01D0012000E000202B
:1054E00000B152E02B48C078072805D12948D6F8EA
:1054F0000210C0F8071006E02648B6F80310A0F81E
:10550000071071794172B77995222046611CCCB29F
:105510002A5470222046611CCCB22A541D48C078FF
:10552000072807D129191B48D0F807000860201D5B
:10553000C4B20DE088222046611CCCB22A5429193D
:105540001448B0F807200A80407A8870E01CC4B282
:105550002046611CCCB22F5428222046611CCCB2BC
:105560002A5432462946204601F070FA8046B8F1A6
:10557000000F01D0012000E0002000B105E0B0786C
:10558000044988730020BDE8F0816120FBE700003A
:10559000DE3A0020E63C00202DE9F0410646244D8D
:1055A000002497213046FFF7C7FD8046B8F1000F71
:1055B00001D0012000E0002000B137E01D48D6F8FE
:1055C0000210C0F80710B77997222046611CCCB2B0
:1055D0002A5470222046611CCCB22A541548C07847
:1055E0000A2806D129191348D0F807000860201DA1
:1055F000C4B22046611CCCB22F5428222046611C24
:10560000CCB22A5432462946204601F01FFA804681
:10561000B8F1000F01D0012000E0002000B105E04A
:10562000B078044988730020BDE8F0816120FBE771
:10563000DE3A0020E63C002070B52C4D2846FFF7EE
:10564000D7FE04460CB1012000E0002000B14BE081
:105650002748807B00F0040048B12846FFF730FF60
:1056600004460CB1012000E0002000B13CE02048DD
:10567000807B00F0040048B12846FFF78DFF044608
:105680000CB1012000E0002000B12DE01848807B23
:1056900000F0200070B100F007F901201449C87330
:1056A000284600F0A3F904460CB1012000E00020D8
:1056B00000B119E0012000F041F802200D49087006
:1056C0000B48807B00F0600018B902200A4908707E
:1056D00008E00748807B00F02000202802D1042049
:1056E00005490870002070BD6120FCE7DC3A00200D
:1056F000E63C0020D3030020D40300200E490978A3
:10570000890921B1012908D0022912D10BE0042115
:10571000094AD170012191700BE00721064AD1702E
:105720000221917005E00A21034AD1700321917092
:1057300000BF00BF70470000E63C0020F0B585B018
:10574000054629A103C9CDE9030129A000680290FB
:1057500028A0006801900027274E284800783428A8
:1057600001DB062700E0042725480088042802DA28
:10577000042023490880224800788DF80D008DF818
:105780000E5000208DF80F00791CC8B2334603AAD2
:10579000022101F023F904460CB1012000E00020B1
:1057A00000B11FE002AB00223A210420009601F074
:1057B00074F904460CB1012000E0002000B111E0B2
:1057C0000D4801AB012268210090042001F065F929
:1057D00004460CB1012000E0002000B102E00020EE
:1057E00005B0F0BD6120FBE70000000003030000EE
:1057F0005A04000001DF0000DC3A0020D50300203D
:10580000E203002070B586B021A103C9CDE90401EF
:1058100021A00068039021A0006802900026204D7E
:1058200020480078342801DB062600E00426711C9D
:10583000C8B22B4604AA022101F0D0F804460CB1EC
:10584000012000E0002000B11FE003AB00223A215C
:105850000420009501F021F904460CB1012000E07C
:10586000002000B111E00E4802AB01226821009037
:10587000042001F012F904460CB1012000E00020E0
:1058800000B102E0002006B070BD6120FBE700001F
:1058900000000000020200005A04000001DF0000C6
:1058A000DC3A0020D503002070B586B025A103C9DD
:1058B000CDE9040125A00068039025A000680290AE
:1058C0000026244D24480078342801DB062600E019
:1058D000042604208DF8110000208DF812000C2001
:1058E0008DF81300711CC8B22B4604AA022101F0E6
:1058F00075F804460CB1012000E0002000B11FE063
:1059000003AB00223A210420009501F0C6F80446BA
:105910000CB1012000E0002000B111E00D4802AB05
:10592000012268210090042001F0B7F804460CB170
:10593000012000E0002000B102E0002006B070BDB0
:105940006120FBE700000000030300005A04000090
:1059500001DF0000DC3A0020D503002010B500F084
:1059600013F8FFF74FFF04460CB1012000E00020C0
:1059700000B104E0012003490870002010BD61203F
:10598000FCE70000E403002006480021018041609C
:1059900081608181002003498870C870C8730874D1
:1059A00070470000E63C002070B50E4C204600F029
:1059B00069F805460DB1012000E0002000B10FE0BC
:1059C0002146042000F04FFF05460DB1012000E004
:1059D000002000B104E0012003490874002070BDDC
:1059E0006120FCE7DC3A0020E63C0020F8B50446E4
:1059F00021A00068009022466946032001F026F8A5
:105A000005460DB1012000E0002000B132E0214642
:105A1000042000F028FF05460DB1012000E0002021
:105A200000B127E02146022000F0E8FE05460DB156
:105A3000012000E0002000B11CE0E07800F00F063B
:105A40003046FCF74BFC0D490880E07800F0200060
:105A500020280DD1E07800F01000102804D16079E2
:105A600000090749088003E02079000904490880FB
:105A70000020F8BD6120FCE7E0802800E003002062
:105A8000E203002038B504460BA0006800902246CF
:105A90006946022000F0DAFF05460DB1012000E062
:105AA000002000B106E0054861880180FFF726FE6E
:105AB000002038BD6120FCE726070000E63C0020FE
:105AC00010B50248FCF7EEFE10BD00004C29002086
:105AD00070B504460D46064806490860084644600D
