:020000040800F2
:1000000098FD0220C1010008C9010008C7020008CC
:10001000CD010008CF010008D10100080000000058
:10002000000000000000000000000000D3010008F4
:10003000D501000800000000130200083D5100082F
:10004000DB010008DB010008DB010008DB01000820
:10005000DB010008DB010008DB010008DB01000810
:10006000DB010008DB010008DB010008DB01000800
:10007000DB010008DB010008DB010008DB010008F0
:10008000DB010008DB010008DB010008DB010008E0
:10009000DB010008DB010008DB010008DB010008D0
:1000A000DB010008DB010008DB010008DB010008C0
:1000B000DB010008DB010008DB010008DB010008B0
:1000C000DB010008DB010008DB010008DB010008A0
:1000D000DB0100080D560008DB010008DB01000809
:1000E000DB010008DB010008DB010008DB01000880
:1000F000DB010008DB010008DB010008DB01000870
:10010000DB010008DB010008DB010008DB0100085F
:10011000DB010008DB010008DB010008DB0100084F
:10012000DB010008DB010008DB010008D50E000838
:10013000DB010008DB010008DB010008DB0100082F
:10014000DB010008DB010008DB010008C137000803
:10015000DB010008DB010008DB010008DB0100080F
:10016000DB010008DB010008DB010008DB010008FF
:10017000DB010008DB010008DB01000800000000D3
:10018000DB010008DB010008DB010008DB010008DF
:10019000DB010008DB010008DB010008DB010008CF
:1001A000DB010008DB010008DB010008DFF80CD0F0
:1001B00000F030F9004800478F04000898FD022045
:1001C0000648804706480047FEE7FEE7FEE7FEE7F1
:1001D000FEE7FEE7FEE7FEE7FEE7FEE7D95100088F
:1001E000AD010008EFF3108072B6704780F31088FD
:1001F0007047434A1368012B04D04FF0010313608A
:10020000404A1060404A116040484FF08051016000
:100210007047EFF3108272B63948016851B34FF05E
:10022000000101603748016891B1EFF309811EF0C8
:10023000100F08BF21ED108B21E9F00F4FF00004E3
:100240001EF0100F08BF012441F8044D0068016042
:100250002D490968096808C9B1E8F00F002B18BFDB
:10026000B1EC108B81F309884EF0100E002B18BFF3
:100270002EF0100E82F310884EF0040E70472249C3
:100280000860EFF3148222F0040282F314881D49FF
:100290004FF0000008601A494FF0010008601C4848
:1002A0004FF47F01D0F8002041EA020101601748B5
:1002B0004FF08051016017480068006880F308889B
:1002C00061B662B670471EF0040F0CBFEFF30880F2
:1002D000EFF3098020E9F00F40F804ED40F804ED59
:1002E0001EF0040F0CBF80F3088880F3098800B566
:1002F0000AF08CF95DF804EB4EF0040E7047000034
:1003000048020020400200204402002004ED00E0EA
:1003100020ED00E008ED00E02DE9F05F054600204B
:1003200092469B4688460646814640241BE0284666
:1003300041464746224600F05DF853465A46C01AE9
:10034000914110D311461846224600F044F82D1A68
:1003500067EB01084F4622460120002100F03BF8E0
:1003600017EB00094E41201EA4F10104DFDC4846D2
:1003700031462A464346BDE8F09F40EA01039B0709
:1003800003D009E008C9121F08C0042AFAD203E00A
:1003900011F8013B00F8013B521EF9D27047421E92
:1003A00012F8013F002BFBD111F8013B02F8013B91
:1003B000002BF9D17047421C10F8011B0029FBD11A
:1003C000801A7047034611F8012B00F8012B002A10
:1003D000F9D118467047202A04DB203A00FA02F1CE
:1003E000002070479140C2F1200320FA03F3194323
:1003F00090407047202A04DB203A21FA02F00021C5
:10040000704721FA02F3D040C2F120029140084324
:1004100019467047064C074D06E0E06840F00103BE
:1004200094E8070098471034AC42F6D3FFF7C2FEB9
:1004300030E3000850E3000870B58C1810F8015B39
:1004400015F0070301D110F8013B2A1106D110F86D
:10045000012B03E010F8016B01F8016B5B1EF9D171
:100460002B0705D40023521E0DD401F8013BFAE7F7
:1004700010F8013BCB1A921C03E013F8015B01F862
:10048000015B521EF9D5A142D8D3002070BD10B532
:100490000BF0AEFA002010BD2DE9F04F87B0002719
:1004A0003D48016841F004010160016801F0040168
:1004B0000191016841F001010160016801F0010151
:1004C0000191016841F002010160016801F002013F
:1004D0000191016841F010010160016801F0100113
:1004E0000191016841F008010160006800F0080016
:1004F00001904FF08008CDF8088003970124049400
:10050000DFF898A002A9504600F05EFE4FF4805933
:10051000CDF80890DFF888B002A9584600F054FEE4
:1005200025020295039404940226059602A91D480B
:1005300000F04AFE1020029002A9504600F044FE4E
:100540004020029002A9584600F03EFECDF80880F7
:1005500002A9584600F038FECDF80890DFF8488030
:1005600002A9404600F030FEE0020290049602A983
:10057000404600F029FE4FF4604002900397049437
:1005800002A9584600F020FE029502A9074800F093
:100590001BFE07B0BDE8F08F303802400008024073
:1005A000000402400000024000100240000C024023
:1005B00010B500221021274800F0FDFE0022C021C6
:1005C000254800F0F8FE00224FF48071234800F027
:1005D000F2FE234C00224FF48051204600F0EBFE47
:1005E0000122D102204600F0E6FE64200AF012FE4D
:1005F00006F006FC04F058FB06F0A8FD02F0E8FF48
:10060000642006F041FE00221146202002F0B6FED2
:10061000002009F023FC022009F020FC08F088F8F3
:10062000104C012210A1206808F052FA01220FA1FB
:10063000606808F04DFA09F0C1F810B10AA00BF09B
:100640008FFB4FF4FA600AF0E5FDBDE8104008A00A
:1006500006F086BE0008024000040240000002408E
:10066000001002407C220020303A0000313A0000A5
:10067000646F6E650000000010B5FFF799FF04F08D
:1006800011FC04F0D3FD03480068BDE810400AF0F7
:10069000C3BD0000000000202DE9FE4F6A2002903B
:1006A00002200190C101544800F07EFE534F072400
:1006B00000264FF07A084FF078094FF0760A4FF095
:1006C000740B012588B33879401C38713D706E2257
:1006D0006C2023460096019902F05DFF7222702083
:1006E00023460096019902F056FF424648462346AB
:1006F0000096019902F04FFF524658462346009655
:10070000019902F048FF7C2406237E220321204623
:10071000009502F040FF092331462246029802F07C
:1007200015FFBDE8FE4F03F003B84FF40041344815
:1007300000F03AFEF8B1FE7002203870722270208C
:1007400023460221009602F026FF424648462346F1
:100750000221009602F01FFF52465846234602210E
:10076000009602F018FF23466E226C200095019936
:1007700002F011FFC7E74FF48041214800F014FE5A
:10078000C0B1BE70032038705246584623460096CA
:10079000019902F000FF424648462346009601991F
:1007A00002F0F9FE2346722270200095019902F0B2
:1007B000F2FED8E74FF40051114800F0F5FD88B182
:1007C0007E700420387023464246484600960199C0
:1007D00002F0E1FE2346524658460095019902F088
:1007E000DAFEDFE70520387023464246484600958A
:1007F000019902F0D0FEEDE7000C0240AE000020AF
:10080000000402400069416841F002014160032098
:1008100005F002BE10B50B4603F07F0202EB820129
:100820001C0600EBC10102D501F58E7101E001F556
:100830005D710A70DA094A7006F01AF8002010BDDE
:1008400010B50A46110602F07F0306D503EB8301BB
:1008500000EBC10101F58E7105E002EB820100EBB6
:10086000C10101F55D7100248C700B70D2094A70D2
:1008700005F0E0FF002010BD10B50A0604D501F018
:100880007F0106F041F901E006F020F9002010BDDB
:1008900070B50D4605F07F0404EB84012E0600EBD5
:1008A000C10102D501F58E7101E001F55D710C7099
:1008B000ED094D708A60CB7005B1CC80022B01D15F
:1008C00000220A7105F088FF002070BD10B501F00C
:1008D0007F0404EB840100EBC10101F55D71CA6086
:1008E0004B6100238B614B700C70C378012B00D1DE
:1008F0000A610A781AB105F0F6FF002010BD05F074
:10090000E2FEFAE7002261F30A120069016811436E
:100910000160704710B50A46110602F07F0306D544
:1009200003EB830100EBC10101F58E7105E002EBE1
:10093000820100EBC10101F55D7101248C700B7027
:10094000D2094A7005F0AFFF002010BD70B501F06C
:100950007F0404EB840100EBC10101F58E710125D8
:100960004D700C70CA600A6100228A614B61002CD4
:1009700003D005F0B8FF002070BD05F0A4FEFAE733
:1009800038B50446204605F075FEE068C16821F4DC
:1009900070550095C560204606F0D8F80146002045
:1009A000032911D00120A0704020A08025F47050B0
:1009B00000F5A0500090E1680098C8604FF4005026
:1009C000E1684861012038BDA0704FF40070A0803C
:1009D00025F4705000F510500090ECE7F8B505468E
:1009E000002400200090284606F0DFF8064652E07A
:1009F000F0074ED0E1B2284600F012FA0090C0078E
:100A00001CD0012101FA04F22869436B934343632C
:100A1000009105EB8400806981602148E1B20068A3
:100A2000426828469047E878012807D134B995F8FC
:100A30001101042802D1284605F0B8FE00980007ED
:100A400005D50820009005EB84018969886000982D
:100A5000C00605D51020009005EB840189698860E7
:100A60000098400605D54020009005EB8401896977
:100A700088600098800705D50220009005EB84016E
:100A8000896988600098000603D52146284600F051
:100A9000D5F9641C7608002EAAD10120F8BD00000B
:100AA000180100202DE9FC4105460024002001909A
:100AB000284606F080F80646274F47E0F00743D067
:100AC000E1B2284606F07DF80190C00726D001214A
:100AD000019105EB8400426D9160E97801290DD107
:100AE000406D0069009004EB840105EBC101C0F387
:100AF0001200D1F87C23101AC1F88C033868E1B2D7
:100B0000026828469047E878012807D134B995F85B
:100B10001101052802D1284605F048FE01988007FA
:100B200005D50220019005EB8401496D886001988C
:100B3000000709D538688168284688470820019051
:100B400005EB8401496D8860641C7608002EB5D1E0
:100B50000120BDE8FC8100001801002038B50446E2
:100B6000A07A002808D0D4F80C01016821F0020115
:100B700021F00101009101602069416821F001012B
:100B80004160054800688169204688474FF0004071
:100B9000E1684861012038BD180100207CB5054698
:100BA00010200190E868816921F010018161E868F6
:100BB000006A009000F00F0101EB810105EBC10418
:100BC00004F55D74C0F34341072923D2DFE801F047
:100BD000222204222222160047F6F071084219D080
:100BE000C0F30A1632462846E16805F0F2FFE068D5
:100BF0003044E060A0693044A0610BE0082205F2B7
:100C0000CC51284605F0E5FF0099A069C1F30A110F
:100C10000844A061E868816941F010018161012008
:100C20007CBD000010B50446044920460968C96827
:100C300088470821E0684161012010BD18010020AB
:100C40001FB504460020009094F812010090174848
:100C500000684169204688472069806801904FF408
:100C600000610391E2685161A17AE1B1C0071AD035
:100C700094F81501012816D19DF80000032812D11F
:100C8000D4F80C01016841F00101016003200290D9
:100C9000D4F80C01016841F00301016004480168C7
:100CA00041F00601016004B0012010BD18010020D0
:100CB00010ED00E070B586B004460025059504955A
:100CC000039502950095012601962069416821F05F
:100CD000010141600021204605F016FF0020FF229F
:100CE00006E004EB80018B699A60496D8A60401CC4
:100CF00061788142F5D821694FF0FF308861ADF805
:100D00001460ADF8166021690598C86145F00800C7
:100D100040F0010040F002002169486145F0010007
:100D200040F0080040F00200216908612069016874
:100D300021F4FE610160204605F038FD4FF480503B
:100D4000E16848610348006801692046884706B0A9
:100D5000012070BD1801002070B50446204605F042
:100D600049FF012584F81251002084F81401002263
:100D700040230DE002EB820104EBC10101F58E710D
:100D80004D700A70CA80C8708B60C8604861521C80
:100D900061789142EED800220DE002EB820104EB73
:100DA000C10101F55D7148700A70CA80C8708B601E
:100DB000C8604861521C61789142EED8204605F027
:100DC00051FC204605F02AFB0021204605F072FF69
:100DD000204605F075FB2046BDE8704005F06EBE6C
:100DE00010B50446054920460968C96988474FF48B
:100DF0008011E0684161012010BD00001801002051
:100E000010B50446054920460968096A88474FF429
:100E10000011E0684161012010BD000018010020B0
:100E200002691369526BCA4002F0010243EAC2121E
:100E300000EB810080698068104070472DE9F8431D
:100E400006460F460020009007EB870006EBC00423
:100E500004F58E74D4E90501401AA168814200D2DC
:100E60000846C01C4FEA900906EB8708D8F818001E
:100E70008069009021E0D51AA268AA4200D21546E6
:100E8000E81C4FEA9009ABB2FAB23046E16805F0CF
:100E90002CFFE0682844E060A0692844A061D8F8ED
:100EA0001810896900916169814206D12078012179
:100EB00081403069426B8A434263009880B2484562
:100EC00005D9D4E90523934201D2002AD3D10120C8
:100ED000BDE8F88330B41E481F4D1F4A00681D4C02
:100EE0001D4B603DB83AA04205D91A4954390968EA
:100EF00001F0006110E0984205D916495839096897
:100F000001F0006108E0A84203D9516801F00061D6
:100F100002E0116801F00061002916D04FF0006175
:100F2000A04203D90B484C3801600AE0984203D92B
:100F300008485038016004E0A84201D9D16000E0BF
:100F400091600648006830BC004730BC7047000024
:100F5000C01C002058640240B8600240A00000207D
:100F60000168CAB2103A1823B2FBF3F2064B9B5C3D
:100F700043656FF30901032A02D9091D016500E0E9
:100F80000165006D70470000E8E0000810B50468D6
:100F900063608368402B04D0036899600068C26076
:100FA00010BD03689A600068C16010BD30B405468A
:100FB00008461346590701D0012100E0002101EB4A
:100FC000D3015943CAB22C786978812C0AD34029BD
:100FD00008D3FF2906D0FF2C04D07F290DD2403939
:100FE000CDB20CE00021002303E000F8013B491CD6
:100FF000C9B29142F9D330BC70474139CDB2813C7E
:10100000E1B2C1EB411404EB811105EB4101514305
:10101000104C0C2B0BD0102B0FD0182B13D0202BD7
:10102000E9D1D4F8213030BC194405F027BFD4F8F9
:10103000093030BC194405F021BFD4F8113030BC60
:10104000194405F01BBFD4F8193030BC194405F021
:1010500015BF00005122002010B50B480168001D8B
:101060000468001D0068084400280BD008220749C6
:1010700002F022F8054920460422BDE81040103154
:1010800002F01AB810BD0000107AFF1FDC0100202A
:1010900070B50446049D94F8340001280AD001205C
:1010A00084F8340020680668360305D4122684F8D4
:1010B000356007E0022070BD0668360302D522269F
:1010C00084F83560066826F0010606602068066828
:1010D00046F480260660206803612B462046FFF711
:1010E00055FF2068016841F001010160002070BDDA
:1010F00070B50446002C24D094F83500022822D084
:101100002068016821F00101016020680025056068
:1011100020684560206885602068C560206805619A
:101120002168212048612046FFF71AFF34343F210F
:1011300094F8202091408160A561657025700020A1
:1011400070BD012070BD012070BD000070B5044667
:10115000002C1AD0616A022084F8350022681368D6
:1011600018480340D4E901052843D4E90356354320
:10117000284365692843A5692843E5692843256A0A
:1011800028431843042902D005E0012070BDD4E9AA
:101190000B131943084310602268506920F00700C0
:1011A000616A0843042901D1A16A084350612046BD
:1011B000FFF7D6FE0020E064012084F8350000200F
:1011C00070BD00003F8010F02DE9F84F0022DFF8DD
:1011D000A491DFF8A08109F108094FF0010E4FF04A
:1011E0000F0C09F1040A0EFA02F60B683340B34201
:1011F00071D14C68022C01D0122C11D1D40800EB13
:1012000084073D6A5407E40E0CFA04FB25EA0B053B
:10121000D1F810B00BFA04FB4BEA050BC7F820B06D
:10122000076854000325A540AF4391F804B00BF0C4
:10123000030B0BFA04FB4BEA070BC0F800B04F6836
:10124000012F05D0022F03D0112F01D0122F11D161
:101250008768AF43D1F80CB00BFA04FB4BEA070BDD
:10126000C0F808B04768B7430E79C6F30016964039
:101270003E434660C668AE438D68A5403543C560B1
:101280004C68E4006FD53C4C256845F480452560EA
:10129000246804F480440094384C22F0030525446B
:1012A000D5F808789407260F0CFA06F4A743344CB7
:1012B000A04201D100242EE0324CA04201D10124F1
:1012C00029E0314CA04201D1022424E02F4CA0425D
:1012D00002D103241FE046E02D4CA04201D104249A
:1012E00019E02C4CA04201D1052414E02A4CA04264
:1012F00001D106240FE0294CA04201D107240AE0C5
:10130000274CA04201D1082405E0264CA04201D17F
:10131000092400E00A24B4403C43C5F80848D8F842
:1013200000409C434D68ED0300D51C43C8F80040C5
:10133000104D2D1D2C689C434E68B60300D51C43F0
:101340002C60D9F800409C434D68ED0200D51C4349
:10135000C9F80040DAF800409C434D68AD0200D562
:101360001C43CAF80040521C102AFFF43CAFBDE8F1
:10137000F88F0000003C014044380240003001403A
:10138000000002400004024000080240000C02403D
:10139000001002400014024000180240001C0240ED
:1013A00000200240002402400069084201D00120D0
:1013B000704700207047002A01D0816170470904FE
:1013C000816170470148006870470000E800002014
:1013D00010B50B48016841F400710160016841F4E7
:1013E00080610160016841F480710160032000F0B8
:1013F00055F80F2000F006F800F015F8002010BD99
:10140000003C024010B5044600F018FB4FF47A721D
:10141000B0FBF2F001F061FC00222146501E00F00A
:101420001DF8002010BD08B50020009008BD00F098
:101430001F02012191404009800000F1E020C0F826
:101440008011704700F01F02012191404009800087
:1014500000F1E020C0F8001170470000F0B40D4624
:101460000D4B1B68C3F30223C3F10704042C00D9FE
:101470000424191D072901D2002300E0DB1E0126E8
:1014800006FA04F1491E294099409E40761E1640F6
:101490003143F0BC01F0AEBF0CED00E000F00701FD
:1014A000054A10684FF6FF03184040EA012003493F
:1014B00008431060704700000CED00E00000FA05E2
:1014C0002DE9F8431E48016841F080510160006831
:1014D00000F0805000900127380490FAA0F0DFF867
:1014E0006480B0FA80F048F82070FFF76BFF054683
:1014F0004FF47A76144C07E0FFF764FF401BB042CC
:1015000002D90320BDE8F8836068C003F4D54FF426
:10151000003090FAA0F0B0FA80F048F82070FFF7A1
:1015200051FF054606E0FFF74DFF401BB04201D9D1
:101530000320E7E760688003F5D50020E2E70000BC
:101540004038024000000E42007000402DE9F84F84
:101550000446A34F2068A34DC10747F6C0794FF05A
:10156000E0464FF0010A4FF0000801D1800750D546
:101570009D48C0F86880FFF725FF834608E0FFF725
:1015800021FFA0EB0B00642802D90320BDE8F88FEF
:1015900028680001F3D42078944AC0070DD099FA46
:1015A000A9F16068B1FA81F1884096FAA6F3A168C2
:1015B000B3FA83F39940084310602078800716D56A
:1015C000106896FAA6F100F0E040B1FA81F1C84047
:1015D0006168237B890141EA036141EA0070106080
:1015E0003868E16920F01F00491E084338607E48D2
:1015F000C0F868A0FFF7E6FE834607E0FFF7E2FECB
:10160000A0EB0B00642801D90320BFE72868000184
:10161000F4D52068410701D4000779D57248C0F895
:101620007080FFF7CFFE834607E0FFF7CBFEA0EB0D
:101630000B00642801D90320A8E72868C043800074
:10164000F3D52078DFF8A8C140074FF0706B25D59F
:10165000DCF8000096FAA6F100F0E040B1FA81F162
:10166000C84099FAA9F22169B2FA82F291409BFA34
:10167000ABF36269B3FA83F39A40114396FAA6F288
:10168000B2FA82F290400143CCF80010386820F49E
:10169000F851206A401E41EA002038602078000797
:1016A00023D5DCF800009BFAABF100F07060B1FAD2
:1016B00081F1C84099FAA9F22169B2FA82F2914007
:1016C0009BFAABF2B2FA82F29040014396FAA6F28C
:1016D000A069B2FA82F290400143CCF80010386859
:1016E000616A20F44030084338603F48C0F870A079
:1016F000FFF768FE064607E0FFF764FE801B6428DC
:1017000002D9032042E703E02868C0438000F3D4F5
:101710002078800652D533484030016841F080512E
:101720000160006800F080500090324D286840F45D
:1017300080702860FFF746FE064606E0FFF742FE8F
:10174000801B642801D9032020E72868C005F5D54F
:10175000264D143D2868218D00F4407001F440713D
:1017600088422BD0286820F440702349C1F800A09B
:10177000C1F80080286080070FD5FFF723FE0646DA
:1017800041F2883706E0FFF71DFE801BB84201D901
:101790000320FBE628688007F5D5A06A1149C0F34D
:1017A00001220831032A12D0086820F4F8100860DA
:1017B0002868218DC1F30B01084328602078C006FA
:1017C00003D50E4994F82C0008600020DEE60A6874
:1017D0000B4B22F4F812184002430A60E8E70000BD
:1017E0008C380240003802400000474284380240F2
:1017F0008838024000700040400E4742E0114742E6
:10180000FFFCFF0F2DE9F04704460F46DFF824A246
:10181000DAF80000DFF8208200F00F00864907F0B8
:10182000FF0941F2883608F10808B84274D28AF8F4
:101830000090DAF8000000F00F00B84202D001205A
:10184000BDE8F0872078800707D5D8F80000A268A7
:1018500020F0F0001043C8F800002078C00734D012
:101860006068012808D002280BD0032809D0096835
:1018700089070BD40120E3E70968890306D4012016
:10188000DEE70968890101D40120D9E7D8F8001002
:1018900021F003010143C8F80010FFF793FD05464E
:1018A000606801280BD0022817D003281ED02CE036
:1018B000FFF788FD401BB04201D90320C0E7D8F8EC
:1018C0000000C0F381000128F2D197E0FFF77AFD14
:1018D000401BB04201D90320B2E7D8F80000C0F3A2
:1018E00081000228F2D189E00320A9E7D8F800009E
:1018F000FFF768FD401BB042F8D9F5E7FFF762FD3E
:10190000401BB04201D903209AE7D8F8000010F03C
:101910000C0FF3D172E0FFE72078800707D5D8F8E5
:101920000000A26820F0F0001043C8F80000207802
:10193000C00759D06068012808D002280BD00328BE
:1019400009D0096889070BD4012079E70968890360
:1019500006D4012074E70968890101D401206FE7EA
:10196000D8F8001021F003010143C8F80010FFF778
:1019700029FD0546606801280BD0022817D00328EE
:101980001ED02CE0FFF71EFD401BB04201D9032002
:1019900056E7D8F80000C0F381000128F2D123E017
:1019A000FFF710FD401BB04201D9032048E7D8F8EB
:1019B0000000C0F381000228F2D115E003203FE7C8
:1019C000D8F80000FFF7FEFC401BB042F8D9F5E75D
:1019D000FFF7F8FC401BB04201D9032030E7D8F8EC
:1019E000000010F00C0FF3D18AF80090DAF8000034
:1019F00000F00F00B84201D0012021E72078400715
:101A000007D5D8F80000E16820F4E0500843C8F892
:101A100000002078000708D5D8F80000216920F4DC
:101A2000604040EAC100C8F800000F20FFF7EAFC60
:101A3000002005E7003C02400038024010B500F0ED
:101A400043F808490968F02292FAA2F201F0F00185
:101A5000B2FA82F2D140044A515CC840034908609E
:101A600010BD000008380240F0E00008040000202B
:101A700010B5FFF7E3FF074909684FF4E05292FA07
:101A8000A2F201F4E051B2FA82F2D140024A515C72
:101A9000C84010BD08380240F0E0000810B5FFF75C
:101AA000CDFF074909684FF4604292FAA2F201F4AF
:101AB0006041B2FA82F2D140024A515CC84010BD86
:101AC00008380240F0E0000830B51D48006810F00A
:101AD0000C011C481AD01C4C042916D0082915D119
:101AE000174A121F116801F03F0113685D0247F6A3
:101AF000C0730CD5B4FBF1F01168194093FAA3F34D
:101B0000B3FA83F3D94048430BE0204630BDB0FB25
:101B1000F1F01168194093FAA3F3B3FA83F3D940B3
:101B2000484311684FF4403292FAA2F201F4403176
:101B3000B2FA82F2D140491C4900B0FBF1F030BD4D
:101B4000083802400024F40040787D012DE9F84F68
:101B50000446DFF83C932078CE4DC0074FF00006D6
:101B600041F2883A4DD0D9F80000C0F38100012835
:101B700009D0D9F80000C0F3810002280BD1281D3C
:101B80000068400207D5286880033AD5606848BBE2
:101B90000120BDE8F88FDFF8FC8208F1020888F820
:101BA0000060FFF70FFC074606E0FFF70BFCC01BC9
:101BB000504501D90320ECE728688003F5D420794B
:101BC00088F80000606870B1FFF7FCFB074606E08C
:101BD000FFF7F8FBC01B504501D90320D9E728685F
:101BE0008003F5D50DE0FFF7EDFB074606E0FFF7B4
:101BF000E9FBC01B504501D90320CAE728688003D0
:101C0000F5D42078DFF89082800754D5D9F8000009
:101C10004FF0F80B10F00C0F0AD0D9F80000C0F309
:101C20008100022818D19A48001F0068400213D48E
:101C30002868800704D5E068012801D00120A8E7C2
:101C400028689BFAABF220F0F8012069B2FA82F220
:101C50009040014329602EE0E068E0B10120C8F81F
:101C60000000FFF7AFFB074606E0FFF7ABFBC01B2A
:101C7000642801D903208CE728688007F5D52868F7
:101C80009BFAABF220F0F8012069B2FA82F29040A0
:101C9000014329600FE0C8F80060FFF793FB074697
:101CA00006E0FFF78FFBC01B642801D9032070E713
:101CB00028688007F5D42078000728D5DFF8D0B150
:101CC000764861690BF16C0B89B101210160FFF766
:101CD00079FB074606E0FFF775FBC01B642801D9B6
:101CE000032056E7DBF800008007F4D50FE006601C
:101CF000FFF768FB074606E0FFF764FBC01B64289C
:101D000001D9032045E7DBF800008007F4D42078F0
:101D1000400755D55E483830016841F08051016078
:101D2000006800F080500090DFF874B1DBF800002C
:101D300040F48070CBF80000FFF744FB074606E054
:101D4000FFF740FBC01B642801D9032021E7DBF823
:101D50000000C005F4D54E4F68373E70FFF732FBE8
:101D6000834607E0FFF72EFBA0EB0B00504501D99F
:101D700003200EE738688007F4D4207A3870A06812
:101D800078B1FFF71FFB834607E0FFF71BFBA0EBD3
:101D90000B00504501D90320FBE638688007F4D5D5
:101DA0000EE0FFF70FFB834607E0FFF70BFBA0EB0E
:101DB0000B00504501D90320EBE638688007F4D4C6
:101DC000A069E8B3D9F80010C1F3810102295CD001
:101DD000022805D0C8F86060FFF7F4FA04464FE027
:101DE000C8F86060FFF7EEFA064606E0FFF7EAFA89
:101DF000801B642801D90320CBE628688001F5D434
:101E0000D4E90701084347F6C07292FAA2F2616A68
:101E1000B2FA82F29140A26A4FF0FF3303EB520212
:101E20004FF4403393FAA3F3B3FA83F39A40114388
:101E30004FF0706292FAA2F20843B2FA82F200E026
:101E400021E0E16A914008431149091F086001201F
:101E5000C8F86000FFF7B6FA044606E0FFF7B2FAEA
:101E6000001B642801D9032093E628688001F5D57A
:101E700009E0FFF7A7FA001B642801D9032088E6D0
:101E800028688001F5D4002083E6012081E6000067
:101E9000083802400038024000004742800E4742A6
:101EA0000070004070B50446002C19D0022084F860
:101EB00081002068002505612168681E8861204630
:101EC00001F09CFD2068416841F008014160204616
:101ED00000F09EF88034656065702570002070BD4C
:101EE000012070BD7047000070B50446002C04D07E
:101EF00094F88100002510B106E0012070BD84F83F
:101F00008050204600F086F8022084F881002046A8
:101F100001F074FD204601F05FFD206AA8B1204663
:101F200001F08EFD00EB8000216A40004902B0FB09
:101F3000F1F00A21B0FBF1F26262B0FBF1F301FBB8
:101F40001300082801D9521C6262206801682E4AD9
:101F500011400160616B60680843D4E90E121143BF
:101F60000843216C0843A1680843A16A084321691A
:101F7000084361690843A18C40EA0151E06A0143CA
:101F80002068026811430160206841684CF20F022A
:101F90009143416020684168A2691143D4E90B2351
:101FA0001A431143416020688168184A11408160DA
:101FB000E16C606D626C0843216D521E1143084351
:101FC000A16C491E40EA01212068826811438160AA
:101FD0002068C1684FF220021140C160D4E9161098
:101FE0000143D4E91802401E42EA00200143206860
:101FF000C2681143C160C4F88450012084F8810094
:1020000084F88050002070BD10C005FF0080F8FFEC
:102010007047000000B587B01148016841F48001A5
:102020000160006800F4800001900D4814380168D8
:1020300041F010010160006800F0100001907C2068
:1020400002900220039001200490032005900620B6
:10205000069002A90348FFF7B7F807B000BD0000DB
:1020600044380240001002402DE9F047002790F864
:10207000202081F85620828CA1F85420826A120E0A
:1020800093090B70C2F383034B7002F003028A7052
:10209000826A120CCA70028D120A0A7190F8282006
:1020A0004A71C26A120E4FF6FF7909EA0212CA801B
:1020B000C26AC2F30742CB8843EA1213CB8002F014
:1020C0000F020A72828DC2F30722D3094B72C2F348
:1020D00080138B72C2F34013CB72C2F300130B73E5
:1020E00000244C73036A4FF00108002B7ED0012BB3
:1020F000FCD0022B7BD02927C2F380134B769206AB
:10210000520E8A761C3110F8302F11F8023D43EA46
:10211000D2130B7002F07F024A704268120ED3098C
:102120008B70C2F34113CB70C2F382030B71920721
:10213000120F4A714268C2F307424B7943EA921385
:102140004B71C2F3401301F8063F4C7002F00102DC
:102150008A708288C2F30722D309CB70C2F380133E
:102160000B71C2F340134B71C2F300138B71C2F3B6
:102170008103CB7102F003020A72027952084A729B
:1021800081F80A808268120E0A738268120C09EACA
:102190000222CA810289C2F30722CB891343CB8171
:1021A000027A12060A61C268120E0B6943EA024201
:1021B0000A61C268C2F307420B6943EA02220A615C
:1021C0008289C2F307220B6913430B61027B0A75F4
:1021D0000269120E4A750269120C12068A61028A9D
:1021E000C2F307228B6943EA024201E024E066E081
:1021F0008A61027C8B6943EA02228A614269120E7B
:102200008B6913438B614269C2F307420B7F43EA38
:1022100012130B771207120DCA83828AC2F30722A8
:10222000CB8B1343CB83007D400881F8200081F8DD
:1022300021803846BDE8F0879207120D0A6190F8B8
:102240002C200B6943EA82020A61026B120E0B69B1
:1022500043EA92130B61C2F3C2030B7502F007024B
:102260004A75026BC2F3074253098B75C2F38203AE
:10227000CB759207520F0A76028EC2F307220B7EAD
:1022800043EAD2130B760B695B1C0D7EAD1C08FA7A
:1022900005FCA3FB0C5A4FEAEC7604FB0CAC03FBE9
:1022A00006C691F808C008FA0CF30B65A5FB03CA33
:1022B00006FB03A305FB0433C1E912C31CE790F836
:1022C0002C209206920A0A61026B120E0B6943EAF5
:1022D00002220A61026BC2F307420B6913430B61CE
:1022E000028EC2F307220B695B1C44F10005ED046A
:1022F00045EA5335DB04C1E912354FF400730B6531
:10230000FAE670B58AB005460E46002409942C778B
:10231000284600F041F80394049405940694079429
:10232000762008900094CDE90140234622462146BC
:10233000286801F08DFF284602F0B6FA09909DF852
:10234000240018B19DF824000AB070BD284602F0A0
:102350008FF909909DF8240010B19DF82400F3E74F
:1023600031462846FFF780FE09909DF8240038B9D1
:10237000B6F8540000230204284602F07DFB0990C1
:10238000D5E9051228698DE807000FCD01F060FF3F
:102390009DF82400D8E7000000B587B01C4801680C
:1023A00041F400610160006800F400600190184889
:1023B0001438016841F480010160016801F4800172
:1023C0000191016841F004010160016801F004011C
:1023D0000191016841F008010160006800F0080007
:1023E00001904FF4F85002900220039001200490D5
:1023F000032005900C20069002A90648FEF7E4FE93
:102400000420029002A90448FEF7DEFE07B000BDDA
:102410004438024000080240000C02402DE9F04F11
:102420008BB00446DDE914980D4616461F46216818
:102430000020C862216A4FF4007A022903D1D146F4
:10244000760A46EAC756CDF8189010210791402128
:1024500008910746099008010A9006A9206801F032
:1024600013FF1021204601F03BFF00282AD14FF036
:10247000FF3BCDF800B008FB09F0019090200290DE
:102480004FF00209CDF80C900497012005906946A1
:10249000206801F0B9FEB8F1010F02D912200790AF
:1024A00001E011200790069606A9206801F0ECFED5
:1024B000B8F1010F1DD91221204601F011FF074686
:1024C00087B138460BB0BDE8F08F406B000409D5EA
:1024D0000026206801F0D5FE45F82600761C082E5F
:1024E000F7D320352068416B40F22A321142ECD0FC
:1024F0001AE01121204601F0F3FE074638000DD006
:10250000E0E7406B000409D50026206801F0B9FE21
:1025100045F82600761C082EF7D320352068416B3D
:1025200040F22A621142ECD02068406BC0050CD505
:10253000B8F1010F09D9206A18B1012801D0022889
:1025400003D1204600F030F807462168486B0007A9
:1025500003D5082088630420B4E7486B800703D5BF
:102560004846C1F83890ADE7486B800603D5202077
:1025700088630620A6E7486B800508D5C1F838A017
:1025800007209FE701F07DFE01C5ABF1010B20683C
:10259000416B890202D5BBF1000FF3D1216840F2F3
:1025A000FF50886338468DE710B586B0044600209A
:1025B00001900C21029140210391049008010590A3
:1025C00001A9206801F060FE0C21204601F088FE80
:1025D00006B010BD70B58AB004460E460025206ACC
:1025E000032805D038B1012805D0022803D02CE0FB
:1025F00027200AB070BDB6F5805F06D0B6F5006F33
:1026000005D04EB1262565B11FE02725FBE7204602
:1026100002F082FA0546F6E7204602F044FA054643
:10262000F1E760680490A0680590E068069007965E
:1026300060690890A069099007A807C88DE807009D
:1026400004A920680EC901F003FE2846D1E72DE950
:10265000F04F8DB00646DDE916A90C4617469846A0
:102660000025002001903168C862316A4FF4007B78
:10267000022903D1DA467F0A47EAC857CDF820A0DD
:102680001021099140210A9180460B9008010C907D
:1026900008A9306801F0F8FD1021304601F020FE55
:1026A000002870D1B9F1010F02D91920099001E079
:1026B00018200990089708A9306801F0E5FDB9F1E4
:1026C000010F04D91921304601F00AFE03E0182158
:1026D000304601F005FE002855D109FB0AF7401EDF
:1026E0000290039790200490CDF81480CDF81880C4
:1026F0000120079002A9306801F086FDB9F1010FB1
:102700002BD85DE0406B400427D5781B202816D2DB
:10271000810706D04FEA900A0AF1010A4FF000083B
:102720000AE04FEA900AF9E72146306801F0BCFD63
:10273000241D2D1D08F10108D0450ED2F4E74FF0FD
:10274000000804EB8801306801F0AEFD08F10108D3
:10275000B8F1080FF5D3203420353068416B40F2D2
:102760001A321142CED031E0406B400428D5781B9C
:10277000202817D2810707D04FEA900A0AF1010AF0
:102780004FF000080BE038E04FEA900AF8E72146E6
:10279000306801F089FD241D2D1D08F10108D04588
:1027A0000ED2F4E74FF0000804EB8801306801F026
:1027B0007BFD08F10108B8F1080FF5D3203420356E
:1027C0003068416B40F21A621142CDD03068406BE4
:1027D000C0050BD5B9F1010F08D9306A18B101282D
:1027E00001D0022802D13046FFF7DEFE3168486B87
:1027F000000705D50820886304200DB0BDE8F08FE0
:10280000486B800702D502208863F6E7486BC00654
:1028100003D5102088630520EFE7486B800503D5BA
:10282000C1F838B00720E8E740F2FF50886301A9FB
:10283000304601F093FF03E001A9304601F08EFF1E
:102840000028DAD19DF804100729F5D00629F3D025
:10285000D3E770B50446002C04D094F8510000254D
:1028600010B106E0012070BD84F85050204600F001
:1028700033F8022084F851002068016821F04001FB
:102880000160D4E901010843D4E90312114308436C
:1028900061690843218B01F400710843E169084331
:1028A000216A0843A16A084321680860A0690421DD
:1028B00001EA1040616A0843216848602168E06AC3
:1028C00008612068C16921F40061C161656501206A
:1028D00084F85100002070BD2DE9F04186B0074614
:1028E00033493868334C022501264FF005088842E9
:1028F0001CD1206840F001002060206800F0010039
:1029000000902C491431086840F480500860086831
:1029100000F480500090E020019002950396049509
:10292000CDF8148001A92448FEF74EFC23493868ED
:10293000884239D1206840F008002060206800F00B
:1029400008000090206840F002002060206800F03D
:102950000200009017481030016841F40041016006
:10296000006800F400400090182001900295039642
:1029700004950620059001A91148FEF725FC40208A
:102980000190029503960495CDF814800D4C01A991
:102990002046FEF719FC80210191029603960495CA
:1029A00001A92046FEF710FC06B0BDE8F08100004A
:1029B000003001403038024000000240003C00403E
:1029C00000040240000C02402DE9F8430446DDF803
:1029D000208094F85100012804D0222802D002203F
:1029E000BDE8F88369B162B15BB194F85000012889
:1029F00009D0012784F8507094F85100012804D0C0
:102A000006E00120ECE70220EAE7322084F85100DA
:102A100000266665A263A387E3872163A386E38616
:102A2000A664E664A06A4FF40055A84209D1206864
:102A3000016821F4005101602068016841F40051EF
:102A4000016020680168490603D4016841F0400133
:102A50000160E0684FF48271B0F5006F08D06068E3
:102A6000002875D0884202D1E08E01287CD084E015
:102A7000606820B188420CD1E08E012809D1206B1A
:102A800021680088C860206B801C2063E08E401E97
:102A9000E086E08EE8BBA06AA84204D12068016805
:102AA00041F480510160434600220121204602F09A
:102AB0001FF908B1032093E72068C068A16B088064
:102AC000A06B801CA063E08F401EE087B6E0434609
:102AD00000220221204602F00BF908B103207FE713
:102AE000206B21680088C860206B801C2063E08E0A
:102AF000401E80B2E08638B9A06AA84204D120689E
:102B0000016841F4805101600022434601212046C2
:102B100000E00EE002F0ECF808B1032060E7206866
:102B2000C068A16B0880A06B801CA063E08F401E72
:102B3000E087E08E0028CAD1606800287ED1434635
:102B400000220121204602F0D3F810B1032047E70C
:102B50000AE02068C068A16B0880A06B801CA0639D
:102B6000E08F401EE08769E0206B411C21632168F3
:102B70000078C860E08E401EE086E08EE8BBA06A68
:102B8000A84204D12068016841F4805101604346A5
:102B900000220121204602F0ABF808B103201FE714
:102BA0002068C068A16B0870E08F401EE08745E098
:102BB000434600220221204602F09AF808B1032081
:102BC0000EE7206B411C216321680078C860E08E0D
:102BD000401E80B2E08638B9A06AA84204D12068BD
:102BE000016841F4805101604346002201212046E2
:102BF00002F07EF810B10320F2E608E02068C16818
:102C0000A06B421CA2630170E08F401EE087E08E43
:102C10000028CDD1606888B94346002201212046B2
:102C200002F066F808B10320DAE62068C168A06BFC
:102C3000421CA2630170E08F401EE087A06AA84298
:102C400011D1434600220121204602F051F828B15B
:102C5000606D40F0020060650320C1E62068C06836
:102C60000090BDF80000434601228021204602F07A
:102C70003FF828B1606D40F0200060650320AFE6AA
:102C800084F8517020688168C1F30011A26AAA42D9
:102C900011D181B1616D41F002016165016821F4DA
:102CA000005101602068016841F40051016084F81E
:102CB0005060012094E684F85060002090E64FF0C8
:102CC000E021042804D0086920F00400086170475E
:102CD000086940F004000861704710B5401EB0F16B
:102CE000807F01D3012010BD4FF0E02460610F21EF
:102CF000601700F07FFB0020A0610720206100200A
:102D000010BD704790F83900704738B50446216807
:102D10000868C0F30000CA6802F48072002807D077
:102D200032B1086848680090E06B40F00100E06351
:102D30000868C0F340004A6902F0010238B132B1BC
:102D4000086848680090E06B40F00400E0630868A1
:102D5000C0F38002486900F001003AB130B1086860
:102D600048680090E06B40F00200E0630868C0F340
:102D7000C0004A6902F0010238B132B108684868FF
:102D80000090E06B40F00800E0630868C0F340107A
:102D9000C96801F0200118B111B1204602F0AFFA64
:102DA00020680168C1F3C011C06800F0800019B14B
:102DB00010B1204602F0F4FB20680168C1F38011D5
:102DC000C06800F0400019B110B1204602F082FA4C
:102DD000E06B002805D0012084F839002046FFF779
:102DE00090FF38BD70B50446002C04D094F839002B
:102DF000002510B106E0012070BD84F8385020464F
:102E000000F020F8022084F839002068C16821F41D
:102E10000051C160204602F0CBFA2068016921F41C
:102E2000904101612068416921F02A0141612068D7
:102E3000C16841F40051C160E563012084F83900A4
:102E4000002070BD10B586B000681A4988422FD1A5
:102E50001948016841F001010160006800F00100BB
:102E6000009015481430016841F0100101600068BD
:102E700000F0100000904FF40070019002200290CA
:102E8000012103910490072005900C4C01A92046D4
:102E9000FEF79AF92115019101A92046FEF794F950
:102EA0002520FEF7CFFA032211462520FEF7D6FA99
:102EB00006B010BD00100140303802400000024052
:102EC00090F83930012B03D0122B01D0022070472B
:102ED00031B32AB390F83830012B23D0012380F886
:102EE000383081628285C2850022C26390F8391031
:102EF000122919D0222180F839100168CB6843F4D7
:102F00008073CB6001684B6943F001034B6180F82B
:102F100038200068C16841F02001C160002070477E
:102F20000120704702207047322180F83910E4E711
:102F300030B50068124988420CD1124A5088010409
:102F400008D41146440409784FF0000307D50A2934
:102F500001D0538030BD40F40040508030BD0D2979
:102F60000AD0094DC0F30D042955401C80B2508091
:102F7000C728F3D9538030BD40F48040508030BD25
:102F800000100140A4000020181D00207047000020
:102F900010B586B00C48016841F01001016000686E
:102FA00000F0100000904FF4404001900124029482
:102FB00003940220049001A90448FEF705F904488F
:102FC0004460046006B010BD30380240001002407A
:102FD000B802424230B50E490A6822F040420A6007
:102FE0000A6842F080420A600A4A0023C2F8B832F6
:102FF00000210124C509C2F8BC524006000EC2F8E7
:10300000B842C2F8B832491CC9B20829F2D330BD5F
:1030100000100240000042420848016821F040418F
:103020000160016841F08041016005480121416073
:103030000160002141600160704700000010024003
:10304000B80242420848016821F04041016001682D
:1030500041F080410160054800210160416001218B
:10306000016041607047000000100240B802424217
:1030700000B500200E490A6822F040420A600A6842
:103080000A600C490122C1F8BC22C1F8B82207E04D
:10309000401CC0B2FA2803D9FFF7D4FF012000BDBD
:1030A000D1F83C22002AF3D10020C1F8B80200BDBB
:1030B0000010024000004242F0B500230A253026ED
:1030C0003727002412E0B5EB107F04D906EB107C03
:1030D00001F813C003E007EB107C01F813C00001F6
:1030E00001EB430C8CF801405B1CDBB29342EAD34A
:1030F000F0BD000070B505460E490F4C0A7B002A52
:1031000007D1896829B1617819B901212846FDF7ED
:1031100001FC81212846FDF7FDFB6078022807D1DC
:103120002846BDE870401F23024A0121FDF7CEBBAF
:1031300070BD0000A0CA02203001002070B5064614
:10314000244C04F1200061684160A1688160012184
:10315000304602F036FC204D1F280CD11F49206854
:10316000884208D11E48617B0078814203D8A27B47
:103170000AB1102A0BD9607B2022052100F054FFF0
:10318000022068703046BDE87040FFF7B3BF114AB7
:1031900030460F3200F02AFD002804DA3046BDE840
:1031A0007040FFF7A7BF2978022911D001290FD05D
:1031B00003290DD06A882AB130466968BDE870409D
:1031C00000F0C0B83046BDE87040002100F09CB867
:1031D00070BD0000A0CA02203001002055534243B8
:1031E0006401002010B5094C6278022A08D0090653
:1031F0000BD5012A09D0BDE81040012100F084B8A8
:103200008121FDF787FB0020607010BD3001002098
:1032100010B504460E480078022809D0032801D0D2
:10322000042814D12046BDE81040002100F06CB8FD
:10323000084800F10F02417B204600F0D7FC00282F
:1032400005DA2046BDE81040012100F05DB810BD50
:1032500030010020A0CA022010B504460D480078B5
:10326000002810D0012813D10B4800F10F02417B38
:10327000204600F0BBFC00280ADA2046BDE81040DA
:10328000012100F041B82046BDE81040FFF756BFCD
:1032900010BD000030010020A0CA0220014900201A
:1032A000087070473001002010B504460C4A002118
:1032B000117051700B480068016800208847012197
:1032C0002046FDF7D9FA81212046FDF7D5FA2046A0
:1032D0001F23BDE81040044A0121FDF7F7BA0000A2
:1032E0003001002018020020A0CA02200449002258
:1032F0000A7001224A701F23024A0121FDF7E6BA33
:1033000030010020A0CA022010B504460B4A0A4B27
:10331000136011730A4A002111700D23074A81219D
:103320002046FDF713FB054A20461F23203ABDE83F
:1033300010400121FDF7CABA55534253C0CA0220BA
:103340003001002030B413460A4A92689A4200D3F2
:103350001A4693B2074A20329468E41A9460002413
:103360001473054C042222700A4630BC8121FDF7FB
:10337000EDBA0000A0CA0220300100202DE9F04F74
:1033800081460C46A046C2EB82104FEAC00B0027D4
:103390004FF6FF7A16480BEB0701465C0025300616
:1033A00005D501222146484600F0B2F804E000228B
:1033B0002146484600F0ACF80AEA4606641CE4B22E
:1033C000A4EB08003F280CD06D1CADB2082DE6D34D
:1033D0007F1CBFB2B7F5FC7FDCD3BDE8F04F00F037
:1033E000A7B908F0FF0409F1010909F0FF09EFE7A7
:1033F000AADA00080907090E002806DA00F00F0013
:1034000000F1E02080F8141D704700F1E02080F802
:103410000014704710B40021084B0022002003EB79
:10342000C0046254401CC0B28028F8D3491CC9B201
:103430000829F3D310BC00F07BB90000511E002016
:103440004FF47A74FFF7E6FF08A200210C2001F088
:1034500091FD0C2105A2084601F08CFD00F068F9F1
:10346000FDF71AF9204607F0D5FEEBE7B6CEBAE332
:10347000B1F300002DE9FE4F00250026171AA3EB3B
:10348000010881468A46681E002F03DD4FF00101C6
:10349000019107E003D14FF00001019102E001909A
:1034A000C7F10007B8F1000F03DD4FF001000090F5
:1034B00007E003D14FF00000009002E00090C8F157
:1034C0000008474501DD3C4600E044464FF0000B54
:1034D000601C029016E00AF0FF0109F0FF000C9A50
:1034E00000F016F83D444644A54202DD2D1B01982C
:1034F0008144A64202DD361B009882440BF1010B89
:103500001FFA8BFB02988345E5DDBDE8FE8F0000C6
:1035100010B57F2813D83F2911D80723A3EBD10377
:10352000DBB201F00701C1F107040121A140C9B2DA
:10353000054C04EBC0001AB1C25C0A43C25410BD72
:10354000C25C8A43C25410BD511E00202DE9F841CF
:1035500080460E4615461F46012433462A4631460C
:1035600040460094FFF786FF3B46424631464046C0
:103570000094FFF77FFF3B462A46394640460094B9
:10358000FFF778FF3B462A46314628460094FFF76E
:1035900071FFBDE8F8812DE9F04305460F469046DE
:1035A0001E46DDF81C900CE03C4606E04A462146EB
:1035B0002846FFF7ADFF641CE4B2B442F6D96D1C97
:1035C000EDB24545F0D9BDE8F04300F0B1B80000D8
:1035D00070B586B000265148016841F001010160D4
:1035E000016801F001010091016841F008010160EA
:1035F000006800F0080000904FF4004001900124A2
:10360000029403940220049001A94548FDF7DCFDD3
:1036100011200190434D01A92846FDF7D5FD2A212F
:10362000019101A92846FDF7CFFD0022202128465F
:10363000FDF7C1FE3C4804603C4D2C602C616C6081
:10364000EE60642007F0E6FDEC600021AE2000F0A3
:1036500093F80021D52000F08FF80021502000F0D1
:103660008BF80021A82000F087F800213F2000F00F
:1036700083F80021D32000F07FF80021084600F0F5
:103680007BF80021402000F077F800218D2000F029
:1036900073F80021142000F06FF80021202000F0C2
:1036A0006BF80021022000F067F80021A12000F053
:1036B00063F80021C02000F05FF80021DA2000F05C
:1036C0005BF80021122000F057F80021812000F063
:1036D00053F80021EF2000F04FF80021D92000F02E
:1036E0004BF80021F12000F047F80021DB2000F02A
:1036F00043F80021302000F03FF80021A42000F022
:103700003BF80021A62000F037F80021AF2000F0A0
:1037100033F8FFF77FFE06B070BD0000303802407E
:1037200000000240000C0240BC0240428082414244
:1037300070B500250F4E05F1B000C0B2002100F0B9
:103740001BF80021084600F017F80021102000F0B7
:1037500013F8002406EBC4000121405D00F00CF8D2
:10376000641CE4B2802CF5D36D1CEDB2082DE2D3BD
:1037700070BD0000511E002070B50F4AC2F88412BF
:103780000025C2F8905200210C4B0124C2F880524F
:10379000060602D5C3F8BC4201E0C3F8BC52C2F829
:1037A00080424006000E491CC9B20829EED3C2F877
:1037B0009042C2F8844270BD008041420000404205
:1037C000014802F01BBA0000DC0200200249086830
:1037D00040F4003008607047045801402DE9F04182
:1037E00005460E4617461848FEF75CFB164C17496F
:1037F000216065600020A0604914216160610121A1
:10380000A1610905E161A0626063A763E0632664CA
:10381000402161642021A164C902E164206589001E
:103820006165A0658020E065022020664FF440308D
:1038300060662046FEF758FB2068016841F480313D
:103840000160BDE8F0810000381C002004580140F0
:1038500030B58DB0044600211E4A0A23B4FBF3F0B4
:1038600001EB810532F81550A84203D0491CC9B2BA
:103870000B29F3D30B292AD00220019001EB810000
:1038800002EB40004188029181880491C088401C6D
:10389000089001A8FDF75AFE0F48016821F4401175
:1038A00041F4801101600D4D2868016821F48031D8
:1038B00001602C622846FEF717FBFFF787FF286898
:1038C000016841F48031016000200DB030BD01205D
:1038D000FBE700007CC200088C380240381C002046
:1038E0002DE9F84307468846164600210025002B9F
:1038F0000BD0012B02D0022B07D103E04FF4005173
:103900008D1002E04FF480418D1000232D48026895
:1039100042F480020260006800F4800000902A4CAB
:10392000A4F188000467A063DFF8A090C4F80090B9
:1039300063604020A060E360000120616561A161D7
:103940008010E061400220626362E36223632046EC
:10395000FDF7CEFB2046FDF7F9FB43461C4A3946EE
:1039600020460096FDF794FB2068016821F00101D4
:1039700001602068016841F01001016020684FF08B
:103980000061484503D911484C3801600FE0114AE5
:10399000904203D90D485038016008E00D4B0D4AA4
:1039A000603BB83A984201D9D16000E091600022B2
:1039B00011463B20FDF752FDBDE8F8433B20FDF7E3
:1039C00041BD000030380240C01C00205864024055
:1039D00020580140B86002400021C068002807D08C
:1039E000022802D0042803D101E0102100E02021A8
:1039F00001480160704700000058014070B504465E
:103A0000FDF7E0FC054600262068016821F48031BE
:103A100001600EE0FDF7D6FC401B0A2809D9D4F856
:103A2000840040F04000C4F8840003262046FEF7DE
:103A300059FA20680068C003ECD4304670BD00001D
:103A400010B5294C0368294AC169A34205D11368FE
:103A500023F440130B43136005E0136823F4400381
:103A600043EA81011160214988390B685B0206D461
:103A7000096801F03F031E49B1FBF3F105E0096855
:103A80001C4B01F03F01B3FBF1F1C06938B1B0F557
:103A9000801F16D0184901200860184810BD134B2C
:103AA0001B1F1868C0F303601B68C3F388134B43E4
:103AB000B3FBF0F11068C0F30420401CB1FBF0F040
:103AC00010BD0A4B083B1868C0F303601B68C3F3C2
:103AD00088134B43B3FBF0F1106800F01F00401C4B
:103AE000B1FBF0F010BD0000045801408C380240DA
:103AF0000024F40040787D015C0147420080BB0057
:103B000003480068016841F001010160704700004E
:103B1000C01C002003480068016821F00101016019
:103B200070470000C01C002000B51144064A52F83E
:103B30002020914206D92122052100F075FA4FF08C
:103B4000FF3000BD002000BDF0CA02204A78D20735
:103B500002D00E4A07200CE00D4A00EBC0001268AC
:103B6000D26902EB80021079401D0979814200D8A8
:103B70000846084908800849096803E0401E80B2E9
:103B8000135C0B540028F9D17047000000E10008D5
:103B900018020020320100203401002008200649CC
:103BA00008800749054A096803E0401E80B2135C9B
:103BB0000B540028F9D17047320100200FE10008B2
:103BC000340100200820064908800749054A096891
:103BD00003E0401E80B2135C0B540028F9D17047FB
:103BE0003201002007E1000834010020034610B52F
:103BF000084611462B4AD3600A78232A3DD00DDCB3
:103C00001A2A32D005DCE2B1032A1ED0122A11D1C1
:103C10001FE01B2A21D01E2A0CD122E02A2A38D0EC
:103C200004DC252A2DD0282A04D12EE02F2A34D0D6
:103C30005A2A1ED02022052100F0F6F94FF0FF305D
:103C400010BDBDE8104000F00BBABDE8104000F018
:103C5000B7B9BDE81040FFF779BFBDE8104000F0EC
:103C6000F9B9BDE8104000F0F5B9BDE81040FFF724
:103C7000A9BFBDE81040FFF791BFBDE8104000F0BC
:103C800065B9BDE8104000F01FB9BDE8104000F074
:103C9000ADB8BDE8104000F037BABDE8104000F004
:103CA00005BA0000900100202DE9F0410646214DA3
:103CB0004FF40040AC68844200D304466A68002791
:103CC000B4FBF2F01FFA80F8D5E904013B46FCF79B
:103CD00023FB024618484346DFF860800068D8F8A6
:103CE0000010D0F810C03046E047002807DA112253
:103CF0000421304600F098F9781EBDE8F081234693
:103D00008121D8F80020E868FCF720FED5E90410EE
:103D100009197841C5E90410A868001BA860084982
:103D20008A68121B8A6010B90649032008700020B7
:103D3000E3E7000090010020180200203401002079
:103D4000C0CA0220300100202DE9F0478146234DF2
:103D50004FF40046AC68B44200D334466A684FF072
:103D60000008B4FBF2F087B2D5E904014346FCF742
:103D7000D3FA02461A483B461A4F00683968D0F811
:103D800014C04846E047002808DA032204214846C8
:103D900000F04AF94FF0FF30BDE8F087D5E9041094
:103DA000091940EB0800C5E90410A868001BA860C9
:103DB0000D498A68121B8A6050B1B04200D3304668
:103DC00083B201213A68E868FCF780FD0020E3E750
:103DD0000021E868FFF798FAF8E70000900100205A
:103DE0001802002034010020C0CA02202DE9F0474B
:103DF00080460C46DFF8BC9099F80000002850D1AE
:103E00002D4E4FF0FF37307B000607D4707B202209
:103E1000052100F009F93846BDE8F0872748006819
:103E200081684046884730B13A220221404600F07E
:103E3000FBF83846F0E76079A178227940EA016121
:103E4000E0781F4D000440EA02200143C817C5E98D
:103E50000410207AE27940EA0222AA604046FFF785
:103E600063FE002801DA3846D6E7022089F8000010
:103E7000D5E9041268680023A1FB004C02FB00C2D4
:103E800001FB0321C5E90441A9684143A960B06869
:103E9000884206D0707B2022052100F0C5F8384604
:103EA000BAE708494FF4004008804046BDE8F047B3
:103EB000FFF7FABE30010020A0CA0220180200203D
:103EC000900100203201002070B504461B481A4DB5
:103ED0001B4A006805EB840143682046984738B1C7
:103EE0003A220221204600F09FF84FF0FF3070BDCB
:103EF00055F82400401E020E124801680A7055F859
:103F00002400401E000C487035F82400401E000AB2
:103F1000887015F82400401EC8700948001F4068CA
:103F2000020E0A71020C4A71020A8A71C8710649AE
:103F300008200880002070BDF0CA0220180200206E
:103F40009401002034010020320100207CB5054698
:103F50000021184C002322685354491C89B20C29B3
:103F6000FAD3154801AA694600684368284698476D
:103F700038B13A220221284600F056F84FF0FF30BF
:103F80007CBD20680821C1700099491E0A0E02718B
:103F90000A0C42710A0A8271C171022101720199EF
:103FA0000A0C42720A0A8272C17204490C2008800B
:103FB00000207CBD340100201802002032010020C6
:103FC00070B50020144A002312681354401CC0B27C
:103FD0001228FAD3702010700C20D0710F4D287861
:103FE0006C78A0420FD00E4C14F83060967004EB41
:103FF000C0046679167324795473401CC0B22870CB
:10400000042800D12B70074A12201080087912284A
:1040100000D81080002070BD3401002090010020E5
:10402000D0CA02203201002010B5094B074C587845
:1040300004F83010110204EBC0025160401CC0B201
:104040005870042801D10020587010BDD0CA022039
:1040500090010020014900200880704732010020B3
:1040600070B505460E484FF0FF348168002906D030
:10407000407B20220521FFF7D7FF204670BD09486D
:10408000006881682846884730B13A2202212846D4
:10409000FFF7CAFF204670BD03490020088070BDAD
:1040A000A0CA0220180200203201002070B54A7810
:1040B0004FF0FF35920705D524220521FFF7B4FF05
:1040C000284670BD4A798B780C7942EA0363CA7836
:1040D000120442EA04220A4C1343DA17C4E90432F8
:1040E0000A7AC97942EA0122A2601946FFF71CFD4B
:1040F000002801DA284670BD02490020088070BD02
:1041000090010020320100202DE9F04781460C4645
:10411000384F3878002804D04846BDE8F047FFF70C
:1041200013BE354E4FF0FF38307B000607D5707B4D
:1041300020220521FFF778FF4046BDE8F0872F4D8C
:10414000286881684846884730B13A2202214846AB
:10415000FFF76AFF4046F0E72868C168484688478D
:1041600030B1272202214846FFF75EFF4046E4E7D0
:104170006079A178224D40EA0161E078020420795B
:1041800042EA00200143C817C5E90410207AE27909
:1041900040EA0222AA604846FFF7C6FC002801DA7E
:1041A0004046CAE7D5E9041368680022A1FB004C29
:1041B00003FB00C301FB0231C5E90441A968414387
:1041C000A960B068884206D0707B20220521FFF7E5
:1041D0002BFF4046B1E701203870C003814200D375
:1041E000014608488BB201210268E868FCF76EFBC3
:1041F0000020A2E730010020A0CA022018020020FF
:1042000090010020340100200A6842624A688262FC
:10421000D1E902231A43D1E904310B431A43C16A9D
:1042200021F0F7011143C162002070470069C0B25C
:104230007047006800F003007047000008B50349AC
:10424000084400900098006808BD0000142C01404C
:104250000FB4DDE901121143DDE903231A431143D1
:10426000059A1143069A1143426847F6FF639A4341
:104270000A434260002004B070470321016000201F
:104280007047D0F8800070470A688260D1E9012346
:104290001A43D1E903310B431A43C1686FF30B0191
:1042A0001143C160002070470968C0F880100020E9
:1042B0007047024600204FF4803113685A6BC2F3F6
:1042C000C01203E05A6BC2F3C012491E09B1002AA2
:1042D000F8D019B140F2FF5199637047032070473D
:1042E00070B504460E4600252068426B12F0450F5B
:1042F000FBD0416B490704D50321042282630846A1
:1043000070BD416BC90703D001218163084670BDB0
:10431000FFF78CFFB04201D0102070BD216840F241
:10432000FF5088630020FFF789FF2949084201D127
:10433000284670BD002801DA1C2070BD410001D55F
:10434000092070BD810001D50A2070BDC10001D5D2
:104350000B2070BD010101D50C2070BD410101D5BC
:104360000D2070BDC10101D50E2070BD010201D527
:104370000F2070BD410201D5102070BD810201D512
:10438000112070BDC10201D5122070BD010301D5FD
:10439000132070BD410301D5142070BD810301D5E8
:1043A000152070BDC10301D5162070BD010401D5D3
:1043B000172070BD410401D5182070BD810401D5BE
:1043C000192070BD000701D51A2070BD284670BDA8
:1043D00008E0FFFD0146002009684A6B12F0450F16
:1043E000FBD04A6B520703D5032004228A6370472F
:1043F0004A6BD20702D001208863704740F2FF5217
:104400008A6370470146002009684A6B12F0450F25
:10441000FBD04A6B520703D5032004228A637047FE
:1044200040F2FF528A6370472DE9F04104460F467F
:10443000154600262068436B13F0450FFBD0416BF7
:10444000490705D50321042282630846BDE8F081AF
:10445000416BC90703D0012181630846F6E7FFF7E6
:10446000E5FEB84201D01020F0E7216840F2FF508D
:1044700088630020FFF7E2FE10F4604F03D0810450
:1044800005D51320E2E7000C28803046DEE7410422
:1044900001D51020DAE7000401D50F20D6E7304619
:1044A000D4E7024629204FF480311268536B13F091
:1044B000450307D0012305E0536B13F0450300D0FB
:1044C0000123491E0BB90029F6D1536BC3F38003B6
:1044D00001B11BB10320042191637047516B490660
:1044E000FBD500204021916370472DE9F04F8DB03E
:1044F00004460F4600250026009601964FF0080856
:10450000CDF820801020099040200A900B960001E1
:104510000C9008A92068FFF7B7FE10212046FFF78E
:10452000DFFE00282DD1A08C0004089037200990D0
:1045300008A92068FFF7A8FE37212046FFF7D0FE24
:1045400000281ED1401E0290CDF80C80302004902F
:104550004FF00209CDF8149006960120079002A9A9
:104560002068FFF751FE08963320099008A92068BB
:10457000FFF78AFE33212046FFF7B2FE06463000E1
:1045800002D00DB0BDE8F08FEA4640F22A6B07E09A
:10459000416B890204D5FFF774FE4AF825006D1CB3
:1045A0002068416B11EA0B0FF2D02168496B0907B3
:1045B00003D5C0F838800420E3E7416B890703D5B1
:1045C000C0F838904846DCE7416B890603D52021C6
:1045D00081630620D5E7416B890504D54FF400714E
:1045E00081630720CDE740F2FF5181630098009975
:1045F000000601F47F4140EA0120009901F47F01A7
:1046000040EA1120009940EA116078600198019910
:10461000000601F47F4140EA0120019901F47F0185
:1046200040EA1120019940EA116038603046A8E75D
:1046300010B50E480C490160002141608160C160E5
:1046400001614161816100F16001FDF75AFE08B12D
:10465000012010BD4FF400610448FDF7BBFF08B115
:10466000022010BD002010BD002C01408019002048
:1046700070B586B004460025012000902068FFF741
:10468000D8FDB8B1206AC026042825D000200190AA
:1046900002210291039604904802059001A9206826
:1046A000FFF7F2FD2046FFF795FE054625B12846A7
:1046B00006B070BD2520FBE70020FFF7BFFDA0631B
:1046C0000420FFF7BBFDE0630820FFF7B7FD20647F
:1046D0000C20FFF7B3FD6064206A28B1012803D0E5
:1046E000062801D0022810D1032002904020039018
:1046F00001A92068FFF7C8FD6A4603212046FFF79D
:1047000093FE05460DB12846D2E7206A042822D040
:10471000BDF8000060620004019009200290039639
:1047200001A92068FFF7B0FD2046FFF753FE0546BC
:104730000DB12846BCE70020FFF780FDA0620420F1
:10474000FFF77CFDE0620820FFF778FD20630C2076
:10475000FFF774FD60632846AAE7000070B586B0D5
:1047600004460D46002600200090A18C090401910A
:104770000D2102914021039104900801059001A9A7
:104780002068FFF781FD2068426B12F0450FFBD0D7
:10479000416B490705D5032104228263084606B010
:1047A00070BD416BC90703D0012181630846F6E75C
:1047B000FFF73CFD0D2801D01020F0E7216840F202
:1047C000FF5088630020FFF739FD00900098C0F388
:1047D0004320287033490098084201D13046DEE773
:1047E0000098002801DA1C20D9E70098400001D584
:1047F0000920D4E70098800001D50A20CFE700986F
:10480000C00001D50B20CAE70098000101D50C209B
:10481000C5E70098400101D50D20C0E70098C00110
:1048200001D50E20BBE70098000201D50F20B6E7A6
:104830000098400201D51020B1E70098800201D510
:104840001120ACE70098C00201D51220A7E700981C
:10485000000301D51320A2E70098400301D51420DE
:104860009DE70098800301D5152098E70098C003C4
:1048700001D5162093E70098000401D517208EE794
:104880000098400401D5182089E70098800401D5DC
:10489000192084E70098000701D51A207FE73046E9
:1048A0007DE7000008E0FFFD2DE9F04F87B00446EA
:1048B0004FF00009CDF80490002700250026A846F7
:1048C000DFF834A1CAF8A0902068FFF7D6FC4FF0BB
:1048D000010BCAF8A0B0CDF80890CDF80C90CDF837
:1048E0001090CDF814904FF48060069002A92068D3
:1048F000FFF7CAFC2046FFF7DCFC01909DF804009E
:1049000020B19DF8040007B0BDE8F08F4FF4D570DA
:104910000290082003904FF0400ACDF810A002A9A1
:104920002068FFF7B1FC2046FFF7BBFD01909DF822
:10493000040018B9C4F820B04FF08048CDF80890B2
:104940003720039002A92068FFF79EFC37212046FC
:10495000FFF7C6FC01909DF80400A8BB4FF6FF7B53
:1049600039E0CDF8089037200390CDF810A0CDF8AD
:1049700014904FF48066069602A92068FFF784FC25
:1049800037212046FFF7ACFC01909DF8040010B1E0
:104990009DF80400B7E7194848EA00000290292072
:1049A0000390CDF810A0CDF81490069602A92068C7
:1049B000FFF76AFC2046FFF725FD01909DF80400F3
:1049C00018B19DF804009EE713E00020FFF736FCC5
:1049D0000746FE0F6D1C0EB95D45C2D35D4504D37D
:1049E0001B2001909DF804008DE7780001D502207E
:1049F00020629DF8040086E70080254200001080B8
:104A00002DE9FC5F074691464FF0000A0C46E50D84
:104A1000640205F039FDB8074FF400781BD000267A
:104A20004FF0010B14E07002CDE9008B021911491F
:104A300045EBE073A1F1B800FDF7F0FC8246424679
:104A40000C493846FBF799FC07F50077761CF6B25F
:104A50004E45E8D309E0074822462B463946B83888
:104A6000CDE90089FDF7DAFC824605F01BFD5046D2
:104A7000BDE8FC9F381A002010B586B004460192AC
:104A80000720029040200390002004904FF48060A3
:104A9000059001A92068FFF7F7FB07212046FFF7E3
:104AA0001FFC06B010BD30B587B004460025009548
:104AB00001950020FFF7C2FB800102D50E2007B050
:104AC00030BD69462046FFF710FD0028F7D1019858
:104AD000C0031FD5A08C0004029037200390402013
:104AE000049005950001069002A92068FFF7CCFB11
:104AF00037212046FFF7F4FB0028E0D1029506207D
:104B0000039002A92068FFF7BFFB06212046FFF7AC
:104B1000E7FBD4E72520D2E730B587B0044600256F
:104B2000009501950020FFF789FB800102D50E203A
:104B300007B030BD69462046FFF7D7FC0028F7D103
:104B40000198400320D5A08C0004029037200390E8
:104B50004020049005950001069002A92068FFF707
:104B600093FB37212046FFF7BBFB0028E0D1022052
:104B700002900620039002A92068FFF785FB06211A
:104B80002046FFF7ADFBD3E72520D1E72DE9FC5FF9
:104B9000074690464FF0000B0C46E50D640205F009
:104BA00073FCB8074FF400791BD000264FF0010AC0
:104BB00014E04A4639461248FBF7DFFB7002CDE9A4
:104BC000009A02190E4945EBE073A1F1B800FDF718
:104BD0003EFD834607F50077761CF6B24645E8D3DE
:104BE00009E00748CDE9009822462B463946B838F7
:104BF000FDF72DFD834605F055FC5846BDE8FC9FAA
:104C0000381A002010B5124C104820604FF4827002
:104C100060600020A060E0600221216101216161EB
:104C20004902A1613821E16120626062A06207202F
:104C3000E0622046FDF70DFE2068016841F040016A
:104C40000160BDE81040FF2000F004B800300140D2
:104C5000D018002001B582B04FF47A700090012383
:104C600001AA02A90248FDF7AFFE9DF804000EBD9F
:104C7000D018002010B50B4A11680B6823F04003D0
:104C80000B6011680B684FF6C77423400B60116806
:104C90000B6803430B601068016841F0400101603C
:104CA00010BD0000D018002010B5104C0E48206038
:104CB0004FF4827060600020A060E06002212161FA
:104CC000012161614902A1613821E16120626062D4
:104CD000A0620720E0622046FDF7BBFD2068016866
:104CE00041F04001016010BD003C00402819002047
:104CF0002DE9F05F04460F4693461D46FCF762FB24
:104D000006464FF000084FF4005A4FF00109BBF17E
:104D1000000F26D050E0681C23D025B1FCF752FBD1
:104D2000801BA8421DD92068416821F0E001416044
:104D30002068016821F040010160A06A504509D156
:104D40002068016821F4005101602068016841F485
:104D50000051016084F8519084F850800320BDE830
:104D6000F09F2068806837EA0000D4D129E0681CF1
:104D700022D025B1FCF726FB801BA8421CD9206855
:104D8000416821F0E00141602068016821F04001A4
:104D90000160A06A504509D12068016821F40051E2
:104DA00001602068016841F40051016084F851906D
:104DB00084F850800320D2E72068806837EA00003A
:104DC000D5D00020CBE70000022809D100021060F6
:104DD0000448826CB0F84C00C30543EA52200860D6
:104DE00000207047E01900200448D0E91210014368
:104DF00001D002207047012070470000E019002018
:104E000010B501460020022901D1FFF711FC40B284
:104E100010BD00000348017841F01001017000202E
:104E200070470000F4010020002070472DE9F04198
:104E3000174605460E461A4600200A4C217841F0D6
:104E400002012170022D04D139463046FFF7D8FD0A
:104E500040B2002803D0217841F008012170BDE85C
:104E6000F0810000F40100202DE9F04105460E46D6
:104E7000174600200A4C217841F001012170022DD3
:104E800005D1DAB239463046FFF780FE40B200283D
:104E900003D0217841F004012170BDE8F0810000C9
:104EA000F401002010B5012102A005F01EFE084902
:104EB000C86010BD5553426F72417564696F557378
:104EC000696E675344494F5F4D7574657800000003
:104ED000180000202DE9FF4FA1B09B46DDE92E63AD
:104EE00005460C46A2460C2E05D0102E03D0182ED7
:104EF00001D0202E3BD1F2B201A91846FCF756F89A
:104F00004FF0000930E02398854230D801A810F80E
:104F1000098000275C450FD85FEA086005D5E1B23B
:104F2000E8B23246FEF7F4FA06E0300012D0002272
:104F3000E1B2E8B2FEF7ECFA4FEA48604FEA1068D7
:104F4000641CA4B2A4EB0A01B14205D154466D1C05
:104F5000ADB205E00122EBE77F1CFFB2082FD9D3E9
:104F600009F1010909F0FF09B9EB460FCBD325B0D0
:104F7000BDE8F08F2DE9FC470446894616464FF000
:104F800000080C273046FBF716FA00EB40008006BD
:104F9000050E09F10C0000F0FF0A2FE0B8F1000F38
:104FA0000FD04FF00008CDE9007653462A46494617
:104FB0002046FFF78FFF281BB8421BDDE019C4B263
:104FC00019E0802802D94FF0010817E000905346FD
:104FD0002A464946204600F017F8281BB0EB570F29
:104FE00003DD04EB5700C4B200E02C46AC4208D20B
:104FF000761C03E02C46AC4203D2B61C3078002865
:10500000CCD1BDE8FC8700002DE9FF4F81B081467F
:105010000E980C46A246012100914FF00C08202862
:1050200003D9203800F0FF0B01E04FF0000B002601
:105030003AE0B8F10C0F0FD01E4800EB0B10855D65
:105040000398814532D8002728060CD521464846CA
:10505000009AFEF75DFA0DE017490BEB4B0001EBF0
:105060008000855DECE70098B0B1002221464846FB
:10507000FEF74EFA6806050E641CE4B2A4EB0A00C3
:10508000404502D00498844208D90AF0FF0409F18F
:10509000010909F0FF0905E00122E7E77F1CFFB2E3
:1050A000082FD1D3761CF6B24645C2D305B0BDE871
:1050B000F08F00005EC70008EAC2000870B592B029
:1050C00000251C4C266846F080562660246804F0B3
:1050D00080540094184C266846F4404626602468A4
:1050E00004F44044009401240694079402240C9490
:1050F00066050D960E910F901092119306A8FCF77D
:1051000025FD00B1FEE7FCF7DBF900B1FEE70F205B
:105110000190029403954FF4A05004904FF48050F6
:105120000590052101A8FCF76DFB002800D0FEE7E3
:1051300012B070BD403802400070004010B505F05C
:105140008FFB06F0F3F9BDE8104005F097BB0000B7
:1051500070B51D4E306800F00C001C4B1C49002837
:105160000FD01C4D04280ED008280ED00B603068DC
:10517000174AC0F30310121D105C0A68C2400A608F
:1051800070BD0B60F3E70D60F1E70F4A121F106866
:10519000C0F38054106800F03F0034B1B5FBF0F06C
:1051A0001368C3F38813584305E0B3FBF0F01368AA
:1051B000C3F3881358431268C2F30142521C5200D1
:1051C000B0FBF2F00860D2E7083802400024F40097
:1051D0000400002040787D011048016841F470010E
:1051E00001600F48016841F0010101600C4A002193
:1051F0000832116002680B4B1A400260031D0A4A14
:105200001A60026822F48022026005480C300160B6
:1052100002495806803908607047000088ED00E0B8
:1052200000380240FFFFF6FE103000247CB501205C
:105230001425CDE90005C3020022144914A005F08D
:10524000C3FF174C206008B106F0F6F80020CDE946
:1052500000054FF4007602463346124912A005F0CD
:10526000B3FF606008B106F0E7F80220CDE9000561
:1052700033460022114912A005F0A6FFA0600028C5
:1052800003D0BDE87C4006F0D7B87CBD01730008B0
:105290005761765F506C617965725F5461736B0022
:1052A00018000020156D00085553425F5472616E5E
:1052B000736665725F5461736B00000041340008CF
:1052C0004F4C45445F446973706C61795F546173FE
:1052D0006B00000010B50168CA6822F04002CA6085
:1052E00090F83910322906D0012180F83910FDF7E5
:1052F0004DFE002010BD222180F83910F7E710B5CF
:1053000090F83910222903D0322901D0022010BD93
:105310008168B1F5805F11D0016919B301684968EE
:1053200001F07F03816A4A1C82620B70C18D491EA5
:105330000904090CC1851CD0002010BD816A0269D6
:105340003AB102685268D2B20A80816A491C81620D
:10535000ECE702685268C2F308020A80816A891C7D
:105360008162E3E701684A68816A4B1C83620A70C4
:10537000DCE70168CA6822F02002CA6090F83910A0
:10538000322910D00168CA6822F48072CA600168AC
:105390004A6922F001024A61012180F83910FDF7C3
:1053A000C7FD002010BD122180F83910F7E700007A
:1053B0002DE9F04104462068016921F44051E2687A
:1053C0000A4302612068C16849F20C629143236973
:1053D000A268E5691A4363692B431A430A43C26012
:1053E0002068416921F44072A16911434161E0697B
:1053F00069496A4A64253226B0F5004F35D02068E5
:10540000904201D088427CD1FCF748FB00EBC00100
:1054100001EB001061688900B0FBF1F0B0FBF5F71B
:10542000FCF73CFB00EBC00101EB00106168890058
:10543000B0FBF1F8FCF732FB00EBC00101EB001010
:1054400061688900B0FBF1F0B0FBF5F06FF0180176
:10545000484308EB800006EB0010B0FBF5F0216834
:1054600067F31F108860BDE8F0812068904201D08A
:1054700088422FD1FCF712FB00EBC00101EB0010BA
:1054800061684900B0FBF1F0B0FBF5F7FCF706FBF3
:1054900000EBC00101EB001061684900B0FBF1F8BE
:1054A000FCF7FCFA00EBC00101EB00106168490059
:1054B000B0FBF1F0B0FBF5F06FF01801484308EBDA
:1054C000800006EB0010B0FBF5F0216867F31F10B9
:1054D0008860C8E7FCF7CCFA00EBC00101EB0010D4
:1054E00061684900B0FBF1F0B0FBF5F7FCF7C0FADA
:1054F00000EBC00101EB001061684900B0FBF1F85E
:1055000000E019E0FCF7B4FA00EBC00101EB001079
:1055100061684900B0FBF1F0B0FBF5F06FF01801E5
:10552000484308EB800006EB0010B0FBF5F0216863
:1055300067F31F10886096E7FCF79AFA00EBC0014A
:1055400001EB001061688900B0FBF1F0B0FBF5F7EA
:10555000FCF78EFA00EBC00101EB001061688900D6
:10556000B0FBF1F8FCF784FA00EBC00101EB00108E
:1055700061688900B0FBF1F0B0FBF5F06FF0180145
:10558000484308EB800006EB0010B0FBF5F0216803
:1055900067F31F10886066E70014014000100140A7
:1055A00090F83910122903D0322901D00220704717
:1055B0008168B1F5805F0CD0016A4A1C0262026802
:1055C00009785160C18C491E0904090CC18410D0AE
:1055D00019E0016A02680988C1F308015160016994
:1055E00019B1016A491C0162ECE7016A891C016278
:1055F000E8E70168CA6822F08002CA600068C168F2
:1056000041F04001C16000207047000070B50024E7
:105610000C4D0D48FDF779FB02E0641CAC4204D848
:105620000948FDF76FFB0128F7D1002402E0641C54
:10563000AC4206D8012205490348FDF741FC002889
:10564000F5D170BDFFFF0100E01D0020A400002087
:1056500010B5D0F8E42552689047002010BD10B571
:10566000044694F81201022806D0032804D02046EC
:10567000BDE8104000F023B8488801280CD1002074
:10568000C4F81801D4F8E405826820469047204603
:10569000BDE8104000F043B810BD10B5002413461B
:1056A0000A460021FBF712F9204610BD10B5002470
:1056B00013460A460021FBF749F9204610BD10B5F4
:1056C000044680212046FBF725F900212046FBF700
:1056D00021F92046BDE8104001F068B870B50546D4
:1056E0000024052085F8110100231A461946284692
:1056F000FBF7ECF8284601F059F8204670BD10B5CC
:105700000024C0F83C21C0F83821022380F8113170
:1057100013460A460021FBF719F9204610BD70B563
:1057200005460024042085F8110100231A46194675
:105730002846FBF70BF9284601F038F8204670BDE3
:1057400070B50546002909D0D5F8E4054269002A5C
:1057500056D095F81201032850D051E005F58E740B
:1057600095F81101002602283ED1E169A068814226
:1057700015D9081AE061E878012803D1D4E90210AC
:105780000844E060A08BE16882B22846FFF78EFFF4
:1057900000231A4619462846FBF798F824E0216AA8
:1057A000B1FBF0F200FB12128AB981420FD3606A9A
:1057B00081420CD2002211462846FFF777FF66622D
:1057C00000231A4619462846FBF780F80CE0D5F866
:1057D000E405C16829B195F81201032801D12846D2
:1057E00088472846FFF77AFF95F81601012807D168
:1057F000284600F09FFA85F8166101E02846904798
:10580000002070BD70B50546002908D0D5F8E40524
:1058100082690AB395F8120103282CD02DE005F512
:105820005D7495F81101032827D1E169A0688142D0
:1058300013D9081AE061E878012803D1D4E90210ED
:105840000844E060E169A068814200D2084682B263
:105850002846E168FFF721FF0FE0D5F8E40501696C
:1058600029B195F81201032801D128468847284616
:10587000FFF755FF01E028469047002070BD00204B
:1058800070470000CA88012A01D0FFF718BF90F8BE
:105890001221022A03D0032A05D0FFF710BF0122EC
:1058A0000349FFF72CBF012200F58871FFF727BFDE
:1058B0002801002038B504460D46E8880090688825
:1058C000010A08296ED2DFE801F06D040C186D6D35
:1058D0006368D4F8EC15A0780A68694690470146D9
:1058E00042E0D4F8E415A0788A6A694690470146F8
:1058F00002204870C4F8F01536E0C0B2062842D243
:10590000DFE800F0030B131B232BD4F8EC15A07871
:105910004A6869469047014626E0D4F8EC15A0781D
:105920008A686946904701461EE0D4F8EC15A078D5
:10593000CA6869469047014616E0D4F8EC15A0788D
:105940000A696946904701460EE0D4F8EC15A07844
:105950004A6969469047014606E0D4F8EC15A078FC
:105960008A69694690470146BDF80000002809D0C1
:10597000EA88002A06D0824200D9024600922046D8
:10598000FFF7BDFE38BD29462046FFF798FE38BD1B
:1059900029462046FFF793FE38BD29462046FFF7EB
:1059A0008EFE38BD29462046FFF789FE38BD00210E
:1059B00002E0491CC9B2401C0278002AF9D108460D
:1059C000704701EB810100EBC100B0F88C0380B29D
:1059D0007047000090F81221022A03D0032A01D058
:1059E000FFF76DBE06490122CA60D0F818210AB13E
:1059F0000322CA60024902220C31FFF780BE000078
:105A00002001002070B504460D461646002C16D025
:105A10002046FFF7CCFF022101EB400030802870C8
:105A2000032102206970002306E0411CC9B22A54F8
:105A3000641C481CC0B26B542278002AF5D170BD9A
:105A40002DE9F0410446069F884616461D4620462D
:105A500000F0B2FC2046FFF712FFC4F8E455C4F88A
:105A6000E875C4F8EC6541462046FBF775F9D4F8B3
:105A7000E805006880472046BDE8F04100F091BC91
:105A800010B5D0F8E415096A8847002010BD10B59C
:105A9000D0F8E415496A8847002010BD10B5FDF71D
:105AA000B7FB002010BD10B5FDF7D6FB002010BDE0
:105AB00010B5044681212046FAF7ACFE01212046AC
:105AC000FAF7A8FE2046FDF7E9FB002010BD000014
:105AD00020200880004870476C01002010B5044663
