:020000040800F2
:1000000068FF0220C1010008C9010008C7020008FA
:10001000CD010008CF010008D10100080000000058
:10002000000000000000000000000000D3010008F4
:10003000D501000800000000130200085553000815
:10004000DB010008DB010008DB010008DB01000820
:10005000DB010008DB010008DB010008DB01000810
:10006000DB010008DB010008DB010008DB01000800
:10007000DB010008DB010008DB010008DB010008F0
:10008000DB010008DB010008DB010008DB010008E0
:10009000DB010008DB010008DB010008DB010008D0
:1000A000DB010008DB010008DB010008DB010008C0
:1000B000DB010008DB010008DB010008DB010008B0
:1000C000DB010008DB010008DB010008DB010008A0
:1000D000DB01000831580008DB010008DB010008E3
:1000E000DB010008DB010008DB010008DB01000880
:1000F000DB010008DB010008DB010008DB01000870
:10010000DB010008DB010008DB010008DB0100085F
:10011000DB010008DB010008DB010008DB0100084F
:10012000DB010008DB010008DB01000821130008E7
:10013000DB010008DB010008DB010008DB0100082F
:10014000DB010008DB010008DB010008F13B0008CF
:10015000DB010008DB010008DB010008DB0100080F
:10016000DB010008DB010008DB010008DB010008FF
:10017000DB010008DB010008DB01000800000000D3
:10018000DB010008DB010008DB010008DB010008DF
:10019000DB010008DB010008DB010008DB010008CF
:1001A000DB010008DB010008DB010008DFF80CD0F0
:1001B00000F03AFB004800478109000868FF022070
:1001C0000648804706480047FEE7FEE7FEE7FEE7F1
:1001D000FEE7FEE7FEE7FEE7FEE7FEE7E95300087D
:1001E000AD010008EFF3108072B6704780F31088FD
:1001F0007047434A1368012B04D04FF0010313608A
:10020000404A1060404A116040484FF08051016000
:100210007047EFF3108272B63948016851B34FF05E
:10022000000101603748016891B1EFF309811EF0C8
:10023000100F08BF21ED108B21E9F00F4FF00004E3
:100240001EF0100F08BF012441F8044D0068016042
:100250002D490968096808C9B1E8F00F002B18BFDB
:10026000B1EC108B81F309884EF0100E002B18BFF3
:100270002EF0100E82F310884EF0040E70472249C3
:100280000860EFF3148222F0040282F314881D49FF
:100290004FF0000008601A494FF0010008601C4848
:1002A0004FF47F01D0F8002041EA020101601748B5
:1002B0004FF08051016017480068006880F308889B
:1002C00061B662B670471EF0040F0CBFEFF30880F2
:1002D000EFF3098020E9F00F40F804ED40F804ED59
:1002E0001EF0040F0CBF80F3088880F3098800B566
:1002F0000FF0B6F95DF804EB4EF0040E7047000005
:100300008C030020840300208803002004ED00E01B
:1003100020ED00E008ED00E02DE9F05F054600204B
:1003200092469B4688460646814640241BE0284666
:1003300041464746224600F0AEF853465A46C01A98
:10034000914110D311461846224600F095F82D1A17
:1003500067EB01084F4622460120002100F08CF88F
:1003600017EB00094E41201EA4F10104DFDC4846D2
:1003700031462A464346BDE8F09F10B5431A9342E2
:1003800009D28318881803E010F8011D03F8011D35
:10039000521EF9D210BD40EA01039B0703D009E0C9
:1003A00008C9121F08C0042AFAD203E011F8013B61
:1003B00000F8013B521EF9D210BDD2B201E000F8A4
:1003C000012B491EFBD270470022F6E710B51346F9
:1003D0000A4604461946FFF7F0FF204610BD421EAC
:1003E00012F8013F002BFBD111F8013B02F8013B51
:1003F000002BF9D17047421C10F8011B0029FBD1DA
:10040000801A704710B5002200E0521C835C8C5C9F
:10041000A34201D1002BF8D1D8B2E1B2401A10BDED
:1004200030B504460020034600E05B1C934203D233
:10043000E05CCD5C401BF8D030BD034611F8012BC9
:1004400000F8012B002AF9D11846704730B50B4649
:10045000014600202022012409E021FA02F59D42F4
:1004600005D303FA02F5491B04FA02F52844151EC8
:10047000A2F10102F1DC30BD202A04DB203A00FAAF
:1004800002F1002070479140C2F1200320FA03F3EB
:10049000194390407047202A04DB203A21FA02F0E9
:1004A0000021704721FA02F3D040C2F120029140AE
:1004B0000843194670472DE9FE4F804681EA030044
:1004C000C00F0C46009021F0004123F00045B8EB2E
:1004D0000200A94105D24046214690461C460B46E3
:1004E000024623F00040104347D0270DC7F30A000F
:1004F000C3F30A510290401A019040286BDAC3F30B
:10050000130040F4801B0098924620B10023D2EBE8
:10051000030A63EB0B0B01985946C0F140025046A9
:10052000FFF7AAFF06460D4650465946019A00F0CD
:100530008DF910EB08006141002487EA115284EA2A
:10054000E7731A4340D0009A62B3019A012A4FEA36
:10055000075215DC001B61EB02014FF0004202EA7A
:100560000752CDE90042001C41F5801132462B466E
:1005700000F08DF903B0BDE8F08F40462146F9E761
:10058000001B61EB0201001C41F5801300185B4168
:100590002018A2F5001747EB030140EAD570B61901
:1005A0006D4111E06D084FEA360645EAC0754FEA25
:1005B0000752001B61EB0201001C41F58011490844
:1005C0004FEA30000019514132462B4603B0BDE8D6
:1005D000F04F00F04DB90098012240000023D0EB0D
:1005E000020263EBE073009821464FEAE074B8EB37
:1005F000000061EB0401E9E783F000435BE781F071
:10060000004158E72DE9FE4F81EA030404F000445D
:1006100021F0004100944FF0000B23F0004350EA1A
:1006200001045ED052EA03045BD0C3F30A54C1F361
:100630000A552C44A4F2F3340194A0FB0254C1F3F4
:10064000130141F48011C3F3130343F4801301FB3E
:10065000024400FB034E840A970A44EA815447EAA5
:100660008357A4FB076802958D0A05FB07854FEAAF
:10067000932C04FB0C542705029D4FEA065847EAC9
:100680001637B5EB08056EEB070C870E920E47EA9E
:10069000811742EA8312A7FB0201B6EB0B0164EB60
:1006A00000042B0D43EA0C335E1844EB1C50DA4671
:1006B0005146E7FB0201C5F313044FEA0B3343EA4B
:1006C00014534FEA0432019C43EA0603A4F10C04DC
:1006D0000294009CCDE900B400F0D9F803B0BDE865
:1006E000F08F00200146F9E72DE9F04D81EA03047F
:1006F00004F0004B21F0004514464FF0000A23F0AF
:10070000004150EA050220D054EA01021DD0C5F391
:100710000A570246C5F31303C1F31300C1F30A5687
:1007200040F4801543F48013A7EB0608101BD6464F
:1007300008F2FD3873EB050002D308F1010801E06F
:1007400092185B41B8F1000F03DA00200146BDE8C2
:10075000F08D00204FF48011064684460EE0171BF2
:1007600073EB050705D3121B63EB050306434CEA45
:10077000010C49084FEA300092185B4150EA01072A
:10078000EDD152EA030012D082EA040083EA0501A7
:10079000084305D0101BAB4106D20122002306E01E
:1007A00000224FF0004302E06FF0010253101AEBF9
:1007B00006004CEB085110EB0A0041EB0B01BDE8C1
:1007C000F04D00F055B8C1F30A52C1F3130140F2E5
:1007D000FF3341F480119A4202DA0020014670474B
:1007E00040F233439A42A2F2334202DC5242FFF714
:1007F00052BEFFF741BE000030B5041E71F1000487
:1008000004DB4FF00044404264EB0101141E73F11D
:10081000000405DB1C464FF00043524263EB040327
:10082000994208BF904230BD064C074D06E0E06893
:1008300040F0010394E8070098471034AC42F6D327
:10084000FFF7B8FCB83D0108D83D0108202A06DBB7
:10085000CB17203A41FA02F043EAE07306E041FA8E
:1008600002F3D040C2F1200291400843194670477C
:1008700010B5141E73F1000408DA401C41F10001A8
:1008800092185B411A4301D120F0010010BD2DE9FF
:10089000F04D92469B4611B1B1FA81F202E0B0FAF6
:1008A00080F220329046FFF7E7FD04460F4640EA0B
:1008B0000A0041EA0B0153465A46084313D0114639
:1008C00053EA010019D0C8F140025046FFF7E3FD9A
:1008D00005460E46504659464246FFF7CDFD0843B1
:1008E00005D0012004E020463946BDE8F08D002007
:1008F000054346EAE0762C4337430A986305E40A49
:10090000A0EB08000022FD0A44EA47540A3002D551
:1009100000200146E9E7010510196941DDE90845B4
:1009200000196941BDE8F04DA2E770B58C1810F8C8
:10093000015B15F0070301D110F8013B2A1106D124
:1009400010F8012B03E010F8016B01F8016B5B1E3E
:10095000F9D12B0705D40023521E0DD401F8013B19
:10096000FAE710F8013BCB1A921C03E013F8015B85
:1009700001F8015B521EF9D5A142D8D3002070BD09
:1009800010B50FF0DBFF002010BD00002DE9F04F87
:100990005D4887B00024016841F0040101600168EE
:1009A00001F004010591016841F001010160016855
:1009B00001F001010591016841F002010160016847
:1009C00001F002010591016841F010010160016828
:1009D00001F010010591016841F008010160006813
:1009E000802600F008000096DFF820A10590012580
:1009F00069465046CDE9014500F0E0FDDFF810B151
:100A00004FF4805869465846CDF8008000F0D6FD76
:100A10004FF480790227CDE90095CDE90257694668
:100A20003C4800F0CBFD102000906946504600F095
:100A3000C5FD402000906946584600F0BFFD69465C
:100A40005846009600F0BAFDDFF8CCA06946504643
:100A5000CDF8008000F0B2FDE802009069460297F0
:100A6000504600F0ABFD4FF460408DE83100694620
:100A7000584600F0A3FDDFF8A48069464046CDF853
:100A8000009000F09BFD0096CDE901546946404678
:100A9000039400F093FD20200090CDE901546946B5
:100AA0005846039400F08AFD0097CDE90154694649
:100AB0005046039400F082FD6802CDE900046946C7
:100AC0005846029400F07AFDCDE90065CDE9025464
:100AD0006946584600F072FD01222021584600F078
:100AE00058FE00220221504600F053FE01228021D0
:100AF000404600F04EFE00228021584600F049FE9C
:100B000007B0BDE8F08F0000303802400008024016
:100B1000000402400000024000100240000C0240AD
:100B200010B500221021274800F033FE0022C0211A
:100B3000254800F02EFE00224FF48071234800F07B
:100B400028FE234C00224FF48051204600F021FE65
:100B50000122D102204600F01CFE64200FF03FFB72
:100B600006F014F904F0DEF906F0B9FA02F040FFDD
:100B7000642006F046FB00221146202002F0CEFD44
:100B800000200AF0E5F802200AF0E2F808F07CFB09
:100B9000104C012210A1206808F018FD01220FA1BD
:100BA000606808F013FD09F039FB10B10AA010F0DD
:100BB000EDFD4FF4FA600FF012FBBDE8104008A005
:100BC00006F082BB00080240000402400000024020
:100BD00000100240C4230020303A0000313A0000E7
:100BE000646F6E650A0000002DE9FE4F6A200290D6
:100BF0000220C10101904D4800F0C6FD4C4D072672
:100C000000244FF07A084FF078094FF0760A4FF041
:100C1000740B0127E8B128796E22401C28712F70CF
:100C20006C2033460094019902F0C6FE72227020B7
:100C300033460094019902F0BFFE424648463346CF
:100C40000094019902F0B8FE52465846334600948B
:100C500053E04FF40041374800F096FDB0B1EC701E
:100C6000022028707222702033460221009402F084
:100C7000A3FE4246484633460221009402F09CFE01
:100C80005246584633460221009430E04FF48041EA
:100C9000284800F079FD70B1AC70032028705246EE
:100CA000584633460094019902F086FE4246484673
:100CB0003346009413E04FF400511E4800F064FDE9
:100CC00080B36C7004202870009433464246484636
:100CD000019902F071FE3346524658460097019939
:100CE00002F06AFE3346722270200097019902F0EA
:100CF00063FE6E2233466C200097019902F05CFE81
:100D00007C2506237E2203212846009702F054FE0C
:100D1000092321462A46029802F02CFEBDE8FE4F28
:100D200002F01CBF052028700097CEE7000C02409F
:100D3000AE000020000402400069416841F0020159
:100D40004160032005F0BABB10B50A460C0601F05D
:100D50007F0303EB830100EBC10102D501F58E7126
:100D600001E001F55D71D2090B704A7005F080FD5C
:100D7000002010BD0A4610B5090602F07F0306D513
:100D800003EB830100EBC10101F58E7105E002EB7D
:100D9000820100EBC10101F55D7100248C700B70C4
:100DA000D2094A7005F04BFD002010BD10B50A06AF
:100DB00004D501F07F0105F069FE01E005F04AFE6F
:100DC000002010BD70B50C460E0601F07F0505EB46
:100DD000850100EBC10102D501F58E7101E001F53D
:100DE0005D71E4090D704C708A60CB7000D0CD80CD
:100DF000022B01D100220A7105F0F8FC002070BD21
:100E000010B501F07F0404EB840100EBC101C1F8CF
:100E10008833C1F880230023C1F88C3381F87533FF
:100E200081F87443C37801F55D71012B00D10A612B
:100E300014F0FF0F03D005F04DFD002010BD05F0AC
:100E40006BFCFAE70069002261F30A1201681143A2
:100E5000016070470A4610B5090602F07F0306D507
:100E600003EB830100EBC10101F58E7105E002EB9C
:100E7000820100EBC10101F55D7101248C700B70E2
:100E8000D2094A7005F00EFD002010BD70B511F0BA
:100E90007F0404EB840100EBC1014FF0010581F8F0
:100EA0001D5181F81C41C1F82821C1F82C2101F500
:100EB0008E714FF00002C1E9053203D005F00AFD42
:100EC000002070BD05F028FCFAE770B5044605F077
:100ED00007FCE068C16821F47055C560204605F044
:100EE000F5FD002103280FD00120A0704020A08034
:100EF00025F4705000F5A050E168C860E1684FF437
:100F000000504861012070BDA1704FF40070A080B6
:100F100025F4705000F51050EEE700002DE9F04187
:100F20000646002505F0F5FD074650E0F8074CD0D1
:100F30003069EAB20169436BD34006EB820203F0E9
:100F40000103926941EAC31194680C40E1071AD089
:100F50000124426B04FA05F18A43426306EB8500E3
:100F6000806984601C48E9B2006842683046904756
:100F7000F078012807D135B996F81101042802D17B
:100F8000304605F021FC200704D506EB8500082437
:100F900080698460E00604D506EB85001024806932
:100FA0008460600604D506EB850040248069846077
:100FB000A00704D506EB8500022480698460200622
:100FC00003D52946304600F061F97F086D1C002FDB
:100FD000ACD10120BDE8F081180100202DE9F041DD
:100FE0000646002405F09BFD0746DFF8988043E0A5
:100FF000F8073FD0E1B2304605F097FD0546C0073F
:1010000025D006EB84000125416D8D60F178012922
:101010000CD1406D016904EB840006EBC000C1F304
:101020001201D0F87C23511AC0F88C13D8F80000B4
:10103000E1B2026830469047F078012807D134B910
:1010400096F81101052802D1304605F0BDFBA8072E
:1010500004D506EB84000225406D8560280709D57C
:10106000D8F8000081683046884706EB84010820E4
:10107000496D88607F08641C002FB9D10120BDE84C
:10108000F08100001801002070B50646C068816933
:1010900021F010018161F068056A05F00F0000EB96
:1010A000800006EBC004C5F3434004F55D740728D7
:1010B00021D2DFE800F0202004202020150047F690
:1010C000F070054217D0C5F30A152A463046E1688C
:1010D00005F033FDE0682844E060A069284409E099
:1010E000082206F2CC51304605F027FDA069C5F371
:1010F0000A110844A061F068816941F01001816122
:10110000012070BD38B5044600208DF8000094F829
:1011100012018DF800001548006841692046884793
:1011200020698068E2684FF400615161A17AD1B111
:10113000C00718D094F81501012814D19DF80000BB
:10114000032810D1D4F80C01016841F001010160BD
:10115000D4F80C01016841F0030101600448016802
:1011600041F006010160012038BD00001801002097
:1011700010ED00E070B504460069002501264168C5
:1011800021F0010141602946204605F07FFC002046
:10119000FF2106E004EB800293699960526D916033
:1011A000401C62788242F5D821694FF0FF30886197
:1011B0002846216966F30F0066F31F40C861216964
:1011C00045F00B004861216945F00B00086120697A
:1011D000016821F4FE610160204605F0F5FAE1683E
:1011E0004FF48050486103480068016920468847F1
:1011F000012070BD1801002070B5044605F0AEFC5A
:101200000122002384F8122184F814311946402564
:1012100011E000BF01EB810004EBC00080F81D214C
:1012200080F81C11A0F8221180F81F31C0E9495341
:10123000491CC0F8303160788842EBD8002110E0BA
:1012400001EB810004EBC00282F8753382F874135D
:10125000A2F87A1382F87733C2E9DF53491CC2F847
:10126000883360788842EBD8204605F031FA204672
:1012700005F026F90021204605F0D0FC204605F0B7
:101280005FF92046BDE8704005F0DCBB2DE9F04772
:101290000D46064601EB850006EBC004D4E94C017F
:1012A000421AD4F8240104F58E74904200D202460A
:1012B00006EB8509D21CD9F818009708806923E04D
:1012C000A0EB0108A068404500D2804608F1030069
:1012D00087081FFA88F3EAB23046E16805F0B3FCEC
:1012E000E16801EB0800E060A1694144A161D9F81F
:1012F0001800806962698A4206D1217801228A40F9
:1013000031694B6B93434B6380B2B84205D9D4E942
:101310000501814201D20028D2D10120BDE8F08729
:1013200030B419481A4C1A490068184D184B603CE3
:10133000B839A84202D9154A543A03E0984203D971
:10134000124A583A126804E0A04201D94A6800E003
:101350000A6812F0006F15D04FF00062A84202D95F
:101360000A484C3803E0984203D9084850380260D4
:1013700004E0A04201D9CA6000E08A600548006824
:1013800030BC004730BC7047081E00205864024043
:10139000B8600240A000002001681823CAB2103AC9
:1013A000B2FBF3F2054B6FF30901032A9B5C436523
:1013B00000D9091D0165084670470000303B01084F
:1013C00010B5046863608368402B036803D099609C
:1013D0000068C26010BD9A600068C16010BD000066
:1013E00030B403460C46500700D0012000EBD20079
:1013F00010FB02F0C1B218785B78812809D3402B2A
:1014000007D3FF2B05D0FF2803D07F2B0CD2403B06
:101410000BE00020024603E0401C04F8012BC0B2A0
:101420008842F9D330BC7047413B8138C0B2C0EB31
:101430004015DBB205EB801003EB40034B430D4836
:101440000C2A0ED0102A0FD0182A10D0202AE9D149
:10145000D0F821000A4618440146204630BC05F069
:10146000D3BCD0F80900F5E7D0F81100F2E7D0F8C6
:101470001900EFE79923002070B5044690F8340076
:10148000049D012808D0012084F8340020680668F3
:10149000360303D4122605E0022070BD0668360329
:1014A00002D5222684F83560066826F0010606601B
:1014B0002068066846F480260660206803612B4693
:1014C0002046FFF77DFF2068016841F001010160BF
:1014D000002070BD70B5040025D094F835000228B6
:1014E00021D02068016821F00101016020680025F9
:1014F000056020684560206885602068C5602068B8
:1015000005612168212048612046FFF745FF94F8D6
:1015100054203F2191408160E56484F8355084F87F
:101520003450002070BD012070BD000070B5040073
:101530001AD00220636A84F83500226811681848BE
:101540000140D4E901052843D4E903563543284333
:1015500065692843A5692843E5692843256A284326
:101560000843042B02D005E0012070BDD4E90B1321
:1015700019430843106022685069616A20F007002F
:101580000843042901D1A16A084350612046FFF7AE
:1015900003FF0020E064012084F83500002070BDC6
:1015A0003F8010F031B500F0F9F8044600F0F6F88D
:1015B0000099001B8842F9D338BD00002DE9F84F8F
:1015C000DFF890B100224FF001084FF0030A4FF00E
:1015D0000F090BF1040E00BF0B6808FA02F4234058
:1015E000A3426ED14D68022D01D0122D0ED1D50827
:1015F00000EB850CDCF820505607F70E09FA07F6C9
:10160000B5430E69BE402E43CCF8206006685500F5
:101610000F790AFA05FC07F0030726EA0C06AF402B
:10162000374307604E68012E05D0022E03D0112EDD
:1016300001D0122E0ED18768CE6827EA0C07AE4083
:101640003E4386604668A6430C79C4F30014944078
:1016500034434460C4688E6824EA0C04AE402643D8
:10166000C6604C68E4006FD53B4C256845F4804566
:101670002560246822F0030504F480440094374C6C
:101680002E19D6F8084895072F0F09FA07F5AC432D
:10169000334DA84201D100252EE0324DA84201D1A0
:1016A000012529E0304DA84201D1022524E02F4D2B
:1016B000A84201D103251FE02D4DA84202D10425E7
:1016C0001AE041E02B4DA84201D1052514E02A4D36
:1016D000A84201D106250FE0284DA84201D10725D7
:1016E0000AE0274DA84201D1082505E0254DA84272
:1016F00001D1092500E00A25BD402543C6F8085858
:10170000DBF800405D464E689C43F60300D51C4361
:101710002C60DEF8004075464E689C43B60300D549
:101720001C432C600B4D08352C684E689C43F60218
:1017300000D51C432C60074D0C352C684E689C432B
:10174000B60200D51C432C60521C102AFFF444AF93
:10175000BDE8F88F003C01404438024000300140B1
:10176000000002400004024000080240000C024059
:10177000001002400014024000180240001C024009
:1017800000200240002402400069084000D00120EF
:1017900070470AB1816170470904FBE7014800689E
:1017A00070470000E800002002480168491C016001
:1017B00070470000E80000200B4810B5016841F4B4
:1017C00000710160016841F480610160016841F4C9
:1017D00080710160032000F055F80F2000F006F83A
:1017E00000F015F8002010BD003C024010B5044682
:1017F00000F0FAFA4FF47A71B0FBF1F001F0DFFB80
:1018000000222146501E00F01DF8002010BD08B532
:101810000020009008BD00F01F0201219140400906
:10182000800000F1E020C0F88011704700F01F0236
:10183000012191404009800000F1E020C0F8001132
:1018400070470000F0B40E4B1B680C46C3F3022334
:10185000C3F10705042D00D90425191D072901D25C
:10186000002300E0DB1E012606FA05F1491E214097
:1018700099409E40761E16403143F0BC01F0C0BF37
:101880000CED00E0064900F0070208684FF6FF0380
:10189000184040EA0220034A1043086070470000E5
:1018A0000CED00E00000FA052DE9F8431E48016840
:1018B00041F0805101600068012600F080500090E6
:1018C000300490FAA0F0194FB0FA80F047F8206089
:1018D000FFF764FF05464FF47A78154C05E000BF2A
:1018E000FFF75CFF401B404515D86068C003F7D583
:1018F0004FF4003090FAA0F0B0FA80F047F8206082
:10190000FFF74CFF0546464608E000BFFFF746FFDD
:10191000401BB04202D90320BDE8F8836068800311
:10192000F4D50020F8E700004038024000000E42E5
:10193000007000402DE9F84F044600689E4E9F4D10
:10194000C10747F6C07A4FF0E0474FF0010B4FF068
:10195000000901D180074CD59949C1F86890FFF77B
:101960001DFF804606E000BFFFF718FFA0EB080050
:1019700064287CD828680001F6D42078C1079148F3
:101980000DD09AFAAAF26168B2FA82F2914097FAFF
:10199000A7F3A268B3FA83F39A4011430160217858
:1019A000890716D5016897FAA7F201F0E041B2FA6B
:1019B00082F2D1406268237B920142EA036242EAEA
:1019C000017101603068E16920F01F00491E084381
:1019D00030607B49C1F868B0FFF7E0FE804605E063
:1019E000FFF7DCFEA0EB0800642840D8286800015F
:1019F000F6D52068410701D4000776D57049C1F8B3
:101A00007090FFF7CBFE804606E000BFFFF7C6FEF2
:101A1000A0EB080064282AD82868C0438000F5D5C8
:101A200020784FF070684107674828D5016897FA19
:101A3000A7F201F0E041B2FA82F2D1409AFAAAF399
:101A40002269B3FA83F39A4098FAA8FC6369BCFA56
:101A50008CFC03FA0CF31A4397FAA7F3B3FA83F357
:101A600099400A430260316821F4F85100E07AE0BD
:101A7000226A6FF0FF0303EB0222114331602178E9
:101A8000090721D501689AFAAAF301F0706298FA61
:101A9000A8F1B1FA81F1CA402169B3FA83F3994000
:101AA00098FAA8F3B3FA83F39A40114397FAA7F38D
:101AB000A269B3FA83F39A40114301603068616A06
:101AC00020F44030084330603D49C1F870B0FFF762
:101AD00065FE064605E000BFFFF760FE801B642838
:101AE00041D82868C0438000F6D42078800651D5BC
:101AF00032484E464030016841F080510160006834
:101B0000324F00F080500090386840F480703860A8
:101B1000FFF744FE054604E0FFF740FE401B642843
:101B200021D83868C005F7D5264D143D2868218D89
:101B300000F4407001F4407188422BD02868244999
:101B400020F44070C1F800B00E602860800710D506
:101B5000FFF724FE064641F2883707E0FFF71EFE36
:101B6000801BB84202D90320BDE8F88F286880079F
:101B7000F4D5A16A1148C1F301220830032A13D019
:101B8000016821F4F81101602868218DC1F30B016F
:101B9000084328602078C00604D50E4994F82C002C
:101BA000C1F8E0010020DFE702680B4B22F4F812D5
:101BB00019400A430260E7E78C38024000380240CF
:101BC00000004742843802408838024000700040DC
:101BD000400E474200104742FFFCFF0F2DE9F05F27
:101BE000DFF8FCA104460F46DAF80000DFF8F481C4
:101BF00000F00F017B4807F0FF0941F2883508F13A
:101C00000808B94262D28AF80090DAF8001001F0B0
:101C10000F01B9427ED12178890707D5D8F8002075
:101C2000A36822F0F0021A43C8F800202178C907FF
:101C30002ED0616801291AD002291BD0032919D09E
:101C400000688007002865DAD8F80000464620F0D2
:101C500003000843C8F80000FFF7A0FD07466068CE
:101C6000012810D002281AD003281ED029E00068CD
:101C70008003E7E700688001E4E700BFFFF78EFD1F
:101C8000C01BA84259D83068C0F381000128F5D1A3
:101C900089E000BFFFF782FDC01BA8424DD8306825
:101CA000C0F381000228F5D17DE03068FFF776FDB2
:101CB000C01BA842F9D940E0FFF770FDC01BA84245
:101CC0003BD8306810F00C0FF6D16CE02178890712
:101CD00007D5D8F80020A36822F0F0021A43C8F80C
:101CE00000202178C9074CD06168012928D0022939
:101CF00029D0032927D000688007002849DAD8F8BE
:101D0000002022F003020A43C8F80020FFF746FD36
:101D1000064600E03DE0606801281DD0022829D079
:101D2000032838D0AB464546286810F00C0F28D061
:101D3000FFF734FD811B5945F6D90320BDE8F09F1C
:101D400000688003D9E700688001D6E7FFF726FD29
:101D5000811B594502D9F0E7AB4645462868C0F3D8
:101D600081000128F2D10CE0FFF718FD811B5945D5
:101D700002D9E2E7AB4645462868C0F38100022855
:101D8000F2D18AF80090DAF8000000F00F00B842B3
:101D900009D00120D2E744462068FFF7FFFC801BF2
:101DA000A842F9D9C9E72078400707D5D8F800102C
:101DB000E26821F4E0511143C8F8001020780007D0
:101DC00008D5D8F80010226921F4604141EAC20127
:101DD000C8F800100F20FFF709FD0020AEE7000053
:101DE000003C02400038024010B500F043F80849BA
:101DF0000968F02292FAA2F201F0F001B2FA82F23E
:101E0000D140044A515CC8400349086010BD00003D
:101E100008380240383B01080000002010B5FFF7E9
:101E2000E3FF074909684FF4E05292FAA2F201F485
:101E3000E051B2FA82F2D140024A515CC84010BD72
:101E400008380240383B010810B5FFF7CDFF0749BD
:101E500009684FF4604292FAA2F201F46041B2FACA
:101E600082F2D140024A515CC84010BD083802409D
:101E7000383B010830B51948006810F00C011848CB
:101E800012D0184C04290ED008290DD11349091F6E
:101E90000A6802F03F030A68550247F6C07204D58B
:101EA000B4FBF3F003E0204630BDB0FBF3F00B6869
:101EB0000968134092FAA2F2B2FA82F2D340584370
:101EC0004FF4403292FAA2F201F44031B2FA82F2B7
:101ED000D140491C4900B0FBF1F030BD0838024048
:101EE0000024F40040787D012DE9F84F0446007885
:101EF000DFF81C83C74DC0074FF000064BD0D8F861
:101F000000104046C1F38101012908D00068C0F3E8
:101F1000810002280AD1281D0068400206D52868E1
:101F2000800338D56068002871D034E0DFF8E4A27F
:101F30000AF1020A8AF80060FFF730FC814641F29C
:101F4000883705E0FFF72AFCA0EB0900B8427DD8EE
:101F500028688003F6D420798AF80000606868B1A8
:101F6000FFF71CFC814605E0FFF718FCA0EB090019
:101F7000B842ECD828688003F6D50CE0FFF70EFCD9
:101F8000814605E0FFF70AFCA0EB0900B842DED865
:101F900028688003F6D420789F4F80074FF0010B0C
:101FA00045D5D8F80010404611F00C0F4FF0F80A54
:101FB00009D00068C0F3810002280BD19448001FAB
:101FC0000068400206D42868800714D5E06801281C
:101FD0001DD110E0E068D8B1C7F800B0FFF7DEFB14
:101FE000814605E0FFF7DAFBA0EB09006428AED8D4
:101FF00028688007F6D528689AFAAAF22169B2FA09
:1020000082F220F0F8009140084328600FE0FCE0E5
:102010003E60FFF7C3FB814606E000BFFFF7BEFB53
:10202000A0EB0900642811D828688007F6D420782E
:10203000000729D5DFF8D8A1784861690AF16C0A50
:1020400099B1C0F800B0FFF7A9FB00E086E0814637
:1020500006E000BFFFF7A2FBA0EB090064287DD8D3
:10206000DAF800008007F5D50EE00660FFF796FB72
:10207000814605E0FFF792FBA0EB090064286DD8CC
:10208000DAF800008007F5D4207840075AD5604878
:102090003830016841F0805101600068DFF880A1AC
:1020A00000F080500090DAF8001041F48071CAF816
:1020B0000010FFF773FB814606E000BFFFF76EFBE1
:1020C000A0EB0900642849D8DAF80000C005F5D56E
:1020D000DFF83C9109F1680989F80060FFF75EFBC1
:1020E00041F2883A009005E0FFF758FB0099411A49
:1020F000514533D8D9F800008007F5D4207A89F803
:102100000000A06878B1FFF749FB009006E000BF2F
:10211000FFF744FB0099411A51456ED8D9F80000E9
:102120008007F5D50EE0FFF739FB009006E000BF11
:10213000FFF734FB0099411A51455ED8D9F80000E9
:102140008007F5D4A069E8B3D8F80010C1F3810185
:1021500002295AD002283E6605D000E04DE0FFF784
:102160001DFB04464CE0FFF719FB064605E000BFE7
:10217000FFF714FB801B64283FD828688001F7D440
:10218000D4E90701084347F6C07292FAA2F2616AE5
:10219000B2FA82F29140A26A4FF0FF3303EB52028F
:1021A0004FF4403393FAA3F3B3FA83F39A40114305
:1021B00008434FF0706292FAA2F2E16AB2FA82F238
:1021C000914000E01FE008431149091F0860C7F86B
:1021D00060B0FFF7E3FA044605E000BFFFF7DEFA60
:1021E000001B642809D828688001F7D50BE000BFE0
:1021F000FFF7D4FA001B642802D90320BDE8F88F4A
:1022000028688001F4D40020F8E70120F6E70000F8
:10221000083802400038024000004742800E474222
:102220000070004070B504001BD0022084F88100CB
:102230002068002505612168681E8861204601F03C
:10224000EFFD2068416841F008014160204600F040
:10225000A1F8C4F8845084F8815084F8805000209C
:1022600070BD012070BD704770B5040004D094F8B3
:102270008100002510B106E0012070BD84F8805077
:10228000204600F089F8022084F88100204601F001
:10229000C7FD204601F0B4FD206AA8B1204601F038
:1022A000E1FD216A00EB800040004902B0FBF1F142
:1022B0000A22B1FBF2F0B1FBF2F302FB13116062F0
:1022C000082901D9401C6062206801682F4A11402A
:1022D0000160616B60680843D4E90E121143084342
:1022E000216C0843A1680843A16A08432169084397
:1022F00061690843A18C40EA0150E16A0843216802
:102300000A6810430860206841684CF20F0291434C
:10231000416020684168A2691143D4E90B231A4344
:102320001143416020688168194A11408160E16C65
:10233000606D626C0843216D521E11430843A26C0C
:102340006FF0FF0101EB02221043226893681843EB
:1023500090602068C2684FF220031A40C260D4E93E
:1023600016021043D4E9183201EB03210A43216815
:102370001043CA681043C860C4F88450012084F830
:10238000810084F88050002070BD000010C005FF5F
:102390000080F8FF70470000124800B5016887B060
:1023A00041F480010160006800F4800005900D4850
:1023B0001438016841F0100101600068694600F0BE
:1023C000100005907C2000900220019001200290D6
:1023D00003200390062004900348FFF7EFF807B0AE
:1023E00000BD000044380240001002402DE9F047D3
:1023F00090F8202081F85620828CA1F85420826A1F
:102400000027120E93090B70C2F383034B7002F086
:1024100003028A70826A120CCA70028D120A0A7153
:1024200090F828204A71C26A4FF6FF7A120E0AEA23
:102430000212CA80C26ACB88C2F3074243EA12136F
:10244000CB8002F00F020A72828DC2F30723DA09F1
:102450004A72C3F380128A72C3F34012CA72C3F382
:1024600000120A7300224A73046A4FF00109002C1B
:102470007DD0012CFCD0022C7AD02927C3F3801404
:102480004C769B065B0E01F81A3F10F8303F0C7833
:1024900044EAD31401F8014B03F07F0301F8013B38
:1024A00050F8043F1B0EDC090C70C3F341144C7050
:1024B000C3F382048C709B071B0FCB7008C8CC78C9
:1024C000C3F3074344EA9314CC70C3F340140C7174
:1024D0004A7103F001028A7130F8042CC2F307221A
:1024E000D309CB71C2F380130B72C2F340134B724A
:1024F000C2F300138B72C2F38103CB7202F00302AA
:102500000A7310F8042C52084A734B4681F80E9057
:1025100050F8082B120E0A7450F8082C120C0AEA14
:1025200002224A8230F8082CC2F307244A8A224346
:102530004A8210F8082C120641F8142F50F8042C87
:102540000C68120E44EA02420A6050F8042C0C682F
:10255000C2F3074244EA02220A6030F8042C0C68F5
:10256000C2F30722144310C110F8042C01E034E038
:1025700076E001F8012B0268120E01F8032B0268C5
:10258000120C12060A6002880C68C2F3072244EAA1
:1025900002420A6002780C6844EA02220A60426839
:1025A0000C6844EA126410C142680C78C2F3074216
:1025B00044EA121401F8024B1207120D0A808288B5
:1025C000C2F307240A88224321F8022B007940082D
:1025D00008704B703846BDE8F0879B071B0D0B61F8
:1025E00090F82C300C6944EA83030B61036B0C698F
:1025F0001B0E44EA93140C61C3F3C2040C7503F080
:1026000007034B75036BC3F307435C098C75C3F376
:102610008204CC759B075B0F0B76038E0C7EC3F395
:10262000072344EAD3140C760C690E7EB61C09FA13
:1026300006F5641CA4FB05684FEAE57C02FB0585F2
:1026400004FB0C5591F808C009FA0CF4A6FB04C869
:102650000C6505FB048406FB0244C1E912C40DE7C6
:1026600090F82C309B069B0A0B61036B0C691B0EC8
:1026700044EA03230B61036B0C69C3F307431C4358
:102680000C61038E0C69C3F30723641C42F100053F
:10269000ED0445EA5435E404C1E912454FF40074F1
:1026A0000C65EBE670B586B000240E4605468DF845
:1026B0000C40047700F046F876200094CDE9014004
:1026C000234622462146286801F070FF284602F082
:1026D00033FA8DF80C009DF80C0038B9284602F04A
:1026E0001FF98DF80C009DF80C0018B19DF80C0036
:1026F00006B070BD31462846FFF778FE8DF80C0015
:102700009DF80C00A0B9B6F854006946000400908A
:10271000072001904020CDE90204000104902868C0
:1027200001F05DFF0721284601F06EFF8DF80C00D7
:1027300005F1100007C88DE8070095E80F0001F0CB
:1027400035FFD3E71D4800B5016887B041F400614B
:102750000160006800F400600590184814380168B2
:1027600041F480010160016801F480010591016874
:1027700041F004010160016801F004010591016864
:1027800041F0080101600068694600F0080005900A
:102790004FF4F85000900220019001200290032095
:1027A00003900C2004900648FEF708FF04200090D8
:1027B00069460448FEF702FF07B000BD44380240F6
:1027C00000080240000C02402DE9F04F8BB0044697
:1027D0000D46DDE91478216800201646C862216A9A
:1027E000022903D10F02560A46EAC3561021CDE949
:1027F00000714021834608010291CDE903B069468A
:10280000206801F0ECFE1021204601F0FDFE0028BA
:102810006DD14FF0FF3A08FB07F0CDE905A007A9FD
:1028200090204FF0020981E8010A01200A9005A9D1
:10283000206801F099FEB8F1010F01D9122000E0E3
:102840001120CDE900606946206801F0C8FEB8F1AA
:10285000010F1AD91221204601F0D6FE060046D1FA
:1028600040F22A3B2068416B11EA0B0F28D1406BE4
:102870000004F7D50027206801F0AEFE45F82700D8
:102880007F1C082FF7D32035ECE71121204601F0FB
:10289000BBFE06002BD140F22A6B2068416B11EA87
:1028A0000B0F0DD1406B0004F7D50027206801F015
:1028B00093FE45F827007F1C082FF7D32035ECE75F
:1028C000406BC0050CD5B8F1010F09D9206A18B1C9
:1028D000012801D0022803D1204600F033F8064633
:1028E0002168486B000705D50820886304200BB0D9
:1028F000BDE8F08F486B800703D54846C1F8389093
:10290000F5E7486B800603D5202088630620EEE7B4
:10291000486B800504D54FF4007088630720E6E714
:10292000574603E001F058FE01C57F1E2068416B49
:10293000890201D5002FF5D1216840F2FF5088634C
:102940003046D4E710B586B0044600200C21CDE90E
:1029500000014021CDE90210080104906946206879
:1029600001F03DFE0C21204601F04EFE06B010BDE8
:10297000FEB50446006A00250E46032805D030B196
:10298000012804D0022802D01FE02720FEBDB6F5A2
:10299000805F05D0B6F5006F04D03EB1262514E067
:1029A000272512E0204602F0F4F902E0204602F06A
:1029B000B7F9050009D1211DD4E905700EC90096AB
:1029C000CDE90170206801F0F1FD2846FEBD000050
:1029D0002DE9F04F8DB0044600260D468DF80060BD
:1029E000DDE91698216817463046CE62216A022931
:1029F00004D1570A4FF4007947EAC3571021CDE9B3
:102A00000191402183460801CDE904B0039101A959
:102A1000206801F0E4FD1021204601F0F5FD0028BA
:102A20007BD1B8F1010F01D9192000E01820CDE9C0
:102A3000017001A9206801F0D2FDB8F1010F01D9A0
:102A4000192100E01821204601F0DEFD002864D1A4
:102A5000411E069108FB09FA9020CDE907A001204C
:102A6000CDE90AB0CDF824B006A9206801F07CFDBC
:102A7000B8F1010F52D940F21A3B2068416B11EABC
:102A80000B0F52D1406B4004F7D5AAEB060020286B
:102A900011D281074FEA900000D0401C81460027E8
:102AA00006E02946206801F0AAFD2D1D361D7F1C79
:102AB0004F45E2D2F5E7002705EB8701206801F0DA
:102AC0009EFD7F1C082FF7D320352036D5E7486BB5
:102AD000400425D5AAEB0600202811D281074FEA31
:102AE000900000D0401C8146002706E0294620685F
:102AF00001F085FD2D1D361D7F1C4F4510D2F5E7D9
:102B00005FF0000705EB8701206801F078FD7F1C6E
:102B1000082FF7D32035203602E01DE040F21A6B73
:102B20002168486B10EA0B0FD1D02068406BC005BC
:102B30000BD5B8F1010F08D9206A18B1012801D0CE
:102B4000022802D12046FFF7FDFE2168486B0007EE
:102B500005D50820886304200DB0BDE8F08F486BD0
:102B6000800702D502208863F6E7486BC00603D5CC
:102B7000102088630520EFE7486B800504D54FF4EB
:102B8000007088630720E7E740F2FF5088636946DA
:102B9000204601F033FF0028DED19DF80010072900
:102BA000F5D00629F3D0D7E770B5040004D094F827
:102BB0005100002510B106E0012070BD84F850508E
:102BC000204600F033F8022084F8510020680168A4
:102BD00021F040010160D4E901010843D4E9031266
:102BE0001143084361690843218B01F400710843D4
:102BF000E1690843216A0843A16A08432168086023
:102C0000A069042101EA1040616A08432168486014
:102C10002168E06A08612068C16921F40061C1612E
:102C20006565012084F85100002070BD2DE9F04158
:102C3000074600682B492C4C0225012686B04FF030
:102C4000050888421AD1206840F001002060206801
:102C500000F00100059024481430016841F48051CF
:102C600001600068694600F480500590E0208DE81E
:102C70006100CDE903581D48FEF7A0FC1C493868E7
:102C800088422CD1206840F008002060206800F0C5
:102C900008000590206840F002002060206800F0E5
:102CA0000200059010481030016841F400410160B5
:102CB0000068694600F40040059018208DE8610026
:102CC0000620CDE903500B48FEF778FC40208DE844
:102CD0006100CDE9035869460748FEF76FFC06B06E
:102CE000BDE8F08100300140303802400000024071
:102CF000003C004000040240000C02402DE9F84373
:102D0000044690F85100DDF82080012801D02228E7
:102D10007ED169B162B15BB194F85000012877D0DF
:102D2000012684F8506094F85100012803D005E092
:102D30000120BDE8F883322084F851000025656544
:102D4000A263A387E3872163A386E386A564E56482
:102D5000A06A4FF40057B84209D12068016821F4F5
:102D6000005101602068016841F400510160206851
:102D70000168490603D4016841F040010160E06840
:102D80004FF48271B0F5006F606807D0002867D0FB
:102D900088426ED1E08E012862D06AE020B188427C
:102DA0000CD1E08E012809D1206B21680088C86011
:102DB000206B801C2063E08E401EE086E08E80B990
:102DC000A06AB84244D12068016841F48051016092
:102DD0003EE02068C068A16B0880A06B801CA063E7
:102DE0009EE0434600220221204602F0BFF8002860
:102DF00074D1206B21680088C860206B801C206320
:102E0000E08E401E0004000CE08609D1A06A00E0BC
:102E1000C7E0B84204D12068016841F480510160E4
:102E2000434600220121204602F0A0F800286FD17D
:102E30002068C068A16B0880A06B801CA063E08F35
:102E4000401EE087E08E0028CBD1606800286AD160
:102E5000434600220121204602F088F8F0BBB8E783
:102E6000206B411C216321680078C860E08E401E01
:102E7000E086E08E98B9A06AB84204D12068016863
:102E800041F480510160434600220121204602F0B6
:102E90006DF818BB2068C068A16B087040E043461D
:102EA00000220221204602F061F8B8B9206B411CD3
:102EB000216321680078C860E08E401E0004000C89
:102EC000E08607D1A06AB84204D12068016841F4C5
:102ED0008051016000224346012100E018E02046B5
:102EE00002F044F8A0B92068C168A06B421CA2633C
:102EF0000170E08F401EE087E08E0028CFD160682F
:102F000088B9434600220121204602F02FF808B17B
:102F100003200EE72068C168A06B421CA263017009
:102F2000E08F401EE087A06AB84210D143460022DD
:102F30000121204602F01AF818B1606D40F002003D
:102F40000FE02068C068ADF80000BDF800004346FF
:102F500001228021204602F009F820B1606D40F086
:102F600020006065D4E784F8516020688168A26A17
:102F7000C1F30011BA4210D179B1616D41F0020183
:102F80006165016821F4005101602068016841F425
:102F90000051016084F85050CAE684F85050002077
:102FA000C7E60220C5E64FF0E0210428086903D0F7
:102FB00020F004000861704740F00400FAE710B503
:102FC000401EB0F1807F01D3012010BD4FF0E024FE
:102FD00060610F21601700F013FC0020A061072042
:102FE0002061002010BD704790F839007047000044
:102FF00038B5016804460868CA6810F0010F02F489
:10300000807207D032B1086848680090E06B40F0E9
:103010000100E06308684A69C0F3400002F0010261
:1030200038B132B1086848680090E06B40F00400A5
:10303000E06308684A69C0F3800002F0010238B119
:1030400032B1086848680090E06B40F00200E0632D
:103050000868C0F3C002486900F001003AB130B11D
:10306000086848680090E06B40F00800E06308687A
:10307000C968C0F3401001F0200118B111B1204619
:1030800002F04AFA21680868C968C0F3C01001F06C
:10309000800118B111B1204602F04EFB216808688A
:1030A000CA68C0F3801002F04002012570B16AB115
:1030B000CA68204622F04002CA6094F839103229CA
:1030C0000DD080F8395000BF00F042F9E06B0028C5
:1030D00004D084F839502046FFF785FF38BD2221FF
:1030E00080F83910F0E770B5040004D094F8390086
:1030F000002510B106E0012070BD84F8385020464C
:1031000000F020F8022084F839002068C16821F41A
:103110000051C160204602F053FA2068016921F491
:10312000904101612068416921F02A0141612068D4
:10313000C16841F40051C160E563012084F83900A1
:10314000002070BD10B500681A4986B088422FD1A2
:103150001948016841F001010160006800F00100B8
:10316000059015481430016841F0100101600068B5
:10317000012100F0100005904FF400700090022033
:10318000CDE90101039007200C4C049069462046CC
:10319000FEF714FA2015009069462046FEF70EFA55
:1031A0002520FEF743FB032211462520FEF74AFBAC
:1031B00006B010BD0010014030380240000002404F
:1031C00090F83930012B01D0122B2CD139B332B306
:1031D00090F83830012B26D0012380F838308162F6
:1031E0008285C2850021C16390F83920122A18D047
:1031F0005FF0220280F839200268D36843F48073BC
:10320000D3600268536943F00103536180F83810BA
:103210000068C16841F02001C160002070470120B2
:1032200070473222E6E702207047000030B50068A0
:10323000114988420CD1114841880A0408D4024639
:103240004C0412784FF0000306D50A2A01D04380BF
:1032500030BD41F400410DE00D2A09D0C1F30D0449
:10326000074D491C89B22A554180C729EFD830BD86
:1032700041F48041418030BD00100140A400002095
:10328000601E00202DE9F047044690F83900994669
:103290000D46012801D0222858D12DB322B394F82D
:1032A0003800012852D0012684F838600027E763EF
:1032B00094F8390022281AD05FF0120084F83900FF
:1032C000A284E2844FF48058E08C4B46401EE08498
:1032D000A0684FF0000240454FF08001204613D116
:1032E00002F05DFA08BB04E00120BDE8F08732205F
:1032F000E4E728882168C0F308004860206908B125
:103300006D1C08E0AD1C06E002F049FA68B92168BE
:1033100015F8010B4860E08C0028D5D14B460022FF
:103320004021204602F03BFA08B10320DDE794F883
:103330003900322806D084F8396000BF84F838702C
:103340000020D2E7222084F83900F7E70220CCE7FA
:10335000704700000E4810B5016886B041F01001BA
:1033600001600068012400F0100005904FF4404017
:10337000CDE900040220CDE9024069460548FEF788
:103380001DF90548C0F8BC42C0F8B84206B010BDEF
:1033900030380240001002400000424230B50E4971
:1033A0000A6822F040420A600A6842F080420A60DD
:1033B0000A490023C1F8B8321A460124C509C1F8E8
:1033C000BC524006000EC1F8B842C1F8B832521CD7
:1033D000D2B2082AF2D330BD0010024000004242AF
:1033E0000A48016821F040410160016841F08041D4
:1033F000016007480121C0F8BC12C0F8B8120021D2
:10340000C0F8BC12C0F8B8127047000000100240AB
:10341000000042420A48016821F040410160016811
:1034200041F08041016007480021C0F8B812C0F89F
:10343000BC120121C0F8B812C0F8BC1270470000DD
:1034400000100240000042420F4900B50A68002007
:1034500022F040420A600A680A600C490122C1F861
:10346000BC22C1F8B82207E0401CC0B2FA2803D938
:10347000FFF7D0FF012000BDD1F83C22002AF3D194
:103480000020C1F8B80200BD001002400000424216
:10349000F0B500230A24302537261F4611E000BF6F
:1034A000B4EB107F02D905EB107C01E006EB107C39
:1034B00001F813C001EB430C00015B1C8CF8017098
:1034C000DBB29342ECD3F0BD70B50E4905460E4C0D
:1034D000087B38B9886828B1607818B90121284676
:1034E000FDF7B8FC81212846FDF7B4FC607802287E
:1034F00007D12846BDE870401F23024A0121FDF78D
:103500007FBC70BDE0CB0220300100202DE9F041EE
:10351000294C074604F1200660687060A068B0601E
:103520000121384602F0F6FA244D1F280CD1244917
:103530002068884208D12348617B0078814203D803
:10354000A07B08B1102807D9607B2022052100F05C
:103550005FFF0220687006E0174A38460F3200F01D
:10356000FFFC002804DA3846BDE8F041FFF7ACBFA5
:10357000287802281ED001281CD003281AD0698878
:1035800091B1A3686A6838468B4200D219468BB263
:10359000B168C91AB1600021317304212970BDE8F6
:1035A000F0418121FDF772BC3846BDE8F0410021B1
:1035B00000F096B8BDE8F081E0CB02203001002099
:1035C000555342436401002010B5094C6278022A29
:1035D00008D009060BD5012A09D0BDE81040012109
:1035E00000F07EB88121FDF735FC0020607010BD31
:1035F0003001002010B504460C480078022805D0A0
:10360000032801D0042810D1002109E0084800F166
:103610000F02417B204600F0A3FC002805DA0121BF
:103620002046BDE8104000F05BB810BD300100201E
:10363000E0CB022010B504460C48007880B1012888
:1036400013D10B4800F10F02417B204600F088FCAB
:1036500000280ADA2046BDE81040012100F040B8F9
:103660002046BDE81040FFF751BF10BD30010020DB
:10367000E0CB022001490020087070473001002093
:1036800010B504460C480021017041700B480068D9
:1036900001680020884701212046FDF787FB812132
:1036A0002046FDF783FB20461F23BDE81040044A57
:1036B0000121FDF7A5BB0000300100201802002009
:1036C000E0CB0220044900221F230A7001224A7025
:1036D000024A0121FDF794BB30010020E0CB02201B
:1036E00010B50C4A04460A48106011730A490020BC
:1036F0000D23087081212046FDF7C8FB054A2046AE
:103700001F23203ABDE810400121FDF779BB0000DE
:103710005553425300CC0220300100202DE9F04FD8
:103720008346C2EB82100C4688464FEAC00A002549
:103730004FF6FF7914480AEB05010026475C38066E
:1037400001D5012200E000222146584600F0F4F89D
:10375000641CE4B2A4EB080009EA47073F280CD038
:10376000761CB6B2082EEAD36D1CADB2B5F5FC7F5F
:10377000E0D3BDE8F04F00F0F1B90BF10100444691
:1037800000F0FF0BF0E70000F234010808A003F09E
:103790009BFD05F043F848B10AA000BF07F037FAD7
:1037A00004F052FE64200CF01AFDF9E70DA0F5E7D5
:1037B0004E46435F5472616E736665725F54617307
:1037C0006B0A0000496E697469616C697A61746999
:1037D0006F6E207375636365656465642E2E0D0AD4
:1037E00000000000496E697469616C697A617469EE
:1037F0006F6E206661696C65642E2E0D0A000000F4
:103800000907090E002806DA00F00F0000F1E02099
:1038100080F8141D704700F1E02080F80014704714
:1038200010B40021084B0A465FF0000003EBC0040F
:10383000401CC0B262548028F8D3491CC9B2082980
:10384000F2D310BC00F08AB9991F00200CA003F03D
:103850003BFD4FF47A7400BFFFF7E2FF0DA2002199
:103860000C2001F0A3FC0C210AA2084601F09EFCEA
:1038700000F074F9FDF7B8F920460CF0B0FCEBE766
:103880004F4C45445F446973706C61795F54617358
:103890006B0A0000B6CEBAE3B1F300002DE9FE4F8B
:1038A000161ACDE900104FF000085D1A47464FF098
:1038B000FF30002E02DD4FF0010102E003D14FF096
:1038C00000018B4602E08346C6F10006002D02DDB2
:1038D0004FF0010002E003D14FF00000824602E009
:1038E0008246C5F10005AE4201DD344600E02C46BB
:1038F000601C4FF00009029019E000980C9AC1B2C8
:103900000198C0B200F018F8B0442F44A04504DD7F
:103910000198A8EB040858440190A74203DD0098E1
:103920003F1B5044009009F101001FFA80F90299F1
:103930008945E2DDBDE8FE8F10B57F2816D83F2906
:1039400014D80723A3EBD10301F00701C1F1070449
:103950000121A140064CDBB204EBC000002AC25C8E
:10396000C9B201D00A4300E08A43C25410BD00002E
:10397000991F00202DE9F8411D460124164688466E
:1039800007460B460094FFF789FF3A462B4641460F
:1039900010460094FFF782FF2B4632461946384600
:1039A0000094FFF77BFF32462B46414610460094B9
:1039B000FFF774FFBDE8F8812DE9F0431E46174676
:1039C00088460546DDF81C900CE0444606E04A4671
:1039D00021462846FFF7B0FF641CE4B2B442F6D992
:1039E0006D1CEDB2BD42F0D9BDE8F04300F0B6B8B1
:1039F00070B5554886B00026016841F001010160AC
:103A0000016801F001010591016841F008010160C0
:103A10000068012400F0080005904FF40040CDE953
:103A200000040220CDE9024069464848FDF7C6FD82
:103A30001120474D009069462846FDF7BFFD2A201A
:103A4000009069462846FDF7B9FD0022202128464E
:103A5000FDF79FFE3F48C0F8BC423F4DC5F880428D
:103A6000C5F89042C5F88442C5F88C62642005F51B
:103A700020750CF0B4FBEC600021AE2000F094F84F
:103A80000021D52000F090F80021502000F08CF8A3
:103A90000021A82000F088F800213F2000F084F8E1
:103AA0000021D32000F080F80021084600F07CF8C7
:103AB0000021402000F078F800218D2000F074F8FB
:103AC0000021142000F070F80021202000F06CF894
:103AD0000021022000F068F80021A12000F064F825
:103AE0000021C02000F060F80021DA2000F05CF82E
:103AF0000021122000F058F80021812000F054F835
:103B00000021EF2000F050F80021D92000F04CF8FF
:103B10000021F12000F048F80021DB2000F044F8FB
:103B20000021302000F040F80021A42000F03CF8F3
:103B30000021A62000F038F80021AF2000F034F872
:103B4000FFF76EFE06B070BD303802400000024044
:103B5000000C0240000040420080414270B5114E0E
:103B6000002400BF04F1B000C0B2002100F01CF836
:103B70000021084600F018F80021102000F014F889
:103B80005FF0000506EBC5000121005D00F00CF8B8
:103B90006D1CEDB2802DF5D3641CE4B2082CE1D38A
:103BA00070BD0000991F002070B50F4AC2F8841242
:103BB0000023C2F890320D4D19460124C2F880321C
:103BC000060602D5C5F8BC4201E0C5F8BC32C2F811
:103BD00080424006491C000EC9B20829EED3C2F843
:103BE0009042C2F8844270BD0080414200004042D1
:103BF000014802F075B80000200400200248016866
:103C000041F4003101607047045801402DE9F04152
:103C1000074615460E461848FEF704FB164C174893
:103C20004FF40051C4E900070020A060C4E904106B
:103C30000121A1610905E161A062C4E90D054021EE
:103C4000E063C4E910612021A164C902C4E9131032
:103C50008900C4E915108020E065022020664FF439
:103C6000403060662046FEF7FFFA2068016841F4A4
:103C700080310160BDE8F081801D002004580140C2
:103C800030B5044600211F488DB00A22B4FBF2F380
:103C900001EB810530F81550AB4203D0491CC9B285
:103CA0000B29F3D30B292AD001EB8101022200EB6F
:103CB000410000924188019181880391C088401C95
:103CC00007906846FDF736FE0F48016821F4401161
:103CD00041F4801101600D4D2868016821F48031A4
:103CE000016028462C62FEF7BFFAFFF787FF2868BD
:103CF000016841F48031016000200DB030BD012029
:103D0000FBE70000C41C01088C380240801D002025
:103D10002DE9F84316460F460022804611465BB156
:103D2000012B02D0022B07D103E04FF40052911077
:103D300002E04FF4804291102C4B00201C6844F4A8
:103D400080041C601B682A4C03F480030093A4F1D8
:103D50008803284D1C672560A3634023C4E9010341
:103D6000C4E905121B019910E161C4E9030349028A
:103D7000C4E90810E06220632046FDF7ABFB204653
:103D8000FDF7D4FB3B461C4A414620460096FDF712
:103D900073FB2068016821F001010160206801685F
:103DA00041F01001016021684FF00060A94202D982
:103DB00010494C3904E0114A914203D90D49503958
:103DC000086008E00D4B0D4A603BB83A994201D9B2
:103DD000D06000E09060002211463B20FDF732FDEC
:103DE000BDE8F8433B20FDF721BD0000303802401C
:103DF000081E00205864024020580140B86002406C
:103E0000C068002138B1022802D0042803D101E0A3
:103E1000102100E020210148016070470058014056
:103E200070B50446FDF7BAFC064620680025016817
:103E300021F4803101600EE0FDF7B0FC801B0A2800
:103E400009D9D4F8840040F04000C4F88400032568
:103E50002046FEF708FA20680068C003ECD4284624
:103E600070BD000010B5254C25490368C269A34206
:103E70000B6804D123F4401313430B6004E023F4D4
:103E8000400343EA82020A601D4A883A13681268B6
:103E90005B0202F03F0201D41A4B00E01A4BC069EA
:103EA000B3FBF2F240B1B0F5801F14D017490120E6
:103EB000C1F85C01164810BD114B1B1F18681B6828
:103EC000C0F30360C3F388135343B3FBF0F20868F5
:103ED000C0F304200DE00A48083803680068C3F303
:103EE0000363C0F388105043B0FBF3F2086800F09E
:103EF0001F00401CB2FBF0F010BD00000458014050
:103F00008C3802400024F40040787D0100004742D4
:103F10000080BB0003480068016841F001010160B6
:103F200070470000081E002003480068016821F067
:103F30000101016070470000081E00201144074A7B
:103F400000B552F82020914206D92122052100F027
:103F50005FFA4FF0FF3000BD002000BD30CC0220E2
:103F60002DE9F0410B464C490024661EC8604C48C0
:103F700017784A4D0168232F70D00FDC1A2F57D0C5
:103F800007DC48480068CFB1032F2ED0122F11D183
:103F900031E01B2F4AD01E2F0CD147E02A2F6FD0C3
:103FA00004DC252F60D0282F04D163E02F2F6DD0A3
:103FB0005A2F47D02022052118460EE03A491F46C5
:103FC0008A681AB1487B2022052106E081681846DC
:103FD000884738B13A220221384600F019FA3046B3
:103FE000BDE8F0812C800020FAE7BDE8F0411146E1
:103FF000184600F0D9B95678F60703D007202B4BA6
:1040000028800CE0C06903EBC30300EB8303127943
:104010001879401D824200D81046288003E0401ED7
:1040200080B21A5C0A540028F9D114E02C8012E006
:1040300008201F4A2880401E0004000C135C0B540B
:10404000F9D108E008201B4A2880401E0004000C1B
:10405000135C0B54F9D12046C2E7FFE7BDE8F041FD
:104060001146184600F066B9BDE8F0411146184601
:1040700000F01EB9BDE8F0411146184600F0BAB88C
:10408000BDE8F0411146184600F002BABDE8F04123
:104090001146184600F0D2B99001002032010020EC
:1040A0003401002018020020E0CB0220483B010828
:1040B0004F3B0108573B01082DE9F0411F4D804659
:1040C0004FF40040AC68844200D304466A6800277D
:1040D000B4FBF2F086B2D5E904013B46FCF71CF9CB
:1040E000024617483346174E00683168D0F810C0B2
:1040F0004046E047002807DA11220421404600F03C
:1041000087F9781EBDE8F081234681213268E8688E
:10411000FCF7BCFED5E9041009197841C5E9041083
:10412000A8680949001BA8608A68A2EB04028A609B
:1041300002D10649032008700020E3E79001002027
:10414000180200203401002000CC022030010020A1
:104150002DE9F047234C4FF400468146A568B5424F
:1041600000D3354662684FF00008B5FBF2F087B225
:10417000D4E904014346FCF7CFF802461A483B460F
:104180001A4F00683968D0F814C04846E047002844
:1041900008DA03220421484600F03AF94FF0FF30D4
:1041A000BDE8F087D4E90410491940EB0800C4E9E0
:1041B0000410A0680E49401BA0608A68A2EB0502AB
:1041C0008A600AD0B04200D3304683B201213A68F7
:1041D000E068FCF715FE0020E2E70021E068FFF749
:1041E0007FFAF8E790010020180200203401002037
:1041F00000CC02202DE9F047284F81460E46387842
:10420000F0BB274D4FF0FF38287B000636D52548F8
:10421000006881684846884728B13A22022148460A
:1042200000F0F6F813E0D6F802001F4C00BA20F0B8
:10423000FF0170790143C817C4E90410B6F80700FC
:1042400042BA4846A260FFF779FE002802DA4046EB
:10425000BDE8F08702203870D4E9042360680021AB
:10426000A2FB006703FB007302FB0131C4E9046198
:10427000A1684143A160A868884205D0687B00E03E
:1042800002E020220521CBE708494FF400400880D6
:104290004846BDE8F047FFF70FBF0000300100209F
:1042A000E0CB022018020020900100203201002003
:1042B00070B504461B481A4D1B4A006805EB840183
:1042C00043682046984738B13A220221204600F040
:1042D0009FF84FF0FF3070BD55F82400401E020ECD
:1042E000124801680A7055F82400401E000C4870FE
:1042F00035F82400401E000A887015F82400401E7E
:10430000C8700948001F4068020E0A71020C4A7109
:10431000020A8A71C871064908200880002070BD11
:1043200030CC02201802002094010020340100202B
:10433000320100207CB5194C0546002120680A4650
:104340004254491C89B20C29FAD315486A4601A97E
:10435000006843682846984738B13A220221284627
:1043600000F056F84FF0FF307CBD20680821C17086
:104370000199491E0A0E02710A0C42710A0A8271E1
:10438000C1710221017200990A0C42720A0A8272FA
:10439000C17204490C20088000207CBD340100203B
:1043A000180200203201002070B515480022144682
:1043B00000688454521CD2B2122AFAD370220270BE
:1043C000104B0C22C2711A785D78AA420FD00E4DA4
:1043D00015F8326005EBC20586706E7906732D798B
:1043E0004573521CD0B21870042800D11C700748C5
:1043F000122202800979122900D80180002070BDA4
:10440000340100209001002010CC02203201002055
:1044100010B50948074C437804F83310110204EB37
:10442000C3025B1C5160D9B24170042901D1002143
:10443000417010BD10CC02209001002070B50A46DA
:1044400049784FF0FF34890704D524220521FFF76E
:10445000DFFF12E0D2F80210537909BA21F0FF0110
:104460001943094BCD17C3E90415B2F8072052BA16
:104470009A60FFF763FD002801DA204670BD03490A
:104480000020088070BD0000900100203201002053
:104490002DE9F0472F4F81460E46387820B1484627
:1044A000BDE8F047FFF754BE2B4D4FF0FF38287B97
:1044B00000063CD4294C206881684846884720B1D2
:1044C0003A2208E0FFF7A4FF1CE02068C1684846D4
:1044D000884718B1272202214846F3E7D6F80200A0
:1044E0001F4C00BA20F0FF0170790143C817C4E9DE
:1044F0000410B6F8070042BA4846A260FFF71EFD56
:10450000002802DA4046BDE8F087D4E9041260686A
:104510000023A1FB006C02FB00C201FB0321C4E9E4
:104520000461A1684143A160A868884203D02022A9
:10453000687B0521C6E701203870C003814200D3A3
:10454000014608488BB201210268E068FCF758FC7C
:104550000020D8E730010020E0CB02201802002024
:1045600090010020340100200A6842624A68826299
:10457000D1E902231A43D1E904310B43C16A1A433A
:1045800021F0F7011143C162002070470069C0B2F9
:104590007047006800F003007047000008B502494A
:1045A00008440090006808BD142C014070B50DF15E
:1045B000100C11439CE870002343194329434268BF
:1045C000314347F6FF639A430A434260002070BDBF
:1045D0000321016000207047D0F8800070470A680E
:1045E0008260D1E901231A43D1E903310B43C16849
:1045F0001A436FF30B011143C16000207047096833
:10460000C0F880100020704770B5054600680E465F
:104610000024416B11F0450FFBD0416B490703D5D6
:1046200003210422826304E0416BC90703D0012106
:104630008163084670BDFFF7A9FFB0422BD12968FE
:1046400040F2FF5088630020FFF7A8FF2849084286
:104650004BD0002801DA1C2070BD410001D5092093
:1046600070BD810001D50A2070BDC10001D50B20AD
:1046700070BD010101D50C2070BD410101D50D2097
:1046800070BDC10101D50E2070BD010201D50F2002
:1046900070BD410201D5102070BD810201D51120ED
:1046A00070BDC10201D5122070BD010301D51320D8
:1046B00070BD410301D5142070BD810301D51520C3
:1046C00070BDC10301D5162070BD010401D51720AE
:1046D00070BD410401D5182070BD810401D5192099
:1046E00070BD000701D51A2070BD204670BD0000C6
:1046F00008E0FFFD0146002009684A6B12F0450FF3
:10470000FBD04A6B520702D50320042207E04A6B14
:10471000D20702D001208863704740F2FF528A63BB
:1047200070472DE9F0410446006815460E46002703
:10473000416B11F0450FFBD0416B490703D50321B5
:104740000422826304E0416BC90704D00121816324
:104750000846BDE8F081FFF719FFB04212D1216889
:1047600040F2FF5088630020FFF718FF10F4604FFD
:1047700003D0810404D51320EBE7000C288007E068
:10478000410401D51020E4E7000401D50F20E0E743
:104790003846DEE70146292009684FF480324B6B2A
:1047A00013F0450F07D14B6BA2F1010213F0450F37
:1047B00001D1002AF7D14B6BC3F3800302B113B1CF
:1047C0000320042204E04A6B520602D50020402256
:1047D0008A6370472DE9F04F91B000250F4606958A
:1047E00008261021CDE90061402107950446CDE956
:1047F000021508010490A84669462068FFF7EFFEFD
:1048000010212046FFF700FF002844D1A08C694604
:1048100000040090372001902068FFF7E0FE372168
:104820002046FFF7F1FE002835D1401ECDE90806ED
:1048300030204FF00209CDE90A090120CDE90C80B2
:10484000B246464608A92068FFF78EFE3320CDE920
:10485000006069462068FFF7C2FE33212046FFF75B
:10486000D3FE060017D10DF1180B40F22A6820681C
:10487000416B11EA080F08D1416B8902F7D5FFF7A8
:10488000ABFE4BF825006D1CF1E7416B090705D520
:10489000C0F838A0042011B0BDE8F08F416B890743
:1048A00003D5C0F838904846F5E7416B890603D533
:1048B000202181630620EEE7416B890504D54FF482
:1048C000007181630720E6E740F2FF51816306989B
:1048D00000BA7860079800BA38603046DBE700001D
:1048E0000E4810B50C490160002141608160C16033
:1048F00001614161816100F16001FDF7D3FE08B102
:10490000012010BD4FF400610448FEF731F8002883
:10491000F7D0022010BD0000002C0140C81A002072
:1049200070B586B004460120ADF81400002520685B
:10493000FFF72FFE58B3206A04285DD00020022123
:10494000C0268DE843000390480204906946206821
:10495000FFF745FE2046FFF7CDFE050018D1FFF713
:104960001DFEA0630420FFF719FEE0630820FFF797
:1049700015FE20640C20FFF711FE6064206A48B128
:10498000012807D0062805D0022803D011E02520F1
:1049900006B070BD03200190402002906946206857
:1049A000FFF71DFE05AA03212046FFF7BAFE05000A
:1049B000EED1206A04281FD0BDF814006062000404
:1049C00000900920CDE9010669462068FFF707FE3F
:1049D0002046FFF78FFE0500DAD1FFF7DFFDA0626A
:1049E0000420FFF7DBFDE0620820FFF7D7FD20631E
:1049F0000C20FFF7D3FD60632846C9E770B586B089
:104A0000044600260D460096A18C090401910D2153
:104A100002914021CDE903160801059001A9206803
:104A2000FFF7DDFD2068416B11F0450FFBD0416BB6
:104A3000490703D503210422826304E0416BC907BF
:104A400004D001218163084606B070BDFFF79EFDCA
:104A50000D2838D1216840F2FF5088630020FFF70D
:104A60009DFD0090C0F34320287032490098084211
:104A70005DD00098002801DA1C20E5E7400001D550
:104A80000920E1E70098800001D50A20DCE70098C2
:104A9000C00001D50B20D7E70098000101D50C20FC
:104AA000D2E70098400101D50D20CDE70098C00164
:104AB00001D50E20C8E70098000201D50F20C3E7FA
:104AC0000098400201D51020BEE70098800201D571
:104AD0001120B9E70098C00201D51220B4E7009870
:104AE000000301D51320AFE70098400301D514203F
:104AF000AAE70098800301D51520A5E70098C00318
:104B000001D51620A0E70098000401D517209BE7E7
:104B10000098400401D5182096E70098800401D53C
:104B2000192091E70098000701D51A208CE730463C
:104B30008AE7000008E0FFFD2DE9F04F87B000256F
:104B400004468DF80050564EA846A94646F8A05F88
:104B50000068FFF73DFD01273760BE02CDE904562E
:104B600001950295039501A92068FFF738FD236898
:104B70000021B0015A6BC2F3C01204E05A6B401E10
:104B8000C2F3C0120DD0002AF8D050B140F2FF504D
:104B9000C3F838008DF800109DF8000000287AD185
:104BA00001E00321F6E74FF4D570019008204FF0A3
:104BB000400ACDE9020A01A92068FFF710FD20464E
:104BC000FFF7E8FD8DF800009DF8000010B94FF0E8
:104BD000804927623727CDE9015701A92068FFF7EF
:104BE000FEFC37212046FFF70FFD8DF800009DF8F1
:104BF0000000D8B34FE00397CDE9015BCDE904563F
:104C000001A92068FFF7EBFC37212046FFF7FCFCE9
:104C10008DF800009DF8000048BB2249CDE90456FC
:104C200049EA010001902920CDE9020701A9206885
:104C3000FFF7D5FC20680021426B12F0450FFBD036
:104C4000426B520702D50321042201E040F2FF52D9
:104C500082638DF800109DF8000040B90020FFF736
:104C60009DFCC10F08F1010805D008E000E012E04A
:104C7000BB465746BFE74FF6FF718845BBD34FF69B
:104C8000FF72904503D31B208DF8000003E0400025
:104C900001D5022020629DF8000007B0BDE8F08F2A
:104CA00000802542000010802DE9FC5F91460646F9
:104CB0004FF00008CC0D4F020AF002FCB1074FF490
:104CC00000701CD000254FF0010B824614E06802F2
:104CD000C219124944EBE073A1F1B800CDE900AB71
:104CE000FDF772FD804652460C493046FBF745FB06
:104CF0006D1CEDB206F500764D45E8D309E0CDE92F
:104D0000000906483A4623463146B838FDF75CFDAF
:104D100080460AF0E3FB4046BDE8FC9F801B002074
:104D200030B589B000250446019528460295FFF765
:104D300035FC800102D50E2009B030BD01A9204606
:104D4000FFF748FD0028F7D10298C0031FD5A08CBB
:104D500003A900040390372004904020CDE9050505
:104D6000000107902068FFF73AFC37212046FFF743
:104D70004BFC0028E0D10620CDE9035003A92068B0
:104D8000FFF72DFC06212046FFF73EFCD4E7252047
:104D9000D2E730B589B00025044601952846029532
:104DA000FFF7FCFB800102D50E2009B030BD01A940
:104DB0002046FFF70FFD0028F7D10298400320D5C9
:104DC000A08C03A900040390372004904020CDE973
:104DD0000505000107902068FFF701FC37212046F8
:104DE000FFF712FC0028E0D1022003900620049077
:104DF00003A92068FFF7F3FB06212046FFF704FC18
:104E0000D3E72520D1E700002DE9FC5F9146064657
:104E10004FF00008CC0D4F020AF052FBB1074FF4DF
:104E200000701CD0002582464FF0010B14E0524662
:104E300031461248FBF7A1FA6802C2190F4944EB48
:104E4000E073A1F1B800CDE900ABFDF7C1FD6D1C29
:104E50008046EDB206F500764D45E8D309E0CDE990
:104E6000000906483A4623463146B838FDF7B0FDFA
:104E700080460AF033FB4046BDE8FC9F801B0020C3
:104E800010B5124C1048022120604FF4827060600F
:104E90000020A060C4E90301012161614902A16110
:104EA0003821C4E907106062A0620720E062204652
:104EB000FDF77AFE2068016841F040010160BDE81D
:104EC0001040FF2000F004B800300140141A002008
:104ED00001B582B04FF47A700090012301AA02A9B3
:104EE0000248FDF70BFF9DF804000EBD141A0020C8
:104EF0000B4910B50A68136823F0400313600A6871
:104F000013684FF6C774234013600A68136803439D
:104F100013600868016841F04001016010BD0000A5
:104F2000141A002010B5104C0E48022120604FF4D6
:104F3000827060600020A060C4E90301012161610A
:104F40004902A1613821C4E907106062A06207200C
:104F5000E0622046FDF728FE2068016841F040012C
:104F6000016010BD003C00406C1A00202DE9F047A4
:104F70001D4690460E460446FCF710FC07465FEAC5
:104F800008004FF000084FF4005A4FF0010926D0F6
:104F900034E0681C23D025B1FCF700FCC01BA842FC
:104FA0001DD92068416821F0E00141602068016856
:104FB00021F040010160A06A504509D120680168D4
:104FC00021F4005101602068016841F40051016042
:104FD00084F8519084F850800320BDE8F087206861
:104FE000806836EA0000D4D10DE0681C06D0002DA0
:104FF000D7D0FCF7D3FBC01BA842D2D8206880686A
:1050000036EA0000F1D00020E7E70000022809D1CD
:10501000000210600448826CB0F84C00C30543EAFB
:105020005220086000207047281B00200449D1E965
:105030001201084301D00220704701207047000090
:10504000281B0020014610B50020022901D1FFF7DE
:1050500047FC40B210BD00000348017841F0100148
:105060000170002070470000F4010020002070470C
:1050700070B50C4C15460E4601462278002042F0D1
:105080000202227002290BD11A4629463046FFF748
:105090000BFE40B2002803D0217841F008012170B6
:1050A00070BD0000F401002070B50C4C15460E4692
:1050B00001462278002042F00102227002290BD121
:1050C000DAB229463046FFF79FFE40B2002803D0EF
:1050D000217841F00401217070BD0000F40100202E
:1050E00010B5012102A00AF008FD0849086110BDB1
:1050F0005553426F72417564696F5573696E67539A
:1051000044494F5F4D75746578000000140000201D
:105110002DE9FF4FA1B082460C46DDE92E5001215A
:105120009B46A14620910C2D05D0102D03D0182DA3
:1051300001D0202D37D1EAB26946FCF751F90020A1
:105140002DE023998A452ED81DF8087000265C456D
:105150000ED8380604D5E1B20AF0FF00209A05E027
:10516000209898B10022E1B20AF0FF00FEF7E4FBBC
:105170007806641C070EA4B2A4EB0900A84207D16C
:105180000AF101004C461FFA80FA05E00122EAE725
:10519000761CF6B2082EDAD308F10100C0B28046C0
:1051A000B0EB450FCDD325B0BDE8F08F2DE9FC471E
:1051B00004468A4616464FF000080C271046FBF7B7
:1051C0001AF900EB40008006050E0AF10C0000F011
:1051D000FF092CE0B8F1000F15D1802813D80090FA
:1051E0004B462A465146204600F026F8281BB0EBD5
:1051F000570F03DD04EB5700C4B200E02C46AC426D
:1052000018D2761C13E0CDE900764FF000084B462B
:105210002A4651462046FFF77BFF281BB84202DD95
:10522000E019C4B200E02C46AC4203D2B61C307880
:105230000028CFD1BDE8FC872DE9FF4F81B00C4697
:105240008146884601210E980C270091202802D91A
:105250002038C0B200E000201C4900EB40000025CF
:1052600001EB800B03991BF8056089452AD84FF0A4
:10527000000A300601D5009A02E00098A8B1002289
:1052800021464846FEF758FB7006641C060EE4B241
:10529000A4EB0800B84202D00498844207D909F16F
:1052A0000100444600F0FF0908E00122E8E70AF1A6
:1052B000010000F0FF0ABAF1080FDAD36D1CEDB25D
:1052C000BD42CFD305B0BDE8F08F0000321D01080C
:1052D00070B51E4C92B00025266846F080562660B8
:1052E000246804F080541194194C266846F4404612
:1052F000266024680DF1240C04F440441194012428
:1053000000940194022406948CE80D006605CDE912
:1053100007616846FCF7E8FD00B1FEE7FCF7C4FA58
:1053200000B1FEE70CA90F2081E831004FF4A05036
:105330000F904FF48050109005210CA8FCF74EFC04
:10534000002800D0FEE712B070BD000040380240D7
:105350000070004010B5FCF727FA0AF0A7FA0BF02E
:10536000C3F8BDE810400AF0AFBA000070B51A4C9F
:1053700020681A4A10F00C01194804D0194D04296C
:1053800003D0082903D002601BE0056019E0124930
:10539000091F0B68C3F380560B6803F03F0316B177
:1053A000B5FBF3F201E0B2FBF3F20B680968C3F35B
:1053B00088135A43C1F30141491C4900B2FBF1F182
:1053C00001602168064AC1F30311121D515C026895
:1053D000CA40026070BD0000083802400024F4009A
:1053E0000000002040787D011048016841F4700100
:1053F00001600F48016841F0010101600C4A002181
:105400000832116002680B4B1A400260031D0A4A01
:105410001A60026822F48022026005480C300160A4
:1054200002495806803908607047000088ED00E0A6
:1054300000380240FFFFF6FE103000242DE9FC4149
:1054400014240120CDE900044FF480684346002273
:1054500019491AA00AF09FFE1C4D4FF400773B46F5
:1054600028600020CDE900040246194919A00AF07D
:1054700092FE686008B10AF0B9FF0226CDE9006427
:105480003B460022184919A00AF085FEA86008B121
:105490000AF0ACFFCDE9006443460022184919A088
:1054A0000AF079FEE860002803D0BDE8FC410AF06C
:1054B0009DBFBDE8FC810000797200085761765FEE
:1054C000506C617965725F5461736B001400002049
:1054D000716C00085553425F5472616E7366657259
:1054E0005F5461736B0000004D3800084F4C454419
:1054F0005F446973706C61795F5461736B00000085
:105500008D3700084E46435F5472616E7366657254
:105510005F5461736B00000010B590F839102229B8
:1055200003D0322901D0022010BD8168B1F5805F1F
:1055300011D00169002901681FD0496801F07F037B
:10554000816A4A1C82620B70C18D491E0904090CD4
:10555000C18518D030E00269816A002A0268526869
:1055600005D0D2B20A80816A491C8162ECE7C2F39D
:1055700008020A80816A891CF7E74A68816A4B1C25
:1055800083620A70E0E70168CA6822F02002CA60FC
:1055900090F83910322911D00168CA6822F480725B
:1055A000CA6001684A6922F001024A615FF00101A4
:1055B00080F83910FDF73AFE002010BD1221F7E700
:1055C0002DE9F04101680446086920F44052E06882
:1055D000104308612268D06849F20C61884323694E
:1055E000A168E569194363692B4319430143D160FD
:1055F0002168486920F44072A06910434861E2695B
:1056000064263225B2F5004F49494A4822681DD028
:10561000824201D08A426AD1FCF716FC00EBC0013D
:1056200001EB00106168B0468900B0FBF1F1B1FBFD
:10563000F8F6FCF709FC00EBC00101EB0010616813
:105640008900B0FBF1F7FCF7FFFB69E0824201D073
:105650008A4219D1FCF7F8FB00EBC00101EB001006
:105660006168B0464900B0FBF1F1B1FBF8F6FCF718
:10567000EBFB00EBC00101EB001061684900B0FBDF
:10568000F1F7FCF7E1FB18E0FCF7C8FB00EBC00109
:1056900001EB00106168B0464900B0FBF1F1B1FBCD
:1056A000F8F6FCF7BBFB00EBC00101EB00106168F2
:1056B0004900B0FBF1F7FCF7B1FB00EBC00101EBD7
:1056C000001061685FEA4101B0FBF1F1B1FBF8F055
:1056D0006FF01801484307EB800005EB0011B1FBA8
:1056E000F8F0216866F31F108860BDE8F081FCF7D0
:1056F00095FB00EBC00101EB00106168B04689002A
:10570000B0FBF1F1B1FBF8F6FCF788FB00EBC00150
:1057100001EB001061688900B0FBF1F7FCF77EFB3C
:1057200000EBC00101EB001061688900CCE70000CC
:10573000001401400010014090F83910122903D0E4
:10574000322901D0022070478168B1F5805F016A7B
:105750000BD04A1C0262026809785160C18C491E54
:105760000904090CC1840ED017E009880268C1F34E
:105770000801516001690029016A02D0491C0162D7
:10578000ECE7891CFBE70168CA6822F08002CA6066
:105790000068C16841F04001C160002070472DE9F8
:1057A000F0471D4690460E460446FBF7F7FF0746B6
:1057B0005FEA08004FF000094FF0010808D030E020
:1057C000681C05D095B1FBF7E9FFC01BA8420DD8B6
:1057D0002068006836EA0000F2D127E0681C20D07B
:1057E00025B1FBF7DBFFC01BA8421AD92068C168AE
:1057F00021F08001C1602068C16821F02001C160F2
:105800002068C16821F48071C1602068416921F07D
:105810000101416184F8398084F838900320BDE8A3
:10582000F0872068006836EA0000D7D00020F6E74D
:1058300070B500240C4D0D48FDF7DAFB02E0641C46
:10584000AC4204D80948FDF7CFFB0128F7D100246A
:1058500002E0641CAC4206D8012205490348FDF76A
:10586000AFFC0028F5D170BDFFFF0100281F00200C
:10587000A400002010B5D0F8E4255268904700201D
:1058800010BD10B5134600240A462146FBF7B8FAAE
:10589000204610BD10B5134600240A462146FBF7EA
:1058A000F5FA204610BD10B504468021FBF7D2FA68
:1058B00000212046FBF7CEFA2046BDE8104000F05C
:1058C00083BF70B505460024052085F811012346E5
:1058D000224621462846FBF793FA284600F074FF3B
:1058E000204670BD10B5C0F83C210223C0F8382115
:1058F00080F81131134600240A462146FBF7C6FA08
:10590000204610BD70B505460024042085F811011D
:105910002346224621462846FBF7B8FA284600F0DF
:1059200053FF204670BD000070B5054641B1D5F863
:10593000E4054269BAB395F8120103284CD04DE052
:1059400095F81101002605F58E74022839D1E16918
:10595000A06881420FD9081AE061E878012803D1D4
:10596000D4E902100844E060A08BE16882B22846C6
:10597000FFF790FF10E0216AB1FBF0F200FB12127A
:1059800092B9814210D3606A81420DD20022114641
:105990002846FFF77FFF666200231A46194628460D
:1059A000FBF72EFA0DE016E0D5F8E405C16829B141
:1059B00095F81201032801D1284688472846FFF7A9
:1059C00080FF95F81601012808D10548006829696B
:1059D000486085F8166101E028469047002070BDB8
:1059E0001C01002070B5054641B1D5F8E405826977
:1059F0000AB395F8120103282CD02DE095F8110177
:105A000005F55D74032827D1E169A068814213D9A7
:105A1000081AE061E878012803D1D4E902100844AB
:105A2000E060E169A068814200D2084682B228465F
:105A3000E168FFF726FF0FE0D5F8E405016929B119
:105A400095F81201032801D1284688472846FFF718
:105A500059FF01E028469047002070BD38B5044644
:105A6000C888ADF8000048880D46010A04294CD2C8
:105A7000DFE801F04B020713D4F8EC15A0780A68B0
:105A800030E0D4F8E415A0788A6A69469047014668
:105A900002204870C4F8F01527E0C0B2062834D2BE
:105AA000DFE800F003080D12171CD4F8EC15A078FD
:105AB0004A6817E0D4F8EC15A0788A6812E0D4F8A8
:105AC000EC15A078CA680DE0D4F8EC15A0780A6946
:105AD00008E0D4F8EC15A0784A6903E0D4F8EC1596
