:020000040800F2
:1000000038CF0220C5010008CD010008CB0200084E
:10001000D1010008D3010008D5010008000000004C
:10002000000000000000000000000000D7010008F0
:10003000D90100080000000017020008736B0008D7
:10004000DF010008DF010008DF010008915300080C
:10005000DF010008DF010008511B0008DF01000874
:10006000DF010008DF010008DF010008DF010008F0
:10007000DF010008DF010008DF010008DF010008E0
:10008000DF010008DF010008DF010008DF010008D0
:10009000DF010008DF010008DF010008DF010008C0
:1000A000DF010008DF010008DF010008DF010008B0
:1000B000596C0008DF010008DF010008DF010008BB
:1000C000DF010008DF010008DF010008DF01000890
:1000D000DF01000881700008DF010008C57000081A
:1000E000DF010008DF010008DF010008DF01000870
:1000F000DF010008DF010008DF010008DF01000860
:10010000DF010008DF010008DF010008DF0100084F
:10011000DF010008DF010008DF010008DF0100083F
:10012000DF010008DF010008DF0100088119000875
:10013000DF010008DF010008DF010008DF0100081F
:10014000DF010008DF010008DF0100085551000849
:10015000DF010008DF010008DF010008DF010008FF
:10016000DF010008DF010008DF010008DF010008EF
:10017000DF010008DF010008DF01000800000000C7
:10018000DF010008DF010008DF010008DF010008CF
:10019000DF010008DF010008DF010008DF010008BF
:1001A000DF010008DF010008DF010008DFF810D0E0
:1001B00000F03CFB0048004785090008AFF30080D1
:1001C00038CF02200648804706480047FEE7FEE792
:1001D000FEE7FEE7FEE7FEE7FEE7FEE7FEE7FEE7F7
:1001E000056C0008AD010008EFF3108072B670478F
:1001F00080F310887047434A1368012B04D04FF0F6
:1002000001031360404A1060404A116040484FF0BB
:10021000805101607047EFF3108272B6394801686F
:1002200051B34FF0000101603748016891B1EFF31D
:1002300009811EF0100F08BF21ED108B21E9F00F8E
:100240004FF000041EF0100F08BF012441F8044DC8
:10025000006801602D490968096808C9B1E8F00F14
:10026000002B18BFB1EC108B81F309884EF0100EF3
:10027000002B18BF2EF0100E82F310884EF0040EE3
:10028000704722490860EFF3148222F0040282F3DF
:1002900014881D494FF0000008601A494FF0010012
:1002A00008601C484FF47F01D0F8002041EA0201A9
:1002B000016017484FF080510160174800680068DE
:1002C00080F3088861B662B670471EF0040F0CBF59
:1002D000EFF30880EFF3098020E9F00F40F804ED18
:1002E00040F804ED1EF0040F0CBF80F3088880F383
:1002F000098800B511F0ACFB5DF804EB4EF0040E7C
:100300007047000004040020FC03002000040020CB
:1003100004ED00E020ED00E008ED00E02DE9F05FE5
:100320000546002092469B46884606468146402464
:100330001BE0284641464746224600F02FF8534628
:100340005A46C01A914110D311461846224600F071
:1003500016F82D1A67EB01084F46224601200021AE
:1003600000F00DF817EB00094E41201EA4F1010426
:10037000DFDC484631462A464346BDE8F09F202A46
:1003800004DB203A00FA02F1002070479140C2F1EC
:10039000200320FA03F3194390407047202A04DB1E
:1003A000203A21FA02F00021704721FA02F3D040EE
:1003B000C2F12002914008431946704710B5431A14
:1003C000934209D28318881803E010F8011D03F83E
:1003D000011D521EF9D210BD40EA01039B0703D054
:1003E00009E008C9121F08C0042AFAD203E011F874
:1003F000013B00F8013B521EF9D210BDD2B201E020
:1004000000F8012B491EFBD270470022F6E710B519
:1004100013460A4604461946FFF7F0FF204610BD72
:10042000421E12F8013F002BFBD111F8013B02F8EC
:10043000013B002BF9D17047421C10F8011B002929
:10044000FBD1801A704710B5002200E0521C835C7B
:100450008C5CA34201D1002BF8D1D8B2E1B2401A92
:1004600010BD30B504460020034600E05B1C9342FB
:1004700003D2E05CCD5C401BF8D030BD034611F8E0
:10048000012B00F8012B002AF9D11846704730B52E
:100490000B46014600202022012409E021FA02F542
:1004A0009D4205D303FA02F5491B04FA02F52844DC
:1004B000151EA2F10102F1DC30BD2DE9FE4F804690
:1004C00081EA0300C00F0C46009021F0004123F0A8
:1004D0000045B8EB0200A94105D2404621469046AE
:1004E0001C460B46024623F00040104347D0270D20
:1004F000C7F30A00C3F30A510290401A0190402842
:100500006BDAC3F3130040F4801B0098924620B1CD
:100510000023D2EB030A63EB0B0B01985946C0F1A1
:1005200040025046FFF72BFF06460D4650465946FF
:10053000019A00F08DF910EB08006141002487EA70
:10054000115284EAE7731A4340D0009A62B3019AC9
:10055000012A4FEA075215DC001B61EB02014FF044
:10056000004202EA0752CDE90042001C41F5801129
:1005700032462B4600F08DF903B0BDE8F08F4046BF
:100580002146F9E7001B61EB0201001C41F58013D5
:1005900000185B412018A2F5001747EB030140EA61
:1005A000D570B6196D4111E06D084FEA360645EA7F
:1005B000C0754FEA0752001B61EB0201001C41F5B8
:1005C000801149084FEA30000019514132462B464C
:1005D00003B0BDE8F04F00F04DB900980122400093
:1005E0000023D0EB020263EBE073009821464FEA50
:1005F000E074B8EB000061EB0401E9E783F000432D
:100600005BE781F0004158E72DE9FE4F81EA0304E2
:1006100004F0004421F0004100944FF0000B23F05F
:10062000004350EA01045ED052EA03045BD0C3F3F6
:100630000A54C1F30A552C44A4F2F3340194A0FBEC
:100640000254C1F3130141F48011C3F3130343F4C3
:10065000801301FB024400FB034E840A970A44EA1C
:10066000815447EA8357A4FB076802958D0A05FB6E
:1006700007854FEA932C04FB0C542705029D4FEA93
:10068000065847EA1637B5EB08056EEB070C870EE0
:10069000920E47EA811742EA8312A7FB0201B6EBEA
:1006A0000B0164EB00042B0D43EA0C335E1844EBA2
:1006B0001C50DA465146E7FB0201C5F313044FEA2A
:1006C0000B3343EA14534FEA0432019C43EA060316
:1006D000A4F10C040294009CCDE900B400F0D9F818
:1006E00003B0BDE8F08F00200146F9E72DE9F04D99
:1006F00081EA030404F0004B21F0004514464FF05A
:10070000000A23F0004150EA050220D054EA010219
:100710001DD0C5F30A570246C5F31303C1F31300F6
:10072000C1F30A5640F4801543F48013A7EB060882
:10073000101BD64608F2FD3873EB050002D308F112
:10074000010801E092185B41B8F1000F03DA0020C4
:100750000146BDE8F08D00204FF480110646844626
:100760000EE0171B73EB050705D3121B63EB0503A4
:1007700006434CEA010C49084FEA300092185B41ED
:1007800050EA0107EDD152EA030012D082EA0400D8
:1007900083EA0501084305D0101BAB4106D20122B4
:1007A000002306E000224FF0004302E06FF0010258
:1007B00053101AEB06004CEB085110EB0A0041EB0A
:1007C0000B01BDE8F04D00F055B8C1F30A52C1F37A
:1007D000130140F2FF3341F480119A4202DA002003
:1007E0000146704740F233439A42A2F2334202DCA0
:1007F0005242FFF7D3BDFFF7C2BD000030B5041E63
:1008000071F1000404DB4FF00044404264EB01014D
:10081000141E73F1000405DB1C464FF000435242E6
:1008200063EB0403994208BF904230BD064C074D6C
:1008300006E0E06840F0010394E8070098471034B0
:10084000AC42F6D3FFF7B6FC04680108246801083F
:10085000202A06DBCB17203A41FA02F043EAE07384
:1008600006E041FA02F3D040C2F120029140084371
:100870001946704710B5141E73F1000408DA401CC5
:1008800041F1000192185B411A4301D120F00100AF
:1008900010BD2DE9F04D92469B4611B1B1FA81F29F
:1008A00002E0B0FA80F220329046FFF768FD04467D
:1008B0000F4640EA0A0041EA0B0153465A460843F4
:1008C00013D0114653EA010019D0C8F14002504636
:1008D000FFF764FD05460E46504659464246FFF76F
:1008E0004EFD084305D0012004E020463946BDE80E
:1008F000F08D0020054346EAE0762C4337430A9802
:100900006305E40AA0EB08000022FD0A44EA47540C
:100910000A3002D500200146E9E7010510196941B6
:10092000DDE9084500196941BDE8F04DA2E770B561
:100930008C1810F8015B15F0070301D110F8013B8A
:100940002A1106D110F8012B03E010F8016B01F811
:10095000016B5B1EF9D12B0705D40023521E0DD469
:1009600001F8013BFAE710F8013BCB1A921C03E0B7
:1009700013F8015B01F8015B521EF9D5A142D8D3EF
:10098000002070BD10B512F057FB002010BD000014
:100990002DE9F04F754887B00025016841F004014A
:1009A0000160016801F004010591016841F0010155
:1009B0000160016801F001010591016841F0020147
:1009C0000160016801F002010591016841F0100128
:1009D0000160016801F010010591016841F0080112
:1009E00001600068802600F0080000960590012450
:1009F000CDE9015469465E4801F0EAF92003009010
:100A000069465C4801F0E4F94FF480780227CDE9AB
:100A10000084CDE902476946574801F0D9F9102012
:100A200000906946524801F0D3F940200090694691
:100A3000504801F0CDF94FF0200969464F48CDF8F4
:100A4000009001F0C5F969464A48009601F0C0F9E6
:100A50004FF4007A69464A48CDF800A001F0B8F991
:100A60004FF4806B69464648CDF800B0029701F01C
:100A7000AFF9012210213E4801F09DFA0122C02168
:100A80003C4801F098FA012241463B4801F093FAB4
:100A9000012251463A4801F08EFA00225946384860
:100AA00001F089FA01222021344801F084FA4FF440
:100AB000C050CDE9000569460294314801F088F93B
:100AC00060038DE8B10069462D4801F081F94FF4CB
:100AD0006040CDE9000569460294264801F078F9A6
:100AE00069462648CDF8008001F072F90096CDE9FC
:100AF000014569462148039501F06AF90097CDE95F
:100B0000014569461E48039501F062F90094CDE95C
:100B1000014569461A48039501F05AF9CDF800904D
:100B2000CDE901546946134801F052F9CDE900645A
:100B300069461048CDE9024501F04AF90122022137
:100B40000F4801F038FA002201210D4801F033FA74
:100B500001228021094801F02EFA00228021054857
:100B600001F029FA07B0BDE8F08F000030380240EC
:100B7000000802400004024000000240000C024055
:100B80000010024010B504F093F8642009F048F911
:100B900007F0F4FD05F0B2FD07F0ADFF14210846A3
:100BA00007F08CFF00221146202004F005F80AF01F
:100BB00065FA0D4801220DA100680AF0FBFB0BF05D
:100BC0006FF948B104F074F8242109A2084605F031
:100BD000F1FE06A013F070F94FF4FA6009F020F965
:100BE000BDE8104003F08EBDD4250020303A00004F
:100BF0005570646174696E672E2E2E002DE9FC41DC
:100C000003F06AFC05007CD004F052F8322700267D
:100C1000614C012D02D0022D08D00CE060780A3022
:100C2000C0B26070322806D9677004E0607800288E
:100C300068D00A386070102000906078002142006F
:100C40000323084604F026FA0120009010232522F1
:100C500000211E2004F0C4F950483023CDE9006083
:100C60001A460021282007F025FD60780A26B0FBEF
:100C7000F6F000903E2316223221102004F0BAF83C
:100C800060783E23B0FBF6F00090202232211A203B
:100C900004F0B0F860781426B0FBF6F000903E2324
:100CA0002A223221242004F0A5F860783E23B0FBEC
:100CB000F6F00090342232212E2004F09BF8607868
:100CC0001E26B0FBF6F03E2300901A463221382053
:100CD00004F090F860783E23B0FBF6F000904822D4
:100CE0003221422004F086F860782826B0FBF6F026
:100CF00000903E23522232214C2004F07BF8607891
:100D000001E046E041E0B0FBF6F000903E235C22BB
:100D10003221562004F06EF860783E23B0FBF7F0E5
:100D2000009066223221602004F064F860783E234F
:100D3000B0FBF7F00090702232216A2004F05AF8DC
:100D40000021607807F0BAFE012000F02DF900F0D4
:100D500041F804F01DF9032D1BD103F0A9FF002178
:100D60000FA2084605F026FE207801280FD00FA21A
:100D70002021084605F01EFE012000F015F900F0C4
:100D800029F8BDE8FC4104F003B9667053E70AA2F4
:100D9000EEE7BDE8FC81000024010020F6450108D3
:100DA000B2A5B7C5D7B4CCACA3BA0000CDA3D6B911
:100DB000B2A5B7C500000000D5FDD4DAB2A5B7C50D
:100DC000000000000022134601E08354521C8A42B6
:100DD000FBDB70472DE9FE4F6A2002900220C10123
:100DE0000190474801F0E2F87A26782707244FF06F
:100DF00076094FF0740A4FF0720B4FF0010800258E
:100E0000C8B16E226C2023460095019903F0F2FFD1
:100E10005A46702023460095019903F0EBFF3246B5
:100E2000384623460095019903F0E4FF4A465046B0
:100E3000234600954CE04FF40041324801F0B6F8EB
:100E400090B15A46702023460095019903F0D2FFD5
:100E50004A46504623460095019903F0CBFF32469F
:100E60003846234600952BE04FF48041254801F099
:100E70009DF858B14A46504623460095019903F023
:100E8000B9FF324638462346009511E04FF4005131
:100E90001C4801F08BF880B3009523463246384653
:100EA000019903F0A7FF23464A465046CDF800803B
:100EB000019903F09FFF23465A467020CDF8008029
:100EC000019903F097FF6E2223466C20CDF8008035
:100ED000019903F08FFF7C2406237E220321204604
:100EE000CDF8008003F086FF029803B02946224621
:100EF000BDE8F04F092303F05BBFCDF80080CCE7DD
:100F0000000C02400004024070B51E4D00244FF456
:100F10000051284601F04AF888B14FF48041284634
:100F200001F044F868B14FF40041284601F03EF862
:100F300048B1A915144801F039F830B106E064242D
:100F400004E04B2402E0322400E0192422460FA1E1
:100F5000134811F097FB10F0BBFB1148FFF76CFA38
:100F600082B24FF47A730E490E4802F023FE0D4808
:100F700000680168C9434906FBD4BDE8704010F021
:100F800081BC000000040240000C02404261747405
:100F90006572794C6576656C3A25640D0A0000002F
:100FA00061210020F02000202DE9F84F04465F2643
:100FB0004FF009094FF0650B4FF0030A0090002530
:100FC0004B465A465146304603F088FE53465A4631
:100FD00049463046009403F081FE4FF062080C272A
:100FE00042463B4629461046009403F077FE53469E
:100FF0005A4629464046009403F070FE4B465A4636
:1010000039464046009403F069FE0623632202211C
:101010003046009403F062FEBDE8F84F03F0B8BF1D
:101020002DE9FC5F02204FF00109CDE900906A2410
:1010300006237E2203217C2003F0DCFE09237C2290
:101040000021204603F0B4FE01200726009033461D
:101050006E226C20019903F0CDFE01204FF0720B3F
:101060004FF0700A0090504607235A46019903F04A
:10107000C1FE01207A2478250090224628460723C5
:10108000019903F0B7FE012076274FF07408009015
:101090003A4640460723019903F0ACFE4FF48071B5
:1010A0007A4800F083FFE8B3002000906E226C20A5
:1010B0003346019903F09EFE002000905A465046A8
:1010C0003346019903F096FE002000902246284600
:1010D0003346019903F08EFE002000903A464046C8
:1010E0003346019903F086FE6E226C203346CDF81C
:1010F0000090019903F07EFE5A4650463346CDF8E3
:101100000090019903F076FE224628463346CDF83A
:101110000090019903F06EFE3A4640463346CDF802
:10112000009000E004E0019903F064FEBDE8FC9F3C
:101130004FF40041564800F039FFE0B30020009022
:101140005A4650463346019903F054FE0020009061
:10115000224628463346019903F04CFE00200090B9
:101160003A4640463346019903F044FE6E226C2015
:101170003346CDF80090019903F03CFEC82011F0F1
:101180008EFB5A4650463346CDF80090019903F045
:1011900031FEC82011F083FB3A4640463346CDF875
:1011A0000090019903F026FEC82011F078FB22463A
:1011B0002846334600E008E0CDF80090019903F09E
:1011C00019FEC82011F06BFB8EE74FF480413048C8
:1011D00000F0ECFE88B3002000903A4640463346CB
:1011E000019903F007FE002000902246284633466E
:1011F000019903F0FFFD5A4650463346CDF8009062
:10120000019903F0F7FDC82011F049FB3A4640462A
:101210003346CDF80090019903F0ECFDC82011F0A1
:101220003EFB224628463346CDF80090019903F054
:10123000E1FDC82011F033FB98E7FFE74FF40051C0
:10124000134800F0B3FEF0B1002000903346224670
:101250002846019903F0CEFD3A4640463346CDF884
:101260000090019903F0C6FDC82011F018FB22463A
:1012700028463346CDF80090019903F0BBFDC82005
:1012800011F00DFBB7E7CDF80090DFE7000C02404E
:101290000004024070B50D460646FFF7CDF804463F
:1012A0003046FFF7C9F8844205D1002406E0305DDE
:1012B000295D884201D0002070BD641C3046FFF7D4
:1012C000BBF8A042F3D8012070BD000008B509F0BA
:1012D000A3FD09F0ADFD00F013F807A00549006873
:1012E0000090684609F06EFE02480449407B087091
:1012F00008BD00009C35002001000000D50300203F
:10130000F8B51DA000240068009009F037FE09F030
:101310007DFD012801D109F0C9FD184D4FF440763B
:101320001649684609F04EFE2878552821D009F064
:101330006DFD012803D009F069FD68B101E009F0F5
:10134000B5FD2878552804D02046641CA4B2052891
:10135000E6D36FF00D00F8BD0849684609F032FE8B
:101360002878552805D02046641CA4B2B042F3D397
:10137000EAE70020F8BD0000550000009C35002081
:1013800010B503F0F9FE02F0DFFF02F0FBFF02F000
:10139000CBFE03F0C9FBBDE8104003F0EDBE0069D1
:1013A000416841F002014160032006F003BD10B521
:1013B0000B460C0601F07F0202EB820100EBC1013B
:1013C00002D501F58E7101E001F55D710A70DA094F
:1013D0004A7006F0C5FE002010BD0A4610B5090689
:1013E00002F07F0306D503EB830100EBC10101F599
:1013F0008E7105E002EB820100EBC10101F55D7128
:1014000000248C700B70D2094A7006F090FE002008
:1014100010BD10B50A0604D501F07F0106F0B6FF35
:1014200001E006F095FF002010BD70B50D460E06D8
:1014300001F07F0404EB840100EBC10102D501F54A
:101440008E7101E001F55D71ED090C704D708A60DF
:10145000CB7000D0CC80022B01D100220A7106F0A3
:101460003DFE002070BD10B501F07F0404EB840147
:1014700000EBC101C1F88833C1F880230023C1F813
:101480008C3381F8753381F87443C37801F55D714D
:10149000012B00D10A6114F0FF0F03D006F092FE79
:1014A000002010BD06F0AFFDFAE70069002261F3ED
:1014B0000A1201681143016070470A4610B5090617
:1014C00002F07F0306D503EB830100EBC10101F5B8
:1014D0008E7105E002EB820100EBC10101F55D7147
:1014E00001248C700B70D2094A7006F053FE002064
:1014F00010BD70B511F07F0404EB840100EBC10155
:101500004FF0010581F81D5181F81C41C1F82821D7
:10151000C1F82C2101F58E714FF00002C1E90532AE
:1015200003D006F04FFE002070BD06F06CFDFAE718
:1015300070B5044606F04CFDE068C16821F47055B2
:10154000C560204606F044FF0146002003290FD065
:101550000120A0704020A08025F4705000F5A0501C
:10156000E168C860E1684FF400504861012070BD37
:10157000A0704FF40070A08025F4705000F510505A
:10158000EEE700002DE9F0410646002406F043FF97
:10159000074650E0F8074CD03069E1B20369426B6E
:1015A000CA4006EB810102F00102896943EAC212D6
:1015B0008D681540E9071AD00125426B05FA04F140
:1015C0008A43426306EB8400806985601C48E1B26F
:1015D0000068426830469047F078012807D134B956
:1015E00096F81101042802D1304606F065FD28075F
:1015F00004D506EB8400082580698560E80604D5DB
:1016000006EB8400102580698560680604D506EB2A
:101610008400402580698560A80704D506EB840016
:10162000022580698560280603D52146304600F0F2
:1016300060F97F08641C002FACD10120BDE8F08167
:10164000800100202DE9F0410546002406F0E9FE66
:101650000746DFF8988043E0F8073FD0E1B228461C
:1016600006F0E5FE0646C00725D005EB84000126FE
:10167000416D8E60E97801290CD1406D016904EB60
:10168000840005EBC000C1F31201D0F87C23511A8D
:10169000C0F88C13D8F80000E1B2026828469047E1
:1016A000E878012807D134B995F81101052802D14D
:1016B000284606F001FDB00704D505EB840002269C
:1016C000406D8660300709D5D8F80000816828464B
:1016D000884705EB84010820496D88607F08641CF9
:1016E000002FB9D10120BDE8F08100008001002069
:1016F00070B50546C068816921F010018161E86814
:10170000066A06F00F0000EB800005EBC004C6F38C
:10171000434004F55D74072821D2DFE800F0202063
:1017200004202020150047F6F070064217D0C6F3BB
:101730000A1632462846E16806F081FEE068304429
:10174000E060A069304409E0082205F2CC51284647
:1017500006F075FEA069C6F30A110844A061E868A6
:10176000816941F010018161012070BD38B50446E6
:1017700000208DF8000094F812018DF80000154843
:10178000006841692046884720698068E2684FF414
:1017900000615161A17AD1B1C00718D094F8150148
:1017A000012814D19DF80000032810D1D4F80C01B1
:1017B000016841F001010160D4F80C01016841F0B9
:1017C000030101600448016841F006010160012045
:1017D00038BD00008001002010ED00E070B5044627
:1017E000006900250126416821F001014160294678
:1017F000204606F0CBFD0020FF2206E004EB80012E
:101800008B699A60496D8A60401C61788142F5D885
:1018100021694FF0FF3088612846216966F30F0087
:1018200066F31F40C861216945F00B0048612169DA
:1018300045F00B0008612069016821F4FE61016038
:10184000204606F039FCE1684FF4805048610348B7
:101850000068016920468847012070BD8001002092
:1018600070B5044606F0FCFD0120002384F8120147
:1018700084F814311A46402510E002EB820104EB93
:10188000C10181F81D0181F81C21A1F8222181F8F4
:101890001F31C1E94953521CC1F83031617891427E
:1018A000EBD8002010E000EB800104EBC10181F8CF
:1018B000753381F87403A1F87A0381F87733C1E9AD
:1018C000DF53401CC1F8883361788142EBD8204651
:1018D00006F076FB204606F06FFA0021204606F05F
:1018E0001FFE204606F0A8FA2046BDE8704006F02C
:1018F00027BD2DE9F0470E4601EB860100EBC10440
:101900008046D4E94C01401AD4F8241104F58E74B1
:10191000814200D20846C01C08EB86098708D9F826
:101920001800816920E0451AA068A84200D2054647
:10193000E81C8708ABB2F2B24046E16806F005FE4B
:10194000E0682844E060A0692844A061D9F8181034
:1019500089696269824207D1207801228240D8F8E1
:101960001000436B9343436388B2B84205D9D4E96E
:101970000501814201D20028D5D10120BDE8F087C0
:1019800030B419481A4D1A4A0068184B184C603D7B
:10199000B83A984202D91549543903E0A04203D914
:1019A00012495839096804E0A84201D9516800E099
:1019B000116811F0006F15D04FF00061984202D904
:1019C0000A484C3803E0A04203D908485038016067
:1019D00004E0A84201D9D16000E0916005480068A8
:1019E00030BC004730BC70479C1C0020586402404B
:1019F000B86002401401002001681823CAB2103AEE
:101A0000B2FBF3F2054B6FF30901032A9B5C4365BC
:101A100000D9091D01650846704700007A65010874
:101A200010B5046863608368402B036803D0996035
:101A30000068C26010BD9A600068C16010BD0000FF
:101A4000DFF8E480394D00273849A8F800700022FB
:101A50000C31E86A10F089FA00284FD134A0E96807
:101A600010F07EF9EA6811784D290BD05078612882
:101A700008D0532917D06F2815D0422928D05428D0
:101A800026D02FE000242F4E04E0E8682044007A9E
:101A90003055641CE868083010F0FDFDA042F4D811
:101AA0002849286B11E0274E0024323604E0E8680C
:101AB0002044807A3055641CE8680A3010F0EBFD51
:101AC000A042F4D81F49686B323110F0C6FA09E021
:101AD0009078432802D0442803D003E001202870E6
:101AE00000E02F70E86803F044FC50211648FFF72F
:101AF00069F900220121E86A10F0F6F9287800B1AE
:101B00000120FFF751FA8021104800F04FFA012818
:101B100003D1FFF75FF903F03BFAFFF7F5F94FF454
:101B2000FA7010F0BCFE8FE71A01002014000020AC
:101B30005265765F46726F6D5F4254203D25730A91
:101B400000000000DA040020B01F0020000802405E
:101B5000012000F02FB9000010B5002107A00FF000
:101B6000DCFD0B4C002120640AA00FF0D6FD606460
:101B700000210DA00FF0D1FDA06410BD41626F7275
:101B800074576176706C61795F4576656E7400009C
:101B900014000020506C617974576176706C617923
:101BA0005F4576656E7400004F4C45445F44697331
:101BB000706C61795F4576656E74000030B40C46D8
:101BC00001461546500700D0012000EBD50010FB60
:101BD00005F0C2B208784B78812809D3402B07D38F
:101BE000FF2B05D0FF2803D07F2B0CD2403B0BE00E
:101BF0000023184603E05B1C04F8010BDBB29342A0
:101C0000F9D330BC7047413B8138D9B2C0B2C0EB88
:101C1000401303EB801001EB400050430C490C2DA6
:101C20000CD0102D0DD0182D0ED0202DE9D1D1F8CB
:101C300021100144204630BC06F0DEBDD1F8091069
:101C4000F7E7D1F81110F4E7D1F81910F1E7000027
:101C5000A825002070B5044690F83400049D0128A2
:101C600008D0012084F8340020680668360303D4C5
:101C7000122605E0022070BD0668360302D5222632
:101C800084F83560066826F001060660206806685C
:101C900046F480260660206803612B462046FFF745
:101CA000BFFE2068016841F001010160002070BDA5
:101CB00070B5040025D094F83500022821D02068A2
:101CC000016821F00101016020680025056020689D
:101CD0004560206885602068C560206805612168CE
:101CE000212048612046FFF787FE94F854203F21C9
:101CF00091408160E56484F8355084F834500020C8
:101D000070BD012070BD000070B504001AD0022023
:101D1000636A84F8350021680A6818480240D4E9EB
:101D200001052843D4E90356354328436569284310
:101D3000A5692843E5692843256A28431043042BF5
:101D400002D005E0012070BDD4E90B231A431043F3
:101D5000086022685069616A20F00700084304297E
:101D600001D1A16A084350612046FFF745FE0020DB
:101D7000E064012084F83500002070BD3F8010F041
:101D800031B500F01DF9044600F01AF90099001B66
:101D90008842F9D338BD0000012802D101A007F024
:101DA0002BB87047B4A5B7A2B0B4BCFCD6D0B6CFA0
:101DB0000A00000070B5054D04462868204203D093
:101DC0002046FFF7E9FF2C6070BD0000143C014085
:101DD0002DE9F84FDFF8A091002209F1040A0AF179
:101DE000040B4FF00F080BF1040E01260B68964010
:101DF0003340B34271D14C68022C01D0122C11D166
:101E0000D40800EB84073D6A5407E40E08FA04FC8A
:101E100025EA0C05D1F810C00CFA04FC4CEA050CBC
:101E2000C7F820C007685400032591F804C0A540F6
:101E30000CF0030CAF430CFA04FC4CEA070CC0F89E
:101E400000C04F68012F05D0022F03D0112F01D001
:101E5000122F11D18768D1F80CC0AF430CFA04FCE3
:101E60004CEA070CC0F808C04768B7430E79C6F3C0
:101E7000001696403E434660C668AE438D68A54056
:101E80003543C5604C68E4006FD53C4C256845F48B
:101E900080452560246822F0030504F48044009402
:101EA000374C2E19D6F808789407250F08FA05F450
:101EB000A743344CA04201D100242EE0324CA04272
:101EC00001D1012429E0314CA04201D1022424E0B7
:101ED0002F4CA04202D103241FE046E02D4CA0422B
:101EE00001D1042419E02C4CA04201D1052414E0B6
:101EF0002A4CA04201D106240FE0294CA04201D176
:101F000007240AE0274CA04201D1082405E0264C12
:101F1000A04201D1092400E00A24AC403C43C6F8A9
:101F20000848D9F800404D464E689C43F60300D55A
:101F30001C432C60DAF8004055464E689C43B603BB
:101F400000D51C432C60DBF800405D464E689C4386
:101F5000F60200D51C432C60DEF8004075464E6842
:101F60009C43B60200D51C432C60521C102AFFF47F
:101F70003CAFBDE8F88F0000003C0140443802400F
:101F8000003001400000024000040240000802400E
:101F9000000C0240001002400014024000180240F1
:101FA000001C02400020024000240240006908405A
:101FB00000D0012070470AB1816170470904FBE736
:101FC00010B510F0EBFD4FF47A714843B0FBF1F01F
:101FD00010BD000002480168491C01607047000004
:101FE000500100200B4810B5016841F400710160F8
:101FF000016841F480610160016841F48071016011
:10200000032000F05DF80F2000F006F800F015F84E
:10201000002010BD003C024010B5044600F026FB35
:102020004FF47A71B0FBF1F001F01DFC0022214663
:10203000501E00F025F8002010BD704700F01F0270
:10204000012191404009800000F1E020C0F8801299
:10205000704700F01F02012191404009800000F10B
:10206000E020C0F88011704700F01F02012191406C
:102070004009800000F1E020C0F800117047000026
:10208000F0B40E4B1B68C3F30223C3F10704042C06
:1020900000D904241D1D072D01D2002300E0DB1E02
:1020A000012606FA04F56D1E0D409D409E40761EE9
:1020B000164045EA0601F0BC02F0EABD0CED00E076
:1020C000064A00F0070110684FF6FF03184040EA87
:1020D0000120034908431060704700000CED00E048
:1020E0000000FA050120410291FAA1F1024AB1FA79
:1020F00081F142F82100704700000E422DE9F843BB
:102100001D48016841F0805101600068012700F01E
:1021100080500090380490FAA0F0DFF86080B0FAA8
:1021200080F048F82070FFF74BFF04464FF47A75B3
:10213000134E04E0FFF744FF001BA84213D8706859
:10214000C003F7D54FF4003090FAA0F0B0FA80F059
:1021500048F82070FFF734FF044607E0FFF730FF30
:10216000001BA84202D90320BDE8F88370688003F1
:10217000F4D50020F8E700004038024000000E428D
:10218000007000400B4A136823F0030303431360FD
:102190000948026842F004020260012907D040BFEA
:1021A00020BF20BF016821F004010160704730BFEB
:1021B000F8E700000070004010ED00E02DE9F84F56
:1021C00004460068DFF878829E4DC10747F6C07A62
:1021D0004FF0E0464FF0010B4FF0000901D18007AE
:1021E0004BD59949C1F86890FFF7EAFE074604E02D
:1021F000FFF7E6FEC01B64287ED828680001F7D4EC
:1022000020789249C0070DD09AFAAAF26068B2FA13
:1022100082F2904096FAA6F3A268B3FA83F39A404A
:10222000104308602078800718D5086896FAA6F24F
:1022300000F0E040B2FA82F2D0406268237B920163
:1022400042EA036242EA00700860D8F80010E269CE
:1022500021F01F01521E1143C8F800107A49C1F83D
:1022600068B0FFF7ADFE074604E0FFF7A9FEC01B0C
:10227000642841D828680001F7D52068410701D4B7
:10228000000776D57049C1F87090FFF799FE0746B0
:1022900004E0FFF795FEC01B64282DD82868C043D2
:1022A0008000F6D520786A4F40074FF0706C29D532
:1022B000386896FAA6F100F0E040B1FA81F1C84022
:1022C0009AFAAAF22169B2FA82F291409CFAACF32E
:1022D0006269B3FA83F39A40114396FAA6F2B2FA0E
:1022E00082F2904001433960D8F800106FF0FF038C
:1022F00021F4F851226A00E079E003EB0222114355
:10230000C8F800102078000723D538689CFAACF193
:1023100000F07060B1FA81F1C8409AFAAAF221691E
:10232000B2FA82F291409CFAACF2B2FA82F2904098
:10233000014396FAA6F2A069B2FA82F290400143F4
:102340003960D8F80010626A21F440311143C8F8AE
:1023500000103D49C1F870B0FFF732FE064604E0B8
:10236000FFF72EFE801B642841D82868C0438000F8
:10237000F6D42078800651D532484F464030016867
:1023800041F0805101600068324E00F080500090B2
:10239000306840F480703060FFF712FE054604E0BC
:1023A000FFF70EFE401B642821D83068C005F7D522
:1023B000264E143E3068218D00F4407001F44071C7
:1023C00088422BD03068244920F44070C1F800B016
:1023D0000F603060800710D5FFF7F2FD054641F22F
:1023E000883707E0FFF7ECFD401BB84202D9032015
:1023F000BDE8F88F30688007F4D5A06A1149C0F3B2
:1024000001220831032A13D0086820F4F81008606C
:102410003068218DC1F30B01084330602078C0067D
:1024200004D50E4994F82C00C1F8E0010020DFE744
:102430000A680B4B22F4F812184002430A60E7E7DF
:102440008C38024000380240000047428438024085
:102450008838024000700040400E4742001047425A
:10246000FFFCFF0F2DE9F05FDFF8F8A104460F46EF
:10247000DAF80000DFF8F08100F00F02C8B27A4904
:10248000814641F2883608F10808BA4261D2024614
:102490008AF80020DAF8000000F00F00B8427DD181
:1024A0002078800707D5D8F80020A36822F0F00232
:1024B0001A43C8F800202078C0072DD06068012892
:1024C0001AD002281BD0032819D0096889070029CF
:1024D00064DAD8F80010474621F003010143C8F838
:1024E0000010FFF76DFD0546606801280FD0022837
:1024F00018D003281CD027E009688903E7E709689A
:102500008901E4E7FFF75CFD401BB04258D838680A
:10251000C0F381000128F5D188E0FFF751FD401B91
:10252000B0424DD83868C0F381000228F5D17DE073
:102530003868FFF745FD401BB042F9D940E0FFF78E
:102540003FFD401BB0423BD8386810F00C0FF6D16D
:102550006CE02078800707D5D8F80020A36822F027
:10256000F0021A43C8F800202078C0074CD06068F9
:10257000012828D0022829D0032827D009688907F4
:10258000002949DAD8F8002022F003020243C8F8F3
:102590000020FFF715FD0546606800E03CE00128DB
:1025A0001DD0022829D0032838D0B34646463068CB
:1025B00010F00C0F28D0FFF703FD411B5945F6D949
:1025C0000320BDE8F09F09688903D9E709688901FC
:1025D000D6E7FFF7F5FC411B594502D9F0E7B346B2
:1025E00046463068C0F381000128F2D10CE0FFF7C5
:1025F000E7FC411B594502D9E2E7B346464630683D
:10260000C0F381000228F2D18AF80090DAF80000C5
:1026100000F00F00B84209D00120D2E744462068FC
:10262000FFF7CEFC401BB042F9D9C9E7207840073C
:1026300007D5D8F80010E26821F4E0511143C8F83A
:1026400000102078000708D5D8F80010226921F47E
:10265000604141EAC201C8F800100F20FFF7DCFC1E
:102660000020AEE7003C02400038024010B500F008
:1026700043F808490968F02292FAA2F201F0F00149
:10268000B2FA82F2D140044A515CC8400349086062
:1026900010BD0000083802408265010800000020DB
:1026A00010B5FFF7E3FF074909684FF4E05292FACB
:1026B000A2F201F4E051B2FA82F2D140024A515C36
:1026C000C84010BD083802408265010810B5FFF708
:1026D000CDFF074909684FF4604292FAA2F201F473
:1026E0006041B2FA82F2D140024A515CC84010BD4A
:1026F000083802408265010830B51948006810F0BA
:102700000C01184812D0184C04290ED008290DD1FC
:10271000134A121F1168136801F03F015D0247F66A
:10272000C07304D5B4FBF1F003E0204630BDB0FB2C
:10273000F1F01168194093FAA3F3B3FA83F3D94087
:10274000484311684FF4403292FAA2F201F440314A
:10275000B2FA82F2D140491C4900B0FBF1F030BD21
:10276000083802400024F40040787D012DE9F84F3C
:1027700004460078DFF8FCA2BF4DC0074FF000060A
:1027800048D0DAF800105046C1F38101012908D081
:102790000068C0F3810002280AD1281D00684002A9
:1027A00006D52868800335D56068002873D031E0ED
:1027B000DFF8C49209F1020989F80060FFF700FC14
:1027C000074641F2883804E0FFF7FAFBC11B414598
:1027D0007AD828688003F7D4207989F800006068E7
:1027E00060B1FFF7EDFB074604E0FFF7E9FBC11B13
:1027F0004145EDD828688003F7D50BE0FFF7E0FBF3
:10280000074604E0FFF7DCFBC11B4145E0D8286820
:102810008003F7D42078DFF86492800744D5DAF893
:102820000010504611F00C0F4FF0F80809D0006866
:10283000C0F3810002280BD18E48001F00684002BF
:1028400006D42868800714D5E068012823D110E059
:10285000E068D0B10120C9F80000FFF7B1FB0746DE
:1028600004E0FFF7ADFBC01B6428B1D828688007DF
:10287000F7D5286898FAA8F22169B2FA82F220F016
:10288000F8009140084328600EE0C9F80060FFF7A7
:1028900097FB074605E0EAE0FFF792FBC01B6428C0
:1028A00012D828688007F7D42078000725D5DFF8EC
:1028B000C4817348616908F16C0881B1012101602C
:1028C000FFF77EFB074605E07EE0FFF779FBC01BC4
:1028D000642879D8D8F800008007F6D50DE00660A6
:1028E000FFF76EFB074604E0FFF76AFBC01B642896
:1028F0006AD8D8F800008007F6D42078400753D56E
:102900005C483830016841F0805101600068DFF8B0
:10291000748100F080500090D8F8001041F480716C
:10292000C8F80010FFF74CFB074604E0FFF748FB30
:10293000C01B642848D8D8F80000C005F6D5DFF8D9
:1029400034B10BF1680B8BF80060FFF739FB0746D9
:1029500041F2883804E0FFF733FBC11B41457ED8C4
:10296000DBF800008007F6D4207A8BF80000A0681E
:1029700068B1FFF725FB074604E0FFF721FBC11B09
:1029800041456CD8DBF800008007F6D50CE0FFF776
:1029900017FB074604E0FFF713FBC11B41455ED858
:1029A000DBF800008007F6D4A069E8B3DAF800107D
:1029B000C1F3810102295AD0022806D0C9F860600B
:1029C000FFF7FEFA04464DE049E04F46C9F8606063
:1029D000FFF7F6FA064604E0FFF7F2FA801B6428D8
:1029E0003DD828688001F7D4D4E90701084347F6A9
:1029F000C07191FAA1F1626AB1FA81F18A40A16ACB
:102A00004FF0FF3303EB51014FF4403393FAA3F33C
:102A1000B3FA83F399400A4310434FF0706292FA7D
:102A2000A2F2B2FA82F200E01FE0E16A91400843AC
:102A30001049091F086001203866FFF7C1FA0446F3
:102A400004E0FFF7BDFA001B642808D8286880015D
:102A5000F7D50AE0FFF7B4FA001B642802D9032077
:102A6000BDE8F88F28688001F4D40020F8E7012041
:102A7000F6E70000083802400038024000004742F4
:102A8000800E47420070004001A00FF069B90000BD
:102A9000525443D6D0B6CF0A0000000010B5044609
:102AA0000068C16849050CD58068400409D52046F6
:102AB000FFF7EAFF2068C16801F0800161F49061CE
:102AC000C16003494FF4800008600120607710BDA9
:102AD000143C014070B504001BD0022084F8810032
:102AE0002068002505612168681E8861204602F083
:102AF00069FD2068416841F008014160204600F00E
:102B0000A1F8C4F8845084F8815084F880500020E3
:102B100070BD012070BD000070B5040004D094F8B1
:102B20008100002510B106E0012070BD84F88050BE
:102B3000204600F089F8022084F88100204602F047
:102B400041FD204602F02EFD206AA8B1204602F089
:102B500057FD216A00EB800040004902B0FBF1F014
:102B60000A21B0FBF1F2B0FBF1F301FB130062624A
:102B7000082801D9521C6262206801682F4A11405E
:102B80000160616B60680843D4E90E121143084389
:102B9000216C0843A1680843A16A084321690843DE
:102BA00061690843A18C40EA0151E06A0143206851
:102BB000026811430160206841684CF20F029143A2
:102BC000416020684168A2691143D4E90B231A438C
:102BD0001143416020688168194A11408160616D2C
:102BE000E06C626C0143206D521E10430143A06CE7
:102BF0006FF0FF0202EB0020014320688368194355
:102C000081602068C1684FF220031940C160D4E997
:102C100016100143D4E9183002EB0322104301439C
:102C20002068C2681143C160C4F88450012084F850
:102C3000810084F88050002070BD000010C005FFA6
:102C40000080F8FF70470000124800B5016887B0A7
:102C500041F480010160006800F4800005900D4897
:102C60001438016841F0100101600068694600F005
:102C7000100005907C20009002200190012002901D
:102C800003200390062004900348FFF7A1F807B043
:102C900000BD000044380240001002402DE9F0471A
:102CA00090F8202081F85620828CA1F85420826A66
:102CB0000023120E94090C70C2F383044C7002F0CE
:102CC00003028A70826A120CCA70028D120A0A719B
:102CD00090F828204A71C26A4FF6FF7A120E0AEA6B
:102CE0000212CA80C26ACC88C2F3074244EA1214B4
:102CF000CC8002F00F020A72828DC2F30722D4093F
:102D00004C72C2F380148C72C2F34014CC72C2F3C2
:102D100000140C7300264E73046A4FF00109002C56
:102D20007DD0012CFCD0022C7AD02923C2F3801450
:102D30004C769206520E01F81A2F10F8302F0C78AC
:102D400044EAD21401F8014B02F07F0201F8012B92
:102D500050F8042F120ED4090C70C2F341144C70B9
:102D6000C2F382048C709207120FCA7004C8CC7828
:102D7000C2F3074244EA9214CC70C2F340140C71BF
:102D80004E7102F001028A7130F8042CC2F307225E
:102D9000D409CC71C2F380140C72C2F340144C728B
:102DA000C2F300148C72C2F38104CC7202F00302ED
:102DB0000A7310F8042C52084A734C4681F80E909E
:102DC00050F8082B120E0A7450F8082C120C0AEA5C
:102DD00002224A8230F8082C4D8AC2F3072215439A
:102DE0004D8210F8082C120641F8142F50F8042CCC
:102DF0000D68120E45EA02420A6050F8042C0D6874
:102E0000C2F3074245EA02220A6030F8042C0D683A
:102E1000C2F30722154320C110F8042C01E034E06E
:102E200076E001F8012B0268120E01F8032B02680C
:102E3000120C12060A6002880D68C2F3072245EAE6
:102E400002420A6002780D6845EA02220A6042687E
:102E50000D6845EA126520C142680D78C2F3074249
:102E600045EA121501F8025B1207120D0A808288EA
:102E70000D88C2F30722154321F8025B0079400850
:102E800008704C701846BDE8F0879207120D0A6171
:102E900090F82C200C6944EA82020A61026B0C69EA
:102EA000120E44EA92140C61C2F3C2040C7502F0D3
:102EB00007024A75026BC2F3074254098C75C2F3CC
:102EC0008204CC759207520F0A76028E0C7EC2F3F2
:102ED000072244EAD2140C760C690F7EBF1C09FA53
:102EE00007F5641CA4FB05784FEAE57C06FB058525
:102EF00004FB0C5591F808C009FA0CF4A7FB04C8B0
:102F00000C6505FB048407FB0644C1E912C40DE708
:102F100090F82C209206920A0A61026B0C69120E3C
:102F200044EA02220A61026B0C69C2F307421443AD
:102F30000C61028E0C69C2F30722641C46F1000585
:102F4000ED0445EA5435E404C1E912454FF4007438
:102F50000C65EBE670B586B000250E4604468DF88C
:102F60000C50057700F046F876200095CDE9015029
:102F70002B462A462946206802F0F4FE204603F03C
:102F8000B9F98DF80C009DF80C0038B9204603F013
:102F9000A5F88DF80C009DF80C0018B19DF80C00F8
:102FA00006B070BD31462046FFF778FE8DF80C0064
:102FB0009DF80C00A0B9B6F85400694600040090D2
:102FC000072001904020CDE902050001049020680F
:102FD00002F0E1FE0721204602F0F2FE8DF80C001F
:102FE00004F1100007C88DE8070094E80F0002F014
:102FF000B9FED3E71D4800B5016887B041F4006110
:103000000160006800F400600590184814380168F9
:1030100041F480010160016801F4800105910168BB
:1030200041F004010160016801F0040105910168AB
:1030300041F0080101600068694600F00800059051
:103040004FF4F850009002200190012002900320DC
:1030500003900C2004900648FEF7BAFE042000906E
:1030600069460448FEF7B4FE07B000BD443802408C
:1030700000080240000C02402DE9F04F8BB00446DE
:103080000D46DDE91478216800201646C862216AE1
:10309000022903D10F02560A46EAC3561021CDE990
:1030A00000714021834608010291CDE903B06946D1
:1030B000206802F070FE1021204602F081FE0028F8
:1030C0006DD14FF0FF3A08FB07F0CDE905A007A945
:1030D00090204FF0020981E8010A01200A9005A919
:1030E000206802F01DFEB8F1010F01D9122000E0A6
:1030F0001120CDE900606946206802F04CFEB8F16D
:10310000010F1AD91221204602F05AFE070046D1BB
:1031100040F22A3B2068416B11EA0B0F28D1406B2B
:103120000004F7D50026206802F032FE45F826009C
:10313000761C082EF7D32035ECE71121204602F04B
:103140003FFE07002BD140F22A6B2068416B11EA49
:103150000B0F0DD1406B0004F7D50026206802F05C
:1031600017FE45F82600761C082EF7D32035ECE72D
:10317000406BC0050CD5B8F1010F09D9206A18B110
:10318000012801D0022803D1204600F033F8074679
:103190002168486B000705D50820886304200BB020
:1031A000BDE8F08F486B800703D54846C1F83890DA
:1031B000F5E7486B800603D5202088630620EEE7FC
:1031C000486B800504D54FF4007088630720E6E75C
:1031D000564603E002F0DCFD01C5761E2068416B17
:1031E000890201D5002EF5D1216840F2FF50886395
:1031F0003846D4E710B586B0044600200C21CDE94E
:1032000000014021CDE902100801049069462068C0
:1032100002F0C1FD0C21204602F0D2FD06B010BD27
:10322000FEB50446006A00250E46032805D030B1DD
:10323000012804D0022802D01FE02720FEBDB6F5E9
:10324000805F05D0B6F5006F04D03EB1262514E0AE
:10325000272512E0204603F086F902E0204603F01D
:1032600049F9050009D1211DD4E905070EC9CDE9A9
:1032700000600297206802F075FD2846FEBD2DE92A
:10328000F04F8DB0064600250C468DF82C50DDE938
:103290001698316817462846CD62316A4FF4007B94
:1032A000022903D1570AD94647EAC3571021CDE96D
:1032B00000914021824608010291CDE903A06946B0
:1032C000306802F068FD1021304602F079FD0028D8
:1032D0006ED1B8F1010F01D9192000E01820CDE915
:1032E00000706946306802F056FDB8F1010F01D94F
:1032F000192100E01821304602F062FD00287FD13C
:10330000411E09FB08F99020CDE906900591CDF802
:1033100020A00120CDE909A005A9306802F000FD38
:10332000B8F1010F24D84FE0406B400420D5A9EB41
:103330000500202811D281074FEA900000D0401CE0
:103340008246002706E02146306802F034FD241D45
:103350002D1D7F1C57450BD2F5E7002704EB870195
:10336000306802F028FD7F1C082FF7D32034203569
:103370003068416B40F21A321142D5D02AE0406BDE
:10338000400421D5A9EB0500202812D281074FEA7D
:10339000900000D0401C8246002706E0214630689D
:1033A00002F009FD241D2D1D7F1C57450CD2F5E7A9
:1033B00026E0002704EB8701306802F0FCFC7F1C4C
:1033C000082FF7D3203420353068416B40F21A6261
:1033D0001142D4D0406BC0050BD5B8F1010F08D90C
:1033E000306A18B1012801D0022802D13046FFF717
:1033F00001FF3168486B000705D508208863042069
:103400000DB0BDE8F08F486B800702D502208863BD
:10341000F6E7486BC00603D5102088630520EFE768
:10342000486B800503D5C1F838B00720E8E740F2C3
:10343000FF5088630BA9304602F0BEFE0028DFD1A2
:103440009DF82C100729F5D00629F3D0D8E770B5E0
:10345000040004D094F85100002510B106E00120CA
:1034600070BD84F85050204600F034F8022084F8F3
:1034700051002068016821F040010160D4E9010198
:103480000843D4E903121143084361690843218BBF
:1034900001F400710843E1690843216A0843A16A05
:1034A000084321680860A069042101EA1040616AAC
:1034B0000843216848602168E06A08612068C169A2
:1034C00021F40061C1616565012084F8510000208C
:1034D00070BD00002DE9F041064600682B492C4CD8
:1034E0000225012786B04FF0050888421AD12068CE
:1034F00040F001002060206800F0010005902448A1
:103500001430016841F4805101600068694600F49C
:1035100080500590E0208DE8A100CDE903581D48BA
:10352000FEF756FC1C49306888422CD1206840F0D8
:1035300008002060206800F008000590206840F036
:1035400002002060206800F0020005901048103052
:10355000016841F4004101600068694600F40040E0
:10356000059018208DE8A1000620CDE903500B48F6
:10357000FEF72EFC40208DE8A100CDE903586946F6
:103580000748FEF725FC06B0BDE8F0810030014099
:103590003038024000000240003C0040000402407D
:1035A000000C02402DE9F843044690F85100DDF884
:1035B0002080012801D022287ED169B162B15BB19F
:1035C00094F85000012877D0012784F8507094F8BF
:1035D0005100012803D005E00120BDE8F883322026
:1035E00084F8510000266665A263A387E387216300
:1035F000A386E386A664E664A06A4FF40055A84259
:1036000009D12068016821F4005101602068016837
:1036100041F40051016020680168490603D4016843
:1036200041F040010160E0684FF48271B0F5006F35
:10363000606807D0002867D088426ED1E08E0128EC
:1036400062D06AE020B188420CD1E08E012809D115
:10365000206B21680088C860206B801C2063E08E8E
:10366000401EE086E08E80B9A06AA84244D120685E
:10367000016841F4805101603EE02068C068A16BA0
:103680000880A06B801CA0639EE0434600220221BC
:10369000204603F079F8002874D1206B2168008857
:1036A000C860206B801C2063E08E401E0004000C6C
:1036B000E08609D1A06A00E0C7E0A84204D12068F2
:1036C000016841F4805101604346002201212046F7
:1036D00003F05AF800286FD12068C068A16B0880F9
:1036E000A06B801CA063E08F401EE087E08E002866
:1036F000CBD1606800286AD14346002201212046D0
:1037000003F042F8F0BBB8E7206B411C216321684D
:103710000078C860E08E401EE086E08E98B9A06A0E
:10372000A84204D12068016841F4805101604346F9
:1037300000220121204603F027F818BB2068C0684A
:10374000A16B087040E0434600220221204603F0AE
:103750001BF8B8B9206B411C216321680078C86050
:10376000E08E401E0004000CE08607D1A06AA8424B
:1037700004D12068016841F4805101600022434671
:10378000012100E018E0204602F0FEFFA0B9206809
:10379000C168A06B421CA2630170E08F401EE087ED
:1037A000E08E0028CFD1606888B94346002201210D
:1037B000204602F0E9FF08B103200EE72068C16847
:1037C000A06B421CA2630170E08F401EE087A06ADC
:1037D000A84210D1434600220121204602F0D4FF26
:1037E00018B1606D40F002000FE02068C068ADF8CD
:1037F0000000BDF80000434601228021204602F06F
:10380000C3FF20B1606D40F020006065D4E784F80C
:10381000517020688168A26AC1F30011AA4210D1D8
:1038200079B1616D41F002016165016821F40051D7
:1038300001602068016841F40051016084F8506023
:10384000CAE684F850600020C7E60220C5E64FF0C3
:10385000E0210428086903D020F0040008617047C3
:1038600040F00400FAE710B5401EB0F1807F01D3AC
:10387000012010BD4FF0E02460610F21601701F0BE
:1038800007FA0020A06107202061002010BD7047CA
:1038900090F83900704738B5016804460868CA686E
:1038A000C0F3000002F4807238B132B10868486891
:1038B0000090E06B40F00100E06308684A69C0F3E3
:1038C000400002F0010238B132B108684868009047
:1038D000E06B40F00400E06308684A69C0F38000D0
:1038E00002F0010238B132B1086848680090E06B1C
:1038F00040F00200E06308684A69C0F3C00002F0CB
:10390000010238B132B1086848680090E06B40F0BD
:103910000800E0630868C968C0F3401001F02001A6
:1039200018B111B1204603F021FA20680168C0687F
:10393000C1F3C01100F0800019B110B1204603F0AE
:1039400023FB21680868CA68C0F3801002F04002B7
:10395000012568B162B1CA68204622F04002CA60FF
:1039600094F8391032290CD080F8395000F086F9DB
:10397000E06B002804D084F839502046FFF787FF19
:1039800038BD222180F83910F0E770B5040004D06A
:1039900094F83900002510B106E0012070BD84F8CC
:1039A0003850204600F020F8022084F839002068C2
:1039B000C16821F40051C160204603F02BFA206851
:1039C000016921F4904101612068416921F02A01D7
:1039D00041612068C16841F40051C160E563012084
:1039E00084F83900002070BD2DE9F04704463749BE
:1039F0000068374D02260F1586B04FF0000A4FF0D1
:103A0000070888422BD1286840F001002860286808
:103A100000F0010005902E481430016841F01001BB
:103A20000160006802AA00F0100005906815CDE959
:103A30000006012082E84101DFF898906946484677
:103A4000FEF7C6F9694648460097FEF7C1F900221D
:103A500001212520FEF714FB2520FEF705FB1E495A
:103A6000206888422ED11A481030026842F4802221
:103A70000260006800F480200590286840F0020091
:103A800028602868CDE9007600F00200CDE90480C6
:103A9000124DCDE902A669462846FEF799F9E814C9
:103AA000009069462846FEF793F92068C16841F006
:103AB0002001C1602720FEF7D7FA002211462720F7
:103AC000FEF7DEFA06B0BDE8F08700000010014006
:103AD000303802400000024000480040000402402C
:103AE00090F83930012B01D0122B2BD131B32AB3EE
:103AF00090F83830012B25D0012380F838308162CE
:103B00008285C2850022C26390F83910122917D02D
:103B1000222180F839100168CB6843F48073CB60B0
:103B200001684B6943F001034B6180F8382000685D
:103B3000C16841F02001C16000207047012070473A
:103B40003221E6E70220704730B400681549884208
:103B50000CD1154A5088010408D411464404097850
:103B60004FF000030DD50A2902D0538030BC7047B6
:103B700040F4004050800E480C49006830BC0EF004
:103B80006CBA0D2909D0C0F30D04084D401C80B259
:103B900029555080FE28E8D8E8E740F4804050805E
:103BA000E4E700000048004018010020B01F00209A
:103BB000400000202DE9F047044690F8390099466E
:103BC0000D46012801D0222856D125B31AB394F806
:103BD0003800012850D0012684F838600027E763B8
:103BE00094F83900222819D0122084F83900A284D0
:103BF000E2844FF48058E08C4B46401EE084A0687D
:103C00004FF0000240454FF08001204613D103F0F1
:103C1000EEF908BB04E00120BDE8F0873220E4E7BC
:103C200028882168C0F308004860206908B16D1C2D
:103C300008E0AD1C06E003F0DAF968B9216815F870
:103C4000010B4860E08C0028D5D14B460022402172
:103C5000204603F0CCF908B10320DDE794F83900E1
:103C6000322805D084F8396084F838700020D3E712
:103C7000222084F83900F7E70220CDE770470000E2
:103C80000E4810B5016886B041F01001016000686F
:103C9000012400F0100005904FF44040CDE90004ED
:103CA0000220CDE9024069460548FEF791F8054833
:103CB000C0F8BC42C0F8B84206B010BD303802406F
:103CC000001002400000424230B50E490A6822F05E
:103CD00040420A600A6842F080420A600A4A0024B0
:103CE000C2F8B84221460123C509C2F8BC524006B9
:103CF000000EC2F8B832C2F8B842491CC9B208294D
:103D0000F2D330BD00100240000042420A48016870
:103D100021F040410160016841F0804101600748A5
:103D20000121C0F8BC12C0F8B8120021C0F8BC12C2
:103D3000C0F8B81270470000001002400000424274
:103D40000A48016821F040410160016841F080416A
:103D5000016007480021C0F8B812C0F8BC12012168
:103D6000C0F8B812C0F8BC12704700000010024042
:103D7000000042420F4900B50A68002022F040428C
:103D80000A600A680A600C490122C1F8BC22C1F825
:103D9000B82207E0401CC0B2FA2803D9FFF7D0FFD1
:103DA000012000BDD1F83C22002AF3D10020C1F847
:103DB000B80200BD00100240000042422DE9FE4F53
:103DC000044681A04FF00009D0E90020CDE9002091
:103DD0008DF80010CB464E4622466946032001F07E
:103DE0008BFA00281DD1607802902118255C11F80B
:103DF000012C4F7802F08002082F12D0802A02D0C6
:103E00000020BDE8FE8F4FF0FF0A07EB05102130C0
:103E10008DF8010035B1012D12D0022D23D0032DD4
:103E20003AD07BE0781CA1780AFA00F291438DF831
:103E3000021040F040008DF8030061F3070649E0EE
:103E4000A278781C8DF802200AFA00F3E17840F09D
:103E50004000994362F307068DF803108DF80400C3
:103E600061F30F2636E0A2788DF80220E3788DF812
:103E70000330781C21790AFA00FC21EA0C0162F374
:103E800007068DF8041040F0400063F30F268DF80C
:103E9000050061F317461DE0A3788DF80230E27843
:103EA0008DF8032021798DF80410781C94F805C052
:103EB0000AFA00F82CEA080C63F3070662F30F26EF
:103EC0008DF805C040F0400061F317468DF80600FC
:103ED0006CF31F66281DC0B22246694601F00CFA39
:103EE000207880281AD16078221812F8013C03F05B
:103EF0008001802903D114F8009092F801B003F0FA
:103F00000F00C0F10800C2B2781C824206D13DB158
:103F1000012D16D0022D22D0032D2DD0612070E767
:103F20009DF802200AFA00F3A0789A430243E07851
:103F300062F3070660F30F26207960F31746607975
:103F400017E09DF803200AFA00F3A0789A43024391
:103F5000E07862F30F2660F31746207909E09DF8B8
:103F600004200AFA00F3A0789A430243E07862F34F
:103F7000174660F31F6608E09DF805200AFA00F373
:103F8000A0789A43024362F31F6680202070029853
:103F90006070A670330AE370300C2071320E7340EB
:103FA000504043406271A37180297FF429AF4D4591
:103FB00005EB0900C5B201D05F4626E707EB0B0011
:103FC000401CC7B221E700000020080000000000EC
:103FD00070B505461A4C9321FFF7F0FE10BB194E41
:103FE000A6F10800F17804291ED0B5F803108181EC
:103FF00069798173A9799322227070226270F278B4
:10400000042A15D08822A2708289A4F80320807B1C
:104010006071A1712820E07108202A46214601F034
:104020006BF948B1612070BDD5F80210C160E1E7BD
:10403000C068C4F80200ECE7A878B073002070BD37
:104040009E350020A637002070B505461C4C9521F2
:10405000FFF7B4FE20BB1B4EA6F10800F17807293C
:1040600020D0B5F80310A0F80F1069794174A97930
:104070009522227070226270F278072A17D0882267
:10408000A270B0F80F20A4F80320407C6071A171E9
:104090002820E07108202A46214601F02DF958B168
:1040A000612070BDD5F80210C0F80F10DFE7D0F81E
:1040B0000F00C4F80200EAE7A878B073002070BDD2
:1040C0009E350020A637002070B50546144C972178
:1040D000FFF774FEF0B9134AD5F8020002F10806A2
:1040E000C2F80F00A9799720207070206070F378D3
:1040F00002200A2B04D1D2F80F00C4F802000620D7
:104100002A462154401C282121542146401C01F0FC
:10411000F3F808B1612070BDA878B073002070BDBD
:104120009E3500209E37002070B51A4D2846FFF7B7
:104130004FFFC8B9184CA07B40070AD52846FFF7A7
:1041400083FF88B9A07B400703D52846FFF7BCFF53
:1041500050B9A07B800609D500F0B0F80120E073CB
:10416000284600F025F908B1612070BD012000F05B
:1041700019F80A4802210A4A0170A07B10F0600F6A
:1041800005D0800601D504201070002070BD11708C
:10419000FBE700009C350020A6370020D303002059
:1041A000D403002030B51FA185B0D1E90021CDE9AD
:1041B00001211EA11F4D096803911DA109680491E9
:1041C0001D490978342901D3062400E004241B4941
:1041D0008A88042A01D204228A8009798DF8051080
:1041E0008DF8060000208DF80700601C2B4601AA00
:1041F000022101F053F888B903AB00223A210420D0
:10420000009501F09EF848B90A48009004AB0122DD
:104210006821042001F095F8002800D0612005B045
:1042200030BD000000000000030300005A0400003D
:1042300001DF00009C350020D5030020DE030020B4
:1042400010B518A086B0D0E90010CDE9011017A074
:10425000184C0068039016A0006804901648007877
:10426000342801D3062000E00420234601AA0221BD
:10427000401C01F013F888B903AB00223A21042056
:10428000009401F05EF848B90A48009004AB01229E
:104290006821042001F055F8002800D0612006B004
:1042A00010BD000000000000020200005A040000DF
:1042B00001DF00009C350020D503002010B51CA0B4
:1042C00086B0D0E90010CDE901101BA01C4C00689D
:1042D00003901AA0006804901A480078342801D38B
:1042E000062000E0042004218DF8051000218DF83F
:1042F00006100C218DF80710234601AA0221401C4C
:1043000000F0CCFF88B903AB00223A2104200094CE
:1043100001F017F848B90A48009004AB012268215F
:10432000042001F00EF8002800D0612006B010BD76
:1043300000000000030300005A04000001DF000039
:104340009C350020D503002010B500F00DF8FFF7D4
:1043500077FF08B1612010BD0249012008700020DC
:1043600010BD0000E4030020054800210181C16068
:104370000161818208308170C170C173017470471E
:104380009E37002010B5084C204600F05DF820B99B
:104390002146042000F014FF08B1612010BD03493C
:1043A00001200874002010BD9C350020A637002095
:1043B00038B5044622A022460068009069460320D2
:1043C00000F09AFF48B92146042000F0F9FE20B918
:1043D0002146022000F0DBFE08B1612038BDE07804
:1043E00010F00F0317D0012B17D0022B17D0032B7F
:1043F00017D0042B17D0052B17D0062B17D0072B5F
:1044000017D04FF480730F4982064B8016D5C00633
:1044100011D5607910E01023F5E71823F3E7202386
:10442000F1E72823EFE73023EDE74023EBE76023B4
:10443000E9E78023E7E7207900098880002038BD7C
:10444000E0802800DE03002038B5044612A0224692
:10445000006800906946022000F04EFF08B161201C
:1044600038BD0E486188018100F108010878800993
:1044700004D0012806D002280CD107E00420C8701F
:10448000012006E00720C870022002E00A20C87060
:1044900003208870002038BD260700009E370020CA
:1044A000F0B500230A24302537261F4610E0B4EB70
:1044B000107F02D905EB107C01E006EB107C01F8BF
:1044C00013C001EB430C00015B1C8CF80170DBB2E4
:1044D0009342ECD3F0BD00002DE9F0412C4C2D4E61
:1044E0002D4F20782D4DB8B102212846FDF75EFDF5
:1044F000012817D004212846FDF758FD012811D0C6
:1045000080213046FDF752FD01280BD001213846AD
:10451000FDF74CFD012805D002212846FDF746FD98
:1045200010B332E00020207002212846FDF73EFD46
:10453000012813D004212846FDF738FD01280CD0AE
:1045400080213046FDF732FD012809D0012138468F
:10455000FDF72CFD012805D017E00220BDE8F08111
:104560000320FBE70420F9E704212846FDF71EFDA0
:1045700058B980213046FDF719FD30B90121384680
:10458000FDF714FD08B9012020700020E6E70000C7
:1045900030010020001002400000024000040240F0
:1045A000254810B5026886B0002142F0040202607E
:1045B000026802F004020592026842F00102026001
:1045C000026802F001020592026842F002020260F3
:1045D000026802F002020592026842F010020260D4
:1045E000026802F010020592026842F008020260BE
:1045F000006800F0080005902020CDE900010120AE
:10460000029069460D48FDF7E3FB02200C4C009038
:10461000029069462046FDF7DBFB042100916946C4
:104620002046FDF7D5FB8020009069460548FDF740
:10463000CFFB06B010BD0000303802400008024039
:10464000000402400010024010B51BA00DF088FBD2
:1046500000F02EFB1BA20C21202002F0ABF91CA2C3
:104660002421102002F0A6F900F092FC4FF0E02087
:10467000002101618161FDF735FD01210846FDF74B
:1046800081FD0823022219214FF4C07002F030FA94
:1046900000F00EFB002112A2084602F08BF9202147
:1046A00012A2084602F086F900F072FCBDE8104044
:1046B00011A00DF055BB0000BDF8C8EBB5CDB9A6F3
:1046C000BAC40A00CBAFC3DFC4A3CABD0000000058
:1046D000B0B4B7B5BBD8BCFCCDCBB3F6000000007E
:1046E000B2A5B7C5D7B4CCACA3BA0000CDA3D6B998
:1046F000B2A5B7C500000000CDCBB3F6B5CDB9A6C5
:10470000BAC40A00164800B5016887B041F080516C
:104710000160006800F08050059011481038016871
:1047200041F0020101600068694600F00200059056
:10473000012000900B4801900220029003900A484B
:10474000FDF746FB0620FDF779FC00221146062006
:10475000FDF796FC0620FDF787FC07B000BD0000C2
:1047600040380240000011100004024070B50948B2
:104770000022114600680DF0F8FB074C002538B107
:104780002078401CC0B22070062802D1FFF75CFFE1
:10479000257070BD500000209400002070B50E49B7
:1047A00005460E4C087B38B9886828B1607818B97E
:1047B00001212846FCF781FE81212846FCF77DFE79
:1047C0006078022807D12846BDE870401F23024ABE
:1047D0000121FCF748BE70BDEC25002098010020A7
:1047E0002DE9F041294E074606F120057068686002
:1047F000B068A8600121384602F008FE244C1F284A
:104800000CD124493068884208D12348717B007854
:10481000814203D8B07B08B1102807D9707B2022D1
:10482000052101F0CBF90220607006E0174A3846F6
:104830000F3200F067FF002804DA3846BDE8F04187
:10484000FFF7ACBF207802281ED001281CD0032817
:104850001AD0618891B1B368626838468B4200D241
:1048600019468BB2A968C91AA960002129730421CD
:104870002170BDE8F0418121FCF73BBE3846BDE820
:10488000F041002100F096B8BDE8F081EC25002051
:104890009801002055534243CC01002010B5094C2B
:1048A0006278022A08D009060BD5012A09D0BDE892
:1048B0001040012100F07EB88121FCF7FEFD0020B0
:1048C000607010BD9801002010B504460C480178B6
:1048D000022905D0032901D0042910D1002109E0C3
:1048E000084800F10F02417B204600F00BFF002832
:1048F00005DA01212046BDE8104000F05BB810BD8C
:1049000098010020EC25002010B504460C480178E1
:1049100081B1012913D10B4800F10F02417B2046E0
:1049200000F0F0FE00280ADA2046BDE81040012120
:1049300000F040B82046BDE81040FFF751BF10BD61
:1049400098010020EC2500200149002008707047E4
:104950009801002010B504460C48002101704170F8
:104960000B48006801680020884701212046FCF7B9
:1049700050FD81212046FCF74CFD20461F23BDE859
:104980001040044A0121FCF76EBD00009801002090
:1049900080020020EC250020044900221F230A7019
:1049A00001224A70024A0121FCF75DBD98010020F6
:1049B000EC25002010B50C4A04460A48106011731B
:1049C0000A4900200D23087081212046FCF791FD43
:1049D000054A20461F23203ABDE810400121FCF77C
:1049E00042BD0000555342530C2600209801002080
:1049F00010B50022012112A00DF093FA154C0022EF
:104A00000121A06314A00DF08CFAA0620022012104
:104A100015A00DF086FAE0620022012118A00DF029
:104A200080FA20630022012119A00DF07AFA606358
:104A3000002201211BA00DF074FAE06310BD0000FC
:104A40004E46435461675F437573746F6D49445FAD
:104A50006D620000140000204E46435F54616749B8
:104A6000445F6D620000000042756C65546F6F74A6
:104A7000685F5472616E736665725F6D62000000FC
:104A80004E46435F53656E644D41435F6D62000067
:104A90005468655F417569646F5F4E616D655F6DF8
:104AA000620000004C4F575F5057525F6D6200002C
:104AB00038B50C4C1546628882B90B4A6028D37809
:104AC00008D100912946121D07F084FE0004000C55
:104AD000608005D1054807F009FF608000206080F4
:104AE00038BD0000E8030020A6370020443322111F
:104AF0007FB530238DF80C308DF80D001523094853
:104B00002380002605258DE861000A46022103A8BE
:104B100008F0EAF90349091F4880888820804888FE
:104B200004B070BDEC03002030B51CA0C3B0006819
:104B300042901BA00625D0E90010CDE9401008F0F6
:104B400091F82A4640A96020FFF7B2FF040004D183
:104B500069462846FFF7CCFF0446134900206A4601
:104B6000135C0B54401C0428FADB0878242807D176
:104B70004878272804D10D480B4900680DF06DFADC
:104B80000B480068017F806907F0AEFA01460948CA
:104B900000680DF062FA43B0204630BD24270001C2
:104BA000FFFFFFFFFFFF0000363900204C00002010
:104BB000B80200203C0000202DE9F05F8146C2EBE6
:104BC00082100C4688464FEAC00B00274FF6FF7A4A
:104BD00014480BEB07010025465C300601D5012285
:104BE00000E000222146484600F0C4F8641CE4B20C
:104BF000A4EB08000AEA46063F280CD06D1CADB2B3
:104C0000082DEAD37F1CBFB2B7F5FC7FE0D3BDE827
:104C1000F05F00F0BDB909F10100444600F0FF0962
:104C2000F0E70000625F01080CA004F0E5F805F071
:104C3000A9FB10B90EA007F060FD00224FF400712F
:104C40001248FDF7B8F9FCF741FB05F095F9FBF7C1
:104C5000D5FF05200DF023FEF7E700004E46435F29
:104C60005472616E736665725F5461736B0A000003
:104C7000496E697469616C697A6174696F6E2066E6
:104C800061696C65642E2E0D0A0000000010024060
:104C90000907090E002806DA00F00F0000F1E020F5
:104CA00080F8141D704700F1E02080F80014704770
:104CB00030B40021084B0A46002003EBC004401C1E
:104CC000C0B262548028F8D3491CC9B20829F3D372
:104CD00030BC00F05DB90000752100202DE9FE4FC9
:104CE0000026A2EB000882465F1A701E35468946F0
:104CF000B8F1000F02DD4FF0010102E003D14FF0E7
:104D00000001019102E0C8F100080190002F02DDCE
:104D10004FF0010002E003D14FF00000009002E0EC
:104D2000C7F1000700904046B84501DD044600E0A9
:104D30003C46601C4FF0000B029016E009F0FF01AA
:104D40000AF0FF000C9A00F015F846443D44A642D4
:104D500002DD0199361B8A44A54202DD00992D1B14
:104D600089440BF101001FFA80FB02998B45E5DDB8
:104D7000BDE8FE8F10B57F2816D83F2914D8072329
:104D8000A3EBD10301F00701C1F107040121A14008
:104D9000064CDBB204EBC000002AC25CC9B201D0F1
:104DA0000A4300E08A43C25410BD00007521002070
:104DB0002DE9F8411D4601241646884607460B4654
:104DC0000094FFF78BFF3A462B464146104600946D
:104DD000FFF784FF2B463246194638460094FFF70A
:104DE0007DFF32462B46414610460094FFF776FF82
:104DF000BDE8F8812DE9F0431E4690460F46054672
:104E0000DDF81C900CE03C4606E04A462146284668
:104E1000FFF7B0FF641CE4B2B442F6D96D1CEDB2EA
:104E20004545F0D9BDE8F08370B5544886B00026FA
:104E3000016841F001010160016801F00101059183
:104E4000016841F0080101600068012400F00800D9
:104E500005904FF40040CDE900040220CDE9024066
:104E600069464748FCF7B4FF1120464D009069465B
:104E70002846FCF7ADFF2A21009169462846FCF739
:104E8000A7FF002220212846FDF795F83E48C0F8EC
:104E9000BC423E4DC5F88042C5F89042C5F88442F8
:104EA000C5F88C62642005F5207504F0B9FFEC604C
:104EB0000021AE2000F02AF90021D52000F026F9CB
:104EC0000021502000F022F90021A82000F01EF956
:104ED00000213F2000F01AF90021D32000F016F93C
:104EE0000021084600F012F90021402000F00EF9E0
:104EF00000218D2000F00AF90021142000F006F9AD
:104F00000021202000F002F90021022000F0FEF82C
:104F10000021A12000F0FAF80021C02000F0F6F8EE
:104F20000021DA2000F0F2F80021122000F0EEF863
:104F30000021812000F0EAF80021EF2000F0E6F8DF
:104F40000021D92000F0E2F80021F12000F0DEF885
:104F50000021DB2000F0DAF80021302000F0D6F844
:104F60000021A42000F0D2F80021A62000F0CEF805
:104F70000021AF2000F0CAF806B070BD3038024002
:104F800000000240000C024000004042008041420C
:104F900070B50CF09DFB114E002505F1B000C0B2BC
:104FA000002100F0B3F80021084600F0AFF800211E
:104FB000102000F0ABF8002406EBC4000121405D96
:104FC00000F0A4F8641CE4B2802CF5D36D1CEDB2A3
:104FD000082DE2D3BDE870400CF054BC75210020D0
:104FE0002DE9F84F83461E460F468A46580700D0E3
:104FF000012000EBD600710810FB01F0203AC0B28E
:1050000002F0FF090025009039E00C2E0FD0102E81
:1050100011D0182E36D11C4909EBC90001EB8000D4
:105020004FF00008445D200609D50A9A0AE009EB12
:1050300049001649F2E7164901EB0910F0E70A9812
:1050400090B1002239465846FFF794FE60067F1C57
:10505000040EFFB2A7EB0A00B04207D10BF101002A
:10506000574600F0FF0B08E00122EBE708F10100D2
:1050700000F0FF08B8F1080FD5D36D1CEDB2009811
:105080008542C2D3BDE8F88F06520108A247010845
:10509000164C01082DE9FF4F81B00027DDF838B02C
:1050A0001D46924680463C464FF001094FEA5B069A
:1050B00027E0281B401EC1B20A2007F0FDFFBAFB03
:1050C000F0F00A21B0FBF1F201FB120027B9691ED2
:1050D0008C4201DA48B101273030C2B206FB0480AD
:1050E000C0B25B46CDF8009006E006FB0480C0B27B
:1050F0005B462022CDF800900299FFF771FF641CF7
:10510000E4B2AC42D5D305B0BDE8F08F70B50F4C1A
:10511000C4F884120023C4F890320D4D19460122C0
:10512000C4F88032060602D5C5F8BC2201E0C5F8F5
:10513000BC32C4F880224006491C000EC9B20829BE
:10514000EED3C4F89022C4F8842270BD008041429E
:1051500000004042014802F03FBA00007005002004
:1051600008B504A2014612686846009205F02AFFBD
:10517000002008BD550000001FB500208DF800007C
:10518000014601AB6A46022000F088F81FBD4A784C
:1051900001280FD0022805D003280BD0042809D0FD
:1051A00001207047881810F8010C8006002805DAE5
:1051B00021207047881840788007F7E70020704763
:1051C0000A78212A0BD008282BD00ADC012813D01A
:1051D000022813D0042813D0072808D121E0232067
:1051E000704709281FD00A281ED0552801D0012059
:1051F0007047552A1AD017E0C2B115E0A2B915E0E0
:10520000803A112A10D2DFE802F0090F0F0F0F0FBA
:105210000F0F0F0F0F0F0F0F0F0F1100487828B946
:1052200002E00AB902E00AB121207047002070476D
:105230002DE9F041174F00243878012801D105F0FD
:1052400035FE154D4FF440761348FFF789FF287857
:1052500055281DD03878012801D030B110E005F074
:1052600025FE287855280BD10FE00B48FFF778FF73
:10527000287855280CD02046641CA4B2B042F4D340
:105280002046641CA4B20528DED32620BDE8F081A8
:105290000020FBE7D80300209C350020FEB5064621
:1052A0001C4617460D461348FFF75AFF1148007871
:1052B000552801D0FFF7BCFF21202070002060702E
:1052C000042D00D800E0222008B12220FEBD0220DB
:1052D0008DF800008DF801608DF80250721E39467D
:1052E0000DF10300FBF76AF82146684605F06AFEF7
:1052F0000020FEBD9C35002010B50B46C2B0212118
:1053000011700021517004218DF8001014468DF8A1
:105310000100024619460DF10200FBF74FF8214645
:10532000684605F04FFE21460420FFF749FF00289C
:1053300003D02078872802D0212042B010BD282039
:10534000FBE730B5C1B009258DF800508DF801009C
:105350008DF802108DF80320821E449C194601A886
:10536000FBF72CF82146684605F02CFE41B00020E2
:1053700030BD00210A464254491C5029FBDB7047CE
:10538000012251030148FCF716BE00000010024044
:105390000148FDF783BB000088250020024908680A
:1053A00040F4003008607047045801402DE9F04196
:1053B000074615460E461848FDF78CFB164C174855
:1053C0004FF40051C4E900070020A060C4E90410B4
:1053D0000121A1610905E161A062C4E90D05402137
:1053E000E063C4E910612021A164C902C4E913107B
:1053F0008900C4E915108020E065022020664FF482
:10540000403060662046FDF787FB2068016841F464
:1054100080310160BDE8F081141C00200458014077
:1054200030B5044600211F4A8DB00A20B4FBF0F3CA
:1054300001EB810532F81550AB4203D0491CC9B2CB
:105440000B29F3D30B292AD00220009001EB810015
:1054500002EB40004188019181880391C088401C83
:1054600007906846FCF7AAFE0F48016821F4401136
:1054700041F4801101600D4D2868016821F48031EC
:10548000016028462C62FDF747FBFFF787FF28687D
:10549000016841F48031016000200DB030BD012071
:1054A000FBE70000884501088C380240141C0020EE
:1054B0002DE9F8430F4680460021164608465BB1A9
:1054C000012B02D0022B07D103E04FF400518810CA
:1054D00002E04FF4804188102D4B00221C6844F4F8
:1054E00080041C601B682B4C03F480030093A4F120
:1054F0008803294D1C672560A3634023C4E9012369
:105500001B01C4E905019810E0614002C4E90323CE
:10551000C4E90802E26220462263FCF7C9FB204688
:10552000FCF7F2FB3B461D4A414620460096FCF73D
:1055300091FB2068016821F0010101600A2004F05C
:105540007DFC2068016841F01001016020684FF087
:105550000061A84202D910484C3804E0104A904239
:1055600003D90D485038016008E00D4B0C4A603BF0
:10557000B83A984201D9D16000E09160002211460A
:105580003B20FCF77DFDBDE8F8433B20FCF76CBDFC
:10559000303802409C1C00205864024020580140D2
:1055A000B8600240C068002138B1022802D0042847
:1055B00003D101E0102100E0202101480160704783
:1055C0000058014070B50446FCF7FAFC0546206817
:1055D0000026016821F4803101600BE0FCF7F0FC4B
:1055E000401B0A2806D954F8840F40F04000206080
:1055F000032603E020680068C003EFD4304670BD86
:1056000010B5274C274A0368C169A342136804D127
:1056100023F440130B43136004E023F4400343EAF4
:10562000810111601F4988390B6809685B0205D444
:1056300001F03F031C49B1FBF3F104E01B4B01F007
:105640003F01B3FBF1F1C06940B1B0F5801F14D048
:1056500017490120C1F85C01164810BD114B1B1FF2
:1056600018681B68C0F30360C3F388134B43B3FB94
:10567000F0F11068C0F304200DE00A4B083B1868F5
:105680001B68C0F30360C3F388134B43B3FBF0F113
:10569000106800F01F00401CB1FBF0F010BD0000CE
:1056A000045801408C3802400024F40040787D0109
:1056B000000047420080BB0003480068016841F0D9
:1056C00001010160704700009C1C00200348006835
:1056D000016821F001010160704700009C1C00205E
:1056E0001144074A00B552F82020914206D92122E0
:1056F000052100F063FA4FF0FF3000BD002000BD2F
:105700003C2600202DE9F0410B464E490024661E40
:10571000C8604E4910784C4D0968232873D010DCBE
:105720001A285AD008DC4A4FD7F800C0C8B103285D
:105730002FD0122811D132E01B284BD01E280CD1BB
:1057400048E02A2871D004DC252862D0282804D11A
:1057500065E02F286FD05A2849D02022052118460D
:105760000FE03C481F46816819B12022407B05218B
:1057700007E0DCF808101846884738B13A220221C1
:10578000384600F01BFA3046BDE8F0812C8000203E
:10579000FAE7BDE8F0411146184600F0DBB9507851
:1057A000C00702D02C4B07200BE0DCF81C0003EBF9
:1057B000C30300EB830312791879401D824200D89D
:1057C0001046288003E0401E80B21A5C0A5400286C
:1057D000F9D115E020462C80D6E708201F4A288002
:1057E000401E0004000C135C0B54F9D108E00820A3
:1057F0001B4A2880401E0004000C135C0B54F9D196
:105800002046C1E7FFE7BDE8F0411146184600F029
:1058100067B9BDE8F0411146184600F01FB9BDE870
:10582000F0411146184600F0BBB8BDE8F041114602
:10583000184600F007BABDE8F0411146184600F0DE
:10584000D3B90000F80100209A0100209C0100203B
:1058500080020020EC25002092650108996501086E
:10586000A16501082DE9F0411F4E80464FF400402C
:10587000B468844200D3044672680027B4FBF2F097
:1058800085B2D6E904013B46FAF748FD02461748BF
:105890002B46174D00682968D0F810C04046E047F5
:1058A000002807DA11220421404600F087F9781E0B
:1058B000BDE8F081234681212A68F068FBF719FED4
:1058C000D6E9041009197841C6E90410B0680949FD
:1058D000001BB0608A68A2EB04028A6002D106490C
:1058E000032008700020E3E7F80100208002002078
:1058F0009C0100200C260020980100202DE9F04793
:10590000234F4FF400458146BC68AC4200D32C467F
:105910007A684FF00008B4FBF2F086B2D7E90401D0
:105920004346FAF7FBFC02461A4833461A4E006813
:105930003168D0F814C04846E047002808DA03224E
:105940000421484600F03AF94FF0FF30BDE8F087F7
:10595000D7E90420121940EB0800C7E90420B86811
:105960000E49001BB8608A68A2EB04028A600AD064
:10597000A84200D3284683B201213268F868FBF7B9
:1059800072FD0020E2E70021F868FFF713F8F8E75E
:10599000F8010020800200209C0100200C2600203D
:1059A0002DE9F047284F81460C463878F0BB274D4B
:1059B0004FF0FF38287B000637D5254800688168FE
:1059C0004846884728B13A220221484600F0F6F8B6
:1059D00014E06088217940BA000440EA012160792E
:1059E0001C4E0143C817C6E90410B4F8070042BAB8
:1059F0004846B260FFF774FE002802DA4046BDE870
:105A0000F08702203870D6E9041270680023A1FBE9
:105A1000004702FB007201FB0321C6E90441B168A3
:105A20004143B160A868884205D000E003E020222D
:105A3000687B0521CAE708494FF4004008804846C2
:105A4000BDE8F047FFF70EBF98010020EC250020CD
:105A500080020020F80100209A01002070B5044661
:105A60001B481A4D1B4A006805EB84014368204619
:105A7000984738B13A220221204600F09FF84FF0B3
:105A8000FF3070BD55F82400401E020E1248016818
:105A90000A7055F82400401E000C487035F82400A8
:105AA000401E000A887015F82400401EC87009487E
:105AB000001F4068020E0A71020C4A71020A8A71C4
:105AC000C871064908200880002070BD3C260020CF
:105AD00080020020FC0100209C0100209A0100208F
