:020000040800F2
:1000000070CF0220C1010008C9010008C702000822
:10001000CD010008CF010008D10100080000000058
:10002000000000000000000000000000D3010008F4
:10003000D501000800000000130200085361000809
:10004000DB010008DB010008DB010008DB01000820
:10005000DB010008DB010008DB010008DB01000810
:10006000DB010008DB010008DB010008DB01000800
:10007000DB010008DB010008DB010008DB010008F0
:10008000DB010008DB010008DB010008DB010008E0
:10009000DB010008DB010008DB010008DB010008D0
:1000A000DB010008DB010008DB010008DB010008C0
:1000B00039620008DB010008DB010008DB010008F1
:1000C000DB010008DB010008DB010008DB010008A0
:1000D000DB010008DB010008DB01000861660008A5
:1000E000DB010008DB010008DB010008DB01000880
:1000F000DB010008DB010008DB010008DB01000870
:10010000DB010008DB010008DB010008DB0100085F
:10011000DB010008DB010008DB010008DB0100084F
:10012000DB010008DB010008DB01000849140008BE
:10013000DB010008DB010008DB010008DB0100082F
:10014000DB010008DB010008DB0100082D46000888
:10015000DB010008DB010008DB010008DB0100080F
:10016000DB010008DB010008DB010008DB010008FF
:10017000DB010008DB010008DB01000800000000D3
:10018000DB010008DB010008DB010008DB010008DF
:10019000DB010008DB010008DB010008DB010008CF
:1001A000DB010008DB010008DB010008DFF80CD0F0
:1001B00000F03AFB004800478109000870CF022098
:1001C0000648804706480047FEE7FEE7FEE7FEE7F1
:1001D000FEE7FEE7FEE7FEE7FEE7FEE7E561000873
:1001E000AD010008EFF3108072B6704780F31088FD
:1001F0007047434A1368012B04D04FF0010313608A
:10020000404A1060404A116040484FF08051016000
:100210007047EFF3108272B63948016851B34FF05E
:10022000000101603748016891B1EFF309811EF0C8
:10023000100F08BF21ED108B21E9F00F4FF00004E3
:100240001EF0100F08BF012441F8044D0068016042
:100250002D490968096808C9B1E8F00F002B18BFDB
:10026000B1EC108B81F309884EF0100E002B18BFF3
:100270002EF0100E82F310884EF0040E70472249C3
:100280000860EFF3148222F0040282F314881D49FF
:100290004FF0000008601A494FF0010008601C4848
:1002A0004FF47F01D0F8002041EA020101601748B5
:1002B0004FF08051016017480068006880F308889B
:1002C00061B662B670471EF0040F0CBFEFF30880F2
:1002D000EFF3098020E9F00F40F804ED40F804ED59
:1002E0001EF0040F0CBF80F3088880F3098800B566
:1002F00011F0DEF85DF804EB4EF0040E70470000DC
:10030000D4030020CC030020D003002004ED00E043
:1003100020ED00E008ED00E02DE9F05F054600204B
:1003200092469B4688460646814640241BE0284666
:1003300041464746224600F02FF853465A46C01A17
:10034000914110D311461846224600F016F82D1A96
:1003500067EB01084F4622460120002100F00DF80E
:1003600017EB00094E41201EA4F10104DFDC4846D2
:1003700031462A464346BDE8F09F202A04DB203A56
:1003800000FA02F1002070479140C2F1200320FAE8
:1003900003F3194390407047202A04DB203A21FAE6
:1003A00002F00021704721FA02F3D040C2F120028E
:1003B000914008431946704710B5431A934209D239
:1003C0008318881803E010F8011D03F8011D521E60
:1003D000F9D210BD40EA01039B0703D009E008C928
:1003E000121F08C0042AFAD203E011F8013B00F8FA
:1003F000013B521EF9D210BDD2B201E000F8012B30
:10040000491EFBD270470022F6E710B513460A4694
:1004100004461946FFF7F0FF204610BD421E12F8B1
:10042000013F002BFBD111F8013B02F8013B002BEF
:10043000F9D17047421C10F8011B0029FBD1801A2A
:10044000704710B5002200E0521C835C8C5CA34214
:1004500001D1002BF8D1D8B2E1B2401A10BD30B5AD
:1004600004460020034600E05B1C934203D2E05C9C
:10047000CD5C401BF8D030BD034611F8012B00F8CD
:10048000012B002AF9D11846704730B50B460146BA
:1004900000202022012409E021FA02F59D4205D323
:1004A00003FA02F5491B04FA02F52844151EA2F1CD
:1004B0000102F1DC30BD2DE9FE4F804681EA0300E8
:1004C000C00F0C46009021F0004123F00045B8EB2E
:1004D0000200A94105D24046214690461C460B46E3
:1004E000024623F00040104347D0270DC7F30A000F
:1004F000C3F30A510290401A019040286BDAC3F30B
:10050000130040F4801B0098924620B10023D2EBE8
:10051000030A63EB0B0B01985946C0F140025046A9
:10052000FFF72BFF06460D4650465946019A00F04C
:100530008DF910EB08006141002487EA115284EA2A
:10054000E7731A4340D0009A62B3019A012A4FEA36
:10055000075215DC001B61EB02014FF0004202EA7A
:100560000752CDE90042001C41F5801132462B466E
:1005700000F08DF903B0BDE8F08F40462146F9E761
:10058000001B61EB0201001C41F5801300185B4168
:100590002018A2F5001747EB030140EAD570B61901
:1005A0006D4111E06D084FEA360645EAC0754FEA25
:1005B0000752001B61EB0201001C41F58011490844
:1005C0004FEA30000019514132462B4603B0BDE8D6
:1005D000F04F00F04DB90098012240000023D0EB0D
:1005E000020263EBE073009821464FEAE074B8EB37
:1005F000000061EB0401E9E783F000435BE781F071
:10060000004158E72DE9FE4F81EA030404F000445D
:1006100021F0004100944FF0000B23F0004350EA1A
:1006200001045ED052EA03045BD0C3F30A54C1F361
:100630000A552C44A4F2F3340194A0FB0254C1F3F4
:10064000130141F48011C3F3130343F4801301FB3E
:10065000024400FB034E840A970A44EA815447EAA5
:100660008357A4FB076802958D0A05FB07854FEAAF
:10067000932C04FB0C542705029D4FEA065847EAC9
:100680001637B5EB08056EEB070C870E920E47EA9E
:10069000811742EA8312A7FB0201B6EB0B0164EB60
:1006A00000042B0D43EA0C335E1844EB1C50DA4671
:1006B0005146E7FB0201C5F313044FEA0B3343EA4B
:1006C00014534FEA0432019C43EA0603A4F10C04DC
:1006D0000294009CCDE900B400F0D9F803B0BDE865
:1006E000F08F00200146F9E72DE9F04D81EA03047F
:1006F00004F0004B21F0004514464FF0000A23F0AF
:10070000004150EA050220D054EA01021DD0C5F391
:100710000A570246C5F31303C1F31300C1F30A5687
:1007200040F4801543F48013A7EB0608101BD6464F
:1007300008F2FD3873EB050002D308F1010801E06F
:1007400092185B41B8F1000F03DA00200146BDE8C2
:10075000F08D00204FF48011064684460EE0171BF2
:1007600073EB050705D3121B63EB050306434CEA45
:10077000010C49084FEA300092185B4150EA01072A
:10078000EDD152EA030012D082EA040083EA0501A7
:10079000084305D0101BAB4106D20122002306E01E
:1007A00000224FF0004302E06FF0010253101AEBF9
:1007B00006004CEB085110EB0A0041EB0B01BDE8C1
:1007C000F04D00F055B8C1F30A52C1F3130140F2E5
:1007D000FF3341F480119A4202DA0020014670474B
:1007E00040F233439A42A2F2334202DC5242FFF714
:1007F000D3BDFFF7C2BD000030B5041E71F1000487
:1008000004DB4FF00044404264EB0101141E73F11D
:10081000000405DB1C464FF00043524263EB040327
:10082000994208BF904230BD064C074D06E0E06893
:1008300040F0010394E8070098471034AC42F6D327
:10084000FFF7B8FCF05E0108105F0108202A06DB04
:10085000CB17203A41FA02F043EAE07306E041FA8E
:1008600002F3D040C2F1200291400843194670477C
:1008700010B5141E73F1000408DA401C41F10001A8
:1008800092185B411A4301D120F0010010BD2DE9FF
:10089000F04D92469B4611B1B1FA81F202E0B0FAF6
:1008A00080F220329046FFF768FD04460F4640EA8A
:1008B0000A0041EA0B0153465A46084313D0114639
:1008C00053EA010019D0C8F140025046FFF764FD19
:1008D00005460E46504659464246FFF74EFD084330
:1008E00005D0012004E020463946BDE8F08D002007
:1008F000054346EAE0762C4337430A986305E40A49
:10090000A0EB08000022FD0A44EA47540A3002D551
:1009100000200146E9E7010510196941DDE90845B4
:1009200000196941BDE8F04DA2E770B58C1810F8C8
:10093000015B15F0070301D110F8013B2A1106D124
:1009400010F8012B03E010F8016B01F8016B5B1E3E
:10095000F9D12B0705D40023521E0DD401F8013B19
:10096000FAE710F8013BCB1A921C03E013F8015B85
:1009700001F8015B521EF9D5A142D8D3002070BD09
:1009800010B512F03DF8002010BD00002DE9F04F29
:10099000684887B00024016841F0040101600168E3
:1009A00001F004010591016841F001010160016855
:1009B00001F001010591016841F002010160016847
:1009C00001F002010591016841F010010160016828
:1009D00001F010010591016841F008010160006813
:1009E000802600F008000096DFF84CB10590012544
:1009F00069465846CDE9014500F086FE280300907F
:100A000069464E4800F080FE4FF480780227CDE919
:100A10000085CDE902576946494800F075FE10206F
:100A200000906946584600F06FFE402000906946ED
:100A3000424800F069FE69464048009600F064FEB6
:100A40004FF4806969463F48CDF8009000F05CFEA5
:100A50004FF4006A69463B48CDF800A0029700F0C9
:100A600053FE01221021584600F041FF0122C0210F
:100A7000324800F03CFF01224146314800F037FF88
:100A8000012249462F4800F032FF002251462D48EE
:100A900000F02DFF4FF460408DE831006946274893
:100AA00000F032FECDF80080DFF89C8069464046B9
:100AB00000F02AFE0096CDE90154694640460394B1
:100AC00000F022FE0097CDE9015469461D480394C9
:100AD00000F01AFE0095CDE90154694619480394C7
:100AE00000F012FE2020CDE900046946134802946C
:100AF00000F00AFECDE90065CDE9025469460F48D1
:100B000000F002FE012202210E4800F0F0FE002259
:100B100001210C4800F0EBFE01228021404600F04C
:100B2000E6FE00228021054800F0E1FE07B0BDE8A6
:100B3000F08F0000303802400008024000040240FC
:100B40000000024000100240000C024010B50022DC
:100B50001021214800F0CBFE0022C0211F4800F0E8
:100B6000C6FE00224FF480711D4800F0C0FE012235
:100B7000D1021C4800F0BBFE642011F08CFB07F092
:100B800021F805F011F807F0C6F903F051FC6420D4
:100B900007F053FA00221146202003F0ABFA09F0C7
:100BA00065FC114C012211A1206809F0FBFD012216
:100BB0000FA1606809F0F6FD0AF06AFB10B10BA006
:100BC00012F05CFE4FF4FA6011F065FBBDE81040D6
:100BD00008A007F0EFBA000000080240000402403D
:100BE00000000240001002401C260020303A0000A5
:100BF000313A0000646F6E650A0000002DE9FE4F77
:100C00006A2002900220C10101904D4800F06AFE66
:100C10004C4F072400264FF07A084FF078094FF028
:100C2000760A4FF0740B0125E8B138796E22401C2A
:100C300038713D706C2023460096019903F0DCFB6F
:100C40007222702023460096019903F0D5FB42469C
:100C5000484623460096019903F0CEFB524658467B
:100C60002346009653E04FF40041374800F03AFE27
:100C7000B0B1FE700220387072227020234602212B
:100C8000009603F0B9FB42464846234602210096EF
:100C900003F0B2FB5246584623460221009630E04C
:100CA0004FF48041284800F01DFE70B1BE70032053
:100CB00038705246584623460096019903F09CFB33
:100CC000424648462346009613E04FF400511E4822
:100CD00000F008FE80B37E70042038700096234632
:100CE00042464846019903F087FB23465246584640
:100CF0000095019903F080FB234672227020009535
:100D0000019903F079FB6E2223466C20009501992E
:100D100003F072FB7C2406237E22032120460095EB
:100D200003F06AFB092331462246029803F042FB96
:100D3000BDE8FE4F03F032BC052038700095CEE7C9
:100D4000000C02400B0100200004024000210A4672
:100D50004254491C3229FBDB704770B50D460646EC
:100D6000FFF768FB04463046FFF764FB844205D179
:100D7000002406E0305D295D884201D0002070BD6E
:100D8000641C3046FFF756FBA042F3D8012070BD2B
:100D900008B509F039FA09F043FA00F013F807A092
:100DA000054900680090684609F004FB02480449C0
:100DB000407B087008BD0000E43500200100000001
:100DC000A5030020F8B51DA000240068009009F0DC
:100DD000CDFA09F013FA012801D109F05FFA184D94
:100DE0004FF440761649684609F0E4FA2878552809
:100DF00021D009F003FA012803D009F0FFF968B106
:100E000001E009F04BFA2878552804D02046641CEC
:100E1000A4B20528E6D36FF00D00F8BD0849684676
:100E200009F0C8FA2878552805D02046641CA4B2D9
:100E3000B042F3D3EAE70020F8BD000055000000FF
:100E4000E435002010B503F003FC052000F050FC51
:100E500002F0B0FE02F0CEFE02F09CFD03F02CF991
:100E6000BDE8104003F0F4BB0069416841F00201A5
:100E70004160032006F038BA10B50B460C0601F0AD
:100E80007F0202EB820100EBC10102D501F58E71F8
:100E900001E001F55D710A70DA094A7006F0FAFBAB
:100EA000002010BD0A4610B5090602F07F0306D5E2
:100EB00003EB830100EBC10101F58E7105E002EB4C
:100EC000820100EBC10101F55D7100248C700B7093
:100ED000D2094A7006F0C5FB002010BD10B50A0605
:100EE00004D501F07F0106F0EBFC01E006F0CAFC3E
:100EF000002010BD70B50D460E0601F07F0404EB16
:100F0000840100EBC10102D501F58E7101E001F50C
:100F10005D71ED090C704D708A60CB7000D0CC8093
:100F2000022B01D100220A7106F072FB002070BD75
:100F300010B501F07F0404EB840100EBC101C1F89E
:100F40008833C1F880230023C1F88C3381F87533CE
:100F500081F87443C37801F55D71012B00D10A61FA
:100F600014F0FF0F03D006F0C7FB002010BD06F001
:100F7000E4FAFAE70069002261F30A1201681143FA
:100F8000016070470A4610B5090602F07F0306D5D6
:100F900003EB830100EBC10101F58E7105E002EB6B
:100FA000820100EBC10101F55D7101248C700B70B1
:100FB000D2094A7006F088FB002010BD70B511F010
:100FC0007F0404EB840100EBC1014FF0010581F8BF
:100FD0001D5181F81C41C1F82821C1F82C2101F5CF
:100FE0008E714FF00002C1E9053203D006F084FB98
:100FF000002070BD06F0A1FAFAE770B5044606F0CD
:1010000081FAE068C16821F47055C560204606F099
:1010100079FC0146002003290FD00120A070402058
:10102000A08025F4705000F5A050E168C860E16828
:101030004FF400504861012070BDA0704FF4007063
:10104000A08025F4705000F51050EEE72DE9F04136
:101050000646002406F079FC074650E0F8074CD01D
:101060003069E1B20369426BCA4006EB810102F0CC
:101070000102896943EAC2128D681540E9071AD056
:101080000125426B05FA04F18A43426306EB8400B2
:10109000806985601C48E1B200684268304690472C
:1010A000F078012807D134B996F81101042802D14B
:1010B000304606F09BFA280704D506EB8400082585
:1010C00080698560E80604D506EB840010258069F8
:1010D0008560680604D506EB84004025806985603C
:1010E000A80704D506EB84000225806985602806E0
:1010F00003D52146304600F060F97F08641C002FBC
:10110000ACD10120BDE8F081540100202DE9F0416F
:101110000546002406F01FFC0746DFF8988043E0F0
:10112000F8073FD0E1B2284606F01BFC0646C00790
:1011300025D005EB84000126416D8E60E9780129F8
:101140000CD1406D016904EB840005EBC000C1F3D4
:101150001201D0F87C23511AC0F88C13D8F8000083
:10116000E1B2026828469047E878012807D134B9EF
:1011700095F81101052802D1284606F037FAB00784
:1011800004D505EB84000226406D8660300709D542
:10119000D8F8000081682846884705EB84010820BC
:1011A000496D88607F08641C002FB9D10120BDE81B
:1011B000F08100005401002070B50546C0688169C7
:1011C00021F010018161E868066A06F00F0000EB6B
:1011D000800005EBC004C6F3434004F55D740728A6
:1011E00021D2DFE800F0202004202020150047F65F
:1011F000F070064217D0C6F30A1632462846E16858
:1012000006F0B7FBE0683044E060A069304409E0D4
:10121000082205F2CC51284606F0ABFBA069C6F3C4
:101220000A110844A061E868816941F010018161F8
:10123000012070BD38B5044600208DF8000094F8F8
:1012400012018DF800001548006841692046884762
:1012500020698068E2684FF400615161A17AD1B1E0
:10126000C00718D094F81501012814D19DF800008A
:10127000032810D1D4F80C01016841F0010101608C
:10128000D4F80C01016841F00301016004480168D1
:1012900041F006010160012038BD0000540100202A
:1012A00010ED00E070B50446006900250126416894
:1012B00021F0010141602946204606F001FB002093
:1012C000FF2206E004EB80018B699A60496D8A6019
:1012D000401C61788142F5D821694FF0FF30886168
:1012E0002846216966F30F0066F31F40C861216933
:1012F00045F00B004861216945F00B000861206949
:10130000016821F4FE610160204606F06FF9E16892
:101310004FF48050486103480068016920468847BF
:10132000012070BD5401002070B5044606F032FB68
:101330000120002384F8120184F814311A46402554
:1013400010E002EB820104EBC10181F81D0181F87C
:101350001C21A1F8222181F81F31C1E94953521CF7
:10136000C1F8303161789142EBD8002010E000EBF9
:10137000800104EBC10181F8753381F87403A1F891
:101380007A0381F87733C1E9DF53401CC1F8883311
:1013900061788142EBD8204606F0ACF8204605F093
:1013A000A5FF0021204606F055FB204605F0DEFF94
:1013B0002046BDE8704006F05DBA2DE9F0470E46C4
:1013C00001EB860100EBC1048046D4E94C01401AD0
:1013D000D4F8241104F58E74814200D20846C01C52
:1013E00008EB86098708D9F81800816920E0451ABA
:1013F000A068A84200D20546E81C8708ABB2F2B24A
:101400004046E16806F03BFBE0682844E060A069E4
:101410002844A061D9F8181089696269824207D10D
:10142000207801228240D8F81000436B9343436335
:1014300088B2B84205D9D4E90501814201D2002819
:10144000D5D10120BDE8F08730B419481A4D1A4AA9
:101450000068184B184C603DB83A984202D91549BB
:10146000543903E0A04203D912495839096804E00D
:10147000A84201D9516800E0116811F0006F15D041
:101480004FF00061984202D90A484C3803E0A0426C
:1014900003D908485038016004E0A84201D9D1605E
:1014A00000E091600548006830BC004730BC7047E0
:1014B000D81F002058640240B8600240FC000020A1
:1014C00001681823CAB2103AB2FBF3F2054B6FF36E
:1014D0000901032A9B5C436500D9091D0165084683
:1014E00070470000665C010810B50468636083689B
:1014F000402B036803D099600068C26010BD9A60F9
:101500000068C16010BD000010B5002102A00FF0FE
:101510004BFE0549C86310BD446973706C61795F07
:101520004E6F417564696F001400002030B40C46A2
:1015300001461546500700D0012000EBD50010FBF6
:1015400005F0C2B208784B78812809D3402B07D325
:10155000FF2B05D0FF2803D07F2B0CD2403B0BE0A4
:101560000023184603E05B1C04F8010BDBB2934236
:10157000F9D330BC7047413B8138D9B2C0B2C0EB1F
:10158000401303EB801001EB400050430C490C2D3D
:101590000CD0102D0DD0182D0ED0202DE9D1D1F862
:1015A00021100144204630BC06F04ABBD1F8091096
:1015B000F7E7D1F81110F4E7D1F81910F1E70000BE
:1015C000F125002070B5044690F83400049D0128F0
:1015D00008D0012084F8340020680668360303D45C
:1015E000122605E0022070BD0668360302D52226C9
:1015F00084F83560066826F00106066020680668F3
:1016000046F480260660206803612B462046FFF7DB
:101610006BFF2068016841F001010160002070BD8E
:1016200070B5040025D094F83500022821D0206838
:10163000016821F001010160206800250560206833
:101640004560206885602068C56020680561216864
:10165000212048612046FFF733FF94F854203F21B2
:1016600091408160E56484F8355084F8345000205E
:1016700070BD012070BD000070B504001AD00220BA
:10168000636A84F8350021680A6818480240D4E982
:1016900001052843D4E903563543284365692843A7
:1016A000A5692843E5692843256A28431043042B8C
:1016B00002D005E0012070BDD4E90B231A4310438A
:1016C000086022685069616A20F007000843042915
:1016D00001D1A16A084350612046FFF7F1FE0020C6
:1016E000E064012084F83500002070BD3F8010F0D8
:1016F00031B500F001F9044600F0FEF80099001B36
:101700008842F9D338BD00002DE9F84FDFF8A091E9
:10171000002209F1040A0AF1040B4FF00F080BF143
:10172000040E01260B6896403340B34271D14C68D9
:10173000022C01D0122C11D1D40800EB84073D6A91
:101740005407E40E08FA04FC25EA0C05D1F810C091
:101750000CFA04FC4CEA050CC7F820C007685400DA
:10176000032591F804C0A5400CF0030CAF430CFA1C
:1017700004FC4CEA070CC0F800C04F68012F05D0EC
:10178000022F03D0112F01D0122F11D18768D1F869
:101790000CC0AF430CFA04FC4CEA070CC0F808C0BC
:1017A0004768B7430E79C6F3001696403E4346603D
:1017B000C668AE438D68A5403543C5604C68E400FB
:1017C0006FD53C4C256845F480452560246822F09F
:1017D000030504F480440094374C2E19D6F8087899
:1017E0009407250F08FA05F4A743344CA04201D111
:1017F00000242EE0324CA04201D1012429E0314CDA
:10180000A04201D1022424E02F4CA04202D10324A3
:101810001FE046E02D4CA04201D1042419E02C4CDD
:10182000A04201D1052414E02A4CA04201D1062493
:101830000FE0294CA04201D107240AE0274CA04226
:1018400001D1082405E0264CA04201D1092400E082
:101850000A24AC403C43C6F80848D9F800404D463D
:101860004E689C43F60300D51C432C60DAF8004018
:1018700055464E689C43B60300D51C432C60DBF8EC
:1018800000405D464E689C43F60200D51C432C6028
:10189000DEF8004075464E689C43B60200D51C43F6
:1018A0002C60521C102AFFF43CAFBDE8F88F0000FA
:1018B000003C01404438024000300140000002403A
:1018C0000004024000080240000C024000100240E8
:1018D0000014024000180240001C02400020024098
:1018E000002402400069084000D0012070470AB17E
:1018F000816170470904FBE710B510F04BFE4FF40F
:101900007A714843B0FBF1F010BD00000248016855
:10191000491C016070470000240100200B4810B5ED
:10192000016841F400710160016841F48061016067
:10193000016841F480710160032000F051F80F202C
:1019400000F006F800F015F8002010BD003C024041
:1019500010B5044600F0F2FA4FF47A71B0FBF1F0E2
:1019600001F0C3FB00222146501E00F019F80020B0
:1019700010BD704700F01F02012191404009800016
:1019800000F1E020C0F88011704700F01F02012133
:1019900091404009800000F1E020C0F8001170473C
:1019A000F0B40E4B1B68C3F30223C3F10704042CED
:1019B00000D904241D1D072D01D2002300E0DB1EE9
:1019C000012606FA04F56D1E0D409D409E40761ED0
:1019D000164045EA0601F0BC02F008BC0CED00E040
:1019E000064A00F0070110684FF6FF03184040EA6E
:1019F0000120034908431060704700000CED00E02F
:101A00000000FA052DE9F8431D48016841F08051B6
:101A100001600068012700F080500090380490FABF
:101A2000A0F0DFF86080B0FA80F048F82070FFF78F
:101A300063FF04464FF47A75134E04E0FFF75CFF32
:101A4000001BA84213D87068C003F7D54FF40030CC
:101A500090FAA0F0B0FA80F048F82070FFF74CFF41
:101A6000044607E0FFF748FF001BA84202D9032005
:101A7000BDE8F88370688003F4D50020F8E7000023
:101A80004038024000000E42007000402DE9F84F3F
:101A900004460068DFF878829E4DC10747F6C07A99
:101AA0004FF0E0464FF0010B4FF0000901D18007E5
:101AB0004BD59949C1F86890FFF71EFF074604E02F
:101AC000FFF71AFFC01B64287ED828680001F7D4EE
:101AD00020789249C0070DD09AFAAAF26068B2FA4B
:101AE00082F2904096FAA6F3A268B3FA83F39A4082
:101AF000104308602078800718D5086896FAA6F287
:101B000000F0E040B2FA82F2D0406268237B92019A
:101B100042EA036242EA00700860D8F80010E26905
:101B200021F01F01521E1143C8F800107A49C1F874
:101B300068B0FFF7E1FE074604E0FFF7DDFEC01BDB
:101B4000642841D828680001F7D52068410701D4EE
:101B5000000776D57049C1F87090FFF7CDFE0746B3
:101B600004E0FFF7C9FEC01B64282DD82868C043D5
:101B70008000F6D520786A4F40074FF0706C29D569
:101B8000386896FAA6F100F0E040B1FA81F1C84059
:101B90009AFAAAF22169B2FA82F291409CFAACF365
:101BA0006269B3FA83F39A40114396FAA6F2B2FA45
:101BB00082F2904001433960D8F800106FF0FF03C3
:101BC00021F4F851226A00E079E003EB022211438C
:101BD000C8F800102078000723D538689CFAACF1CB
:101BE00000F07060B1FA81F1C8409AFAAAF2216956
:101BF000B2FA82F291409CFAACF2B2FA82F29040D0
:101C0000014396FAA6F2A069B2FA82F2904001432B
:101C10003960D8F80010626A21F440311143C8F8E5
:101C200000103D49C1F870B0FFF766FE064604E0BB
:101C3000FFF762FE801B642841D82868C0438000FB
:101C4000F6D42078800651D532484F46403001689E
:101C500041F0805101600068324E00F080500090E9
:101C6000306840F480703060FFF746FE054604E0BF
:101C7000FFF742FE401B642821D83068C005F7D525
:101C8000264E143E3068218D00F4407001F44071FE
:101C900088422BD03068244920F44070C1F800B04D
:101CA0000F603060800710D5FFF726FE054641F231
:101CB000883707E0FFF720FE401BB84202D9032017
:101CC000BDE8F88F30688007F4D5A06A1149C0F3E9
:101CD00001220831032A13D0086820F4F8100860A4
:101CE0003068218DC1F30B01084330602078C006B5
:101CF00004D50E4994F82C00C1F8E0010020DFE77C
:101D00000A680B4B22F4F812184002430A60E7E716
:101D10008C380240003802400000474284380240BC
:101D20008838024000700040400E47420010474291
:101D3000FFFCFF0F2DE9F05FDFF8F8A104460F4626
:101D4000DAF80000DFF8F08100F00F02C8B27A493B
:101D5000814641F2883608F10808BA4261D202464B
:101D60008AF80020DAF8000000F00F00B8427DD1B8
:101D70002078800707D5D8F80020A36822F0F00269
:101D80001A43C8F800202078C0072DD060680128C9
:101D90001AD002281BD0032819D009688907002906
:101DA00064DAD8F80010474621F003010143C8F86F
:101DB0000010FFF7A1FD0546606801280FD002283A
:101DC00018D003281CD027E009688903E7E70968D1
:101DD0008901E4E7FFF790FD401BB04258D838680E
:101DE000C0F381000128F5D188E0FFF785FD401B95
:101DF000B0424DD83868C0F381000228F5D17DE0AB
:101E00003868FFF779FD401BB042F9D940E0FFF791
:101E100073FD401BB0423BD8386810F00C0FF6D170
:101E20006CE02078800707D5D8F80020A36822F05E
:101E3000F0021A43C8F800202078C0074CD0606830
:101E4000012828D0022829D0032827D0096889072B
:101E5000002949DAD8F8002022F003020243C8F82A
:101E60000020FFF749FD0546606800E03CE00128DE
:101E70001DD0022829D0032838D0B3464646306802
:101E800010F00C0F28D0FFF737FD411B5945F6D94C
:101E90000320BDE8F09F09688903D9E70968890133
:101EA000D6E7FFF729FD411B594502D9F0E7B346B4
:101EB00046463068C0F381000128F2D10CE0FFF7FC
:101EC0001BFD411B594502D9E2E7B346464630683F
:101ED000C0F381000228F2D18AF80090DAF80000FD
:101EE00000F00F00B84209D00120D2E74446206834
:101EF000FFF702FD401BB042F9D9C9E7207840073F
:101F000007D5D8F80010E26821F4E0511143C8F871
:101F100000102078000708D5D8F80010226921F4B5
:101F2000604141EAC201C8F800100F20FFF710FD20
:101F30000020AEE7003C02400038024010B500F03F
:101F400043F808490968F02292FAA2F201F0F00180
:101F5000B2FA82F2D140044A515CC8400349086099
:101F600010BD0000083802406E5C0108000000202F
:101F700010B5FFF7E3FF074909684FF4E05292FA02
:101F8000A2F201F4E051B2FA82F2D140024A515C6D
:101F9000C84010BD083802406E5C010810B5FFF75C
:101FA000CDFF074909684FF4604292FAA2F201F4AA
:101FB0006041B2FA82F2D140024A515CC84010BD81
:101FC000083802406E5C010830B51948006810F00E
:101FD0000C01184812D0184C04290ED008290DD134
:101FE000134A121F1168136801F03F015D0247F6A2
:101FF000C07304D5B4FBF1F003E0204630BDB0FB64
:10200000F1F01168194093FAA3F3B3FA83F3D940BE
:10201000484311684FF4403292FAA2F201F4403181
:10202000B2FA82F2D140491C4900B0FBF1F030BD58
:10203000083802400024F40040787D012DE9F84F73
:1020400004460078DFF8FCA2BF4DC0074FF0000641
:1020500048D0DAF800105046C1F38101012908D0B8
:102060000068C0F3810002280AD1281D00684002E0
:1020700006D52868800335D56068002873D031E024
:10208000DFF8C49209F1020989F80060FFF734FC17
:10209000074641F2883804E0FFF72EFCC11B41459A
:1020A0007AD828688003F7D4207989F8000060681E
:1020B00060B1FFF721FC074604E0FFF71DFCC11BE0
:1020C0004145EDD828688003F7D50BE0FFF714FCF5
:1020D000074604E0FFF710FCC11B4145E0D8286823
:1020E0008003F7D42078DFF86492800744D5DAF8CB
:1020F0000010504611F00C0F4FF0F80809D000689E
:10210000C0F3810002280BD18E48001F00684002F6
:1021100006D42868800714D5E068012823D110E090
:10212000E068D0B10120C9F80000FFF7E5FB0746E1
:1021300004E0FFF7E1FBC01B6428B1D828688007E2
:10214000F7D5286898FAA8F22169B2FA82F220F04D
:10215000F8009140084328600EE0C9F80060FFF7DE
:10216000CBFB074605E0EAE0FFF7C6FBC01B64288F
:1021700012D828688007F7D42078000725D5DFF823
:10218000C4817348616908F16C0881B10121016063
:10219000FFF7B2FB074605E07EE0FFF7ADFBC01B93
:1021A000642879D8D8F800008007F6D50DE00660DD
:1021B000FFF7A2FB074604E0FFF79EFBC01B642865
:1021C0006AD8D8F800008007F6D42078400753D5A5
:1021D0005C483830016841F0805101600068DFF8E8
:1021E000748100F080500090D8F8001041F48071A4
:1021F000C8F80010FFF780FB074604E0FFF77CFB00
:10220000C01B642848D8D8F80000C005F6D5DFF810
:1022100034B10BF1680B8BF80060FFF76DFB0746DC
:1022200041F2883804E0FFF767FBC11B41457ED8C7
:10223000DBF800008007F6D4207A8BF80000A06855
:1022400068B1FFF759FB074604E0FFF755FBC11BD8
:1022500041456CD8DBF800008007F6D50CE0FFF7AD
:102260004BFB074604E0FFF747FBC11B41455ED827
:10227000DBF800008007F6D4A069E8B3DAF80010B4
:10228000C1F3810102295AD0022806D0C9F8606042
:10229000FFF732FB04464DE049E04F46C9F8606065
:1022A000FFF72AFB064604E0FFF726FB801B6428A5
:1022B0003DD828688001F7D4D4E90701084347F6E0
:1022C000C07191FAA1F1626AB1FA81F18A40A16A02
:1022D0004FF0FF3303EB51014FF4403393FAA3F374
:1022E000B3FA83F399400A4310434FF0706292FAB5
:1022F000A2F2B2FA82F200E01FE0E16A91400843E4
:102300001049091F086001203866FFF7F5FA0446F6
:1023100004E0FFF7F1FA001B642808D82868800160
:10232000F7D50AE0FFF7E8FA001B642802D903207A
:10233000BDE8F88F28688001F4D40020F8E7012078
:10234000F6E700000838024000380240000047422B
:10235000800E47420070004070B504001BD0022080
:1023600084F881002068002505612168681E886165
:10237000204602F07DFB2068416841F00801416081
:10238000204600F0A1F8C4F8845084F8815084F805
:102390008050002070BD012070BD704770B50400F2
:1023A00004D094F88100002510B106E0012070BD32
:1023B00084F88050204600F089F8022084F88100DB
:1023C000204602F055FB204602F042FB206AA8B1ED
:1023D000204602F06FFB216A00EB800040004902BA
:1023E000B0FBF1F00A21B0FBF1F2B0FBF1F301FB1D
:1023F00013006262082801D9521C626220680168D9
:102400002F4A11400160616B60680843D4E90E12E5
:1024100011430843216C0843A1680843A16A08439B
:102420002169084361690843A18C40EA0151E06ACF
:1024300001432068026811430160206841684CF242
:102440000F029143416020684168A2691143D4E9B9
:102450000B231A431143416020688168194A1140D7
:102460008160616DE06C626C0143206D521E10430F
:102470000143A06C6FF0FF0202EB002001432068D3
:102480008368194381602068C1684FF220031940B6
:10249000C160D4E916100143D4E9183002EB0322DD
:1024A000104301432068C2681143C160C4F88450DE
:1024B000012084F8810084F88050002070BD000065
:1024C00010C005FF0080F8FF70470000124800B5FB
:1024D000016887B041F480010160006800F4800069
:1024E00005900D481438016841F010010160006842
:1024F000694600F0100005907C20009002200190B9
:102500000120029003200390062004900348FFF767
:10251000FBF807B000BD0000443802400010024044
:102520002DE9F04790F8202081F85620828CA1F800
:102530005420826A0023120E94090C70C2F38304A3
:102540004C7002F003028A70826A120CCA70028D0B
:10255000120A0A7190F828204A71C26A4FF6FF7A6F
:10256000120E0AEA0212CA80C26ACC88C2F307427B
:1025700044EA1214CC8002F00F020A72828DC2F378
:102580000722D4094C72C2F380148C72C2F3401437
:10259000CC72C2F300140C7300264E73046A4FF021
:1025A0000109002C7DD0012CFCD0022C7AD02923EB
:1025B000C2F380144C769206520E01F81A2F10F8CE
:1025C000302F0C7844EAD21401F8014B02F07F025C
:1025D00001F8012B50F8042F120ED4090C70C2F32D
:1025E00041144C70C2F382048C709207120FCA70AF
:1025F00004C8CC78C2F3074244EA9214CC70C2F308
:1026000040140C714E7102F001028A7130F8042CF2
:10261000C2F30722D409CC71C2F380140C72C2F346
:1026200040144C72C2F300148C72C2F38104CC7259
:1026300002F003020A7310F8042C52084A734C4645
:1026400081F80E9050F8082B120E0A7450F8082CDE
:10265000120C0AEA02224A8230F8082C4D8AC2F390
:10266000072215434D8210F8082C120641F8142F4A
:1026700050F8042C0D68120E45EA02420A6050F828
:10268000042C0D68C2F3074245EA02220A6030F8C2
:10269000042C0D68C2F30722154320C110F8042C46
:1026A00001E034E076E001F8012B0268120E01F837
:1026B000032B0268120C12060A6002880D68C2F32E
:1026C000072245EA02420A6002780D6845EA0222C2
:1026D0000A6042680D6845EA126520C142680D78BB
:1026E000C2F3074245EA121501F8025B1207120D08
:1026F0000A8082880D88C2F30722154321F8025B05
:102700000079400808704C701846BDE8F0879207C1
:10271000120D0A6190F82C200C6944EA82020A61C9
:10272000026B0C69120E44EA92140C61C2F3C204EB
:102730000C7502F007024A75026BC2F30742540996
:102740008C75C2F38204CC759207520F0A76028E02
:102750000C7EC2F3072244EAD2140C760C690F7E79
:10276000BF1C09FA07F5641CA4FB05784FEAE57C59
:1027700006FB058504FB0C5591F808C009FA0CF41A
:10278000A7FB04C80C6505FB048407FB0644C1E9EC
:1027900012C40DE790F82C209206920A0A61026B8F
:1027A0000C69120E44EA02220A61026B0C69C2F340
:1027B000074214430C61028E0C69C2F30722641CA9
:1027C00046F10005ED0445EA5435E404C1E912453B
:1027D0004FF400740C65EBE670B586B000250E462C
:1027E00004468DF80C50057700F046F876200095E9
:1027F000CDE901502B462A462946206802F008FD03
:10280000204602F0CDFF8DF80C009DF80C0038B981
:10281000204602F0B9FE8DF80C009DF80C0018B1AE
:102820009DF80C0006B070BD31462046FFF778FEDB
:102830008DF80C009DF80C00A0B9B6F8540069465C
:1028400000040090072001904020CDE9020500011E
:102850000490206802F0F5FC0721204602F006FDF6
:102860008DF80C0004F1100007C88DE8070094E80B
:102870000F0002F0CDFCD3E71D4800B5016887B01A
:1028800041F400610160006800F4006005901848A0
:102890001438016841F480010160016801F480018D
:1028A0000591016841F004010160016801F0040133
:1028B0000591016841F0080101600068694600F077
:1028C000080005904FF4F85000900220019001207C
:1028D0000290032003900C2004900648FEF714FF9A
:1028E0000420009069460448FEF70EFF07B000BDC3
:1028F0004438024000080240000C02402DE9F04F2D
:102900008BB004460D46DDE9147821680020164698
:10291000C862216A022903D10F02560A46EAC35649
:102920001021CDE900714021834608010291CDE9D3
:1029300003B06946206802F084FC1021204602F0B2
:1029400095FC00286DD14FF0FF3A08FB07F0CDE968
:1029500005A007A990204FF0020981E8010A012093
:102960000A9005A9206802F031FCB8F1010F01D9E5
:10297000122000E01120CDE900606946206802F0D5
:1029800060FCB8F1010F1AD91221204602F06EFC4A
:10299000070046D140F22A3B2068416B11EA0B0F39
:1029A00028D1406B0004F7D50026206802F046FCD1
:1029B00045F82600761C082EF7D32035ECE71121C8
:1029C000204602F053FC07002BD140F22A6B20680E
:1029D000416B11EA0B0F0DD1406B0004F7D50026B7
:1029E000206802F02BFC45F82600761C082EF7D351
:1029F0002035ECE7406BC0050CD5B8F1010F09D9C3
:102A0000206A18B1012801D0022803D1204600F025
:102A100033F807462168486B000705D5082088630E
:102A200004200BB0BDE8F08F486B800703D5484603
:102A3000C1F83890F5E7486B800603D520208863FD
:102A40000620EEE7486B800504D54FF400708863DC
:102A50000720E6E7564603E002F0F0FB01C5761ECC
:102A60002068416B890201D5002EF5D1216840F222
:102A7000FF5088633846D4E710B586B0044600207E
:102A80000C21CDE900014021CDE90210080104909C
:102A90006946206802F0D5FB0C21204602F0E6FBD7
:102AA00006B010BDFEB50446006A00250E46032898
:102AB00005D030B1012804D0022802D01FE0272021
:102AC000FEBDB6F5805F05D0B6F5006F04D03EB10F
:102AD000262514E0272512E0204602F09AFF02E0A6
:102AE000204602F05DFF050009D1211DD4E905074C
:102AF0000EC9CDE900600297206802F089FB2846E4
:102B0000FEBD2DE9F04F8DB0064600250C468DF830
:102B10002C50DDE91698316817462846CD62316A97
:102B20004FF4007B022903D1570AD94647EAC3571D
:102B30001021CDE900914021824608010291CDE9A2
:102B400003A06946306802F07CFB1021304602F099
:102B50008DFB00286ED1B8F1010F01D9192000E0DA
:102B60001820CDE900706946306802F06AFBB8F1C0
:102B7000010F01D9192100E01821304602F076FB3F
:102B800000287FD1411E09FB08F99020CDE906906D
:102B90000591CDF820A00120CDE909A005A9306854
:102BA00002F014FBB8F1010F24D84FE0406B400451
:102BB00020D5A9EB0500202811D281074FEA90000B
:102BC00000D0401C8246002706E02146306802F013
:102BD00048FB241D2D1D7F1C57450BD2F5E7002710
:102BE00004EB8701306802F03CFB7F1C082FF7D311
:102BF000203420353068416B40F21A321142D5D072
:102C00002AE0406B400421D5A9EB0500202812D210
:102C100081074FEA900000D0401C8246002706E062
:102C20002146306802F01DFB241D2D1D7F1C5745D9
:102C30000CD2F5E726E0002704EB8701306802F0AC
:102C400010FB7F1C082FF7D3203420353068416BF0
:102C500040F21A621142D4D0406BC0050BD5B8F1D6
:102C6000010F08D9306A18B1012801D0022802D119
:102C70003046FFF701FF3168486B000705D5082093
:102C8000886304200DB0BDE8F08F486B800702D543
:102C900002208863F6E7486BC00603D510208863DE
:102CA0000520EFE7486B800503D5C1F838B0072051
:102CB000E8E740F2FF5088630BA9304602F0D2FCEF
:102CC0000028DFD19DF82C100729F5D00629F3D074
:102CD000D8E770B5040004D094F85100002510B175
:102CE00006E0012070BD84F85050204600F034F812
:102CF000022084F851002068016821F04001016041
:102D0000D4E901010843D4E903121143084361697E
:102D10000843218B01F400710843E1690843216AEB
:102D20000843A16A084321680860A069042101EAF8
:102D30001040616A0843216848602168E06A0861C0
:102D40002068C16921F40061C1616565012084F8D2
:102D50005100002070BD00002DE9F04106460068DA
:102D60002B492C4C0225012786B04FF005088842DC
:102D70001AD1206840F001002060206800F00100B6
:102D8000059024481430016841F4805101600068C6
:102D9000694600F480500590E0208DE8A100CDE95F
:102DA00003581D48FEF7B0FC1C49306888422CD1FE
:102DB000206840F008002060206800F008000590BE
:102DC000206840F002002060206800F002000590BA
:102DD00010481030016841F4004101600068694604
:102DE00000F40040059018208DE8A1000620CDE9F0
:102DF00003500B48FEF788FC40208DE8A100CDE988
:102E0000035869460748FEF77FFC06B0BDE8F0812D
:102E1000003001403038024000000240003C0040D9
:102E200000040240000C02402DE9F843044690F8EB
:102E30005100DDF82080012801D022287ED169B11F
:102E400062B15BB194F85000012877D0012784F873
:102E5000507094F85100012803D005E00120BDE82E
:102E6000F883322084F8510000266665A263A387A8
:102E7000E3872163A386E386A664E664A06A4FF431
:102E80000055A84209D12068016821F40051016071
:102E90002068016841F4005101602068016849061A
:102EA00003D4016841F040010160E0684FF4827191
:102EB000B0F5006F606807D0002867D088426ED1F7
:102EC000E08E012862D06AE020B188420CD1E08E09
:102ED000012809D1206B21680088C860206B801C04
:102EE0002063E08E401EE086E08E80B9A06AA84292
:102EF00044D12068016841F4805101603EE02068BF
:102F0000C068A16B0880A06B801CA0639EE0434654
:102F100000220221204602F08DFE002874D1206B91
:102F200021680088C860206B801C2063E08E401EF2
:102F30000004000CE08609D1A06A00E0C7E0A842C6
:102F400004D12068016841F48051016043460022A9
:102F50000121204602F06EFE00286FD12068C06873
:102F6000A16B0880A06B801CA063E08F401EE087EF
:102F7000E08E0028CBD1606800286AD14346002249
:102F80000121204602F056FEF0BBB8E7206B411C41
:102F9000216321680078C860E08E401EE086E08EE4
:102FA00098B9A06AA84204D12068016841F4805110
:102FB0000160434600220121204602F03BFE18BB7F
:102FC0002068C068A16B087040E0434600220221DF
:102FD000204602F02FFEB8B9206B411C2163216806
:102FE0000078C860E08E401E0004000CE08607D127
:102FF000A06AA84204D12068016841F480510160B0
:1030000000224346012100E018E0204602F012FEB3
:10301000A0B92068C168A06B421CA2630170E08F58
:10302000401EE087E08E0028CFD1606888B9434613
:1030300000220121204602F0FDFD08B103200EE729
:103040002068C168A06B421CA2630170E08F401E23
:10305000E087A06AA84210D1434600220121204601
:1030600002F0E8FD18B1606D40F002000FE020684A
:10307000C068ADF80000BDF8000043460122802181
:10308000204602F0D7FD20B1606D40F02000606561
:10309000D4E784F8517020688168A26AC1F30011F6
:1030A000AA4210D179B1616D41F0020161650168F8
:1030B00021F4005101602068016841F40051016071
:1030C00084F85060CAE684F850600020C7E6022009
:1030D000C5E64FF0E0210428086903D020F0040081
:1030E0000861704740F00400FAE710B5401EB0F1E7
:1030F000807F01D3012010BD4FF0E02460610F21DB
:10310000601701F073F80020A06107202061002003
:1031100010BD704790F83900704738B50168044613
:103120000868CA68C0F3000002F4807238B132B196
:10313000086848680090E06B40F00100E0630868B0
:103140004A69C0F3400002F0010238B132B10868A8
:1031500048680090E06B40F00400E06308684A694A
:10316000C0F3800002F0010238B132B1086848684B
:103170000090E06B40F00200E06308684A69C0F329
:10318000C00002F0010238B132B10868486800900E
:10319000E06B40F00800E0630868C968C0F34010C5
:1031A00001F0200118B111B1204603F0CFF82068DA
:1031B0000168C068C1F3C01100F0800019B110B1FE
:1031C000204603F0D1F921680868CA68C0F380106E
:1031D00002F04002012568B162B1CA68204622F0BF
:1031E0004002CA6094F8391032290CD080F8395066
:1031F00000F07AF9E06B002804D084F839502046BA
:10320000FFF787FF38BD222180F83910F0E770B54D
:10321000040004D094F83900002510B106E0012024
:1032200070BD84F83850204600F020F8022084F861
:1032300039002068C16821F40051C160204603F0C4
:10324000D9F82068016921F4904101612068416941
:1032500021F02A0141612068C16841F40051C16038
:10326000E563012084F83900002070BD2DE9F047A6
:10327000054631490068314C02260F1586B04FF0E3
:10328000000A4FF00708884223D1206840F001006F
:103290002060206800F00100059028481430016883
:1032A00041F010010160006802AA00F010000590D2
:1032B0006015CDE90006012082E84101DFF8809029
:1032C00069464846FEF720FA694648460097FEF7E9
:1032D0001BFA1C49286888422BD118481030026814
:1032E00042F480220260006800F48020059020688B
:1032F00040F0020020602068CDF808A000F0020035
:1033000005900320CDE903080F4CCDE9007669460E
:103310002046FEF7F9F9E114009169462046FEF7D0
:10332000F3F92720FEF731FB032211462720FEF791
:1033300037FB06B0BDE8F08700100140303802408E
:1033400000000240004800400004024090F839307C
:10335000012B01D0122B2BD131B32AB390F8383086
:10336000012B25D0012380F8383081628285C28507
:103370000022C26390F83910122917D0222180F858
:1033800039100168CB6843F48073CB6001684B69E6
:1033900043F001034B6180F838200068C16841F0B8
:1033A0002001C16000207047012070473221E6E70C
:1033B0000220704730B40068154988420CD1154A84
:1033C0005088010408D41146440409784FF00003E2
:1033D0000DD50A2902D0538030BC704740F400401C
:1033E00050800E480C49006830BC0EF033BB0D29EC
:1033F00009D0C0F30D04084D401C80B229555080FF
:10340000FE28E8D8E8E740F480405080E4E7000078
:10341000004800400001002030200020440000202F
:103420002DE9F047044690F8390099460D460128E9
:1034300001D0222856D125B31AB394F838000128B8
:1034400050D0012684F838600027E76394F83900EB
:10345000222819D0122084F83900A284E2844FF483
:103460008058E08C4B46401EE084A0684FF000027C
:1034700040454FF08001204613D103F0A8F808BB67
:1034800004E00120BDE8F0873220E4E728882168C5
:10349000C0F308004860206908B16D1C08E0AD1C4D
:1034A00006E003F094F868B9216815F8010B48604C
:1034B000E08C0028D5D14B4600224021204603F065
:1034C00086F808B10320DDE794F83900322805D0EA
:1034D00084F8396084F838700020D3E7222084F81B
:1034E0003900F7E70220CDE7704700000E4810B51D
:1034F000016886B041F0100101600068012400F00D
:10350000100005904FF44040CDE900040220CDE9C1
:10351000024069460548FEF7F7F80548C0F8BC4286
:10352000C0F8B84206B010BD30380240001002406A
:103530000000424230B50E490A6822F040420A605B
:103540000A6842F080420A600A4A0024C2F8B8427F
:1035500021460123C509C2F8BC524006000EC2F83C
:10356000B832C2F8B842491CC9B20829F2D330BDFA
:1035700000100240000042420A48016821F0404128
:103580000160016841F08041016007480121C0F8F5
:10359000BC12C0F8B8120021C0F8BC12C0F8B812B2
:1035A0007047000000100240000042420A480168D3
:1035B00021F040410160016841F08041016007480D
:1035C0000021C0F8B812C0F8BC120121C0F8B8122E
:1035D000C0F8BC12704700000010024000004242D8
:1035E0000F4900B50A68002022F040420A600A68CC
:1035F0000A600C490122C1F8BC22C1F8B82207E0D8
:10360000401CC0B2FA2803D9FFF7D0FF012000BD4B
:10361000D1F83C22002AF3D10020C1F8B80200BD45
:1036200000100240000042422DE9FE4F044681A0F6
:103630004FF00009D0E90020CDE900208DF80010FE
:10364000CB464E4622466946032001F0C1F80028C9
:103650001DD1607802902118255C11F8012C4F785B
:1036600002F08002082F12D0802A02D00020BDE88C
:10367000FE8F4FF0FF0A07EB051021308DF8010097
:1036800035B1012D12D0022D23D0032D3AD07BE08D
:10369000781CA1780AFA00F291438DF8021040F0EC
:1036A00040008DF8030061F3070649E0A278781C1A
:1036B0008DF802200AFA00F3E17840F040009943C7
:1036C00062F307068DF803108DF8040061F30F26EE
:1036D00036E0A2788DF80220E3788DF80330781C6C
:1036E00021790AFA00FC21EA0C0162F307068DF841
:1036F000041040F0400063F30F268DF8050061F3DD
:1037000017461DE0A3788DF80230E2788DF803208B
:1037100021798DF80410781C94F805C00AFA00F895
:103720002CEA080C63F3070662F30F268DF805C038
:1037300040F0400061F317468DF806006CF31F66F9
:10374000281DC0B22246694601F042F82078802840
:103750001AD16078221812F8013C03F08001802908
:1037600003D114F8009092F801B003F00F00C0F1FB
:103770000800C2B2781C824206D13DB1012D16D09C
:10378000022D22D0032D2DD0612070E79DF802205C
:103790000AFA00F3A0789A430243E07862F307063E
:1037A00060F30F26207960F31746607917E09DF8E3
:1037B00003200AFA00F3A0789A430243E07862F308
:1037C0000F2660F31746207909E09DF804200AFAD5
:1037D00000F3A0789A430243E07862F3174660F35F
:1037E0001F6608E09DF805200AFA00F3A0789A43C6
:1037F000024362F31F668020207002986070A670FA
:10380000330AE370300C2071320E73405040434055
:103810006271A37180297FF429AF4D4505EB090042
:10382000C5B201D05F4626E707EB0B00401CC7B2CC
:1038300021E70000002008000000000070B50546E8
:103840001A4C9321FFF7F0FE10BB194EA6F10800A9
:10385000F17804291ED0B5F803108181697981734C
:10386000A9799322227070226270F278042A15D00E
:103870008822A2708289A4F80320807B6071A171E4
:103880002820E07108202A46214600F0A1FF48B117
:10389000612070BDD5F80210C160E1E7C068C4F8CE
:1038A0000200ECE7A878B073002070BDE635002078
:1038B000EE37002070B505461C4C9521FFF7B4FE8D
:1038C00020BB1B4EA6F10800F178072920D0B5F8DF
:1038D0000310A0F80F1069794174A979952222701C
:1038E00070226270F278072A17D08822A270B0F88E
:1038F0000F20A4F80320407C6071A1712820E071A2
:1039000008202A46214600F063FF58B1612070BDAF
:10391000D5F80210C0F80F10DFE7D0F80F00C4F898
:103920000200EAE7A878B073002070BDE6350020F9
:10393000EE37002070B50546144C9721FFF774FE52
:10394000F0B9134AD5F8020002F10806C2F80F00D8
:10395000A9799720207070206070F37802200A2BDC
:1039600004D1D2F80F00C4F8020006202A462154E0
:10397000401C282121542146401C00F029FF08B199
:10398000612070BDA878B073002070BDE6350020BE
:10399000E637002070B51A4D2846FFF74FFFC8B92B
:1039A000184CA07B40070AD52846FFF783FF88B94B
:1039B000A07B400703D52846FFF7BCFF50B9A07B8A
:1039C000800609D500F0B0F80120E073284600F029
:1039D00027F908B1612070BD012000F019F80A48EC
:1039E00002210A4A0170A07B10F0600F05D080060A
:1039F00001D504201070002070BD1170FBE700009D
:103A0000E4350020EE370020A3030020A4030020AB
:103A100030B51FA185B0D1E90021CDE901211EA15A
:103A20001F4D096803911DA1096804911D4909787A
:103A3000342901D3062400E004241B498A88042A7F
:103A400001D204228A8009798DF805108DF80600CC
:103A500000208DF80700601C2B4601AA022100F00F
:103A600089FE88B903AB00223A210420009500F0BA
:103A7000D4FE48B90A48009004AB01226821042012
:103A800000F0CBFE002800D0612005B030BD000062
:103A900000000000030300005A04000001DF0000E2
:103AA000E4350020A5030020AE03002010B518A0C7
:103AB00086B0D0E90010CDE9011017A0184C0068BD
:103AC000039016A00068049016480078342801D3AB
:103AD000062000E00420234601AA0221401C00F039
:103AE00049FE88B903AB00223A210420009400F07B
:103AF00094FE48B90A48009004AB012268210420D2
:103B000000F08BFE002800D0612006B010BD000040
:103B100000000000020200005A04000001DF000063
:103B2000E4350020A503002010B51CA086B0D0E924
:103B30000010CDE901101BA01C4C006803901AA0D6
:103B4000006804901A480078342801D3062000E069
:103B5000042004218DF8051000218DF806100C2199
:103B60008DF80710234601AA0221401C00F002FE36
:103B700088B903AB00223A210420009400F04DFEE6
:103B800048B90A48009004AB01226821042000F0E3
:103B900044FE002800D0612006B010BD00000000E7
:103BA000030300005A04000001DF0000E435002098
:103BB000A503002010B500F00FF8FFF777FF08B15C
:103BC000612010BD0349012008700520FDF790FD1C
:103BD000002010BDB4030020054800210181C16010
:103BE0000161818208308170C170C17301747047B6
:103BF000E637002010B5084C204600F05DF820B9EB
:103C00002146042000F048FD08B1612010BD0349A1
:103C100001200874002010BDE4350020EE3700209C
:103C200038B5044622A02246006800906946032069
:103C300000F0CEFD48B92146042000F02DFD20B94A
:103C40002146022000F00FFD08B1612038BDE07868
:103C500010F00F0317D0012B17D0022B17D0032B16
:103C600017D0042B17D0052B17D0062B17D0072BF6
:103C700017D04FF480730F4982064B8016D5C006CB
:103C800011D5607910E01023F5E71823F3E720231E
:103C9000F1E72823EFE73023EDE74023EBE760234C
:103CA000E9E78023E7E7207900098880002038BD14
:103CB000E0802800AE03002038B5044612A022465A
:103CC000006800906946022000F082FD08B1612082
:103CD00038BD0E486188018100F10801087880092B
:103CE00004D0012806D002280CD107E00420C870B7
:103CF000012006E00720C870022002E00A20C870F8
:103D000003208870002038BD26070000E637002019
:103D1000F0B500230A24302537261F4610E0B4EB07
:103D2000107F02D905EB107C01E006EB107C01F856
:103D300013C001EB430C00015B1C8CF80170DBB27B
:103D40009342ECD3F0BD000070B50E4905460E4C11
:103D5000087B38B9886828B1607818B901212846ED
:103D6000FDF710F981212846FDF70CF9607802284B
:103D700007D12846BDE870401F23024A0121FDF704
:103D8000D7B870BD342600206C0100202DE9F04129
:103D9000294E074606F1200570686860B068A86083
:103DA0000121384602F0CCFD244C1F280CD12449B7
:103DB0003068884208D12348717B0078814203D85B
:103DC000B07B08B1102807D9707B2022052101F0B3
:103DD0004FF90220607006E0174A38460F3200F0B3
:103DE000EBFE002804DA3846BDE8F041FFF7ACBF2F
:103DF000207802281ED001281CD003281AD0618800
:103E000091B1B368626838468B4200D219468BB2D2
:103E1000A968C91AA9600021297304212170BDE88D
:103E2000F0418121FDF7CAB83846BDE8F0410021D4
:103E300000F096B8BDE8F081342600206C01002027
:103E400055534243A001002010B5094C6278022A64
:103E500008D009060BD5012A09D0BDE81040012180
:103E600000F07EB88121FDF78DF80020607010BD54
:103E70006C01002010B504460C480178022905D0D9
:103E8000032901D0042910D1002109E0084800F1DC
:103E90000F02417B204600F08FFE002805DA012149
:103EA0002046BDE8104000F05BB810BD6C0100205A
:103EB0003426002010B504460C48017881B1012950
:103EC00013D10B4800F10F02417B204600F074FE35
:103ED00000280ADA2046BDE81040012100F040B871
:103EE0002046BDE81040FFF751BF10BD6C01002017
:103EF0003426002001490020087070476C01002022
:103F000010B504460C480021017041700B48006850
:103F100001680020884701212046FCF7DFFF81214E
:103F20002046FCF7DBFF20461F23BDE81040044A73
:103F30000121FCF7FDBF00006C01002050020020B1
:103F400034260020044900221F230A7001224A70EF
:103F5000024A0121FCF7ECBF6C010020342600204E
:103F600010B50C4A04460A48106011730A49002033
:103F70000D23087081212046FDF720F8054A2046D0
:103F80001F23203ABDE810400121FCF7D1BF0000FB
:103F900055534253542600206C01002010B50022D6
:103FA00008210FA00DF0BAFC114C00220121A062E3
:103FB00010A00DF0B3FCE0620022142111A00DF05E
:103FC000ADFC20630022142114A00DF0A7FC606357
:103FD0000022142115A00DF0A1FCA06310BD00006B
:103FE0004E46435F54616749445F6D6200000000C4
:103FF0001400002041626F7274576176706C6179B1
:104000005F6D620042756C65546F6F74685F5472C7
:10401000616E736665725F6D620000004E46435FBD
:1040200053656E644D41435F6D6200005468655F87
:10403000417569646F5F4E616D655F6D6200000080
:1040400038B50C4C1546628882B90B4A6028D37883
:1040500008D100912946121D07F08AFD0004000CCA
:10406000608005D1054807F063FF60800020608014
:1040700038BD0000B8030020EE3700204433221181
:104080007FB530238DF80C308DF80D0015230948CD
:104090002380002605258DE861000A46022103A839
:1040A00008F068FB0349091F4880888820804888F9
:1040B00004B070BDBC03002010B50CA0C2B0D0E9A4
:1040C0000010CDE94010012408F0E0F9002028801C
:1040D000224640A96020FFF7B3FF002803D16946BC
:1040E0002046FFF7CDFF42B010BD0000FFFFFFFFED
:1040F000FFFF00002DE9F04F8146C2EB82100C4615
:1041000088464FEAC00B00274FF6FF7A14480BEBA6
:1041100007010025465C300601D5012200E000229F
:104120002146484600F028F9641CE4B2A4EB0800DC
:104130000AEA46063F280CD06D1CADB2082DEAD322
:104140007F1CBFB2B7F5FC7FE0D3BDE8F04F00F0B5
:1041500025BA09F10100444600F0FF09F0E700002C
:104160004E5601080CA004F025F805F0FFFA80B1C6
:104170000EA007F0BAFC00224FF480611348FDF74F
:10418000B6FBFCF705FE05F0EDF801200EF083F814
:10419000F9E70FA0EDE700004E46435F5472616EF1
:1041A000736665725F5461736B0A0000496E6974CF
:1041B00069616C697A6174696F6E20737563636598
:1041C000656465642E2E0D0A000000000010024098
:1041D000496E697469616C697A6174696F6E206691
:1041E00061696C65642E2E0D0A0000000907090E36
:1041F000002806DA00F00F0000F1E02080F8141D1E
:10420000704700F1E02080F80014704710B40021DE
:10421000084B0A46002003EBC004401CC0B26254A5
:104220008028F8D3491CC9B20829F3D310BC00F088
:10423000B5B90000E121002018A003F0BBFFFFF793
:10424000E5FF1B4D1B4C4FF47A7600211AA208465D
:1042500001F028FE1BA20C21002001F023FEE068E3
:10426000032808D080212846FDF73CFB40B1E068D8
:10427000022807D00BE0206801F096FD024602E01C
:1042800013A200E014A22421302001F00BFEFCF761
:10429000B5FC30460DF0FFFFD7E700004F4C45441A
:1042A0005F446973706C61795F5461736B0A0000DD
:1042B0000008024014000020C4A3C4E2CCFDD5EFE6
:1042C000C6F70000B5B1C7B0B2A5B7C5A3BA200004
:1042D000555342C4A3CABD00CEDEB2A5B7C5000087
:1042E0002DE9FE4F0026A2EB000882465F1A701EE1
:1042F00035468946B8F1000F02DD4FF0010102E0BA
:1043000003D14FF00001019102E0C8F100080190D3
:10431000002F02DD4FF0010002E003D14FF000005A
:10432000009002E0C7F1000700904046B84501DD6B
:10433000044600E03C46601C4FF0000B029016E083
:1043400009F0FF010AF0FF000C9A00F015F846444E
:104350003D44A64202DD0199361B8A44A54202DD96
:1043600000992D1B89440BF101001FFA80FB029973
:104370008B45E5DDBDE8FE8F10B57F2816D83F29B7
:1043800014D80723A3EBD10301F00701C1F10704FF
:104390000121A140064CDBB204EBC000002AC25C44
:1043A000C9B201D00A4300E08A43C25410BD0000E4
:1043B000E12100202DE9F8411D46012416468846DA
:1043C00007460B460094FFF78BFF3A462B464146C3
:1043D00010460094FFF784FF2B46324619463846B4
:1043E0000094FFF77DFF32462B464146104600946D
:1043F000FFF776FFBDE8F8812DE9F0431E469046B1
:104400000F460546DDF81C900CE03C4606E04A46A7
:1044100021462846FFF7B0FF641CE4B2B442F6D947
:104420006D1CEDB24545F0D9BDE8F04300F0B6B8DB
:1044300070B5554886B00026016841F00101016061
:10444000016801F001010591016841F00801016076
:104450000068012400F0080005904FF40040CDE909
:1044600000040220CDE9024069464848FDF74CF9B6
:104470001120474D009069462846FDF745F92A214D
:10448000009169462846FDF73FF900222021284681
:10449000FDF72DFA3F48C0F8BC423F4DC5F88042B9
:1044A000C5F89042C5F88442C5F88C62642005F5D1
:1044B00020750DF0F0FEEC600021AE2000F092F8C7
:1044C0000021D52000F08EF80021502000F08AF85D
:1044D0000021A82000F086F800213F2000F082F89B
:1044E0000021D32000F07EF80021084600F07AF881
:1044F0000021402000F076F800218D2000F072F8B5
:104500000021142000F06EF80021202000F06AF84D
:104510000021022000F066F80021A12000F062F8DE
:104520000021C02000F05EF80021DA2000F05AF8E7
:104530000021122000F056F80021812000F052F8EE
:104540000021EF2000F04EF80021D92000F04AF8B9
:104550000021F12000F046F80021DB2000F042F8B5
:104560000021302000F03EF80021A42000F03AF8AD
:104570000021A62000F036F80021AF2000F032F82C
:10458000FFF744FE06B070BD303802400000024024
:10459000000C0240000040420080414270B5104EC5
:1045A000002505F1B000C0B2002100F01BF8002189
:1045B000084600F017F80021102000F013F800243E
:1045C00006EBC4000121405D00F00CF8641CE4B26D
:1045D000802CF5D36D1CEDB2082DE2D370BD000028
:1045E000E121002070B50F4CC4F884120023C4F8F8
:1045F00090320D4D19460122C4F88032060602D5CC
:10460000C5F8BC2201E0C5F8BC32C4F880224006DF
:10461000491C000EC9B20829EED3C4F89022C4F890
:10462000842270BD0080414200004042014802F0F7
:104630006DBA0000F004002008B504A2014612681B
:104640006846009205F0B6FE002008BD5500000047
:104650001FB500208DF80000014601AB6A4602201C
:1046600000F088F81FBD4A7801280FD0022805D035
:1046700003280BD0042809D001207047881810F8AF
:10468000010C8006002805DA212070478818407840
:104690008007F7E7002070470A78212A0BD0082806
:1046A0002BD00ADC012813D0022813D0042813D001
:1046B000072808D121E02320704709281FD00A28A5
:1046C0001ED0552801D001207047552A1AD017E076
:1046D000C2B115E0A2B915E0803A112A10D2DFE884
:1046E00002F0090F0F0F0F0F0F0F0F0F0F0F0F0F0C
:1046F0000F0F1100487828B902E00AB902E00AB1A8
:1047000021207047002070472DE9F041174F002409
:104710003878012801D105F0C1FD154D4FF44076E0
:104720001348FFF789FF287855281DD038780128CD
:1047300001D030B110E005F0B1FD287855280BD13B
:104740000FE00B48FFF778FF287855280CD020465B
:10475000641CA4B2B042F4D32046641CA4B2052861
:10476000DED32620BDE8F0810020FBE7A80300206F
:10477000E4350020FEB506461C4617460D46134894
:10478000FFF75AFF11480078552801D0FFF7BCFF0A
:104790002120207000206070042D00D800E022202D
:1047A00008B12220FEBD02208DF800008DF80160C6
:1047B0008DF80250721E39460DF10300FBF7FCFD27
:1047C0002146684605F0F6FD0020FEBDE4350020D8
:1047D00010B50B46C2B02121117000215170042187
:1047E0008DF8001014468DF80100024619460DF1AF
:1047F0000200FBF7E1FD2146684605F0DBFD21469E
:104800000420FFF749FF002803D02078872802D032
:10481000212042B010BD2820FBE730B5C1B00925EA
:104820008DF800508DF801008DF802108DF80320EE
:10483000821E449C194601A8FBF7BEFD214668462E
:1048400005F0B8FD41B0002030BD00000249086805
:1048500040F4003008607047045801402DE9F041F1
:10486000074615460E461848FDF776FD164C1748C4
:104870004FF40051C4E900070020A060C4E904100F
:104880000121A1610905E161A062C4E90D05402192
:10489000E063C4E910612021A164C902C4E91310D6
:1048A0008900C4E915108020E065022020664FF4DD
:1048B000403060662046FDF771FD2068016841F4D4
:1048C00080310160BDE8F081501F00200458014094
:1048D00030B5044600211F4A8DB00A20B4FBF0F326
:1048E00001EB810532F81550AB4203D0491CC9B227
:1048F0000B29F3D30B292AD00220009001EB810071
:1049000002EB40004188019181880391C088401CDE
:1049100007906846FDF7BAF80F48016821F4401186
:1049200041F4801101600D4D2868016821F4803147
:10493000016028462C62FDF731FDFFF787FF2868EC
:10494000016841F48031016000200DB030BD0120CC
:10495000FBE70000943D01088C380240501F002006
:104960002DE9F8430F4680460021164608465BB104
:10497000012B02D0022B07D103E04FF40051881025
:1049800002E04FF4804188102C4B00221C6844F454
:1049900080041C601B682A4C03F480030093A4F17C
:1049A0008803284D1C672560A3634023C4E90123C5
:1049B0001B01C4E905019810E0614002C4E903232A
:1049C000C4E90802E26220462263FCF729FE204681
:1049D000FCF752FE3B461C4A414620460096FCF737
:1049E000F1FD2068016821F0010101602068016883
:1049F00041F01001016020684FF00061A84202D927
:104A000010484C3804E0114A904203D90D48503800
:104A1000016008E00D4B0D4A603BB83A984201D95D
:104A2000D16000E09160002211463B20FCF7B8FF06
:104A3000BDE8F8433B20FCF7A8BF00003038024037
:104A4000D81F00205864024020580140B86002403E
:104A5000C068002138B1022802D0042803D101E047
:104A6000102100E0202101480160704700580140FA
:104A700070B50446FCF740FF054620680026016833
:104A800021F4803101600EE0FCF736FF401B0A285C
:104A900009D9D4F8840040F04000C4F8840003260B
:104AA0002046FDF77AFC20680068C003ECD430464D
:104AB00070BD000010B5274C274A0368C169A342A6
:104AC000136804D123F440130B43136004E023F470
:104AD000400343EA810111601F4988390B68096866
:104AE0005B0205D401F03F031C49B1FBF3F104E084
:104AF0001B4B01F03F01B3FBF1F1C06940B1B0F5D0
:104B0000801F14D017490120C1F85C01164810BD60
:104B1000114B1B1F18681B68C0F30360C3F3881395
:104B20004B43B3FBF0F11068C0F304200DE00A4BD7
:104B3000083B18681B68C0F30360C3F388134B433A
:104B4000B3FBF0F1106800F01F00401CB1FBF0F067
:104B500010BD0000045801408C3802400024F400CD
:104B600040787D01000047420080BB000348006898
:104B7000016841F00101016070470000D81F00206A
:104B800003480068016821F00101016070470000DE
:104B9000D81F00201144074A00B552F82020914246
:104BA00006D92122052100F063FA4FF0FF3000BD45
:104BB000002000BD842600202DE9F0410B464E491F
:104BC0000024661EC8604E4910784C4D09682328A1
:104BD00073D010DC1A285AD008DC4A4FD7F800C02E
:104BE000C8B103282FD0122811D132E01B284BD096
:104BF0001E280CD148E02A2871D004DC252862D078
:104C0000282804D165E02F286FD05A2849D02022C7
:104C1000052118460FE03C481F46816819B1202243
:104C2000407B052107E0DCF808101846884738B1BA
:104C30003A220221384600F01BFA3046BDE8F081E6
:104C40002C800020FAE7BDE8F0411146184600F03C
:104C5000DBB95078C00702D02C4B07200BE0DCF802
:104C60001C0003EBC30300EB830312791879401D8A
:104C7000824200D81046288003E0401E80B21A5CB1
:104C80000A540028F9D115E020462C80D6E70820E8
:104C90001F4A2880401E0004000C135C0B54F9D1FD
:104CA00008E008201B4A2880401E0004000C135C0A
:104CB0000B54F9D12046C1E7FFE7BDE8F0411146AA
:104CC000184600F067B9BDE8F0411146184600F0FB
:104CD0001FB9BDE8F0411146184600F0BBB8BDE869
:104CE000F0411146184600F005BABDE8F041114602
:104CF000184600F0D3B90000C80100206E01002062
:104D00007001002050020020342600207E5C010843
:104D1000855C01088D5C01082DE9F0411F4E80463D
:104D20004FF40040B468844200D304467268002700
:104D3000B4FBF2F085B2D6E904013B46FBF7ECFA8E
:104D4000024617482B46174D00682968D0F810C056
:104D50004046E047002807DA11220421404600F0CF
:104D600087F9781EBDE8F081234681212A68F06822
:104D7000FCF724F9D6E9041009197841C6E90410B2
:104D8000B0680949001BB0608A68A2EB04028A601F
:104D900002D10649032008700020E3E7C801002083
:104DA0005002002070010020542600206C010020D9
:104DB0002DE9F047234F4FF400458146BC68AC42D3
:104DC00000D32C467A684FF00008B4FBF2F086B2AC
:104DD000D7E904014346FBF79FFA02461A483346D7
:104DE0001A4E00683168D0F814C04846E0470028E1
:104DF00008DA03220421484600F03AF94FF0FF3068
:104E0000BDE8F087D7E90420121940EB0800C7E994
:104E10000420B8680E49001BB8608A68A2EB04023F
:104E20008A600AD0A84200D3284683B201213268A2
:104E3000F868FCF77DF80020E2E70021F868FFF74A
:104E40008FF8F8E7C8010020500200207001002010
:104E5000542600202DE9F047284F81460C4638782B
:104E6000F0BB274D4FF0FF38287B000636D525488C
:104E7000006881684846884728B13A22022148469E
:104E800000F0F6F813E0D4F802001F4E00BA20F04C
:104E9000FF0160790143C817C6E90410B4F80700A0
:104EA00042BA4846B260FFF775FE002802DA404673
:104EB000BDE8F08702203870D6E90413706800223C
:104EC000A1FB004703FB007301FB0231C6E904416B
:104ED000B1684143B160A868884205D0687B00E0B2
:104EE00002E020220521CBE708494FF4004008806A
:104EF0004846BDE8F047FFF70FBF00006C010020F7
:104F00003426002050020020C80100206E0100203D
:104F100070B504461B481A4D1B4A006805EB840116
:104F200043682046984738B13A220221204600F0D3
:104F30009FF84FF0FF3070BD55F82400401E020E60
:104F4000124801680A7055F82400401E000C487091
:104F500035F82400401E000A887015F82400401E11
:104F6000C8700948001F4068020E0A71020C4A719D
:104F7000020A8A71C871064908200880002070BDA5
:104F80008426002050020020CC0100207001002067
:104F90006E0100207CB5194C0546002122680846A8
:104FA0005054491C89B20C29FAD315486A4601A904
:104FB000006843682846984738B13A2202212846BB
:104FC00000F056F84FF0FF307CBD20680821C1701A
:104FD0000199491E0A0E02710A0C42710A0A827175
:104FE000C1710221017200990A0C42720A0A82728E
:104FF000C17204490C20088000207CBD7001002093
:10500000500200206E01002070B5154A00200346B2
:1050100012681354401CC0B21228FAD370201070CA
:10502000104D0C20D07128786C78A0420FD00E4C17
:1050300014F8306004EBC004967066791673401C57
:105040002479C0B254732870042800D12B70074A09
:10505000122010800879122800D81080002070BD1E
:1050600070010020C8010020642600206E0100208D
:1050700010B5094C074B607803F83010110203EBB0
:10508000C002401CC0B251606070042801D10020F1
:10509000607010BD64260020C801002070B5054670
:1050A00048784FF0FF34800705D524220521284693
:1050B000FFF7DEFF14E0D1F8020000BA20F0FF0392
:1050C000487903430948DA17C0E90432B1F80710F8
:1050D0004ABA826019462846FFF75CFD002801DACB
:1050E000204670BD02490020088070BDC801002024
:1050F0006E0100202DE9F0472F4F81460C4638788D
:1051000020B14846BDE8F047FFF752BE2B4D4FF0A7
:10511000FF38287B00063CD4294E30688168484619
:10512000884720B13A2208E0FFF7A2FF1CE0306870
:10513000C1684846884718B1272202214846F3E74C
:10514000D4F802001F4E00BA20F0FF01607901433D
:10515000C817C6E90410B4F8070042BA4846B2605E
:10516000FFF718FD002802DA4046BDE8F087D6E9CF
:10517000041270680023A1FB004C02FB00C201FB7B
:105180000321C6E90441B1684143B160A86888427F
:1051900003D02022687B0521C6E701203870C003B8
:1051A000814200D3014608488BB201210268F068B1
:1051B000FBF7BEFE0020D8E76C010020342600205B
:1051C00050020020C8010020700100200A684262DD
:1051D0004A688262D1E902231A43D1E904310B43C0
:1051E000C16A1A4321F0F7011143C16200207047E0
:1051F0000069C0B27047006800F00300704700000B
:1052000008B5024908440090006808BD142C01400C
:1052100070B50DF1100C11439CE870002343194345
:1052200029434268314347F6FF639A430A43426089
:10523000002070BD0321016000207047D0F880007D
:1052400070470A688260D1E901231A43D1E903312A
:105250000B43C1681A436FF30B011143C160002077
:1052600070470968C0F880100020704770B5044688
:1052700000680E460025416B11F0450FFBD0416BD5
:10528000490703D503210422826304E0416BC90767
:1052900003D001218163084670BDFFF7A9FFB0422A
:1052A0002BD1216840F2FF5088630020FFF7A8FF50
:1052B000284908424BD0002801DA1C2070BD41006B
:1052C00001D5092070BD810001D50A2070BDC10043
:1052D00001D50B2070BD010101D50C2070BD41012D
:1052E00001D50D2070BDC10101D50E2070BD010298
:1052F00001D50F2070BD410201D5102070BD810283
:1053000001D5112070BDC10201D5122070BD01036D
:1053100001D5132070BD410301D5142070BD810358
:1053200001D5152070BDC10301D5162070BD010443
:1053300001D5172070BD410401D5182070BD81042E
:1053400001D5192070BD000701D51A2070BD28466F
:1053500070BD000008E0FFFD0146002009684A6BAF
:1053600012F0450FFBD04A6B520702D503200422EE
:1053700007E04A6BD20702D001208863704740F2F1
:10538000FF528A6370472DE9F041044600681546D4
:105390000E460027416B11F0450FFBD0416B4907CA
:1053A00003D503210422826304E0416BC90704D0C2
:1053B000012181630846BDE8F081FFF719FFB04283
:1053C00012D1216840F2FF5088630020FFF718FFD8
:1053D00010F4604F03D0810404D51320EBE7000CD8
:1053E000288007E0410401D51020E4E7000401D53E
:1053F0000F20E0E73846DEE70246292012684FF426
:105400008031536B13F0450307D0012305E0536B44
:1054100013F0450300D00123491E0BB90029F6D132
:10542000536BC3F3800301B113B10320042104E0E3
:10543000516B490602D500204021916370472DE948
:10544000F04F8DB000250F460B9508261021CDE9B1
:10545000006140210C950446CDE902150801049035
:10546000A84669462068FFF7ECFE10212046FFF7AA
:10547000FDFE002844D1A08C69460004009037202E
:1054800001902068FFF7DDFE37212046FFF7EEFE92
:10549000002835D1401ECDE9050630204FF0020925
:1054A000CDE907090120CDE90980B246464605A9A4
:1054B0002068FFF78BFE3320CDE900606946206845
:1054C000FFF7BFFE33212046FFF7D0FE060017D1BD
:1054D0000DF12C0840F22A6B2068416B11EA0B0F8A
:1054E00008D1416B8902F7D5FFF7A8FE48F82500DF
:1054F0006D1CF1E7416B090705D5C0F838A0042001
:105500000DB0BDE8F08F416B890703D5C0F8389026
:105510004846F5E7416B890603D5202181630620C3
:10552000EEE7416B890504D54FF4007181630720D4
:10553000E6E740F2FF5181630B9800BA78600C985F
:1055400000BA38603046DBE70E4810B50C49016000
:10555000002141608160C16001614161816100F1B0
:105560006001FDF739F908B1012010BD4FF4006169
:105570000448FDF797FA0028F7D0022010BD00007C
:10558000002C0140981C002070B586B00446012014
:10559000ADF8140000252068FFF72DFE58B3206AEF
:1055A00004285DD000200221C0268DE8430003902E
:1055B0004802049069462068FFF743FE2046FFF743
:1055C000CBFE050018D1FFF71BFEA0630420FFF7F8
:1055D00017FEE0630820FFF713FE20640C20FFF79E
:1055E0000FFE6064206A48B1012807D0062805D064
:1055F000022803D011E0252006B070BD03200190E1
:105600004020029069462068FFF71BFE05AA03218F
:105610002046FFF7B8FE0500EED1206A04281FD00F
:10562000BDF814006062000400900920CDE9010675
:1056300069462068FFF705FE2046FFF78DFE05004E
:10564000DAD1FFF7DDFDA0620420FFF7D9FDE062AB
:105650000820FFF7D5FD20630C20FFF7D1FD606324
:105660002846C9E770B586B0044600260D46009668
:10567000A18C090401910D2102914021CDE903166D
:105680000801059001A92068FFF7DBFD2068416B48
:1056900011F0450FFBD0416B490703D503210422CC
:1056A000826304E0416BC90704D00121816308468D
:1056B00006B070BDFFF79CFD0D2838D1216840F27F
:1056C000FF5088630020FFF79BFD0090C0F343204C
:1056D00028703249009808425DD00098002801DA0D
:1056E0001C20E5E7400001D50920E1E70098800093
:1056F00001D50A20DCE70098C00001D50B20D7E7D0
:105700000098000101D50C20D2E70098400101D596
:105710000D20CDE70098C00101D50E20C8E7009804
:10572000000201D50F20C3E70098400201D51020E8
:10573000BEE70098800201D51120B9E70098C002A9
:1057400001D51220B4E70098000301D51320AFE77C
:105750000098400301D51420AAE70098800301D5E2
:105760001520A5E70098C00301D51620A0E70098F2
:10577000000401D517209BE70098400401D51820AC
:1057800096E70098800401D5192091E7009800075A
:1057900001D51A208CE730468AE7000008E0FFFDBB
:1057A0002DE9F04F87B04FF0000904468DF81490B2
:1057B000DFF86CA14F464D464E46C846CAF8A09049
:1057C0000068FFF737FD4FF0010BCAF8A0B0CDE934
:1057D0000099CDF808904FF48060CDE903906946B8
:1057E0002068FFF72EFD226800234FF48030516BB4
:1057F000C1F3C01104E0516B401EC1F3C0110CD0C5
:105800000029F8D048B140F2FF5090638DF8143071
:105810009DF8140000287DD101E00323F6E74FF442
:10582000D570009008204FF04009CDE90109694684
:105830002068FFF706FD2046FFF7DEFD8DF8140017
:105840009DF8140018B94FF08048C4F820B04FF00C
:10585000000A3720CDE900A069462068FFF7F1FC77
:1058600037212046FFF702FD8DF814009DF8140043
:105870004FF6FF7180B34DE03720CDE900A0CDF8A1
:1058800008904FF48067CDE903A756466946206823
:10589000FFF7D7FC37212046FFF7E8FC8DF814000E
:1058A0009DF8140088BB1F4948EA01000090292098
:1058B000CDE90109CDE9036769462068FFF7C1FC1E
:1058C00020680021426B12F0450FFBD0426B52075B
:1058D00003D50321042202E00EE040F2FF5282636E
:1058E0008DF814109DF8140078B90020FFF788FC9B
:1058F000C60F07466D1C00E08B460EB95D45BBD355
:105900005D4503D31B208DF8140003E0780001D51A
:10591000022020629DF8140007B0BDE8F08F00005F
:1059200000802542000010802DE9FC5F924605466C
:105930004FF00008CE0D4F020BF028FCA9074FF4E2
:1059400000701CD000244FF0010B814614E060026F
:10595000C2191249CDE9009B46EBE073A1F1B800F2
:10596000FCF7CCFF80464A460C492846FAF724FD4E
:10597000641CE4B205F500755445E8D309E0CDE9AF
:10598000000A06483A4633462946B838FCF7B6FFBF
:1059900080460BF0BFFC4046BDE8FC9F501D002038
:1059A00030B587B000250446059528460695FFF7D3
:1059B00027FC800102D50E2007B030BD05A9204686
:1059C000FFF73DFD0028F7D10698C0031FD5A08C36
:1059D000694600040090372001904020CDE902057F
:1059E000000104902068FFF72CFC37212046FFF7C8
:1059F0003DFC0028E0D10620CDE900506946206832
:105A0000FFF71FFC06212046FFF730FCD4E72520D6
:105A1000D2E730B587B0002504460595284606959F
:105A2000FFF7EEFB800102D50E2007B030BD05A9BF
:105A30002046FFF704FD0028F7D10698400320D543
:105A4000A08C694600040090372001904020CDE9E9
:105A50000205000104902068FFF7F3FB3721204680
:105A6000FFF704FC0028E0D10220009006200190FE
:105A700069462068FFF7E5FB06212046FFF7F6FBA5
:105A8000D3E72520D1E700002DE9FC5F91460546CC
:105A90004FF00008CE0D4F020BF078FBA8074FF433
:105AA00000711DD000248A464FF0010B15E0D0464E
:105AB000524629461248FAF77FFC6002C219104983
:105AC000CDE9008B46EBE073A1F1B800FDF719F8C2
:105AD000641C8046E4B205F500754C45E7D309E047
