:020000040800F2
:10000000F8EC0220C1010008C9010008C70200087D
:10001000CD010008CF010008D10100080000000058
:10002000000000000000000000000000D3010008F4
:10003000D50100080000000013020008F13E00088E
:10004000DB010008DB010008DB010008DB01000820
:10005000DB010008DB010008DB010008DB01000810
:10006000DB010008DB010008DB010008DB01000800
:10007000DB010008DB010008DB010008DB010008F0
:10008000DB010008DB010008DB010008DB010008E0
:10009000DB010008DB010008DB010008DB010008D0
:1000A000DB010008DB010008DB010008DB010008C0
:1000B000DB010008DB010008DB010008DB010008B0
:1000C000DB010008DB010008DB010008DB010008A0
:1000D000DB010008E9430008DB010008DB01000840
:1000E000DB010008DB010008DB010008DB01000880
:1000F000DB010008DB010008DB010008DB01000870
:10010000DB010008DB010008DB010008DB0100085F
:10011000DB010008DB010008DB010008DB0100084F
:10012000DB010008DB010008DB010008A504000872
:10013000DB010008DB010008DB010008DB0100082F
:10014000DB010008DB010008DB010008DB0100081F
:10015000DB010008DB010008DB010008DB0100080F
:10016000DB010008DB010008DB010008DB010008FF
:10017000DB010008DB010008DB01000800000000D3
:10018000DB010008DB010008DB010008DB010008DF
:10019000DB010008DB010008DB010008DB010008CF
:1001A000DB010008DB010008DB010008DFF80CD0F0
:1001B00000F02AF90048004783040008F8EC022008
:1001C0000648804706480047FEE7FEE7FEE7FEE7F1
:1001D000FEE7FEE7FEE7FEE7FEE7FEE7C13F0008B9
:1001E000AD010008EFF3108072B6704780F31088FD
:1001F0007047434A1368012B04D04FF0010313608A
:10020000404A1060404A116040484FF08051016000
:100210007047EFF3108272B63948016851B34FF05E
:10022000000101603748016891B1EFF309811EF0C8
:10023000100F08BF21ED108B21E9F00F4FF00004E3
:100240001EF0100F08BF012441F8044D0068016042
:100250002D490968096808C9B1E8F00F002B18BFDB
:10026000B1EC108B81F309884EF0100E002B18BFF3
:100270002EF0100E82F310884EF0040E70472249C3
:100280000860EFF3148222F0040282F314881D49FF
:100290004FF0000008601A494FF0010008601C4848
:1002A0004FF47F01D0F8002041EA020101601748B5
:1002B0004FF08051016017480068006880F308889B
:1002C00061B662B670471EF0040F0CBFEFF30880F2
:1002D000EFF3098020E9F00F40F804ED40F804ED59
:1002E0001EF0040F0CBF80F3088880F3098800B566
:1002F00008F0C2F85DF804EB4EF0040E7047000001
:10030000EC000020E4000020E800002004ED00E004
:1003100020ED00E008ED00E02DE9F05F054600204B
:1003200092469B4688460646814640241BE0284666
:1003300041464746224600F056F853465A46C01AF0
:10034000914110D311461846224600F03DF82D1A6F
:1003500067EB01084F4622460120002100F034F8E7
:1003600017EB00094E41201EA4F10104DFDC4846D2
:1003700031462A464346BDE8F09F40EA01039B0709
:1003800003D009E008C9121F08C0042AFAD203E00A
:1003900011F8013B00F8013B521EF9D27047421E92
:1003A00012F8013F002BFBD111F8013B02F8013B91
:1003B000002BF9D17047034611F8012B00F8012BEF
:1003C000002AF9D118467047202A04DB203A00FAA7
:1003D00002F1002070479140C2F1200320FA03F39C
:1003E000194390407047202A04DB203A21FA02F09A
:1003F0000021704721FA02F3D040C2F1200291405F
:100400000843194670470000064C074D06E0E068B7
:1004100040F0010394E8070098471034AC42F6D34B
:10042000FFF7C8FE60A6000880A6000870B58C180B
:1004300010F8015B15F0070301D110F8013B2A11F8
:1004400006D110F8012B03E010F8016B01F8016BE5
:100450005B1EF9D12B0705D40023521E0DD401F8E1
:10046000013BFAE710F8013BCB1A921C03E013F8AA
:10047000015B01F8015B521EF9D5A142D8D30020DF
:1004800070BD10B509F03EFA002010BD10B504464D
:1004900003F0C8FD0248006808F0D4FD10BD00005C
:1004A0000000002010B5294800682949884205D974
:1004B00027485438006800F000601BE023480068BB
:1004C0002449884205D922485838006800F0006065
:1004D00010E01E4800681F496039884205D91D4850
:1004E000B838406800F0006004E01A48B838006886
:1004F00000F0006048B3154800681549884205D9E6
:100500004FF0006012494C3908601BE00F4800684A
:100510001049884205D94FF000600D4950390860F4
:1005200010E00A4800680B496039884205D94FF04D
:1005300000600849B839C86004E04FF00060054920
:10054000B839886004480068804710BDC015002095
:1005500058640240B86002409400002001460878C8
:1005600010381823B0FBF3F20848805C4865032A72
:1005700005D908686FF30900001D086503E00868E5
:100580006FF309000865086D7047000014A50008A6
:1005900010B5046863608468402C04D10468A260CC
:1005A0000468E16003E00468A1600468E26010BDD3
:1005B0002DE9F04104460E4617461D46DDF8188029
:1005C00000BF94F83400012802D10220BDE8F08178
:1005D000012084F8340000BF2068006800F4002087
:1005E00018B9122084F8350007E02068006800F48C
:1005F000002010B1222084F835002068006820F027
:100600000100216808602068006840F480202168AB
:1006100008602068056143463A4631462046FFF7A8
:10062000B7FF2068006840F00100216808600020E2
:10063000CCE770B504460CB9012070BD94F83500C4
:10064000022801D10120F8E72068006820F00100AD
:1006500021680860002021680860216848602168DE
:1006600088602168C860216808612120216848618C
:100670002046FFF773FF054694F854103F2088404A
:10068000A8600020E06484F8350000BF84F83400DE
:1006900000BF00BFD1E7000070B5044600250CB9CB
:1006A000012070BD606A00B100BF022084F83500EF
:1006B0002068056818480540D4E901010843E1684D
:1006C00008432169084361690843A1690843E16956
:1006D0000843216A08430543606A042803D1D4E92A
:1006E0000B0108430543206805602068456925F033
:1006F0000705606A0543606A042801D1A06A0543C2
:10070000206845612046FFF729FF0020E0640120B2
:1007100084F835000020C4E73F8010F001B5009850
:1007200008F089FC08BD0000F8B502460B4600251C
:10073000002400200021E6E0012606FA01F51E68EB
:1007400006EA0504AC4273D15E68022E02D05E68F0
:10075000122E13D1CF0802F1200656F827004E07BB
:10076000F70E0F26BE40B0434F07FF0E1E69BE4076
:100770003043CF0802F1200646F8270010684F00EA
:100780000326BE40B0431E7906F003064F00BE406C
:10079000304310605E68012E08D05E68022E05D0DE
:1007A0005E68112E02D05E68122E13D190684F0041
:1007B0000326BE40B0434F00DE68BE403043906029
:1007C000506801268E40B0431E79C6F300168E4055
:1007D00030435060D0684F000326BE40B0434F0006
:1007E0009E68BE403043D0605E6806F08056B6F129
:1007F000805FA8D100BF00260096454E366846F4BB
:100800008046434F3E603E46366806F4804600967A
:1008100000BF00BF3F4E8F0856F827008E07370FE6
:100820000F26BE40B0433C4EB24202D100262EE01D
:1008300068E03A4EB24201D1012628E0384EB24279
:1008400001D1022623E0374EB24201D103261EE039
:10085000354EB24201D1042619E0344EB24201D1E4
:10086000052614E0324EB24201D106260FE0314E89
:10087000B24201D107260AE02F4EB24201D108262A
:1008800005E02E4EB24201D1092600E00A268F076C
:100890003F0FBE4030431F4E8F0846F82700284EBA
:1008A0003068A0435E6806F48036B6F5803F00D11C
:1008B0002043234E3060361D3068A0435E6806F446
:1008C0000036B6F5003F00D120431D4E361D306086
:1008D000361D3068A0435E6806F48016B6F5801FAA
:1008E00000D12043164E08363060361D3068A043D4
:1008F0005E6806F40016B6F5001F00D12043104EC6
:100900000C363060491C1029FFF416AFF8BD00000A
:100910004438024008380140000002400004024010
:1009200000080240000C0240001002400014024087
:1009300000180240001C0240002002400024024037
:10094000003C01400148006870470000E0000020C2
:1009500010B50D48006840F400700B490860084667
:10096000006840F4806008600846006840F48070C9
:100970000860032000F068F80F2000F007F800F08E
:1009800017F8002010BD0000003C024070B504467E
:1009900000F0CCFB4FF47A71B0FBF1F5284601F082
:1009A00068FE00222146501E00F010F8002070BDA5
:1009B000704700BF00F01F020121914042099200E0
:1009C00002F1E022C2F8001100BF70472DE9F05F8C
:1009D00080460D461646002702F0CEF807463946F7
:1009E0002A46334601F00700C0F1070ABAF1040FA6
:1009F00002D94FF0040A01E0C0F1070AD14600F124
:100A0000040ABAF1070F02D24FF0000A01E0A0F188
:100A1000030AD4464FF0010A0AFA09FAAAF1010AB8
:100A20000AEA020A0AFA0CFA4FF0010B0BFA0CFB65
:100A3000ABF1010B0BEA030B4AEA0B0421464046DB
:100A400002F0A2F8BDE8F09F00BF00F00702064BDD
:100A500019684FF6FF031940044B0B4343EA022188
:100A6000014B196000BF70470CED00E00000FA0573
:100A700038B5002400BF002000902348006840F0F3
:100A80008050214908600846006800F080500090BE
:100A900000BF00BF0120010491FAA1F1B1FA81F178
:100AA0001A4A42F82100FFF74DFF044607E0FFF71E
:100AB00049FF001BB0F57A7F01D9032038BD1448E7
:100AC000406800F48030B0F5803FF0D1012041044F
:100AD00091FAA1F1B1FA81F10C4A42F82100FFF735
:100AE00031FF044607E0FFF72DFF001BB0F57A7FCA
:100AF00001D90320E2E70648406800F40030B0F571
:100B0000003FF0D10020D9E74038024000000E42FB
:100B100000700040F8B5044600250026207800F05B
:100B2000010020B9207800F00200022866D10020E0
:100B3000CC498866FFF706FF054606E0FFF702FF8F
:100B4000401B642801D90320F8BDC7480068C0F3E2
:100B5000C0600028F2D1207800F0010098B147F67B
:100B6000C07191FAA1F1B1FA81F1606888404FF04B
:100B7000E04292FAA2F2B2FA82F2A16891400843EE
:100B8000B94984310860207800F00200022821D1A0
:100B9000B5488430006800F0E0404FF0E04191FA41
:100BA000A1F1B1FA81F120FA01F660688101207BA0
:100BB00041EA006040EA0670AB4984310860AA4807
:100BC0008C30006820F01F00E169491E0843A649E7
:100BD0008C3108600120A3498866FFF7B3FE054603
:100BE00006E0FFF7AFFE401B642801D90320ABE706
:100BF0009D480068C0F3C0600028F2D0207800F063
:100C00000400042804D0207800F0080008287DD1D2
:100C1000002094490867FFF795FE054606E0FFF7B8
:100C200091FE401B642801D903208DE78E4800689F
:100C3000C0F340700028F2D1207800F004000428AE
:100C400034D189488830006800F0E0404FF0E0413E
:100C500091FAA1F1B1FA81F120FA01F647F6C071DB
:100C600091FAA1F1B1FA81F1206988404FF07062E8
:100C700092FAA2F2B2FA82F26169914008434FF00F
:100C8000E04191FAA1F1B1FA81F106FA01F10843CC
:100C9000754988310860081D006820F4F851206A01
:100CA000401E41EA002070498C310860207800F035
:100CB0000800082834D16C488830006800F0706063
:100CC0004FF0706191FAA1F1B1FA81F120FA01F6C9
:100CD00047F6C07191FAA1F1B1FA81F1206988401B
:100CE0004FF0706191FAA1F1B1FA81F106FA01F1C8
:100CF00008434FF0E04292FAA2F2B2FA82F2A169FE
:100D00009140084358498831086000E01CE0081D04
:100D1000006820F44030616A084353498C31086010
:100D2000012050490867FFF70DFE054606E0FFF772
:100D300009FE401B642801D9032005E74A480068E2
:100D4000C0F340700028F2D0207800F02000202866
:100D50007DD100BF0020009043484030006840F043
:100D600080504149403108600846006800F08050DA
:100D7000009000BF00BF3D48006840F480703B49D0
:100D80000860FFF7DFFD054606E0FFF7DBFD401BCF
:100D9000642801D90320D7E63448006800F4807045
:100DA0000028F2D030487030006800F44070218D87
:100DB00001F4407188424AD02B487030006820F41A
:100DC000407601202A4908600020086026487030DB
:100DD000066006F0020098B1FFF7B4FD054608E092
:100DE000FFF7B0FD401B41F28831884201D9032052
:100DF000AAE61D4870300068C0F340000028EFD01C
:100E000000BF208D00F44070B0F5407F0CD1164833
:100E10000830006820F4F810164AA16A114008430F
:100E200011490831086007E00F480830006820F4D5
:100E3000F8100D49083108600B4870300068218DAA
:100E4000C1F30B01084308497031086000BF2078E6
:100E500000F01000102803D194F82C000649086017
:100E6000002071E600004742003802400070004058
:100E7000400E4742FFFCFF0FE011474270B50446A9
:100E80000E460025A748006800F00F00B0426FD260
:100E9000A4490E700846006800F00F00B04201D06F
:100EA000012070BD207800F00200022807D19E4882
:100EB000006820F0F000A16808439B490860207892
:100EC00000F0010000283ED06068012807D1964854
:100ED00008380068C0F34040B8B90120E1E7606815
:100EE000022802D06068032807D18F4808380068BC
:100EF000C0F3406048B90120D3E78B480838006848
:100F0000C0F3400008B90120CBE78748006820F013
:100F100003006168084384490860FFF713FD054634
:100F20006068012810D108E0FFF70CFD401B41F27A
:100F30008831884201D90320B3E77B48006800F07C
:100F40000C000428F0D1CDE06068022811D108E03F
:100F5000FFF7F8FC401B41F28831884201D9032099
:100F60009FE77148006800F00C000828F0D1B9E054
:100F700024E06068032810D108E0FFF7E3FC401B81
:100F800041F28831884201D903208AE76648006827
:100F900000F00C000328F0D1A4E008E0FFF7D2FC39
:100FA000401B41F28831884201D9032079E75E482D
:100FB000006800F00C000028F0D193E0207800F0E9
:100FC0000200022807D15848006820F0F000A1680C
:100FD000084355490860207800F00100002877D0C8
:100FE0006068012807D1504808380068C0F34040C5
:100FF000B8B9012055E76068022802D0606803286C
:1010000007D1494808380068C0F3406048B901205A
:1010100047E7454808380068C0F3400008B9012098
:101020003FE74148006820F00300616808433E49FB
:101030000860FFF787FC05466068012810D108E0CA
:10104000FFF780FC401B41F28831884201D9032020
:1010500027E73548006800F00C000428F0D137E09D
:101060006068022810D108E0FFF76CFC401B41F2D9
:101070008831884201D9032013E72B48006800F02B
:101080000C000828F0D123E06068032810D108E0A4
:10109000FFF758FC401B41F28831884201D90320F8
:1010A000FFE62148006800F00C000328F0D10FE0B3
:1010B00008E0FFF747FC401B41F28831884201D924
:1010C0000320EEE61848006800F00C000028F0D17C
:1010D00014490E700846006800F00F00B04201D0BD
:1010E0000120DEE6207800F00400042807D10E4835
:1010F000006820F4E050E16808430B49086020785C
:1011000000F00800082808D10748006820F4604073
:10111000216940EAC100044908600F20FFF736FC4E
:101120000020BEE6003C02400838024010B500F046
:1011300045F80949096801F0F001F02292FAA2F29B
:10114000B2FA82F2D140054A515CC84004490860B5
:101150000846006810BD0000083802401CA50008C1
:101160000400002010B5FFF7E1FF0749096801F40A
:10117000E0514FF4E05292FAA2F2B2FA82F2D14078
:10118000024A515CC84010BD083802401CA5000846
:1011900010B5FFF7CBFF0749096801F460414FF430
:1011A000604292FAA2F2B2FA82F2D140024A515C53
:1011B000C84010BD083802401CA5000870B50021C9
:1011C000002200230020274C246804F00C0424B1E2
:1011D000042C04D0082C41D103E0234840E02348EC
:1011E0003EE0204C241F246804F03F011D4C241FC6
:1011F000246804F4800484B11C4CB4FBF1F5194C50
:10120000241F246847F6C076344096FAA6F6B6FA4C
:1012100086F6F44005FB04F20FE0134CB4FBF1F545
:10122000104C241F246847F6C076344096FAA6F680
:10123000B6FA86F6F44005FB04F20A4C241F246833
:1012400004F440344FF4403595FAA5F5B5FA85F528
:10125000EC40641C6300B2FBF3F001E0024800BF05
:1012600000BF70BD083802400024F40040787D01C2
:1012700038B504460025207800F00100002866D02B
:10128000F748006800F00C0004280DD0F44800680E
:1012900000F00C00082813D1F148001F006800F48A
:1012A0008000B0F5800F0BD1ED4808380068C0F31E
:1012B000404000284BD06068002848D1012038BD4C
:1012C0000020E749891F0870FFF73CFB054608E04E
:1012D000FFF738FB401B41F28831884201D90320D7
:1012E000EDE7DF4808380068C0F340400028EFD140
:1012F0002079DB49891F08706068A0B1FFF722FBE5
:10130000054608E0FFF71EFB401B41F2883188428A
:1013100001D90320D3E7D24808380068C0F3404021
:101320000028EFD013E0FFF70DFB054608E0FFF7BC
:1013300009FB401B41F28831884201D90320BEE7F6
:10134000C74808380068C0F340400028EFD1207833
:1013500000F00200022869D1C148006800F00C00CA
:1013600058B1BF48006800F00C00082821D1BC48E3
:10137000001F006800F48000D8B9B9480838006838
:10138000C0F3400020B1E068012801D0012096E7B9
:10139000B3480838006820F0F800F82292FAA2F268
:1013A000B2FA82F2216991400843AD4908390860D8
:1013B0003CE0E06828B30120AA490860FFF7C2FAC0
:1013C000054606E0FFF7BEFA401B642801D903205A
:1013D00075E7A34808380068C0F340000028F1D042
:1013E0009F480838006820F0F800F82292FAA2F22C
:1013F000B2FA82F22169914008439949083908609C
:1014000014E0002097490860FFF79CFA054606E0C3
:10141000FFF798FA401B642801D903204FE7904852
:1014200008380068C0F340000028F1D1207800F0AF
:10143000080008282CD16069A8B101208A490860F9
:10144000FFF780FA054606E0FFF77CFA401B6428A8
:1014500001D9032033E782486C300068C0F34000B4
:101460000028F1D014E000207F490860FFF76AFAF5
:10147000054606E0FFF766FA401B642801D9032001
:101480001DE777486C300068C0F340000028F1D1B8
:10149000207800F0040004286FD100BF00200090E5
:1014A0006F483830006840F080506D49383108602E
:1014B0000846006800F08050009000BF00BF6B48F5
:1014C000006840F4807069490860FFF73BFA054600
:1014D00006E0FFF737FA401B642801D90320EEE647
:1014E0006248006800F480700028F2D000205C4957
:1014F00068310870FFF726FA054608E0FFF722FA80
:10150000401B41F28831884201D90320D7E6544874
:1015100068300068C0F340000028EFD1207A5049BD
:1015200068310870A068A0B1FFF70CFA054608E022
:10153000FFF708FA401B41F28831884201D90320A5
:10154000BDE6474868300068C0F340000028EFD08F
:1015500013E0FFF7F7F9054608E0FFF7F3F9401B42
:1015600041F28831884201D90320A8E63C4868301E
:101570000068C0F340000028EFD1A069F0B33848FC
:10158000006800F00C00082872D0A069022850D131
:10159000002034490866FFF7D5F9054606E0FFF755
:1015A000D1F9401B642801D9032088E62C4808386B
:1015B0000068C0F340600028F1D1D4E90701084376
:1015C00047F6C07292FAA2F2B2FA82F2616A9140D0
:1015D00008430122A16AC2EB51014FF4403292FA52
:1015E000A2F2B2FA82F2914008434FF0706292FA8E
:1015F000A2F2B2FA82F2E16A914000E03AE00843D6
:101600001749091F0860012016490866FFF79AF973
:10161000054606E0FFF796F9401B642801D9032030
:101620004DE60F4808380068C0F340600028F1D04C
:1016300020E000200B490866FFF784F9054606E024
:10164000FFF780F9401B642801D9032037E60448DE
:1016500008380068C0F340600028F1D10AE007E0D4
:101660000838024000004742800E474200700040A8
:10167000012024E6002022E610B504460CB9012022
:1016800010BD022084F88100002021680861401EFE
:1016900021688861204601F0F1FB2068406840F035
:1016A000080021684860204600F0AEF80020C4F829
:1016B000840084F8810000BF84F8800000BF00BF70
:1016C000DEE7704770B50446002500260CB90120FE
:1016D00070BD94F8810028B9002084F8800020466D
:1016E00000F094F8022084F88100204601F0C6FB47
:1016F000204601F0AFFB206AB8B1204601F0E2FBC2
:10170000064606EB86004100206A4002B1FBF0F578
:101710000A20B5FBF0F16162B5FBF0F100FB11505E
:10172000082802D9606A401C606220680068344959
:10173000084021680860616B60680843A16B08433A
:10174000E16B0843216C0843A1680843A16A084380
:101750002169084361690843A18C40EA0150E16AAC
:1017600008432168096808432168086020684068C8
:101770004CF20F01884321684860E16AA069084380
:10178000216B084321684968084321684860206844
:1017900080681C49084021688860606C401E616D4B
:1017A0000843E16C0843216D0843A16C491E40EADF
:1017B0000120216889680843216888602068C06822
:1017C0004FF2200108402168C860D4E9160108439F
:1017D000616E0843216E491E40EA01202168C968F4
:1017E00008432168C8600020C4F88400012084F800
:1017F000810000BF002084F8800000BF00BF67E7C1
:1018000010C005FF0080F8FF7047000010B586B0DB
:10181000044600BF002000901748006840F4800094
:10182000154908600846006800F48000009000BF79
:1018300000BF00BF002000900F481438006840F03F
:1018400010000D49143908600846006800F01000C7
:10185000009000BF00BF7C20019002200290012078
:101860000390032004900620059001A90348FEF789
:101870005BFF06B010BD000044380240001002407B
:101880002DE9F04103460020002293F8204081F822
:1018900056409C8CA1F854409C6A220E94090C700E
:1018A000C2F383044C7002F003048C709C6AC4F38E
:1018B0000742CA701C8DC4F307220A7193F82820CE
:1018C0004A71DC6A220E4FF6FF7404EA0214CC80DF
:1018D000DC6AC4F30742CC8844EA1214CC8002F0DC
:1018E0000F040C729C8DC4F30722D4094C72C2F30E
:1018F00080148C72C2F34014CC72C2F300140C73C7
:1019000000244C731C6A14B11C6A012C4DD194073D
:10191000240D0C612C24E25C0C6944EA82040C6105
:101920001C6B220E0C6944EA92140C61C2F3C204CF
:101930000C7502F007044C751C6BC4F30742540984
:101940008C75C2F38204CC759407640F0C761C8EE0
:10195000C4F307220C7E44EAD2140C760C69641C92
:101960000025C1E912450C7ED1E91267A41C0125AE
:1019700005FA04F44FEAE47CA6FB045807FB048450
:1019800006FB0C44C1E912540D7A0124AC400C65ED
:101990000026D1E912570C6DA5FB04C807FB04848F
:1019A00005FB0644C1E912C435E01C6A022C31D1A2
:1019B0002C24E25C9406A40A0C611C6B220E0C69B8
:1019C00044EA02240C611C6BC4F307420C69144303
:1019D0000C611C8EC4F307220C690025641C45EBC6
:1019E000050C4FF400770026A4FB07580CFB078773
:1019F00004FB067C4FF480672C466546B446A4FB86
:101A0000076805FB078504FB0C54C1E912647C10D0
:101A10000C6500E02920C2F3801401F8194F9406E8
:101A2000640E4C703024E25C4C7844EAD2144C7062
:101A300002F07F048C705C6B220ED409CC70C2F370
:101A400041140C71C2F382044C719407240F8C7101
:101A50005C6BC4F307428C7944EA92148C71C2F334
:101A60004014CC7100240C7202F001044C729C8E64
:101A7000C4F30722D4098C72C2F38014CC72C2F36F
:101A800040140C73C2F300144C73C2F381048C73C2
:101A900002F00304CC733424E25C54080C74012477
:101AA0004C749C6B220ECA7419399C6BC4F30742A8
:101AB0004FF6FF7404EA0225CD851C8FC4F307227C
:101AC000CC8D1443CC8593F8382015060D63DC6B60
:101AD000220E0C6B44EA02450D63DC6BC4F3074233
:101AE0000C6B44EA02250D639C8FC4F307220C6B38
:101AF00014430C633C24E25C342462541C6C220EBC
:101B0000352462541C6CC4F3074215068D634024CF
:101B1000E45AC4F307228C6B44EA02458D634024E7
:101B2000E25C8C6B44EA02258D635C6C220E8C6B4C
:101B300014438C635C6CC4F307423C24645C44EA49
:101B400012143C256C541407250DCD874424E45A07
:101B5000C4F30722CC8F1443CC874424E25C55089D
:101B600040246554012541246554BDE8F08130B519
:101B70008BB004460D4600200A902077204600F0E6
:101B800045F8002004900590069007900890762074
:101B9000099007A807C88DE80700206804A90EC9A6
:101BA00001F048FA204601F069FE0A909DF82800ED
:101BB00018B19DF828000BB030BD204601F0F6FCAE
:101BC0000A909DF8280010B19DF82800F3E72946F7
:101BD0002046FFF755FE0A909DF8280040B9B5F859
:101BE000540001040A460023204601F041FF0A90F8
:101BF000D4E90412A069CDE90012029094E80F0024
:101C000001F018FA9DF82800D5E7000010B586B05D
:101C1000044600BF002000902948006840F400609E
:101C2000274908600846006800F40060009000BF83
:101C300000BF00BF0020009021481438006840F425
:101C400080001F49143908600846006800F48000CD
:101C5000009000BF00BF00BF002000900846006851
:101C600040F0040008600846006800F0040000909E
:101C700000BF00BF00BF002000900846006840F091
:101C8000080008600846006800F00800009000BFE7
:101C900000BF4FF4F8500190022002900120039001
:101CA000032004900C20059001A90648FEF73CFD96
:101CB0000420019001A90448FEF736FD06B010BDCE
:101CC0004438024000080240000C02402DE9FF5F4A
:101CD0008CB0044617469846DDE91AB94FF0000A61
:101CE00000250D9E00202168C862206A022809D1C3
:101CF0004FF4007B0202002338464146FEF70CFBFE
:101D000007468846CDF81CB0102008904020099066
:101D100000200A904FF480600B9007A9206801F022
:101D2000ACF91021204601F0DDF98246BAF1000F2E
:101D300003D0504610B0BDE8F09F4FF0FF30019047
:101D400009FB0BF0029090200390022004900020E9
:101D500005900120069001A9206801F03FF9B9F132
:101D6000010F02D91220089001E011200890079776
:101D700007A9206801F081F9B9F1010F22D91221D8
:101D8000204601F0AFF98246BAF1000F01D050466B
:101D9000D0E70FE02068406B00F4004050B1002510
:101DA00005E0206801F065F946F825006D1C082D56
:101DB000F7D320362068406B40F22A3108400028D3
:101DC000E8D021E01121204601F08CF98246BAF1D9
:101DD000000F01D05046ADE70FE02068406B00F4E3
:101DE000004050B1002505E0206801F042F946F8B6
:101DF00025006D1C082DF7D320362068406B40F27B
:101E00002A6108400028E8D02068406B00F4807008
:101E100070B1B9F1010F0BD9206A28B1206A0128ED
:101E200002D0206A022803D1204600F047F88246FB
:101E30002068406B00F0080030B1082021688863FA
:101E40004FF0040A504675E72068406B00F002002E
:101E500028B1022021688863824650466AE72068DC
:101E6000406B00F0200030B12020216888634FF0E3
:101E7000060A50465EE72068406B00F4007038B1F7
:101E80004FF40070216888634FF0070A504651E70D
:101E90004FF0FF3505E0206801F0EBF83060361DAB
:101EA0006D1E2068406B00F4001008B1002DF2D1C7
:101EB00040F2FF502168886350463BE730B585B05B
:101EC00004460025002000900C2001904020029044
:101ED000002003904FF4806004906946206801F070
:101EE000CCF80C21204601F0FDF80546284605B047
:101EF00030BD70B58AB004460D460026206A03281E
:101F000003D1272630460AB070BD206A28B1206A66
:101F1000012802D0206A022828D1B5F5805F01D1BE
:101F200027260EE0B5F5006F04D1204601F007FE2C
:101F3000064606E025B9204601F0B6FD064600E05B
:101F400026269EB960680490A0680590E068069017
:101F5000079560690890A069099007A807C88DE8EF
:101F60000700206804A90EC901F064F83046CAE7EA
:101F70002DE9FF5F8EB0044617469846DDF874B031
:101F8000002002908146002500260190DDF83CA04B
:101F900000902168C862206A022809D100021C90C2
:101FA0000246002338464146FEF7B6F90746884602
:101FB0001C98099010200A9040200B9000200C9053
:101FC0004FF480600D9009A9206801F056F81021A7
:101FD000204601F087F80290029818B1029812B0DA
:101FE000BDE8F09FBBF1010F02D919200A9001E072
:101FF00018200A90099709A9206801F03EF8BBF162
:10200000010F05D91921204601F06CF8029004E077
:102010001821204601F066F80290029808B1029853
:10202000DDE71C980BFB00F94FF0FF3003901C9884
:102030000BFB00F004909020059000200690079084
:102040000120089003A9206800F0C8FFBBF1010F30
:102050003AD931E02068406B00F4804060B3A9EBCE
:10206000050020281BD2A9EB050000F0030018B9D9
:10207000A9EB0500800803E0A9EB05008008401CDF
:102080000190002607E05146206801F00AF80AF1A5
:10209000040A2D1D761C019886420DD2F3E7002616
:1020A00005E00AEB8601206800F0FBFF761C082E95
:1020B000F7D30AF1200A20352068406B40F21A312C
:1020C00008400028C6D039E031E02068406B00F4B9
:1020D000804060B3A9EB050020281BD2A9EB0500C6
:1020E00000F0030018B9A9EB0500800803E0A9EB94
:1020F00005008008401C0190002607E0514620683A
:1021000000F0CFFF0AF1040A2D1D761C01988642CB
:102110000DD2F3E7002605E00AEB8601206800F007
:10212000C0FF761C082EF7D30AF1200A203520685C
:10213000406B40F21A6108400028C6D02068406B0E
:1021400000F4807070B1BBF1010F0BD9206A28B187
:10215000206A012802D0206A022803D12046FFF716
:10216000ADFE02902068406B00F0080030B10820FE
:102170002168886304200290029830E72068406B51
:1021800000F0020028B102202168886302900298C2
:1021900025E72068406B00F0100030B11020216866
:1021A000886305200290029819E72068406B00F4CC
:1021B000007038B14FF400702168886307200290E6
:1021C00002980CE740F2FF50216888636946204678
:1021D00001F06AFA029004E06946204601F064FAD0
:1021E0000290029838B99DF800000728F4D09DF8B5
:1021F00000000628F0D00298F1E610B504460CB9AC
:10220000012010BD94F8510028B9002084F8500036
:10221000204600F037F8022084F85100206800685A
:1022200020F0400021680860D4E901010843E1681A
:1022300008432169084361690843218B01F4007157
:102240000843E1690843216A0843A16A08432168F9
:1022500008600421A06901EA1040616A084321680E
:1022600048602168E06A08612068C06920F4006065
:102270002168C86100206065012084F851000020B9
:10228000BFE7000010B586B0044600BF00200090F4
:102290001748006840F020001549086008460068AB
:1022A00000F02000009000BF00BF00BF00200090A1
:1022B0000F481430006840F480100D491431086054
:1022C0000846006800F48010009000BF00BF4FF483
:1022D000607001900220029001200390022004907F
:1022E0000520059001A90348FEF71EFA06B010BDAF
:1022F00030380240001402402DE9F84F04460E46E3
:1023000017461D46DDF828904FF00008C24694F8A5
:102310005180B8F1010F02D0B8F1220F76D10EB181
:1023200007B115B90120BDE8F88F00BF94F850003F
:10233000012801D10220F6E7012084F8500000BFF7
:1023400094F85100012802D1322084F85100002075
:102350006065A763A587E5872663A586E586A064F3
:10236000E064A06AB0F5005F0DD100BF206800688E
:1023700020F40050216808602068006840F4005094
:102380002168086000BF2068006800F04000402815
:1023900005D02068006840F0400021680860E068CF
:1023A000B0F5006F75D1606830B16068B0F5827FBC
:1023B0000CD1E08E012809D1206B00882168C8600B
:1023C000206B801C2063E08E401EE086E08EF0B91A
:1023D000A06AB0F5005F05D12068006840F4805025
:1023E000216808604B4600220121204601F09AFC3A
:1023F00008B1032097E72068C068A16B0880A06B34
:10240000801CA063E08F401EE087C7E01BE131E045
:102410004B4600220221204601F084FC08B1032033
:1024200081E7206B00882168C860206B801C2063D6
:10243000E08E401EE086E08E48B9A06AB0F5005FED
:1024400005D12068006840F48050216808604B4640
:1024500000220121204601F065FC08B1032062E75B
:102460002068C068A16B0880A06B801CA063E08F0F
:10247000401EE087E08E0028CADC60680028C4D1D6
:102480004B4600220121204601F04CFC10B10320F4
:1024900049E70AE02068C068A16B0880A06B801C37
:1024A000A063E08F401EE08778E0606830B160682C
:1024B000B0F5827F0BD1E08E012808D1216B481C3A
:1024C000206308782168C860E08E401EE086E08EB8
:1024D000D0B9A06AB0F5005F05D12068006840F46B
:1024E0008050216808604B4600220121204601F0FF
:1024F00019FC08B1032016E72068C068A16B0870BA
:10250000E08F401EE08749E030E04B460022022188
:10251000204601F007FC08B1032004E7216B481CAA
:10252000206308782168C860E08E401EE086E08E57
:1025300048B9A06AB0F5005F05D12068006840F492
:102540008050216808604B4600220121204601F09E
:10255000E9FB08B10320E6E62068C068C1B2A26BBF
:10256000501CA0631170E08F401EE087E08E0028B1
:10257000CBDC606890B94B4600220121204601F077
:10258000D1FB08B10320CEE62068C068C1B2A26BBF
:10259000501CA0631170E08F401EE087A06AB0F568
:1025A000005F12D14B4600220121204601F0BAFB08
:1025B00028B1606D40F0020060650320B3E620683A
:1025C000C06880B20090BDF800004B460122802117
:1025D000204601F0A7FB28B1606D40F02000606547
:1025E0000320A0E6012084F8510020688068C0F331
:1025F000001AA06AB0F5005F1FD1BAF1000F1CD01D
:10260000606D40F002006065A06AB0F5005F0DD11A
:1026100000BF2068006820F400502168086020682E
:10262000006840F400502168086000BF00BF00202F
:1026300084F8500000BF012075E600BF002084F838
:10264000500000BF6FE602206DE6042808D14FF06D
:10265000E021096941F004014FF0E022116107E037
:102660004FF0E021096921F004014FF0E0221161EF
:10267000704770B504462546681EB0F1807F01D3CF
:1026800001200FE0681E4FF0E02148610F214FF05C
:10269000FF3000F079FA00204FF0E0218861072038
:1026A0000861002070BD7047014691F839007047FD
:1026B000F8B50446002500262068006800F00105F2
:1026C0002068C06800F480767DB176B100BF00203C
:1026D000009020680068009020684068009000BF6B
:1026E00000BFE06B40F00100E06320680068C0F3C9
:1026F00040052068406900F001067DB176B100BF59
:1027000000200090206800680090206840680090D9
:1027100000BF00BFE06B40F00400E0632068006889
:10272000C0F380052068406900F001067DB176B1F4
:1027300000BF00200090206800680090206840687A
:10274000009000BF00BFE06B40F00200E063206833
:102750000068C0F3C0052068406900F001067DB143
:1027600076B100BF002000902068006800902068CB
:102770004068009000BF00BFE06B40F00800E063DD
:1027800020680068C0F340152068C06800F020068B
:102790001DB116B1204601F07FFC20680068C0F32F
:1027A000C0152068C06800F080061DB116B1204633
:1027B00001F0E2FD20680068C0F380152068C06861
:1027C00000F040061DB116B1204601F04DFCE06B53
:1027D00028B1012084F839002046FFF764FFF8BDD6
:1027E00010B504460CB9012010BDA06900B100E08D
:1027F00000BF94F8390028B9002084F8380020463A
:1028000000F026F8022084F839002068C06820F41F
:1028100000502168C860204601F09CFC20680069D7
:1028200020F49040216808612068406920F02A0067
:10283000216848612068C06840F400502168C86081
:102840000020E063012084F839000020CCE700007C
:1028500010B586B004462249206888423ED100BFA8
:10286000002000901F48006840F001001D490860EA
:102870000846006800F00100009000BF00BF00BFE4
:102880000020009017481430006840F010001549EF
:10289000143108600846006800F01000009000BF86
:1028A00000BF4815019002200290012003900220F1
:1028B00004900720059001A90B48FDF735FF4FF460
:1028C0008060019001A90848FDF72EFF2520FEF742
:1028D00070F8032211462520FEF778F806B010BDE7
:1028E00000100140303802400000024030B503467D
:1028F000002493F83940012C01D0122C37D101B1BA
:102900000AB9012030BD00BF93F83800012801D179
:102910000220F7E7012083F8380000BF99629A850A
:10292000DA850020D86393F83900122803D13220C9
:1029300083F8390002E0222083F839001868C06863
:1029400040F480701D68E8601868406940F001003C
:102950001D68686100BF002083F8380000BF186858
:10296000C06840F020001D68E8600020CAE702202F
:10297000C8E700001D4A0168914236D11C49098808
:1029800001F4004189BB1A49098801F4804171B101
:10299000184909780A2903D00021154A118024E03A
:1029A0001349098841F40041114A11801DE0114981
:1029B00009780D2906D10E49098841F480410C4A55
:1029C000118012E00B490978094A1288C2F30D02FE
:1029D000094B995406490988491C054A118011463A
:1029E0000988C72901DD00211180704700100140CE
:1029F0009C0000209E000020181600207047000058
:102A000000B587B000BF002001901048006840F07A
:102A100080000E4908600846006800F080000190C0
:102A200000BF00BF302002900120039004900220DC
:102A3000059002A90648FDF777FE012005490860C8
:102A40000549C1F8900207B000BD000030380240CF
:102A5000001C02409482434200804342104A1268A4
:102A600022F440620E4B1A601A46126842F48062E9
:102A70001A6000220B4B1A6000210EE0C209094BBC
:102A80001B1D1A604206100E0122074BC3F890224C
:102A90000022044B1A604A1CD1B20829EEDB7047B1
:102AA000001C024090824342008043420B48006871
:102AB00020F44060094908600846006840F48060DE
:102AC00008600120064908600649C1F8900200200C
:102AD000034908600349C1F890027047001C024096
:102AE00094824342008043420B48006820F44060D7
:102AF000094908600846006840F4806008600020CA
:102B0000064908600649C1F894020120034908609B
:102B10000349C1F894027047001C0240908243426E
:102B20000080434200B500221048006820F4406055
:102B30000E49086008460068086001200C490860DA
:102B40000C49C1F8900207E0501CC2B2FA2A03DD1A
:102B5000FFF7CAFF012000BD054880380068002843
:102B6000F2D10349091F086000BFF4E7001C0240CE
:102B7000948243420080434202480068C0F302202E
:102B8000704700000CED00E010B5002807DA0A07D6
:102B9000140E054A00F00F031B1FD45403E00A076C
:102BA000130E024A135410BD18ED00E000E400E0DB
:102BB00000200349086840F40030086070470000B6
:102BC0000458014070B504460D4616461D48FEF7F0
:102BD00053FD1D481B490860084644600021816080
:102BE0004FF400510161002141610121816109051A
:102BF000C1610021816241638663C1630564402035
:102C00001049486420210F488164C902C164002131
:102C100001654FF48021416500200A4988658021C3
:102C20000848C165022101664FF440314166FEF754
:102C300049FD04480068006840F480300149096893
:102C4000086070BD381500200458014030B58DB0C3
:102C50000546002400BF0CE00A20B5FBF0F004EBB1
:102C60008401254A32F81110884200D103E0601C2B
:102C7000C4B20B2CF0D300BF0B2C02D101200DB03D
:102C800030BD0220019004EB84001B4901EB4000A1
:102C90004088029004EB840001EB4000818804919D
:102CA00004EB8400144901EB4000C088401C0890EC
:102CB00001A8FDF72FFF1148006820F4401040F4F0
:102CC00080100E4908600E480068006820F48030CB
:102CD0000B49096808600A480562FEF7F3FCFFF734
:102CE00067FF07480068006840F4803004490968BD
:102CF00008600020C3E7000076A000088C3802407E
:102D0000381500202DE9F84304460D4616461F46A7
:102D10004FF00008C14627B1012F06D0022F0ED177
:102D200008E04FF00008C14609E04FF400584FF4A6
:102D3000006904E04FF480484FF4805900BF00BFA1
:102D400000BF002000903D48006840F480003B49EF
:102D500008600846006800F48000009000BF00BFD3
:102D600000BF37483749086708463549886300BFC0
:102D700035480860002048604021314881600021CA
:102D8000C1604FF480610161C0F81490C0F81880F0
:102D90008910C1614902016200214162C16201637F
:102DA000FDF747FC2648FDF777FC2B46274A2146CE
:102DB00023480096FDF7FCFB21480068006820F0DE
:102DC00001001F49096808601D480068006840F05C
:102DD00010001B4909680860194800681A498842B0
:102DE00005D94FF0006018494C3908601BE01448C1
:102DF00000681749884205D94FF0006012495039E0
:102E0000086010E00E48006811496039884205D911
:102E10004FF000600E49B839C86004E04FF0006020
:102E20000B49B8398860002211463B20FDF7CEFDE2
:102E30003B20FDF7BEFDBDE8F883000030380240BE
:102E4000C015002038150020586402402058014069
:102E5000B86002400021C26822B1022A04D0042ACC
:102E600006D103E0002103E0102101E0202100BF92
:102E700000BF014A116070470058014070B5044618
:102E8000FDF760FD054600262068006820F48030CC
:102E9000216808600EE0FDF755FD401B0A2809D99E
:102EA000D4F8840040F04000C4F884000326204693
:102EB000FEF707FC2068006800F480300028EAD1A3
:102EC000304670BD30B50146002000230022314D50
:102ED0000C68AC4208D1304C246824F44014CD690D
:102EE0002C432D4D2C6008E02B4C246824F4400525
:102EF000CC6945EA8404284D2C60274C883C246822
:102F000004F4800444B9244C883C246804F03F0451
:102F1000224DB5FBF4F307E01F4C883C246804F015
:102F20003F041F4DB5FBF4F3CC69A4B91A4C241F20
:102F30002468C4F30362184C241F2468C4F3881463
:102F40005C43B4FBF2F0144C2468C4F30424621C08
:102F5000B0FBF2F01CE0CC69B4F5801F14D10E4C2C
:102F6000083C2468C4F303620B4C083C2468C4F397
:102F700088145C43B4FBF2F0074C246804F01F048F
:102F8000621CB0FBF2F003E00124064D2C60064801
:102F900030BD0000045801408C3802400024F40089
:102FA00040787D015C0147420080BB000448006816
:102FB000006840F00100024909680860704700009D
:102FC000C015002004480068006820F00100024994
:102FD0000968086070470000C015002010B502465F
:102FE00000230868506248689062D1E902042043D7
:102FF0000C6920434C6920430343D06A20F0F7005A
:103000001843D062002010BD01460869C0B2704765
:103010000146086800F003007047000008B501464B
:10302000002000900248084400900098006808BD05
:10303000142C01400FB410B504460021DDE9030251
:103040001043059A1043069A1043079A1043089AB2
:1030500010430143606847F6FF6290430843606095
:10306000002010BC5DF814FB01460320086000201E
:1030700070470146D1F88000704710B50246002322
:1030800008689060D1E901042043CC6820430C69B2
:1030900020430343D0686FF30B001843D060002037
:1030A00010BD02460868C2F880000020704730B5A5
:1030B000014600204FF480320C68646BC4F3C013E7
:1030C00004E00C68646BC4F3C013521E0AB1002BF9
:1030D000F7D00AB9032030BD40F2FF540D68AC634D
:1030E00000BFF8E72DE9F04105460E46002700BF76
:1030F0002868406B00F045000028F9D02868406B34
:1031000000F0040030B103270420296888633846A2
:10311000BDE8F0812868406B00F0010028B101276C
:103120000120296888633846F2E72868FFF76CFFBA
:10313000B04202D010273846EAE740F2FF50296833
:1031400088630020FFF76AFF04464548204008B91D
:103150003846DDE704F00040B0F1004F01D11C20FB
:10316000D6E704F08040B0F1804F01D10920CFE7CD
:1031700004F00050B0F1005F01D10A20C8E704F06C
:103180008050B0F1805F01D10B20C1E704F00060F6
:10319000B0F1006F01D10C20BAE704F08060B0F10B
:1031A000806F01D10D20B3E704F08070B0F1807F13
:1031B00001D10E20ACE704F40000B0F5000F01D1FE
:1031C0000F20A5E704F48000B0F5800F01D1102096
:1031D0009EE704F40010B0F5001F01D1112097E71D
:1031E00004F48010B0F5801F01D1122090E704F4A0
:1031F0000020B0F5002F01D1132089E704F48020CE
:10320000B0F5802F01D1142082E704F40030B0F52E
:10321000003F01D115207BE704F48030B0F5803FFA
:1032200001D1162074E704F40040B0F5004F01D13D
:1032300017206DE704F48040B0F5804F01D11820CD
:1032400066E704F40050B0F5005F01D119205FE794
:1032500004F00800082801D11A2059E7384657E73A
:1032600008E0FFFD0146002000BF0A68526B02F033
:103270004502002AF9D00A68526B02F0040222B11A
:10328000032004220B689A6370470A68526B02F0AD
:10329000010222B1012001220B689A63F4E740F297
:1032A000FF520B689A6300BFEEE70146002000BFA3
:1032B0000A68526B02F04502002AF9D00A68526B84
:1032C00002F0040222B1032004220B689A637047C3
:1032D00040F2FF520B689A6300BFF8E72DE9F04116
:1032E00004460E4617464FF0000800BF2068406BAA
:1032F00000F045000028F9D02068406B00F0040081
:1033000038B14FF003080420216888634046BDE8C7
:10331000F0812068406B00F0010030B14FF00108EF
:103320000120216888634046F1E72068FFF76CFEC2
:10333000B04203D04FF010084046E8E740F2FF509B
:10334000216888630020FFF769FE054605F46040A8
:1033500018B9280C38804046D9E705F40050B0F57C
:10336000005F01D11320D2E705F48040B0F5804F13
:1033700001D11020CBE705F40040B0F5004F01D19A
:103380000F20C4E74046C2E730B5014629204FF47C
:1033900080320C68646B04F045040CB1012400E039
:1033A0000024234609E00C68646B04F045040CB16A
:1033B000012400E000242346521E0BB9002AF2D15A
:1033C0000C68646BC4F3800302B123B103200424AE
:1033D0000D68AC6330BD0C68646B04F0400424B12C
:1033E000002040240D68AC63F4E700BFF2E7F0B5BD
:1033F0008DB004460E460025002700200090019065
:10340000082008901020099040200A9000200B907E
:103410004FF480600C9008A92068FFF72EFE102161
:103420002046FFF75FFE054615B128460DB0F0BDFA
:10343000A08C000408903720099008A92068FFF7A5
:103440001CFE37212046FFF74DFE05460DB12846EC
:10345000ECE74FF0FF3002900820039030200490FA
:1034600002200590002006900120079002A9206804
:10347000FFF7B4FD002008903320099008A92068C8
:10348000FFF7FBFD33212046FFF72CFE05460DB16B
:103490002846CBE70AE02068406B00F4001028B112
:1034A0002068FFF7E6FD4DF827007F1C2068406B81
:1034B00040F22A6108400028EDD02068406B00F0FF
:1034C000080028B108202168886304252846ADE754
:1034D0002068406B00F0020028B102202168886358
:1034E00002252846A2E72068406B00F0200028B1A2
:1034F0002020216888630625284697E72068406BCE
:1035000000F4007030B14FF4007021688863072523
:1035100028468BE740F2FF50216888630098000638
:10352000009901F47F4140EA0120009901F47F01F4
:1035300040EA1120009940EA11607060019800068D
:10354000019901F47F4140EA0120019901F47F01D2
:1035500040EA1120019940EA11603060284665E791
:1035600010B50F480F4908600020486000210D4841
:103570008160C1600161416181610B49FEF7F7FA29
:1035800004460CB1012010BD4FF400610548FEF760
:10359000B0FC04460CB10220F5E70020F3E7000080
:1035A000002C0140D01100203012002030B587B02F
:1035B00004460025012001902068FFF729FD18B975
:1035C0002525284607B030BD206A042825D00020D4
:1035D000029002200390C0200490002005904FF438
:1035E0008060069002A92068FFF747FD2046FFF79C
:1035F00039FE05460DB12846E4E70020FFF70EFD31
:10360000A0630420FFF70AFDE0630820FFF706FD32
:1036100020640C20FFF702FD6064206A40B1206A3C
:10362000012805D0206A062802D0206A022810D17D
:10363000032003904020049002A92068FFF71DFD9D
:1036400001AA03212046FFF749FE05460DB1284691
:10365000B8E7206A042824D0BDF804006062A08C7A
:103660000004029009200390C020049002A9206861
:10367000FFF703FD2046FFF7F5FD05460DB128468F
:10368000A0E70020FFF7CAFCA0620420FFF7C6FCF9
:10369000E0620820FFF7C2FC20630C20FFF7BEFCAD
:1036A000606328468EE7000070B586B004460D467C
:1036B000002600200090A08C000401900D200290B4
:1036C00040200390002004904FF48060059001A9F1
:1036D0002068FFF7D2FC00BF2068406B00F0450077
:1036E0000028F9D02068406B00F0040030B10326B8
:1036F000042021688863304606B070BD2068406BA6
:1037000000F0010028B101260120216888633046BD
:10371000F2E72068FFF778FC0D2802D0102630462B
:10372000EAE740F2FF50216888630020FFF776FC4B
:1037300000900098C0F3432028704F49009808403B
:1037400008B93046D8E7009800F00040B0F1004FCB
:1037500001D11C20D0E7009800F08040B0F1804FEC
:1037600001D10920C8E7009800F00050B0F1005FD7
:1037700001D10A20C0E7009800F08050B0F1805FCE
:1037800001D10B20B8E7009800F00060B0F1006FA5
:1037900001D10C20B0E7009800F08060B0F1806F9C
:1037A00001D10D20A8E7009800F08070B0F1807F73
:1037B00001D10E20A0E7009800F40000B0F5000F42
:1037C00001D10F2098E7009800F48000B0F5800F39
:1037D00001D1102090E7009800F40010B0F5001F10
:1037E00001D1112088E7009800F48010B0F5801F07
:1037F00001D1122080E7009800F40020B0F5002FDE
:1038000001D1132078E7009800F48020B0F5802FD4
:1038100001D1142070E7009800F40030B0F5003FAB
:1038200001D1152068E7009800F48030B0F5803FA2
:1038300001D1162060E7009800F40040B0F5004F79
:1038400001D1172058E7009800F48040B0F5804F70
:1038500001D1182050E7009800F40050B0F5005F47
:1038600001D1192048E7009800F00800082801D18C
:103870001A2041E730463FE708E0FFFD2DE9F0411F
:1038800086B00446002000900026002500278046D0
:10389000514908602068FFF7E7FB0120FCF73EFF75
:1038A00001204D49A039C1F8A000002001900290EC
:1038B000039004904FF48060059001A92068FFF701
:1038C000DCFB2046FFF7F3FB00909DF8000020B1E1
:1038D0009DF8000006B0BDE8F0814FF4D57001906E
:1038E000082002904020039001A92068FFF7C5FB43
:1038F0002046FFF749FD00909DF8000018B901200F
:1039000020624FF08048002001903720029001A9EA
:103910002068FFF7B2FB37212046FFF7E3FB00905A
:103920009DF80000002854D13EE00020019037208F
:10393000029040200390002004904FF48060059096
:1039400001A92068FFF799FB37212046FFF7CAFB42
:1039500000909DF8000010B19DF80000BAE71F48E4
:1039600048EA0000019029200290402003900020A6
:1039700004904FF48060059001A92068FFF77DFB5B
:103980002046FFF792FC00909DF8000010B19DF8D2
:1039900000009FE70020FFF741FB0646012080EA78
:1039A000D67080F001076D1C1FB94FF6FF7085427D
:1039B000BBD34FF6FF70854204D31B2000909DF8C7
:1039C000000087E706F08040B0F1804F01D102206F
:1039D00020629DF800007DE7A08025420000108055
:1039E0002DE9FE4F81460C469346002002900026AA
:1039F00025462C46700240EAD5566D0204F03CFC88
:103A000009F0030000B34FF0000A1AE00120410260
:103A1000CDE900104FEA4A20471946EBE0733A46D9
:103A200011491248FEF752F902904FF400720E4904
:103A30004846FCF7A2FC09F500790AF1010000F004
:103A4000FF0ADA45E2D30AE04FF400702A46334613
:103A50004946CDE9000B0548FEF738F9029004F01D
:103A60001BFC0298BDE8FE8F38130020D011002007
:103A7000F0B585B0064614461D4600270094072081
:103A8000019040200290002003904FF48060049049
:103A900069463068FFF7F1FA07213046FFF722FB4D
:103AA0000746384605B0F0BD30B587B0044600255E
:103AB000002000900190FFF7B1FA00F00070B0F123
:103AC000007F03D10E25284607B030BD6946204649
:103AD000FFF78DFC05460DB12846F5E7019800F487
:103AE000803048B3A08C000402903720039040201F
:103AF0000490002005904FF48060069002A9206891
:103B0000FFF7BBFA37212046FFF7ECFA05460DB167
:103B10002846D9E7002002900620039002A92068D9
:103B2000FFF7ABFA06212046FFF7DCFA05460DB198
:103B30002846C9E72846C7E725252846C4E730B503
:103B400087B004460025002000900190FFF766FA38
:103B500000F00070B0F1007F03D10E25284607B0B9
:103B600030BD69462046FFF742FC05460DB12846A8
:103B7000F5E7019800F4802048B3A08C000402907F
:103B80003720039040200490002005904FF480607F
:103B9000069002A92068FFF770FA37212046FFF748
:103BA000A1FA05460DB12846D9E702200290062069
:103BB000039002A92068FFF760FA06212046FFF76C
:103BC00091FA05460DB12846C9E72846C7E72525DD
:103BD0002846C4E72DE9FE4F81460C469346002057
:103BE0000290002625462C46700240EAD5566D020A
:103BF00004F042FB09F0030000B34FF0000A1AE0A2
:103C00004FF4007249461548FCF7B7FB012041020A
:103C1000CDE900104FEA4A20471946EBE0733A46D7
:103C20000E490F48FEF7A4F9029009F500790AF150
:103C3000010000F0FF0ADA45E2DB0AE04FF4007011
:103C40002A4633464946CDE9000B0548FEF790F970
:103C5000029004F021FB0298BDE8FE8F381300208B
:103C6000D011002010B51348134908604FF482703A
:103C70004860002110488160C1600221016101217A
:103C80004161490281613821C161002101624162C3
:103C900081620721C162FEF7B0FA07480068006838
:103CA00040F04000044909680860FF2000F006F871
:103CB00010BD0000005001407811002001B582B015
:103CC0004FF47A70012301AA02A900900248FEF77E
:103CD00013FB9DF804000EBD7811002010490968FF
:103CE000096821F040010E4A126811600C49096808
:103CF00009684FF6C7721140094A126811600849F5
:103D0000096809680143064A126811600449096894
:103D1000096841F04001024A1268116070470000D2
:103D2000781100202DE9F04104460E4617461D4645
:103D30004FF00008FCF706FE8046002F3ED132E02F
:103D4000681C78B32DB1FCF7FDFDA0EB0800A8427C
:103D500029D92068406820F0E00021684860206888
:103D6000006820F0400021680860A06AB0F5005F9C
:103D70000DD100BF2068006820F400502168086061
:103D80002068006840F400502168086000BF0120EE
:103D900084F8510000BF002084F8500000BF0320C9
:103DA000BDE8F081FFE7206880683040B04201D173
:103DB000012000E000200028C2D03BE030E0681C79
:103DC00070B32DB1FCF7BEFDA0EB0800A84227D9C7
:103DD0002068406820F0E0002168486020680068A2
:103DE00020F0400021680860A06AB0F5005F0DD1A6
:103DF00000BF2068006820F4005021680860206837
:103E0000006840F400502168086000BF012084F879
:103E1000510000BF002084F8500000BF0320BFE71E
:103E2000206880683040B04201D1012000E00020CD
:103E30000028C4D10020B3E72DE9F04192B0054637
:103E4000884616461F46002400BF002000902648E2
:103E5000006840F08050244908600846006800F07F
:103E60008050009000BF00BF00BF002000901F489E
:103E7000006840F440401D4908600846006800F4AE
:103E80004040009000BF00BF012006900790022034
:103E90000C9041050D91CDF838800F951096119733
:103EA00006A8FDF7E5F904460CB100BFFEE7FCF7F4
:103EB000DFFD04460CB100BFFEE70F200190022099
:103EC0000290002003904FF4A05004904FF48050D3
:103ED0000590052101A8FCF7D1FF04460CB100BFF5
:103EE000FEE712B0BDE8F0814038024000700040AB
:103EF00010B504F0FBFB05F037FA04F007FC10BD29
:103F000070B500200022022300240221274D2D68D5
:103F100005F00C0020B1042806D0082834D107E0B1
:103F2000234D244E356033E0234D224E35602FE083
:103F30001E4D2D1F2D68C5F380541C4D2D1F2D685F
:103F400005F03F0154B11C4DB5FBF1F5174E361F7E
:103F50003668C6F3881605FB06F209E0144DB5FB7A
:103F6000F1F5124E361F3668C6F3881605FB06F2C9
:103F70000E4D2D1F2D68C5F301456D1C6B00B2FB66
:103F8000F3F50C4E356003E0094D0A4E356000BF75
:103F900000BF064D2D68C5F30315084E705D054D35
:103FA0002D68C540034E356070BD000008380240E2
:103FB0000024F4000400002040787D010800002067
:103FC0001448006840F47000124908601248006804
:103FD00040F001001049086000200F4908310860D6
:103FE0000D4800680D4908400B4908600C48091D40
:103FF0000860081F006820F48020091F0860002066
:1040000005490C3108604FF00060024980390860B2
:104010007047000088ED00E000380240FFFFF6FE28
:10402000103000241CB5142000214FF480530A46A0
:10403000CDE90010064907A004F0D5FF0949086042
:104040000846006818B10846006805F00DF91CBD67
:104050004D4A00085761765F506C617965725F5414
:1040600061736B001800002010B504462068C0681A
:1040700020F040002168C86094F83900322803D14C
:10408000222084F8390002E0012084F8390020461B
:10409000FEF7B4FC002010BD70B50446002694F86D
:1040A0003960222E01D0322E52D1A068B0F5805F47
:1040B00013D1A56A206940B920684068C0F30800A0
:1040C0002880A06A801CA06219E020684068C0B205
:1040D0002880A06A401CA06211E0206938B92068DD
:1040E0004068C1B2A26A501CA062117007E020684B
:1040F000406800F07F01A26A501CA0621170E08D40
:10410000401E80B2E08508BB2068C06820F0200017
:104110002168C86094F83900322803D1122084F84D
:1041200039000EE02068C06820F480702168C86003
:104130002068406920F0010021684861012084F86E
:1041400039002046FEF716FC002070BD0020FCE779
:104150000220FAE72DE9F0410446002520680569B0
:1041600025F44055E0680543206805612068C5686E
:1041700049F20C6085432169A068084361690843DE
:10418000E169084305432068C5602068456925F456
:104190004075A069054320684561E069B0F5004FAE
:1041A00072D173492068884203D0724920688842DE
:1041B00034D1FCF7EDFF00EBC00101EB00106168AA
:1041C0004900B0FBF1F06421B0FBF1F6FCF7E0FF31
:1041D00000EBC00101EB001061684900B0FBF1F792
:1041E000FCF7D6FF00EBC00101EB0010616849004D
:1041F000B0FBF1F06421B0FBF1F000EBC00101EB8A
:104200000010A7EB8000322101EB00106421B0FB0D
:10421000F1F066F31F1021688860A6E0FCF7A2FFAA
:1042200000EBC00101EB001061684900B0FBF1F048
:104230006421B0FBF1F6FCF795FF00EBC00101EB48
:10424000001061684900B0FBF1F7FCF78BFF00EB51
:10425000C00101EB001061684900B0FBF1F064217E
:10426000B0FBF1F000EBC00101EB0010A7EB800008
:10427000322101EB00106421B0FBF1F066F31F1056
:104280002168886071E0FFE739492068884203D0DF
:1042900038492068884234D1FCF77AFF00EBC0012E
:1042A00001EB001061688900B0FBF1F06421B0FB04
:1042B000F1F6FCF76DFF00EBC00101EB0010616847
:1042C0008900B0FBF1F7FCF763FF00EBC00101EBE5
:1042D000001061688900B0FBF1F06421B0FBF1F0DF
:1042E00000EBC00101EB0010A7EB8000322101EBD5
:1042F00000106421B0FBF1F066F31F1021688860A4
:1043000033E0FCF72FFF00EBC00101EB0010616808
:104310008900B0FBF1F06421B0FBF1F6FCF722FF5D
:1043200000EBC00101EB001061688900B0FBF1F700
:10433000FCF718FF00EBC00101EB00106168890079
:10434000B0FBF1F06421B0FBF1F000EBC00101EB38
:104350000010A7EB8000322101EB00106421B0FBBC
:10436000F1F066F31F1021688860BDE8F08100005D
:10437000001001400014014010B50146002391F8DF
:104380003930122B01D0322B2CD18868B0F5805FE8
:104390000FD10A6A1088C0F308000C6860600869D1
:1043A00018B9086A801C086209E0086A401C0862A3
:1043B00005E00C6A601C086220780C686060C88C9C
:1043C000401E80B2C88458B90868C06820F08000D8
:1043D0000C68E0600868C06840F040000C68E0606D
:1043E000002010BD0220FCE770B500240F4D1048DE
:1043F000FEF75EF900BF03E0641CAC4200D904E0A4
:104400000B48FEF751F90128F6D100BF002403E064
:10441000641CAC4200D906E0012206490448FEF7BC
:1044200065FA0028F4D100BF70BD0000FFFF010055
:10443000E01600209E00002010B50446240300F082
:1044400057F900F0EFF800200F4908602020FFF72F
:1044500035FC0E4800884EF61871884202D1200EB5
:10446000FFF72CFCC4F30740FFF728FCC4F3072038
:10447000FFF724FCE0B2FFF721FC012002490860AD
:1044800000F0D0F810BD0000988242429000002059
:1044900010B586B000BF002000901E48006840F0B4
:1044A00020001C4908600846006800F020000090C9
:1044B00000BF00BF40200190012002900390022025
:1044C000049001A91448FCF72FF901201349086052
:1044D000FFF7C8FB0020FFF701FC00F057F8104978
:1044E0000880084600884EF61871884210D10320D3
:1044F00000F070F8044604F0010048B900200749B4
:104500000860B720FFF7DAFB01200649C1F89802DE
:1045100006B010BD3038024000140240988242427A
:1045200090000020008042422DE9F04106460C46F2
:1045300017460020134908600320FFF7BFFB12480D
:1045400000884EF61871884202D1200EFFF7B6FBA4
:10455000C4F30740FFF7B2FBC4F30720FFF7AEFB3D
:10456000E0B2FFF7ABFB002505E0FF20FFF7A6FB5D
:104570007055681C85B2BD42F7DB01200149086017
:10458000BDE8F081988242429000002010B50024DE
:1045900000200E4908609020FFF790FB0020FFF7F5
:1045A0008DFB0020FFF78AFB0020FFF787FBFF2031
:1045B000FFF784FB44EA0024FF20FFF77FFB04435E
:1045C00001200349C1F89802204610BD988242425A
:1045D0000080424270B5044600250026012C04D01C
:1045E000022C04D0032C06D103E0052605E0352675
:1045F00003E0152601E0052600BF00BF00200749A3
:1046000008603046FFF75AFBFF20FFF757FB0546CF
:1046100001200349C1F89802284670BD98824242A1
:104620000080424210B500BF0120FFF7D3FF00F029
:1046300001000028F8D110BD2DE9F05F81460F463A
:104640001646DFF8A8B04FEA1738C7F30B0ACAF5C9
:104650008054A64200DC344644E04FEA08314FF46F
:1046600080525846FFF760FF002508E00AEB05007E
:104670001BF80000FF2800D003E0681C85B2A542AB
:10468000F4DB00BFA54216DA4046FFF7D5FE002551
:1046900007E019F8050005EB0A010BF80100681C9A
:1046A00085B2A542F5DB4FEA08314FF480525846F7
:1046B00000F02EF804E022463946484600F028F87B
:1046C000A64200D10FE008F101084FF0000AA14412
:1046D0002744301B86B2B6F5805F02DD4FF480546C
:1046E00000E03446B9E700BFBDE8F09F7801002044
:1046F00010B50020044908600620FFF7DFFA01200A
:104700000249C1F8980210BD98824242008042429C
:104710002DE9F04107460E461446F0B2C0F580750B
:10472000AC4200DC254612E02A463146384600F00D
:1047300013F8AC4200D10BE02F442E44601B84B22E
:10474000B4F5807F02DD4FF4807500E02546EBE78D
:1047500000BFBDE8F08100002DE9F04106460C469F
:104760001746FFF7C5FF0020144908600220FFF735
:10477000A5FA134800884EF61871884202D1200E1F
:10478000FFF79CFAC4F30740FFF798FAC4F3072039
:10479000FFF794FAE0B2FFF791FA002504E0705DAC
:1047A000FFF78CFA681C85B2BD42F8DB0120034993
:1047B0000860FFF737FFBDE8F081000098824242B1
:1047C0009000002070B505460E46032000F0FAF870
:1047D000044615B144F0030401E024F0030421462B
:1047E000032000F009F9022000F0ECF8044616B1AD
:1047F00044F0030401E024F003042146022000F009
:10480000FBF870BD70B5044604F007042F2000F0DB
:10481000D9F8054625F0070545EA04012F2000F0E8
:10482000EBF8302000F0CEF8054625F0070545EA04
:104830000401302000F0E0F870BD70B504460D466C
:1048400004F03F0405F03F050CB944F040040DB9F5
:1048500045F040052146342000F0CEF845F4807143
:10486000352000F0C9F870BD70B504460D4604F05F
:10487000030405F00305E00040EA4511042000F0C0
:10488000BBF870BD10B5FEF7BBF80021084600F07C
:10489000B3F804460CB1012010BD1B21012000F02B
:1048A000ABF84FF4D871022000F0A6F86C21032079
:1048B00000F0A2F80021062000F09EF810212B2025
:1048C00000F09AF84FF480712F2000F095F84FF423
:1048D0008071302000F090F80221312000F08CF837
:1048E0000421312000F088F808210A2000F084F823
:1048F00008210E2000F080F80020CDE72DE9F041DE
:1049000005460E461746022000F05CF8044615B135
:1049100044F00C0401E024F00C042146022000F0D5
:104920006BF82C2000F04EF8044615B144F0330427
:1049300001E024F0330421462C2000F05DF81EB184
:10494000052000F00EF802E0002000F00AF81FB188
:104950000720FFF757FF02E00020FFF753FFBDE8F5
:10496000F08170B5044604F007042F2000F02AF807
:10497000054625F0700545EA04112F2000F03CF8AB
:10498000302000F01FF8054625F0700545EA0411B7
:10499000302000F031F870BD70B506460D46002499
:1049A0000EB144F001041DB144F0020444F01404BB
:1049B0002146322000F020F82146332000F01CF878
:1049C00070BD00000146024830F811007047000039
:1049D0001C00002010B5044604F03F040CB944F05C
:1049E00040042146362000F007F844F48071372057
:1049F00000F002F810BD000070B505460C46FEF749
:104A000055F83420FEF72AF8FEF78CF808B101209B
:104A100070BDC4F3002141EA4501C8B2FEF71EF89B
:104A2000FEF780F808B10220F2E7E0B2FEF716F8D0
:104A3000FEF778F808B10320EAE7FEF755F80248D8
:104A400020F815400020E3E71C00002005A000F03E
:104A500025F805E000F04CFA42F2107004F0EBFA91
:104A6000F8E700006C61696C650000000146481EB3
:104A7000B0F1807F01D301207047481E4FF0E02243
:104A80005061FF20044A107000204FF0E022906136
:104A9000072010610020EFE723ED00E00FB4054B85
:104AA00010B503A9044A029800F048F810BC5DF85C
:104AB00014FB00006573000898000020014609B946
:104AC00000207047C8B220B1C8B20E4A105C401C2A
:104AD000F7E701F47F4028B10A48C1F30722805C60
:104AE0000930EEE701F47F0028B10648C1F3074220
:104AF000805C1130E5E7034800EB11600078193065
:104B0000DFE700002CA5000802E008C8121F08C15A
:104B1000002AFAD170477047002001E001C1121F3E
:104B2000002AFBD17047000003490868884201D081
:104B3000012070470020FCE7640100202DE9FF4FB1
:104B40008DB09B460F460446002606E025280BD074
:104B50005A460F999047641C761C20780028F5D19E
:104B600011B03046BDE8F08F0025A84601229849D3
:104B700000E0054314F8013F203B02FA03F008422D
:104B8000F7D120782E2817D114F8010F45F004052D
:104B90002A280ED06FF02F022078A0F130010929C9
:104BA0000AD808EB880102EB410100EB0108641C04
:104BB000F2E757F8048B641C20786C280DD004DCD5
:104BC0004C2812D06A2811D104E074280DD07A281C
:104BD0000CD10AE045F4001507E0617845F4801532
:104BE000814202D1641C05F58015641C2278692A73
:104BF00045D008DC002AB3D0582A69D0632A10D0E7
:104C0000642A08D13BE0702A67D0732A13D0752A32
:104C10005CD0782A5CD010465A460F999047761C93
:104C2000D3E017F8040B8DF8000000208DF8010088
:104C3000E946012003E057F8049B4FF0FF30690775
:104C40004FF0000501D40AE06D1C45450DDA8542A0
:104C5000FADB19F805100029F6D106E06D1C854233
:104C6000FCDB19F805100029F8D12E4404E019F8EE
:104C7000010B5A460F9990476D1EF8D2A5E00A2005
:104C80000021CDE90801C5F3025002280DD001CF63
:104C9000C117031E71F100030DDA4FF0000CD0EBC9
:104CA0000C006CEB01012D2308E0FF1D27F0070726
:104CB000F7E80201EDE72B0504D52B238DF828300A
:104CC00001233BE0EB0739D02023F7E70A2000E07F
:104CD00010200021CDE9080107E01020002145F057
:104CE0000405CDE908014FF00808C5F30250022879
:104CF0000FD001CF00214FF0000A2B071FD5702ADB
:104D00000DD0DDE908C38CF0100C5CEA030C0CD06C
:104D100015E0FF1D27F00707F7E80201EBE7402247
:104D20008DF828204FF0010A0BE050EA010306D06D
:104D300030238DF828308DF8292002239A46582AEE
:104D400004D024A20DF120090B9209E026A2F9E774
:104D5000DDE90823FBF7E0FA0B9B9B5C09F8013DBA
:104D600050EA0102F4D1ADEB090020300890680749
:104D700001D44FF001080899884502DDA8EB010035
:104D800000E000208046002506E00AA85A46405D63
:104D90000F9990476D1C761C5545F6DB04E03020DA
:104DA0005A460F999047761CB8F10001A8F1010806
:104DB000F5DC05E019F8010B5A460F999047761C6F
:104DC0000899481E08900029F4DC641CC5E6000020
:104DD00009280100303132333435363738396162D1
:104DE0006364656600000000303132333435363795
:104DF0003839414243444546000000002DE9FC5F3C
:104E000004468B4615461E46DDE90C9ADDE90E7810
:104E100004F114004060006000BF1C346560A660AF
:104E2000C4F80C90C4F810A02321D4E9030203F0C5
:104E3000DFFDD4E9033C63441A1F0F4BD4E90101A1
:104E400003F02CFC2060A77667760020E061C4F8B0
:104E50002080C4F82480606120766065A0651C3CD9
:104E600000902346054A2146019004F1440004F0D5
:104E7000FDFA0020BDE8FC9F85900008D99200084B
:104E80002DE9F04704460E4617469846DDF8209077
:104E900084F80990607A20F001006072E661276270
:104EA0000020A062C4F82480002506E004F114016B
:104EB00001EBC50003F0A4FC6D1C012DF6DBBDE881
:104EC000F08710B50246002001460EE002F11403FF
:104ED00003EBC100D0E900436360D0E900342360F4
:104EE0004060006000BF481C01460129EEDB10BD98
:104EF00030B593B000210120FFF764FC0022114679
:104F00001046FFF7FBFC00210120FFF745FD4FF4A1
:104F10009071002002F0ACFE044640F2FF11002028
:104F200002F0A6FE05460FA1684601F0EDFB214602
:104F3000684601F06EFD0EA12846FBF73CFA04F12D
:104F40001A012846FBF72BFA284604F021FF2146D8
:104F5000002002F07BFE2946002002F077FE13B00D
:104F600030BD0000303A2F4D55534943000000003A
:104F7000303A2F4D555349432F00000010B5032000
:104F800002490874FEF712F810BD00004017002017
:104F900010B5002002490874FEF714F810BD000097
:104FA000401700202DE9F04704460D4690469946EB
:104FB000AD1EE06A00EB153AC5F3C80605F007011F
:104FC00001208840C7B200BF51460AF1010A2046BD
:104FD00002F061FD10B10120BDE8F08700BF00BF05
:104FE00004F13400805D384008B1012000E0002069
:104FF000484501D10220EFE704F13400805D78409C
:1050000004F1340188550120E070A8F10100B0F1ED
:10501000000800D1E0E77806000E071EE0D1012766
:10502000701C0646B0F5007FD9D3CDE770B50446B5
:105030000D460020E070401E20632946204602F005
:105040002AFD08B1042070BD04F2322002F041FCB8
:105050004AF65521884201D00320F4E704F16A00A2
:1050600002F0FAFB20F07F400D49884201D1002078
:10507000E9E704F1860002F0EFFB20F07F400849E9
:10508000884201D10020DEE7082206A104F13700A2
:1050900002F0D9FC08B90120D5E70220D3E70000CF
:1050A000464154004558464154202020000000004D
:1050B000024600E0521C107810B110788842F9D1F5
:1050C000107870472DE9F84F824615461E46DAF8EB
:1050D00000000090DAF8480000F104094FF4007273
:1050E000002328463146FBF717F907460098B0F829
:1050F0000AC0624600233846FBF70EF9834600BF1C
:1051000059F8044B14B90020BDE8F88FA34500D22C
:1051100004E0ABEB040B09F10409F1E700BFD9F897
:1051200000005844F0E70246891E9069801E8842BC
:1051300001D8002070475389D06A01FB0300F9E7CA
:105140002DE9F04780460C4604F11A0002F0C1FB3D
:1051500010B10020BDE8F087207800F03F00401E2D
:1051600000EB800101EBC0054FF00109002621E0B2
:105170001849895D081902F0ACFB0746B9F1000F28
:1051800011D0FF2D0BD2384601F0A2FD82462946F0
:105190006D1C38F8110001F09BFD824501D0002004
:1051A000D8E7B94605E04FF6FF70874201D00020EE
:1051B000D0E7761C0D2EDBD3207800F0400038B10C
:1051C000B9F1000F04D038F8150008B10020C1E78C
:1051D0000120BFE7A4A400082DE9F04707468A464E
:1051E0003C68BAF1000F06D1266916B1A069B04239
:1051F00017D8012615E05146384602F027F98046B7
:10520000B8F1020F02D20120BDE8F08708F10100D9
:1052100008B94046F8E7A069404501D94046F3E7A0
:105220005646207804282ED101223146204601F02E
:1052300086FD05460DB1681C08B92846E4E7012340
:105240001A4629462046FFF7ADFE8146B9F1020F06
:1052500001D10120D8E7B9F1010F02D14FF0FF30A1
:10526000D2E7BAF1000F02D10220F8712CE0F879F0
:10527000022829D1701C854226D0B868301AB8613E
:105280000320F87120E0354600BF6D1CA069A842DC
:1052900004D80225B54201D90020B5E72946384691
:1052A00002F0D4F88046B8F1000F00D10BE0B8F15D
:1052B000010F02D008F1010008B94046A4E7B54249
:1052C000E3D10020A0E700BF2078042805D1F879B9
:1052D000022802D14FF0000912E04FF0FF322946B8
:1052E000204602F02FFE8146B9F1000F08D1BAF135
:1052F000000F05D02A465146204602F023FE814683
:10530000B9F1000F0DD12561D4E90510801E81424D
:1053100002D26069401E6061207940F00100207176
:1053200007E0B9F1010F02D14FF0FF3000E001209A
:105330000546284668E700002DE9F34F83B0814613
:10534000049800680190D9F840A000200646054660
:1053500000BF28466D1C01990C5C202C03DB2F2C10
:1053600001D05C2C0AD100E06D1C0198405D2F2813
:10537000FAD00198405D5C28F6D032E0FF2E03D3CE
:10538000062005B0BDE8F08FE4B2812C13DBE0B25B
:10539000FE2810DC28466D1C01990F5C07EB0420E9
:1053A00084B2402F01DB7E2F05DD802F01DBFE2F35
:1053B00001DD0620E5E70121204601F02FFC04462F
:1053C0000CB90620DDE7802C06DA214671A0FFF734
:1053D0006FFE08B10620D4E73046761C2AF810404C
:1053E000B7E700BF0198411904980160202C01DA49
:1053F000042000E00020804608E0701E3AF81040CB
:10540000202C02D02E2C00D002E0761E002EF4D1EB
:1054100000BF00202AF816000EB90620B1E70B22C3
:105420002021D9F8380002F02DFB002500E06D1C8A
:105430003AF815002028FAD03AF815002E28F6D0B0
:105440000DB148F0030800E0761E26B1701E3AF850
:1054500010002E28F8D10020074602904FF0080BCC
:1054600000BF28466D1C3AF8104004B963E0202CB8
:1054700003D02E2C04D1B54202D048F00308F0E747
:105480000298584501D2B54214D1BBF10B0F02D19D
:1054900048F003084FE0B54201D048F00308B54298
:1054A00000D948E03546082002904FF00B0BB806B3
:1054B000070ED6E7802C09DB204601F009FC00210D
:1054C000009001F0ABFB044648F00208FF2C11DD10
:1054D000ABF101000299884204D848F00308CDF8E6
:1054E00008B0BEE72212D9F838300298411C029168
:1054F0001A5419E024B1214629A0FFF7D9FD18B1AB
:105500005F2448F003080FE0412C04DB5A2C02DC36
:1055100047F0020708E0612C06DB7A2C04DC47F038
:105520000107A4F1200084B2D9F838300298411C58
:1055300002911C5495E700BFD9F838000078E5289F
:1055400003D10520D9F838100870BBF1080F01D13C
:10555000B806070E07F00C000C2803D007F0030074
:10556000032801D148F0020808F0020058B907F0FA
:105570000300012801D148F0100807F00C000428AE
:1055800001D148F00808D9F8380080F80B800020D5
:10559000F7E60000222A3A3C3E3F7C7F00000000F4
:1055A0002B2C3B3D5B5D00002DE9F04704460E4689
:1055B00040220021204602F065FA85202070C0209C
:1055C00084F82000304604F030FD8246514604F154
:1055D000240004F00BFA402500274FF001084FF09B
:1055E000010900BFC12228466D1C22540022284612
:1055F0006D1C225400BFB9F1000F06D036F8170019
:10560000B0F1000901D0781CC7B26019494604F016
:10561000EDF9AD1C05F01F000028ECD108F10100E8
:1056200000F0FF0836F817000028DBD184F823705B
:1056300084F80180BDE8F0872DE9F04104460E466C
:10564000D4F800800021204600F01CFB05465DBB1D
:10565000002700BF4046216B02F01DFA054605B148
:1056600021E098F80000042805D1606B0078012142
:1056700021EAD01009E0606B0078E52802D0606B69
:10568000007808B9012000E0002020B1781C07460E
:10569000B04201D107E000270121204600F0DAF8EE
:1056A0000546002DD6D000BF042D00D10725284681
:1056B000BDE8F0812DE9F04F85B004462668002151
:1056C000204600F0DFFA07461FB1384605B0BDE8B6
:1056D000F08F307804284CD1206C04F0A6FC0190A7
:1056E0003EE0F16801F1240002F0F3F801998842EC
:1056F00000D035E0F06890F8230003904FF0400AA6
:10570000002002901FE00AF01F0008B90AF1020A07
:10571000F16801EB0A0002F0DCF8009001F0D8FA21
:105720008346226C029932F8110001F0D1FA8345C8
:1057300000D00BE00398401EC0B203900AF1020AA9
:105740000298401C029003980028DCD100BF039807
:1057500028B9216C029831F8100000B906E000BFAA
:105760000021204600F006F9071EBAD000BF3846D7
:10577000ACE74FF0FF09CDF810904FF0FF30E06339
:1057800000BF3046216B02F086F9074607B15EE0A4
:10579000606B05780DB9042759E0606BC07A00F0A2
:1057A0003F0884F80680E52D05D008F0080040B1D8
:1057B000B8F10F0F05D04FF0FF094FF0FF30E06355
:1057C0003EE0B8F10F0F1FD1206C98B305F04000F8
:1057D00038B1606B407B049025F04005A946A06A73
:1057E000E0634D450CD1606B417B0498814207D149
:1057F000616B206CFFF7A4FC10B1A9F1010000E07F
:10580000FF2000F0FF091BE0B9F1000F06D1606B2B
:1058100004F029F90499884200D118E0A06BC07AFD
:1058200000F0010038B90B22D4E90D0102F00BF9A8
:1058300008B90CE004E04FF0FF094FF0FF30E063DF
:105840000021204600F006F80746002F99D000BF3F
:1058500038463BE72DE9F047044689462568A06AAB
:1058600000F12007206B40B12878042801D1800680
:1058700001E04FF40010B84202D80420BDE8F087E0
:10588000C7F3080000286CD1206B401C2063E06A3D
:1058900038B92889B0EB571F63D800202063042053
:1058A000ECE76889401E00EA5720002859D12046BD
:1058B000E16A01F0CBFD0646012E01D80220DDE7AA
:1058C000701C08B90120D9E7A869B04243D8B9F1E2
:1058D000000F03D1002020630420CFE72046E16AB7
:1058E000FFF77AFC06460EB90720C7E7012E01D163
:1058F0000220C3E7701C08B90120BFE7E07940F03F
:105900000400E071284604F007F908B10120B5E76A
:105910004FF40072002105F1340002F0B3F84FF0AB
:10592000000831462846FFF7FEFB28630CE0012003
:10593000E870284604F0F0F808B101209EE708F16D
:105940000108286B401C286368894045EFD8286B04
:10595000A0EB08002863E66231462846FFF7E3FB28
:105960002063A762C7F3080105F1340008446063AF
:10597000002083E72DE9F05F04460F460426D4F8A3
:1059800000804FF0FF0AD3466CE04046216B02F0E6
:1059900082F8064606B168E0606B05780DB904260A
:1059A00063E098F80000042813D117B1832D52D179
:1059B0005BE0852D4FD1A06AE063204601F0ADFF8A
:1059C00006462EB9D8F80C00007900F03F00A0710F
:1059D0004BE0606BC07A00F03F0984F80690E52D3B
:1059E0000AD02E2D08D029F02000082801D101204E
:1059F00000E00020B84202D04FF0FF0A2BE0B9F1DE
:105A00000F0F1CD105F0400038B1606B90F80DB05D
:105A100025F04005AA46A06AE06355450BD1606BAE
:105A2000407B584507D1616B206C02F03FF910B103
:105A3000AAF1010000E0FF2000F0FF0A0BE0BAF13C
:105A4000000F04D1606B04F00EF8584502D04FF0FF
:105A5000FF30E06309E000212046FFF7FBFE064629
:105A600006B102E0206B00288FD100BF0EB10020EC
:105A700020633046BDE8F09F2DE9F04F99B0044611
:105A80002668D4F838A0D4F840B09AF80B0000F09B
:105A9000A00018B1062019B0BDE8F08F4FF0000942
:105AA00001E009F101093BF819000028F9D130782B
:105AB00004285DD109F10E000F21B0FBF1F0871C25
:105AC00039462046FFF7B8FD05460DB12846E2E706
:105AD000781E2022A16A02FB1010E063E07900F03A
